:020000040000FA
:060000000219FD020319C4
:03000B0002008D63
:03001300020532B1
:03001B0002009050
:03002B000202CE00
:03005B000205415A
:030073000203067F
:100080000406080C10182030406080A0C0054032E3
:10009000C2AFC2A853E6EFC28E856B8BC0D0D2D35D
:1000A000C0E0C0F0C2CAA8CCA9CDD2CAD2AF758A6E
:1000B00000C3E8956CF8E9956DF9C3E913F9E81305
:1000C000F8E5666007C3E913F9E813F8E97025E875
:1000D000956E4020956E501CE582B410177C007B15
:1000E000007A007908900000A86AE5667004C3E809
:1000F00013F801FD900000D2A8D2AA61E4E0FDC38C
:100100009CC39840EF98EB33FB0582E0FCC39DC392
:100110009840E198EB33FB0582E0FDC39CC3984017
:10012000D398EB33FB0582E0FCC39DC39840C59890
:10013000EB33FB0582E0FDC39CC39840B798EB33DB
:10014000FB0582E0FCC39DC39840A998EB33FB05F7
:1001500082E0FDC39CC398409B98EB33FB0582E093
:10016000FCC39DC398408D98EB33FB0582217890AA
:100170000000D2A8D2AA61E4E0FDC39CC39840EF7E
:1001800098EA33FA0582E0FCC39DC39840E198EAFF
:1001900033FA0582E0FDC39CC39840D398EA33FA52
:1001A0000582E0FCC39DC39840C598EA33FA0582F6
:1001B000E0FDC39CC39840B798EA33FA0582E0FC9F
:1001C000C39DC39840A998EA33FA0582E0FDC39C19
:1001D000C398409B98EA33FA0582E0FCC39DC3981C
:1001E000408D98EA33FA0582EBC46B6A54F0F9EA61
:1001F000C454F0C3996009900000D2A8D2AA61E467
:10020000EBF4C454F0F9EAF4C4540E49FAEBF4C424
:10021000540FFBC3EAF99460FAEB9400FB501DC342
:10022000E97B007A007900601303F9C39552600AF4
:10023000E9F552755300790080020553303A27C31F
:10024000EA94D0F8EB9407F9400BE8FAE9FB203583
:1002500009D235415A303502C235203902B235C390
:10026000EA33FAEB33FBEB2B3B3BF9C3EB13FBEA33
:1002700013FAEA29FAEB3400FB30E3047AFF7BFF40
:10028000E5255403601B202A18E55D33F9EB700760
:10029000C3E99A4002E9FAE53CC4332AFAEB340098
:1002A000FBC3EA33C4540FF8EB33C454F048F8707E
:1002B00005EA60027801900000D2A8D2AAE5226087
:1002C00002152281D1900000D2A8D2AA61E4C0D048
:1002D000C0E0C2CF0541E5666009E565600575656A
:1002E000006101756501E52360021523C3E55460D3
:1002F000057555006101E5552401F5555003755507
:10030000FFD0E0D0D032C2AF53E67F7592FA75933A
:10031000FFC22053917FD2AF32C0E0E58A3034086B
:10032000856B8BF0A3D0E032D0E0C2AF53E6EFC0D4
:10033000D0C0E0C0F0D2D3D2AF5388EFA88AA98C46
:10034000AA40308D010A758A00758C007540004303
:100350008810E566700AC3E833F8E933F9EA33FA3E
:1003600030331FE8C4540FFAE9C454F04AFAC313F7
:100370002AFAC3E833F8E933F9E82AFAE93406FB44
:1003800061D530320FC3E833E933FAE82AFAE934A9
:1003900000FB61D5303115E875F056A4AAF0E97577
:1003A000F056A42AFAC5F03400FB61D5C3EA13FA6B
:1003B000E913F9E813F8E875F056A4AAF0E975F026
:1003C00056A42AFAC5F03400C313FBEA13FAC3EBB0
:1003D00013FBEA13FAC3EB94125009C3EA9434EB0B
:1003E000940750160522E52270021522C3E52294D7
:1003F000325002A125755400A128E5226002152281
:100400003036067C007D088114AC31AD32303A04C0
:10041000AC33AD34C3EA9CFAEB9DFB9208AE60AFFF
:1004200061303A425007203509D2358132303502E9
:10043000C235303504AE62AF63203902B235C3EA4B
:1004400033FAEB33FBA208500AEAF42401FAEBF486
:100450003400FBC3EA9450FAEB9400FB501478008C
:100460007A007B008172A208500878007A007B0035
:1004700081D1E5255403601B202A18E55D33F9EB93
:100480007007C3E99A4002E9FAE53CC4332AFAEB63
:100490003400FBEA8EF0A4F9AAF0EB8EF0A42AFA5D
:1004A000C5F03400FBC3EB13FDEA13F8C3ED13FDF5
:1004B000E813F80FEF146004C3E833F8C3E933EA34
:1004C00033FAEB33FBDFEDEB30E30678FF7AFF7BAB
:1004D000078854D230E86003755500C3E55BFC958E
:1004E0005C4002AC5CC3EC95545008EC75F008A479
:1004F000FAABF0EAF4F8EBF45407F9C3E8948CFA99
:10050000E99400FB50047A007B00885689578A588A
:100510008B5975230AD0F0D0E0D0D053F7DF43F7E2
:100520004043E6103275230AD0F0D0E0D0D043E645
:100530001032C2AAD28EC2CA85CC6C85CD6DD2CA09
:1005400032C2AFC0D0C0E0D2D3A8F9E55A30E20A37
:10055000E5FA20E23520E132A162E5FA30E22B2013
:10056000E128C3E55713F8E55613F5FB88FCC3E50E
:100570005913F8E55813F5E988EA85575A53F7BF38
:10058000D2A8303402D2AA53E6EF53F7DFD0E0D03E
:10059000D0D2AF327901801479038010790A800CAF
:1005A000791E80087964800479C880007817E4D5C2
:1005B000E0FDD8FAD9F62278FF20282879A1E76053
:1005C00023E548601F74FF8548F084853FF030299B
:1005D0000375F005A4F8C5F0600278FFC3E8955DE7
:1005E0005002A85D885C22C3E54794A0E5489400CA
:1005F000E55C500314A1F8046002F55C2275E890F4
:1006000022055EC3E55E9408405330EDF4A8BDA911
:10061000BE755E00E9FA79A0E76041EA7006E55F21
:100620006018800CC3E8955F600EE55F5005600AB6
:100630001480070460FA8002E55FF55FC3956940A6
:100640001B755BC0C394044013755B80C394044066
:100650000B755B40C394044003755B0022E55B248B
:1006600010500274FFF55B22743279A687F0A4C59E
:10067000F0A2F733F8C3E8955B4002A85B885D22DF
:100680007547007548F022C2AFC2CAA8CCA9CDAA4E
:100690004130CF010AD2CAD2AFC3EA13FAE913F943
:1006A000E813F8AB42AC4388428943C3E89BF8E9BE
:1006B0009C20280A547FF9302C02E1A5C1FEAD44EC
:1006C0008A44F9EA9D547FFA600678FF79FFC1E316
:1006D000AE45AF468B458C46A842A943C3E89EF879
:1006E000E99FF9C3E54813FBE54713FAE82AF54704
:1006F000E93BF54850067547FF7548FFE14BAA47AF
:10070000AB48AC47AD487E047F02C3EB9404400D78
:100710001E1FC3EB940840052029021E1FC3ED13C2
:10072000FDEC13FCDEF7C3EA9CFAEB9DFBEF6009DE
:10073000C3E913F9E813F8DFF7EA28FAEB39FB8A83
:10074000478B4850067BFF8B478B48C3EB94025086
:1007500002D22C3028047F03E1767892E6FFC3E5CD
:100760003D948240110FC3E53D94A040010FC3EFBB
:10077000940640027F057E02E548C4540FF9E5481F
:10078000C454F0F8E547C4540F28F8C3E89EFAE9CA
:100790009400FB4009C3EA9401EB940050047A01F1
:1007A000E4FB0207F1AA47AB48EBC4FEEAC4540FCE
:1007B0004EFCC3EA9CFAEB9400FBC3E813C313F8A6
:1007C000EA28FAEB3400FB8A478B48C3EB940240DB
:1007D00002C22C7802EBC4FE7B00EAC4540F4EFA2E
:1007E000C3EA98FA4005C3940150027A017892E670
:1007F000FF302002E1F1854E92854F93D22043E6EF
:1008000080C3E49AF8E49BF9C3E833F8E933F9309C
:100810002C03020886E8FAE9FBD3E913FDE813FC90
:10082000884E894FC3EF94036038EF20E00CE82C2A
:10083000F8E93DF9ECFAEDFB8013E828F8E939F91D
:10084000C3E82401F8E93400F97AFF7BFFC3EF9491
:1008500003400F8A508B51884A894B8C4C8D4D0236
:1008600008BB885089518A4A8B4B8C4C8D4D30285F
:10087000127550F07551FF754CF0754DFF754EF0C7
:10088000754FFF0208BBE8FAD3E813FC884EC3EFAC
:1008900094036021EF20E007E82CF8ECFA01A6E8C9
:1008A000282401F87AFFC3EF940340098A50884A4C
:1008B0008C4C0208BB88508A4A8C4C30200201BB09
:1008C000753A02D22043E680E5255403602DA847FF
:1008D000A948C3E913F9E813F8302804E92440F9DA
:1008E000C2AF53E67F759100C3E498F594E499F59F
:1008F00095759104D22043E680D2AF22D22175496A
:1009000000752000302B03752040211AD221754933
:1009100000752040302B0375200078017901202CD0
:1009200020E52554036002C2217914E548C3137001
:100930000104F8C3941440027814302804781B7919
:100940001BC3E833F8C3E933F9202010E549600CF4
:10095000302803D53A04D22321CD11C30549E59BA4
:100960005440B5200221B730280908C3E899400156
:1009700018214920210A08C3E8994002211A214977
:10098000C22153E67F759100302C11759400759546
:10099000F0759104D22043E68002091AE5487EFFF3
:1009A000C3334009C3334005C3334001FEC3E49E53
:1009B000759400F5952191C3E53994015002211AEF
:1009C000302102211AD80221CB2149C223C2AF53C0
:1009D000E67F759100855094855195759104854AFF
:1009E00092854B93D22043E680D2AFE52554036035
:1009F000072029020539801030230D202B0A2021E1
:100A000007158115810216A822780030210278018D
:100A1000E53D75F007A4F9E5F028F5F0E9A2F0133B
:100A2000A2F113A2F213F53DC394785003753D78FB
:100A3000C3E53D953E400ED222C286C290C2927559
:100A4000D4FF75D50F3020024145854C92854D93DA
:100A5000D22043E68022203813C2AFC291D28775DC
:100A6000D4FF75D503D2AF759F42614AC2AFC29120
:100A7000D29375D43F75D50FD2AF759F42614A208E
:100A80003813C2AFC29275D4FF75D50CD287D2AFDE
:100A9000759F52614AC2AFC28675D4FF75D50CD21C
:100AA00093D2AF759F32614A203813C2AFC287D24A
:100AB0009375D4FF75D50CD2AF759F32614AC2AF22
:100AC000C293D28775D4FF75D50CD2AF759F528073
:100AD00079203813C2AFC29075D43F75D50FD29329
:100AE000D2AF759F428063C2AFC29075D4FF75D5F7
:100AF00003D287D2AF759F428050203813C2AFC255
:100B000093D29175D43F75D50FD2AF759F52803A6D
:100B1000C2AFC287D29175D4FF75D503D2AF759F8E
:100B2000328027203813C2AFC28675D4FF75D50333
:100B3000D291D2AF759F328011C2AFC29275D43FAD
:100B400075D50FD291D2AF759F52C22222203E6836
:100B50007A147BC88019203E697A107B8C80102023
:100B60003E6A7A0D7BB48007203E6B7A0B7BC830DF
:100B70003F01227902E4C291D5E0FDD290D5E0FD9B
:100B8000C290D5E0FDD291D5E0FDE920E002D28609
:100B900030E002D292E564D5E0FDE920E002C286B1
:100BA00030E002C2927496D5E0FDD9C9EAF8D5E0EA
:100BB000FDD8FBDBBEC291227A507C507B057D14B0
:100BC00080407A327C287B147D2880367A3C7CB445
:100BD0007B047D0A802C7A967C327B027D1E8022EB
:100BE0007A647C287B057D0F80187888E614D23CD7
:100BF0007AC87C327B037D3C80087AC87C507B05B8
:100C00007D46303F0122EBF8303C15203D091CECBD
:100C1000B40112B23D800E0CECB43209B23D800535
:100C20001CEC70010CECC0E0E8C0E0EDC0E0303B33
:100C30000FD291D286E564D5E0FDC286C291800DC7
:100C4000D291D292E564D5E0FDC292C291B23BD07E
:100C5000E0FDFED0E0F8D0E0FCF97464D5E0FDDE04
:100C6000F9744BD5E0FDD9F9203BBAD8B8DA0122A6
:100C7000DA9422C286C290C292C287C291C2937590
:100C8000D4FF75D50F22788076FF0876FF0876FFAF
:100C90000876FF0876FF0876FF0876090876FF08D1
:100CA0007601788C76010876FF0876FF0876FF08D3
:100CB00076FF0876FF0876030876FF0876FF087649
:100CC000FF08760A0876F008765008765008760312
:100CD0000876FF0876020876FF08767D0876FF081A
:100CE00076060876010876FF0876FF087600087613
:100CF0000022FA75F00CA4ABF0EAC333F8740133A8
:100D0000F9E8C333F8E933F9E8C32BF8E93400F91B
:100D1000E8C333F8E933F9227888E6C39403D23A7A
:100D20005002C23AC238E630E102D238A2389239D3
:100D30007886E6149000809378A6F67886E6F53FEC
:100D4000C394025003753F02789CE6753EFFB402DF
:100D500003753EA0B40303753E8278A0E6F86006F2
:100D600074282409D8FCF5697896E691F2883189CF
:100D700032789EE691F2883389347897E691F2884A
:100D80003589369173223036117A007B007CFF7DE5
:100D9000007E00B1EC8B618A6022303A227896E6C0
:100DA000FA7B00789EE6FC7D00C3EA33FAEB33FB66
:100DB000C3EC33FCED33FD7E0AB1EC8B638A6278C1
:100DC00096303A02789EE6FA7B007897E6FC7D0042
:100DD0007E00303A10C3EA33FAEB33FBC3EC33FC4A
:100DE000ED33FD7E0AB1EC8B618A6022C3EC9EFC80
:100DF000ED9400FDC3EC9AFCED9BFDC3EC9423ED58
:100E0000940050047C237D00C3EC94FFED940140DA
:100E1000047CFF7D017BFF0B7A000AEA7009C3ECBA
:100E200033FCED33FDC117EC8AF0A4AEF0ED8AF08F
:100E3000A42E947C40E4EAF460DD22D236B186121E
:100E400005A01205A07A007B007C10120598E554DD
:100E50002AFA74003BFBDCF37C04C3EB13FBEA13BC
:100E6000FADCF7FFEB60027FFFC236B1862278A57D
:100E7000E6F954037000E9540C7000E95430700036
:100E8000E954C07000227ADC7B367C02E10C7A3AAD
:100E90007B1D7C02E10C7A3E7B047C02806E7AA48E
:100EA0007B067C0380667ADE7B6E7C02805E7A84C1
:100EB0007B2B7C0380567A847B1D7C02804E7A5883
:100EC0007BAC7C0280467A627B6E7C02803E7A41FB
:100ED0007BB67C0180367A497B8C7C01802E7A92AD
:100EE0007B8C7C0180267A4E7B797C01801E7A5235
:100EF0007B677C0180167AA47B677C01800E7A5721
:100F00007B567C0180067AC47B377C01ECC0E0D242
:100F100091D286E564D5E0FDC286C291D0E0FCF9AD
:100F2000EBFD7817E4D5E0FDD8FAD9F6741ED5E0CC
:100F3000FDDDF9DAD7221205A0740220310E04205B
:100F4000320A04203306042034027401C0E0714DDB
:100F50001205A4D0E0D5E0F42230341EE56EC3942F
:100F60001E400C941E40028011715F715F800B71F6
:100F70005671561205A4715F715F1205A4716871F4
:100F800068227567007568007597DE7597AD758185
:100F9000C043FF8075EF0675A900917375803F759A
:100FA000F1C375A4C075803F75D4FF75900075F2CC
:100FB0000F75A50F75900075D50F75A60175E340E7
:100FC00075E2029173E4F8F6D8FD91861216EB787B
:100FD000988664753001C2AF1205A8D16E1205A8BB
:100FE0001205A8E564147005D23F021217C23F949F
:100FF0005914601C14600C1460451460030212083C
:1010000002111CD23E120BEA120BEA120BEA411734
:101010001205A8120EA61205A4120EA61205A412FD
:101020000EA61205A4120EAE120EB6120EA61205D0
:10103000A4120EAE120EB6120EA6120EA641171272
:1010400005A8120F0612059C120ECE120ECE120526
:101050009C120EE612059C120EFE12059C120F0643
:1010600012059C120ECE120ECE12059C120EE61226
:10107000059C120EFE12059C120F0612059C120E04
:10108000CE120ECE12059C120EE612059C120EFE1A
:1010900012059C120F0612059C120ECE120ECE12D5
:1010A000059C120EE612059C120EFE12059C120EF5
:1010B000DE12059C120EC612059C120E8E12059CA5
:1010C000120ECE12059C120EDE12059C120EC612D6
:1010D000059C120E8E12059C120ECE12059C120E4D
:1010E000DE12059C120EC612059C120E8E12059C75
:1010F000120ECE12059C120EDE12059C120EC612A6
:10110000059C120E8E12059C120ECE12059C120E1C
:10111000FE120EFE12059C120EBE4117120E861212
:10112000059C120E8612059C12059C120EEE1205ED
:1011300098120EEE120598120EEE120598120EEE8F
:1011400012059C12059C120EC6120EC612059C12A8
:101150000EC6120EC612059C12059C120ED6120562
:1011600098120ED6120598120ED6120598120ED6A7
:1011700012059C12059C120EBE120EBE12059C1288
:101180000EBE120EBE12059C12059C120ECE12054A
:1011900098120ECE120598120ECE120598120ECE8F
:1011A00012059C12059C120E9E12059C120E9E1298
:1011B000059C12059C120E96120598120E961205A9
:1011C00098120E96120598120E9612059C12059C06
:1011D000120E86120E8612059C12059C120EC61265
:1011E0000EC6120EC6120EC612059C12059C120ED9
:1011F000BE120EBE120EBE120EBE12059C12059C31
:10120000120E9E120E9E800F120B4D1205A0120B95
:10121000561205A0120B5F1205A0C2AF75670075CC
:10122000680078FA79FA308007D9FBD8F7021C00F9
:10123000120D18120D8678988664120C7375A91316
:1012400075A71075C10075A70075660075E4007577
:101250008811758E0475890975C80475910475D84F
:101260004075D90875F782759E0375960275DA4246
:1012700075DB4275A82375E69075B801759B80757E
:101280009D0075D10C75BCB975BB1075E88075B241
:1012900001120594D2AF753C00C2301205A8C231CC
:1012A000C232C233C2347522001205A4C3E52294AF
:1012B0000A50026171D2317522001205A4C3E522E1
:1012C000940A50026171C231D2327522001205A413
:1012D000C3E522940A5002617175E48075885175E6
:1012E0008E017589AA758C00758D00C2A9D2ABD20A
:1012F000AA756B80756A14756E50C232D23475222D
:101300000A1205A4756A10C3E522940A4063758E1B
:101310000C756B00756A28756E2875220A1205A473
:10132000756A20C3E522940A4047758E0C756B8060
:10133000756A14756E1475220A1205A4756A10C3B5
:10134000E522940A755300755200402575E4007536
:101350008811758E04758909D2A9C2ABC2AAC2349C
:10136000D2337522001205A4C3E522940340024142
:101370001A12059820300302121AC2AF120F36D289
:10138000AF1205A8203403303A0302143512059831
:10139000788CE6C3940150028135E530C394015046
:1013A0000281357567A57568F17F02D236120D8608
:1013B0001205A4C2AFC236120D86C3E554947FD283
:1013C000AF4072120594C2AF120B68D2AFDFDC12CD
:1013D0000E3BC3EF7897F61205A81217D87F0AD2F2
:1013E00036120D861205A4C2AFC236120D86C3E5B1
:1013F00054947FD2AF50E6120594C2AF120B4D1237
:10140000059C120B4DD2AFDFD6120E3BEF240378B2
:1014100096F6F87997E7C394234003985006E8249A
:10142000237897F61205A8F1321218071205A412B4
:101430000D8602121A7567007568001205A4C3E5CF
:1014400054940140026184C2AF1205A4120F59D214
:10145000AF1205A8753000E4F537F5380537E537E4
:10146000F4703F0538789AE67819146012783214CF
:10147000600D787D14600878FA146003753800C335
:10148000E53898401D120C73120594153875370015
:1014900078998664C2AF120BE0D2AF789886641256
:1014A00005A412059CE5237002411AC3E55294017C
:1014B0005011C3E554940140A31205A4E5237079AB
:1014C00002121AE55294017005120B4D8063E55229
:1014D00094027005120B568058E552940370051261
:1014E0000B5F804DE55294047005120B688042E555
:1014F0005294057005120BE08037E5529406700B8C
:10150000E553C3940A5030C2388026E552940770E0
:1015100009E553C3940A501FD238E552940C701158
:1015200020380B7888E6F4F6F8F132121807120B1F
:101530006875520075530081ABC2AF120C73E4D2D0
:10154000AFE4F55EF524F525F53D755E08120594CA
:101550001205FD30EDFDA8BDA9BEE97001F8885F58
:10156000120601755E08C2AF755BFF120668855DE5
:101570005B855D5CD2AF75A71075C13075A700752E
:10158000A903756601303A07C238303502D238D225
:1015900028753900120AFA120B23120680120687E8
:1015A00012068012068712068012090C120A09120E
:1015B0000A561206871208FC202C031205B7302C9D
:1015C000031205E7120A09120A7F12068712090C94
:1015D000120A09120AA81206871208FC120A091236
:1015E0000AD112068712090C120A09120AFA120607
:1015F000871205FD1208FC120A09120B23120601BC
:10160000120687302827855D5B79187A0CC3E53987
:1016100099400EC228D2298A3B855D5B855D5C803E
:101620000CC3E554940140030215A9C1B030291F31
:10163000202B1CE53B147006C229D22AA1A9F53B38
:10164000C3E554940140030215A9203A0280617554
:101650003C0078FA79A4E760027803C3E555985016
:101660004FE523604B303A17203805203507800FAF
:10167000303502800A202B07D22B855D5BA1D978FB
:10168000F0302B05855D5B7820C3E5489850030258
:1016900015A9302B1BC22BC238303502D238D229C3
:1016A000753B12855D5BA1A9053CE5546002C1B3A1
:1016B000753C00C2AF120C7375240075250075A926
:1016C0001375A71075C10075A700756600D2AF121B
:1016D00005A4120C7378A4E66006D287D291D29347
:1016E000C3E53C94044002411A8157901A0D7820BA
:1016F000F16BE520B4550AA3F16BE520B4AA028092
:10170000137567A57568F1120C86F132756700755F
:101710006800801D901A0378807B0AF16BA308DBB8
:10172000FA901A0F788C7B1AF16BA308DBFA901AE7
:101730002922C2AFF1AEF18B901A007410F170A3A0
:101740007442F170A37421F170901A0378807B0ABF
:10175000F16FA308DBFA901A0F788C7B1AF16FA354
:1017600008DBFAF1C1F19F901A2922E493F622E6F0
:10177000438F01538FFDFFC3E583941C400122EF8B
:101780008567B78568B7F0538FFE22438F02438F7A
:10179000018567B78568B7901A0DF0538FFC2290CA
:1017A0001A0D7455F170901A0E74AAF170227A30E5
:1017B00079D07820901A40F16BE520F709A3DAF789
:1017C000227A3079D0901A40E7F17009A3DAF92231
:1017D0007C051205A8DCFB22C2AF120B4D120B5682
:1017E000120B5F120B6812059C120B4D120B561256
:1017F0000B5F120B6812059C120B4D120B56120B4D
:101800005F120B68D2AF22C2AF120B68120B5F12CD
:101810000B56120B4D12059C120B68120B5F120B2C
:1018200056120B4D12059C120B68120B5F120B56D1
:06183000120B4DD2AF22A5
:1019FD00020F82104221FFFFFFFFFFFF09FF01FFD2
:101A0D0055AA01FFFFFFFFFF03FFFFFF0AF0505034
:0D1A1D0003FF02FF7DFF0601FFFF0000FF39
:101A400023435F485F3730232020202020202020A0
:101A500023424C48454C492445464D3842323123B7
:101A600031362E36365F6473686F74746573742014
:101C0000C2AFC2D37597DE7597AD7581C075A90057
:101C100043FF80752438752503B1DB7529A5752A26
:101C2000F143F10153A4FED28075D4FF75E3407DEA
:101C3000FA780379E67C10752200752300901DE880
:101C40007B06752498752501308002814820800824
:101C5000D8FBD9F9DCF781BA308008D8FBD9F9DC98
:101C6000F781BAB19BE493A3C39A6004DDC381BA40
:101C7000DBDBB18D600281317B08E493FAA3B16EA6
:101C8000DBF87A30B16E752200752300B18DEAFC65
:101C9000EBFDC3ED94FE400EB18D8A278B28ED300D
:101CA000E0048A828B83B18D7AC270D8C3ED94FE32
:101CB000601950CEBD0029EC600F7520007521FF22
:101CC000752900752A000200008100A827A92808AC
:101CD00009D804D90281DDB191EAF281D10D81A642
:101CE000C3ED94035051EDA2E092007AC5C3E582A2
:101CF0009400E583941C508C200010438F02438F86
:101D0000018529B7852AB7F0300027A827A9280818
:101D100009438F01538FFDD804D902A132C3E58353
:101D2000941C4003A3A117E28529B7852AB7F0A325
:101D3000A117538FFC81827AC1BD030CE493A3FAEF
:101D4000B152DCF8B14A81828184AA22AB23B16E00
:101D5000EBFAEA6222752608C3E52313F523E52290
:101D600013F52250066323A0632201D526EAB1DBD6
:101D7000B1DB75260AEAF4200102D280300102C2EA
:101D800080B1DBC3134002C201D526EB22B191EA38
:101D9000FB208002A191308002A196752608AE2416
:101DA000AF25C3EF13FFEE13FEB1DFB1DBC3EA13C0
:101DB0003080024480FA30E703632201C3E5231335
:101DC000F523E52213F52250066323A0632201D5F3
:101DD00026D9E52265236523F52222AE24AF250E00
:101DE0000FDEFEDFFCD20122424C48656C693437BD
:061DF0003164E8B20601B7
:00000001FF
