:020000040000FA
:060000000219FD02030DD0
:030013000204FEE6
:03001B0002008D53
:03002B000202D2FC
:03005B0002050D8E
:030073000202FA8C
:100080000406080C10182030406080A0C0C2AFC227
:10009000A853E6EFC28E856B8BC0D0D2D3C0E0C030
:1000A000F0C2CAA8CCA9CDD2CAD2AF758A00C3E823
:1000B000956CF8E9956DF9C3E913F9E813F8E5666D
:1000C0006007C3E913F9E813F8E97025E8956E4075
:1000D00020956E501CE582B410177C007B007A00DE
:1000E0007908900000A86AE5667004C3E813F80177
:1000F000FA900000D2A8D2AA61B7E0FDC39CC398D1
:1001000040EF98EB33FB0582E0FCC39DC39840E1D0
:1001100098EB33FB0582E0FDC39CC39840D398EB7A
:1001200033FB0582E0FCC39DC39840C598EB33FBCD
:100130000582E0FDC39CC39840B798EB33FB058272
:10014000E0FCC39DC39840A998EB33FB0582E0FD1A
:10015000C39CC398409B98EB33FB0582E0FCC39D96
:10016000C398408D98EB33FB05822175900000D237
:10017000A8D2AA61B7E0FDC39CC39840EF98EA33C8
:10018000FA0582E0FCC39DC39840E198EA33FA0582
:1001900082E0FDC39CC39840D398EA33FA0582E01D
:1001A000FCC39DC39840C598EA33FA0582E0FDC3BD
:1001B0009CC39840B798EA33FA0582E0FCC39DC31C
:1001C0009840A998EA33FA0582E0FDC39CC39840A1
:1001D0009B98EA33FA0582E0FCC39DC398408D9852
:1001E000EA33FA0582EBC46B6A54F0F9EAC454F0BE
:1001F000C3996009900000D2A8D2AA61B7EBF4C4F9
:1002000054F0F9EAF4C4540E49FAEBF4C4540FFB69
:10021000C3EAF99460FAEB9400FB501DC3E97B003C
:100220007A007900601303F9C39552600AE9F55228
:10023000755300790080020553303A27C3EA94D001
:10024000F8EB9407F9400BE8FAE9FB203509D235C1
:100250004157303502C235203902B235C3EA33FA8C
:10026000EB33FBEB2B3B3BF9C3EB13FBEA13FAEA53
:1002700029FAEB3400FB30E3047AFF7BFFE52554D9
:1002800003601B202A18E55D33F9EB7007C3E99A78
:100290004002E9FAE53CC4332AFAEB3400FBC3EA36
:1002A00033C4540FF8EB33C454F048F87005EA60D7
:1002B000027801C3EB13FBEA13FA900000D2A8D234
:1002C000AAE52260021522819B900000D2A8D2AA42
:1002D00061B7C0D0C0E0C2CF0541E523600215235D
:1002E000C3E554600575550041F5E5552401F55504
:1002F00050037555FFD0E0D0D032C2AF53E67F75C2
:1003000092FA7593FFC22053917FD2AF32C0E0E5DD
:100310008A303408856B8BF0A3D0E032D0E0C2AFD6
:1003200053E6EFC0D0C0E0C0F0D2D3D2AF5388EFD5
:10033000A88AA98C758A00758C0043881030331FF9
:10034000E8C4540FFAE9C454F04AFAC3132AFAC3B2
:10035000E833F8E933F9E82AFAE93403FB61A83015
:10036000320FC3E833E933FAE82AFAE93400FB61D3
:10037000A8303115E875F056A4AAF0E975F056A436
:100380002AFAC5F03400FB61A8E875F02BA4AAF0A6
:10039000E975F02BA42AFAC5F03400C313FBEA1365
:1003A000FAC3EB13FBEA13FAC3EB94095009C3EA4F
:1003B000949AEB940350160522E52270021522C38D
:1003C000E5229432500281F175540081F4E52260F7
:1003D0000215223036067C007D0461E7AC31AD3277
:1003E000303A04AC33AD34C3EA9CFAEB9DFB92087F
:1003F000AE60AF61303A425007203509D2358105F1
:10040000303502C235303504AE62AF63203902B2F6
:1004100035C3EA33FAEB33FBA208500AEAF42401AD
:10042000FAEBF43400FBC3EA9428FAEB9400FB5097
:100430001478007A007B008145A208500878007A81
:10044000007B00819BE52554036019202A16E55D99
:10045000F9EB7007C3E99A4002E9FAE53CC42AFACD
:10046000EB3400FBEA8EF0A4F9AAF0EB8EF0A42A9C
:10047000FAC5F03400FBC3EB13FDEA13F80FEF14D9
:100480006004C3E833F8C3E933EA33FAEB33FBDF44
:10049000EDEB30E20678FF7AFF7B038854D230E838
:1004A0006003755500C3E55BFC955C4002AC5CC322
:1004B000EC95545008EC75F004A4FAABF0EAF4F8AB
:1004C000EBF45403F98856895775230AE55A30E14D
:1004D00010D0F0D0E0D0D053F7DF43F74043E61020
:1004E00032D0F0D0E0D0D053D8FE43DA0143E6104A
:1004F0003275230AD0F0D0E0D0D043E61032C2AA41
:10050000D28EC2CA85CC6C85CD6DD2CA32C2AFC084
:10051000D0C0E0D2D38556FB8557FC85575A53F798
:10052000BF53DAFED2A8303402D2AA53E6EF53F713
:10053000DF53D8FED0E0D0D0D2AF32790180147929
:10054000038010790A800C791E8008796480047910
:10055000C880007817E4D5E0FDD8FAD9F62278FFF4
:1005600020282879A1E76023E548601F74FF8548AB
:10057000F084853FF030290375F005A4F8C5F060DC
:100580000278FFC3E8955D5002A85D885C22C3E550
:100590004794E4E5489400E55C500314A19F04608F
:1005A00002F55C2275E89022055EC3E55E94084082
:1005B0005330EDF4A8BDA9BE755E00E9FA79A0E755
:1005C0006041EA7006E55F6018800CC3E8955F60E3
:1005D0000EE55F5005600A1480070460FA8002E5AA
:1005E0005FF55FC39569401B755BC0C394044013FE
:1005F000755B80C39404400B755B40C39404400357
:10060000755B0022E55B2410500274FFF55B2274D9
:100610003279A687F0A4C5F0A2F733F8C3E8955B5A
:100620004002A85B885D227547007548F022C2AF82
:10063000C2CAA8CCA9CDAA4130CF010AD2CAD2AF32
:10064000AB42AC4388428943C3E89BF8E99C20282D
:1006500008F9302C02E13EC197AD448A44F9EA9D85
:10066000FA600678FF79FFC17CAE45AF468B458CBA
:1006700046A842A943C3E89EF8E99FF9C3E5481399
:10068000FBE54713FAE82AF547E93BF548500675BC
:1006900047FF7548FFC1E4AA47AB48AC47AD487E69
:1006A000047F02C3EB9404400D1E1FC3EB9408406B
:1006B000052029021E1FC3ED13FDEC13FCDEF7C35A
:1006C000EA9CFAEB9DFBEF6009C3E913F9E813F824
:1006D000DFF7EA28FAEB39FB8A478B4850067BFFA5
:1006E0008B478B48C3EB94025002D22C3028047FF6
:1006F00003E10F7892E6FFC3E53D948240110FC3FA
:10070000E53D94A040010FC3EF940640027F057EB3
:1007100002E548C4540FF9E548C454F0F8E547C46D
:10072000540F28F8C3E89EFAE99400FB4009C3EA95
:100730009401EB940050047A01E4FB02078AAA4773
:10074000AB48EBC4FEEAC4540F4EFCC3EA9CFAEB80
:100750009400FBC3E813C313F8EA28FAEB3400FB58
:100760008A478B48C3EB94024002C22C7802EBC448
:10077000FE7B00EAC4540F4EFAC3EA98FA4005C360
:10078000940150027A017892E6FF302002E18A85D6
:100790004E92854F93D22043E680C3E49AF8E49BBF
:1007A000F9302C03020818E8FAE9FBD3E913FDE855
:1007B00013FC884E894FC3EF94036038EF20E00CA0
:1007C000E82CF8E93DF9ECFAEDFB8013E828F8E9AC
:1007D00039F9C3E82401F8E93400F97AFF7BFFC353
:1007E000EF9403400F8A508B51884A894B8C4C8D73
:1007F0004D02084D885089518A4A8B4B8C4C8D4D47
:100800003028127550F07551FF754CF0754DFF751D
:100810004EF0754FFF02084DE8FAD3E813FC884EFE
:10082000C3EF94036021EF20E007E82CF8ECFA0115
:1008300038E8282401F87AFFC3EF940340098A506E
:10084000884A8C4C02084D88508A4A8C4C302002D1
:10085000014D753A02D22043E680E5255403603409
:10086000A847A948C3E913F9E813F8C3E913F9E85D
:1008700013F8302804E92440F9C2AF53E67F75919C
:1008800000C3E498F594E499F595759104D220435A
:10089000E680D2AF22D221754900752000302B03AB
:1008A00075204001B3D221754900752040302B03DB
:1008B00075200078017901202C20E5255403600281
:1008C000C2217914E548C313700104F8C39414409D
:1008D000027814302804781B791B202010E5496029
:1008E0000C302803D53A04D223215A11550549E585
:1008F0009B5440B52002214430280908C3E89940A0
:10090000011801DA20210A08C3E899400201B30165
:10091000DAC22153E67F759100302C117594007571
:1009200095F8759104D22043E6800208B3E5487E2D
:10093000FFC3334005C3334001FEC3E49E759400FA
:10094000F5952122C3E5399401500201B33021020B
:1009500001B3D802215801DAC223C2AF53E67F7532
:100960009100855094855195759104854A92854BE7
:1009700093D22043E680D2AFE525540360072029B7
:10098000020539801030230D202B0A202107158104
:10099000158102161C2278003021027801E53D7590
:1009A000F007A4F9E5F028F5F0E9A2F013A2F1139D
:1009B000A2F213F53DC394785003753D78C3E53D2D
:1009C000953E400BD222C294C295C29675D57F3017
:1009D000200221CF854C92854D93D22043E6802280
:1009E000203814C2AFC295C291D294D29675D577F1
:1009F000D2AF759F4541E0C2AFC295C293D296D2A5
:100A00009475D57DD2AF759F4541E0203814C2AFB3
:100A1000C296D29575D57BC291D294D2AF759F659F
:100A200041E0C2AFC294D29575D57BC293D296D223
:100A3000AF759F7541E0203814C2AFC294C293D203
:100A400096D29575D57BD2AF759F7541E0C2AFC286
:100A500096C291D294D29575D57BD2AF759F6541E0
:100A6000E0203814C2AFC295D29475D57DC293D21E
:100A700096D2AF759F458068C2AFC295D29675D5A4
:100A800077C291D294D2AF759F458054203814C25A
:100A9000AFC296C292D295D29475D57DD2AF759FD2
:100AA00065803DC2AFC294C292D295D29675D57779
:100AB000D2AF759F758029203814C2AFC294D296E8
:100AC00075D577C292D295D2AF759F758012C2AF9D
:100AD000C296D29475D57DC292D295D2AF759F65DC
:100AE000C22222203E707A147BC88019203E717A7F
:100AF000107B8C8010203E727A0D7BB48007203EE4
:100B0000737A0B7BC8303F01227902E4C295D5E0AD
:100B1000FDD292D295D5E0FDC295D5E0FDC292D22C
:100B200095D5E0FDE920E004D291D29430E004D2E2
:100B300093D296E564D5E0FDE920E002C29430E06E
:100B400002C2967496D5E0FDD9C1EAF8D5E0FDD889
:100B5000FBDBB6C295227A507C507B057D14804029
:100B60007A327C287B147D2880367A3C7CB47B04E6
:100B70007D0A802C7A967C327B027D1E80227A64EC
:100B80007C287B057D0F80187888E614D23C7AC8D3
:100B90007C327B037D3C80087AC87C507B057D4697
:100BA000303F0122EBF8303C15203D091CECB4012C
:100BB00012B23D800E0CECB43209B23D80051CEC43
:100BC00070010CECC0E0E8C0E0EDC0E0303B13C2C7
:100BD00092D295D291D294E564D5E0FDC294C295AB
:100BE0008011C292D295D293D296E564D5E0FDC22F
:100BF00096C295B23BD0E0FDFED0E0F8D0E0FCF923
:100C00007464D5E0FDDEF9744BD5E0FDD9F9203BE5
:100C1000B2D8B0DA0122DA8C22C294C295C296C24E
:100C200094C295C29675D57F22788076FF0876FFAC
:100C30000876FF0876FF0876FF0876FF0876090831
:100C400076FF087601788C76010876FF0876FF0833
:100C500076FF0876FF0876FF0876030876FF0876A9
:100C6000FF0876FF08760A0876F008765008765076
:100C70000876030876FF0876020876FF08767D0876
:100C800076FF0876060876010876FF0876FF087674
:100C90000008760022FA75F00CA4ABF0EAC333F832
:100CA000740133F9E8C333F8E933F9E8C32BF8E901
:100CB0003400F9227888E6C39403D23A5002C23A4B
:100CC000C238E630E102D238A23892397886E6148A
:100CD0009000809378A6F67886E6F53FC39402509C
:100CE00003753F02789CE6753EFFB40203753EA093
:100CF000B40303753E8278A0E6F8600674282409E0
:100D0000D8FCF5697896E6919588318932789EE627
:100D10009195883389347897E6919588358936910D
:100D200019223036117A007B007CFF7D007E00B1F5
:100D3000888B618A6022303A227896E6FA7B0078C6
:100D40009EE6FC7D00C3EA33FAEB33FBC3EC33FCD5
:100D5000ED33FD7E0AB1888B638A627896303A0261
:100D6000789EE6FA7B007897E6FC7D007E00303ABC
:100D700010C3EA33FAEB33FBC3EC33FCED33FD7EF7
:100D80000AB1888B618A6022C3EC9EFCED9400FD61
:100D9000C3EC9AFCED9BFDC3EC9423ED940050044E
:100DA0007C237D00C3EC94FFED940140047CFF7D27
:100DB000017BFF0B7A000AEA7009C3EC33FCED33C8
:100DC000FDA1B3EC8AF0A4AEF0ED8AF0A42E947CE1
:100DD00040E4EAF460DD22D236B122120547120562
:100DE000477A007B007C1012053FE5542AFA740014
:100DF0003BFBDCF37C04C3EB13FBEA13FADCF7FFE9
:100E0000EB60027FFFC236B1222278A5E6F95403D7
:100E1000D2827002C282E9540C7000E95430700032
:100E2000E954C07000227ADC7B367C02C1AC7A3A8D
:100E30007B1D7C02C1AC7A3E7B047C02806E7AA46E
:100E40007B067C0380667ADE7B6E7C02805E7A8421
:100E50007B2B7C0380567A847B1D7C02804E7A58E3
:100E60007BAC7C0280467A627B6E7C02803E7A415B
:100E70007BB67C0180367A497B8C7C01802E7A920D
:100E80007B8C7C0180267A4E7B797C01801E7A5295
:100E90007B677C0180167AA47B677C01800E7A5781
:100EA0007B567C0180067AC47B377C01ECC0E0C2B3
:100EB00092D295D291D294E564D5E0FDC294C295C8
:100EC000D0E0FCF9EBFD7817E4D5E0FDD8FAD9F6CF
:100ED000741ED5E0FDDDF9DAD322C2821205477413
:100EE0000220310E0420320A04203306042034028A
:100EF0007401C0E051E312054BD0E0D5E0F422309C
:100F0000341EE56EC3941E400C941E4002801151A5
:100F1000F551F5800B51EC51EC12054B51F551F5A3
:100F200012054B51FE51FE227567007568007597DA
:100F3000DE7597AD7581C043FF8075EF0675A9001A
:100F400091197580FB75F10F75A4047580FB75D43C
:100F5000FF75900075F27E75A57E75900075D57F42
:100F600075A60175E34075E2029119E4F8F6D8FD23
:100F7000912912165678988664753001C2AF120511
:100F80004FD10A12054F12054FE564147005D23F88
:100F90000211ACD282C23F945914601A14600C142E
:100FA000603A14600302119D0210B1D23E71887143
:100FB0008871880211AC12054FD14612054BD146FB
:100FC00012054BD14612054BD14ED156D1461205D2
:100FD0004BD14ED156D146D1460211AC12054FD15C
:100FE000A6120543D16ED16E120543D18612054378
:100FF000D19E120543D1A6120543D16ED16E1205C2
:1010000043120E86120543120E9E120543120EA6BF
:10101000120543120E6E120E6E120543120E861248
:101020000543120E9E120543120EA6120543120E20
:101030006E120E6E120543120E86120543120E9E9C
:10104000120543120E7E120543120E66120543125C
:101050000E2E120543120E6E120543120E7E12055D
:1010600043120E66120543120E2E120543120E6E27
:10107000120543120E7E120543120E66120543122C
:101080000E2E120543120E6E120543120E7E12052D
:1010900043120E66120543120E2E120543120E6EF7
:1010A000120543120E9E120E9E120543120E5E2171
:1010B000AC120E26120543120E26120543120543EA
:1010C000120E8E12053F120E8E12053F120E8E1258
:1010D000053F120E8E120543120543120E66120EC4
:1010E00066120543120E66120E6612054312054380
:1010F000120E7612053F120E7612053F120E761270
:10110000053F120E76120543120543120E5E120EB3
:101110005E120543120E5E120E5E12054312054367
:10112000120E6E12053F120E6E12053F120E6E1257
:10113000053F120E6E120543120543120E3E1205B4
:1011400043120E3E120543120543120E3612053F9E
:10115000120E3612053F120E3612053F120E3612CF
:101160000543120543120E26120E261205431205E0
:1011700043120E66120E66120E66120E66120543BA
:10118000120543120E5E120E5E120E5E120E5E12FB
:101190000543120543120E3E120E3E800F120AE363
:1011A000120547120AEC120547120AF5120547C24A
:1011B000AF75670075680078FA79FA308307D9FB54
:1011C000D8F7021C00120CB4120D22789886641213
:1011D0000C1975E403758811758E0475890975C835
:1011E0000475910475D84075D90875F782759E000D
:1011F00075960275DA4A75DB0075A82175E690755B
:10120000B801759B80759D0075D10C75BC5975BB77
:101210001075E88075B20112053BD2AF753C00C273
:101220003012054FC231C232C233C23475220012AD
:10123000054BC3E522940A500241F7D231752200D2
:1012400012054BC3E522940A500241F7C231D23253
:1012500075220012054BC3E522940A500241F7752E
:10126000E4B3758851758E017589AA758C00758DEA
:1012700000C2A9D2ABD2AA756BC0756A14756E5044
:10128000C232D23475220A12054B756A10C3E522A8
:10129000940A4063758E0C756B80756A28756E288C
:1012A00075220A12054B756A20C3E522940A40474D
:1012B000758E0C756BC0756A14756E1475220A12E2
:1012C000054B756A10C3E522940A755300755200E8
:1012D000402575E403758811758E04758909D2A9B6
:1012E000C2ABC2AAC234D23375220012054BC3E589
:1012F000229403400221AF12053F2030030211AFB8
:10130000C2AF120EDAD2AF12054F203403303A03C7
:101310000213B912053F788CE6C39401500261B9FB
:10132000E530C39401500261B97567A57568F17F16
:1013300002D236120D2212054BC2AFC236120D2256
:10134000C3E554947FD2AF407012053BC2AF120A7E
:10135000FED2AFDFDC120DD7C3EF7897F612054F40
:10136000F1437F0AD236120D2212054BC2AFC236AC
:10137000120D22C3E554947FD2AF50E612053BC252
:10138000AF120AE3120543120AE3D2AFDFD6120D01
:10139000D7EF24037896F6F87997E7C394234003B0
:1013A000985006E824237897F612054FD19DF172E4
:1013B00012054B120D220211AF75670075680012FD
:1013C000054BC3E55494014002610AC2AF12054BBC
:1013D000120EFFD2AF12054F753000E4F537F53825
:1013E0000537E537F4703F0538789AE678191460C8
:1013F00012783214600D787D14600878FA14600356
:10140000753800C3E53898401D120C1912053B15BC
:101410003875370078998664C2AF120B7ED2AF78E8
:1014200098866412054B120543E523700221AFC371
:10143000E55294015011C3E554940140A312054BA9
:10144000E52370780211AFE55294017005120AE3AA
:101450008062E55294027005120AEC8057E55294BE
:10146000037005120AF5804CE55294047005120AC7
:10147000FE8041E55294057005120B7E8036E552E0
:101480009406700BE553C3940A502FC2388025E5AB
:101490005294077009E553C3940A501ED238E5529E
:1014A000940C701020380A7888E6F4F6F8D19DF193
:1014B00072120AFE755200755300812FC2AF120CD2
:1014C00019E4D2AFE4F55EF524F525F53D755E0827
:1014D00012053B1205A430EDFDA8BDA9BEE97001BF
:1014E000F8885F1205A8755E08C2AF755BFF12062B
:1014F0000F855D5B855D5CD2AF303A07C238303511
:1015000002D238D228753900120A8C120AB7120694
:101510002712062E12062712062E1206271208A5DB
:101520001209961209E012062E120895202C0312B9
:10153000055E302C0312058E120996120A0B120654
:101540002E1208A5120996120A3612062E120895B6
:10155000120996120A6112062E1208A51209961295
:101560000A8C12062E1205A4120895120996120A68
:10157000B71205A812062E302827855D5B79187AE8
:101580000CC3E53999400EC228D2298A3B855D5BA0
:10159000855D5C800CC3E5549401400302151DC1B8
:1015A0002430291F202B1CE53B147006C229D22AA7
:1015B000A11DF53BC3E5549401400302151D203ADB
:1015C000028061753C0078FA79A4E760027803C371
:1015D000E55598504FE523604B303A1720380520E9
:1015E0003507800F303502800A202B07D22B855D0E
:1015F0005BA14D78F0302B05855D5B7820C3E54815
:1016000098500302151D302B1BC22BC238303502F7
:10161000D238D229753B12855D5BA11D053CE5548E
:101620006002C127753C00C2AF120C197524007509
:101630002500D2AF12054B120C1978A4E6600CC23B
:1016400091D294C292D295C293D296C3E53C9404AF
:10165000400221AF61DB901A0D7820D1D6E520B48D
:10166000550AA3D1D6E520B4AA0280137567A575E3
:1016700068F1120C29D19D756700756800801D9076
:101680001A0378807B0AD1D6A308DBFA901A0F7868
:101690008C7B1AD1D6A308DBFA901A2922C2AFF1AB
:1016A00019D1F6901A007410D1DBA37442D1DBA3D8
:1016B0007421D1DB901A0378807B0AD1DAA308DB8E
:1016C000FA901A0F788C7B1AD1DAA308DBFAF12C86
:1016D000F10A901A2922E493F622E6438F01538FF0
:1016E000FDFFC3E583941C400122EF8567B7856841
:1016F000B7F0538FFE22438F02438F018567B78572
:1017000068B7901A0DF0538FFC22901A0D7455D1C2
:10171000DB901A0E74AAD1DB227A3079D07820902F
:101720001A40D1D6E520F709A3DAF7227A3079D02A
:10173000901A40E7D1DB09A3DAF9227C0512054FA4
:10174000DCFB22C2AF120AE3120AEC120AF5120AFB
:10175000FE120543120AE3120AEC120AF5120AFEFF
:10176000120543120AE3120AEC120AF5120AFED21B
:10177000AF22C2AF120AFE120AF5120AEC120AE3F5
:10178000120543120AFE120AF5120AEC120AE312BB
:101790000543120AFE120AF5120AEC120AE3D2AF4E
:0117A0002226
:1019FD00020F28104221FFFFFFFFFFFF09FF01FF2C
:101A0D0055AA01FFFFFFFFFF03FFFFFF0AF0505034
:0D1A1D0003FF02FF7DFF0601FFFF0000FF39
:101A4000234D5F4C5F303023202020202020202099
:101A500023424C48454C492445464D3842313023B9
:101A600031362E36365F6473686F74746573742014
:101C0000C2AFC2D37597DE7597AD7581C075A90057
:101C100043FF80752438752503B1DB7529A5752A26
:101C2000F143F10853A4F7D28375D4FF75E3407DE7
:101C3000FA780379E67C10752200752300901DE880
:101C40007B0675249875250130830281482083081E
:101C5000D8FBD9F9DCF781BA308308D8FBD9F9DC95
:101C6000F781BAB19BE493A3C39A6004DDC381BA40
:101C7000DBDBB18D600281317B08E493FAA3B16EA6
:101C8000DBF87A30B16E752200752300B18DEAFC65
:101C9000EBFDC3ED94FE400EB18D8A278B28ED300D
:101CA000E0048A828B83B18D7AC270D8C3ED94FE32
:101CB000601950CEBD0029EC600F7520007521FF22
:101CC000752900752A000200008100A827A92808AC
:101CD00009D804D90281DDB191EAF281D10D81A642
:101CE000C3ED94035051EDA2E092007AC5C3E582A2
:101CF0009400E583941C508C200010438F02438F86
:101D0000018529B7852AB7F0300027A827A9280818
:101D100009438F01538FFDD804D902A132C3E58353
:101D2000941C4003A3A117E28529B7852AB7F0A325
:101D3000A117538FFC81827AC1BD030CE493A3FAEF
:101D4000B152DCF8B14A81828184AA22AB23B16E00
:101D5000EBFAEA6222752608C3E52313F523E52290
:101D600013F52250066323A0632201D526EAB1DBD6
:101D7000B1DB75260AEAF4200102D283300102C2E7
:101D800083B1DBC3134002C201D526EB22B191EA35
:101D9000FB208302A191308302A196752608AE2410
:101DA000AF25C3EF13FFEE13FEB1DFB1DBC3EA13C0
:101DB0003083024480FA30E703632201C3E5231332
:101DC000F523E52213F52250066323A0632201D5F3
:101DD00026D9E52265236523F52222AE24AF250E00
:101DE0000FDEFEDFFCD20122424C48656C693437BD
:061DF0003164E8B10601B8
:00000001FF
