:020000040000FA
:060000000219FD02030DD0
:030013000204FEE6
:03001B0002008D53
:03002B000202D2FC
:03005B0002050D8E
:030073000202FA8C
:100080000406080C10182030406080A0C0C2AFC227
:10009000A853E6EFC28E856B8BC0D0D2D3C0E0C030
:1000A000F0C2CAA8CCA9CDD2CAD2AF758A00C3E823
:1000B000956CF8E9956DF9C3E913F9E813F8E5666D
:1000C0006007C3E913F9E813F8E97025E8956E4075
:1000D00020956E501CE582B410177C007B007A00DE
:1000E0007908900000A86AE5667004C3E813F80177
:1000F000FA900000D2A8D2AA61B7E0FDC39CC398D1
:1001000040EF98EB33FB0582E0FCC39DC39840E1D0
:1001100098EB33FB0582E0FDC39CC39840D398EB7A
:1001200033FB0582E0FCC39DC39840C598EB33FBCD
:100130000582E0FDC39CC39840B798EB33FB058272
:10014000E0FCC39DC39840A998EB33FB0582E0FD1A
:10015000C39CC398409B98EB33FB0582E0FCC39D96
:10016000C398408D98EB33FB05822175900000D237
:10017000A8D2AA61B7E0FDC39CC39840EF98EA33C8
:10018000FA0582E0FCC39DC39840E198EA33FA0582
:1001900082E0FDC39CC39840D398EA33FA0582E01D
:1001A000FCC39DC39840C598EA33FA0582E0FDC3BD
:1001B0009CC39840B798EA33FA0582E0FCC39DC31C
:1001C0009840A998EA33FA0582E0FDC39CC39840A1
:1001D0009B98EA33FA0582E0FCC39DC398408D9852
:1001E000EA33FA0582EBC46B6A54F0F9EAC454F0BE
:1001F000C3996009900000D2A8D2AA61B7EBF4C4F9
:1002000054F0F9EAF4C4540E49FAEBF4C4540FFB69
:10021000C3EAF99460FAEB9400FB501DC3E97B003C
:100220007A007900601303F9C39552600AE9F55228
:10023000755300790080020553303A27C3EA94D001
:10024000F8EB9407F9400BE8FAE9FB203509D235C1
:100250004157303502C235203902B235C3EA33FA8C
:10026000EB33FBEB2B3B3BF9C3EB13FBEA13FAEA53
:1002700029FAEB3400FB30E3047AFF7BFFE52554D9
:1002800003601B202A18E55D33F9EB7007C3E99A78
:100290004002E9FAE53CC4332AFAEB3400FBC3EA36
:1002A00033C4540FF8EB33C454F048F87005EA60D7
:1002B000027801C3EB13FBEA13FA900000D2A8D234
:1002C000AAE52260021522819B900000D2A8D2AA42
:1002D00061B7C0D0C0E0C2CF0541E523600215235D
:1002E000C3E554600575550041F5E5552401F55504
:1002F00050037555FFD0E0D0D032C2AF53E67F75C2
:1003000092FA7593FFC22053917FD2AF32C0E0E5DD
:100310008A303408856B8BF0A3D0E032D0E0C2AFD6
:1003200053E6EFC0D0C0E0C0F0D2D3D2AF5388EFD5
:10033000A88AA98C758A00758C0043881030331FF9
:10034000E8C4540FFAE9C454F04AFAC3132AFAC3B2
:10035000E833F8E933F9E82AFAE93403FB61A83015
:10036000320FC3E833E933FAE82AFAE93400FB61D3
:10037000A8303115E875F056A4AAF0E975F056A436
:100380002AFAC5F03400FB61A8E875F02BA4AAF0A6
:10039000E975F02BA42AFAC5F03400C313FBEA1365
:1003A000FAC3EB13FBEA13FAC3EB94095009C3EA4F
:1003B000949AEB940350160522E52270021522C38D
:1003C000E5229432500281F175540081F4E52260F7
:1003D0000215223036067C007D0461E7AC31AD3277
:1003E000303A04AC33AD34C3EA9CFAEB9DFB92087F
:1003F000AE60AF61303A425007203509D2358105F1
:10040000303502C235303504AE62AF63203902B2F6
:1004100035C3EA33FAEB33FBA208500AEAF42401AD
:10042000FAEBF43400FBC3EA9428FAEB9400FB5097
:100430001478007A007B008145A208500878007A81
:10044000007B00819BE52554036019202A16E55D99
:10045000F9EB7007C3E99A4002E9FAE53CC42AFACD
:10046000EB3400FBEA8EF0A4F9AAF0EB8EF0A42A9C
:10047000FAC5F03400FBC3EB13FDEA13F80FEF14D9
:100480006004C3E833F8C3E933EA33FAEB33FBDF44
:10049000EDEB30E20678FF7AFF7B038854D230E838
:1004A0006003755500C3E55BFC955C4002AC5CC322
:1004B000EC95545008EC75F004A4FAABF0EAF4F8AB
:1004C000EBF45403F98856895775230AE55A30E14D
:1004D00010D0F0D0E0D0D053F7DF43F74043E61020
:1004E00032D0F0D0E0D0D053D8FE43DA0143E6104A
:1004F0003275230AD0F0D0E0D0D043E61032C2AA41
:10050000D28EC2CA85CC6C85CD6DD2CA32C2AFC084
:10051000D0C0E0D2D38556FB8557FC85575A53F798
:10052000BF53DAFED2A8303402D2AA53E6EF53F713
:10053000DF53D8FED0E0D0D0D2AF32790180147929
:10054000038010790A800C791E8008796480047910
:10055000C880007817E4D5E0FDD8FAD9F62278FFF4
:1005600020282879A1E76023E548601F74FF8548AB
:10057000F084853FF030290375F005A4F8C5F060DC
:100580000278FFC3E8955D5002A85D885C22C3E550
:100590004794E4E5489400E55C500314A19F04608F
:1005A00002F55C2275E89022055EC3E55E94084082
:1005B0005330EDF4A8BDA9BE755E00E9FA79A0E755
:1005C0006041EA7006E55F6018800CC3E8955F60E3
:1005D0000EE55F5005600A1480070460FA8002E5AA
:1005E0005FF55FC39569401B755BC0C394044013FE
:1005F000755B80C39404400B755B40C39404400357
:10060000755B0022E55B2410500274FFF55B2274D9
:100610003279A687F0A4C5F0A2F733F8C3E8955B5A
:100620004002A85B885D227547007548F022C2AF82
:10063000C2CAA8CCA9CDAA4130CF010AD2CAD2AF32
:10064000AB42AC4388428943C3E89BF8E99C20282D
:1006500008F9302C02E13EC197AD448A44F9EA9D85
:10066000FA600678FF79FFC17CAE45AF468B458CBA
:1006700046A842A943C3E89EF8E99FF9C3E5481399
:10068000FBE54713FAE82AF547E93BF548500675BC
:1006900047FF7548FFC1E4AA47AB48AC47AD487E69
:1006A000047F02C3EB9404400D1E1FC3EB9408406B
:1006B000052029021E1FC3ED13FDEC13FCDEF7C35A
:1006C000EA9CFAEB9DFBEF6009C3E913F9E813F824
:1006D000DFF7EA28FAEB39FB8A478B4850067BFFA5
:1006E0008B478B48C3EB94025002D22C3028047FF6
:1006F00003E10F7892E6FFC3E53D948240110FC3FA
:10070000E53D94A040010FC3EF940640027F057EB3
:1007100002E548C4540FF9E548C454F0F8E547C46D
:10072000540F28F8C3E89EFAE99400FB4009C3EA95
:100730009401EB940050047A01E4FB02078AAA4773
:10074000AB48EBC4FEEAC4540F4EFCC3EA9CFAEB80
:100750009400FBC3E813C313F8EA28FAEB3400FB58
:100760008A478B48C3EB94024002C22C7802EBC448
:10077000FE7B00EAC4540F4EFAC3EA98FA4005C360
:10078000940150027A017892E6FF302002E18A85D6
:100790004E92854F93D22043E680C3E49AF8E49BBF
:1007A000F9302C03020818E8FAE9FBD3E913FDE855
:1007B00013FC884E894FC3EF94036038EF20E00CA0
:1007C000E82CF8E93DF9ECFAEDFB8013E828F8E9AC
:1007D00039F9C3E82401F8E93400F97AFF7BFFC353
:1007E000EF9403400F8A508B51884A894B8C4C8D73
:1007F0004D02084D885089518A4A8B4B8C4C8D4D47
:100800003028127550F07551FF754CF0754DFF751D
:100810004EF0754FFF02084DE8FAD3E813FC884EFE
:10082000C3EF94036021EF20E007E82CF8ECFA0115
:1008300038E8282401F87AFFC3EF940340098A506E
:10084000884A8C4C02084D88508A4A8C4C302002D1
:10085000014D753A02D22043E680E5255403603409
:10086000A847A948C3E913F9E813F8C3E913F9E85D
:1008700013F8302804E92440F9C2AF53E67F75919C
:1008800000C3E498F594E499F595759104D220435A
:10089000E680D2AF22D221754900752000302B03AB
:1008A00075204001B3D221754900752040302B03DB
:1008B00075200078017901202C20E5255403600281
:1008C000C2217914E548C313700104F8C39414409D
:1008D000027814302804781B791B202010E5496029
:1008E0000C302803D53A04D223215B11550549E584
:1008F0009BF45440B52002214530280908C3E899EB
:1009000040011801DA20210A08C3E899400201B326
:1009100001DAC22153E67F759100302C11759400E5
:100920007595F8759104D22043E6800208B3E54836
:100930007EFFC3334005C3334001FEC3E49E75947C
:1009400000F5952123C3E5399401500201B330210C
:100950000201B3D802215901DAC223C2AF53E67FA4
:10096000759100855094855195759104854A9285BD
:100970004B93D22043E680D2AFE525540360072095
:1009800029020539801030230D202B0A202107155C
:100990008115810216142278003021027801E53D8C
:1009A00075F007A4F9E5F028F5F0E9A2F013A2F13B
:1009B00013A2F213F53DC394785003753D78C3E557
:1009C0003D953E400BD222D291D293D29575D53F20
:1009D00030200221D0854C92854D93D22043E68071
:1009E00022203814C2AFD293C290C291C29575D55D
:1009F0002FD2AF759F0341E1C2AFD293C294C2958B
:100A0000C29175D53ED2AF759F0341E1203814C223
:100A1000AFD295C29375D53BC290C291D2AF759FAC
:100A20001341E1C2AFD291C29375D53BC294C29536
:100A3000D2AF759F2341E1203814C2AFD291C29446
:100A4000C295C29375D53BD2AF759F2341E1C2AF2A
:100A5000D295C290C291C29375D53BD2AF759F1308
:100A600041E1203814C2AFD293C29175D53EC294F1
:100A7000C295D2AF759F038068C2AFD293C29575FD
:100A8000D52FC290C291D2AF759F038054203814E5
:100A9000C2AFD295C292C293C29175D53ED2AF7504
:100AA0009F13803DC2AFD291C292C293C29575D5B9
:100AB0002FD2AF759F238029203814C2AFD291C2A4
:100AC0009575D52FC292C293D2AF759F238012C263
:100AD000AFD295C29175D53EC292C293D2AF759FE7
:100AE00013C22222203E707A147BC88019203E71E6
:100AF0007A107B8C8010203E727A0D7BB4800720A8
:100B00003E737A0B7BC8303F01227902E4D293D541
:100B1000E0FDD292C293D5E0FDD293D5E0FDC29222
:100B2000C293D5E0FDE920E004D290C29130E00408
:100B3000D294C295E564D5E0FDE920E002D291307F
:100B4000E002D2957496D5E0FDD9C1EAF8D5E0FD72
:100B5000D8FBDBB6D293227A507C507B057D148083
:100B6000407A327C287B147D2880367A3C7CB47BAA
:100B7000047D0A802C7A967C327B027D1E80227A4C
:100B8000647C287B057D0F80187888E614D23C7A37
:100B9000C87C327B037D3C80087AC87C507B057D15
:100BA00046303F0122EBF8303C15203D091CECB4E7
:100BB0000112B23D800E0CECB43209B23D80051C2E
:100BC000EC70010CECC0E0E8C0E0EDC0E0303B139D
:100BD000C292C293D290C291E564D5E0FDD291D287
:100BE000938011C292C293D294C295E564D5E0FD80
:100BF000D295D293B23BD0E0FDFED0E0F8D0E0FC3D
:100C0000F97464D5E0FDDEF9744BD5E0FDD9F92027
:100C10003BB2D8B0DA0122DA8C22D291D293D295AB
:100C2000D291D293D29575D53F22788076FF0876FF
:100C3000FF0876FF0876FF0876FF0876FF0876093A
:100C40000876FF087601788C76010876FF0876FF33
:100C50000876FF0876FF0876FF0876030876FF0817
:100C600076FF0876FF08760A0876F0087650087650
:100C7000500876030876FF0876020876FF08767D2E
:100C80000876FF0876060876010876FF0876FF08E2
:100C9000760008760022FA75F00CA4ABF0EAC333B4
:100CA000F8740133F9E8C333F8E933F9E8C32BF8F2
:100CB000E93400F9227888E6C39403D23A5002C29C
:100CC0003AC238E630E102D238A23892397886E664
:100CD000149000809378A6F67886E6F53FC39402D8
:100CE0005003753F02789CE6753EFFB40203753EE3
:100CF000A0B40303753E8278A0E6F8600674282449
:100D000009D8FCF5697896E6919688318932789E03
:100D1000E69196883389347897E6919688358936B6
:100D2000911A223036117A007B007CFF7D007E0014
:100D3000B1898B618A6022303A227896E6FA7B008C
:100D4000789EE6FC7D00C3EA33FAEB33FBC3EC3359
:100D5000FCED33FD7E0AB1898B638A627896303A66
:100D600002789EE6FA7B007897E6FC7D007E0030F4
:100D70003A10C3EA33FAEB33FBC3EC33FCED33FD3B
:100D80007E0AB1898B618A6022C3EC9EFCED9400DF
:100D9000FDC3EC9AFCED9BFDC3EC9423ED94005055
:100DA000047C237D00C3EC94FFED940140047CFFA0
:100DB0007D017BFF0B7A000AEA7009C3EC33FCED7E
:100DC00033FDA1B4EC8AF0A4AEF0ED8AF0A42E9429
:100DD0007C40E4EAF460DD22D236B12312054712EA
:100DE00005477A007B007C1012053FE5542AFA740F
:100DF000003BFBDCF37C04C3EB13FBEA13FADCF7E8
:100E0000FFEB60027FFFC236B1232278A5E6F954DA
:100E1000037000E9540C7000E954307000E954C0CC
:100E20007000227ADC7B367C02C1A97A3A7B1D7C79
:100E300002C1A97A3E7B047C02806E7AA47B067C88
:100E40000380667ADE7B6E7C02805E7A847B2B7CFC
:100E50000380567A847B1D7C02804E7A587BAC7C62
:100E60000280467A627B6E7C02803E7A417BB67C51
:100E70000180367A497B8C7C01802E7A927B8C7C37
:100E80000180267A4E7B797C01801E7A527B677CBA
:100E90000180167AA47B677C01800E7A577B567C92
:100EA0000180067AC47B377C01ECC0E0C292C29319
:100EB000D290C291E564D5E0FDD291D293D0E0FC0E
:100EC000F9EBFD7817E4D5E0FDD8FAD9F6741ED514
:100ED000E0FDDDF9DAD322120547740220310E0459
:100EE00020320A04203306042034027401C0E05189
:100EF000E412054BD0E0D5E0F42230341EE56EC399
:100F0000941E400C941E4002801151F651F6800B45
:100F100051ED51ED12054B51F651F612054B51FFB3
:100F200051FF227567007568007597DE7597AD757E
:100F300081C043FF8075EF0675A900911A7580FF87
:100F400075F1F075A4007580FF75D4FF75902A7552
:100F5000F23F75A53F75902A75D53F75A60175E3DB
:100F60004075E202911AE4F8F6D8FD912A12164E65
:100F700078988664753001C2AF12054FD10B120507
:100F80004F12054FE564147005D23F0211A4C23F11
:100F9000945914601A14600C14603A14600302111E
:100FA000950210A9D23E7189718971890211A4122A
:100FB000054FD14312054BD14312054BD1431205C6
:100FC0004BD14BD153D14312054BD14BD153D143CC
:100FD000D1430211A412054FD1A3120543D16BD105
:100FE0006B120543D183120543D19B120543D1A354
:100FF000120543D16BD16B120543D1831205431205
:101000000E9B120543120EA3120543120E6B120E15
:101010006B120543120E83120543120E9B120543F9
:10102000120EA3120543120E6B120E6B1205431221
:101030000E83120543120E9B120543120E7B1205FE
:1010400043120E63120543120E2B120543120E6B50
:10105000120543120E7B120543120E631205431252
:101060000E2B120543120E6B120543120E7B120556
:1010700043120E63120543120E2B120543120E6B20
:10108000120543120E7B120543120E631205431222
:101090000E2B120543120E6B120543120E9B120EFD
:1010A0009B120543120E5B21A4120E23120543125C
:1010B0000E23120543120543120E8B12053F120E2A
:1010C0008B12053F120E8B12053F120E8B12054339
:1010D000120543120E63120E63120543120E6312C1
:1010E0000E63120543120543120E7312053F120ED2
:1010F0007312053F120E7312053F120E7312054351
:10110000120543120E5B120E5B120543120E5B12A8
:101110000E5B120543120543120E6B12053F120EB1
:101120006B12053F120E6B12053F120E6B12054338
:10113000120543120E3B120543120E3B12054312D9
:101140000543120E3312053F120E3312053F120EE5
:101150003312053F120E33120543120543120E23BC
:10116000120E23120543120543120E63120E631270
:101170000E63120E63120543120543120E5B120E2C
:101180005B120E5B120E5B120543120543120E3BFF
:10119000120E3B800F120AE4120547120AED1205E7
:1011A00047120AF6120547C2AF75670075680078E6
:1011B000FA79FA308507D9FBD8F7021C00120CB572
:1011C000120D2378988664120C1A75E4057588113F
:1011D000758E0475890975C80475910475D84075B4
:1011E000D90875F782759E0075960075DA4A75DB29
:1011F0000075A82175E69075B801759B80759D00F6
:1012000075D10C75BC5975BB1075E88075B20112AB
:10121000053BD2AF753C00C23012054FC231C2321D
:10122000C233C23475220012054BC3E522940A5022
:101230000241EFD23175220012054BC3E522940A18
:10124000500241EFC231D23275220012054BC3E584
:1012500022940A500241EF75E4D5758851758E01CC
:101260007589AA758C00758D00C2A9D2ABD2AA75FA
:101270006BC0756A14756E50C232D23475220A1270
:10128000054B756A10C3E522940A4063758E0C7590
:101290006B80756A28756E2875220A12054B756A6F
:1012A00020C3E522940A4047758E0C756BC0756AA1
:1012B00014756E1475220A12054B756A10C3E52267
:1012C000940A755300755200402575E40575881120
:1012D000758E04758909D2A9C2ABC2AAC234D233B1
:1012E00075220012054BC3E5229403400221A71288
:1012F000053F2030030211A7C2AF120ED7D2AF12A2
:10130000054F203403303A030213B112053F788CA5
:10131000E6C39401500261B1E530C394015002610B
:10132000B17567A57568F17F02D236120D231205DB
:101330004BC2AFC236120D23C3E554947FD2AF40E7
:101340007012053BC2AF120AFFD2AFDFDC120DD81C
:10135000C3EF7897F612054FF13B7F0AD236120D94
:101360002312054BC2AFC236120D23C3E554947F3E
:10137000D2AF50E612053BC2AF120AE41205431287
:101380000AE4D2AFDFD6120DD8EF24037896F6F830
:101390007997E7C394234003985006E8242378976D
:1013A000F612054FD195F16A12054B120D23021169
:1013B000A775670075680012054BC3E5549401409A
:1013C000026102C2AF12054B120EFAD2AF12054FE4
:1013D000753000E4F537F5380537E537F4703F052B
:1013E00038789AE67819146012783214600D787D96
:1013F00014600878FA146003753800C3E538984023
:101400001D120C1A12053B15387537007899866441
:10141000C2AF120B7FD2AF7898866412054B1205CB
:1014200043E523700221A7C3E55294015011C3E59F
:1014300054940140A312054BE52370780211A7E5EF
:101440005294017005120AE48062E552940270051C
:10145000120AED8057E55294037005120AF6804C8B
:10146000E55294047005120AFF8041E5529405701C
:1014700005120B7F8036E5529406700BE553C3943A
:101480000A502FC2388025E55294077009E553C3EE
:10149000940A501ED238E552940C701020380A7805
:1014A00088E6F4F6F8D195F16A120AFF75520075D4
:1014B00053008127C2AF120C1AE4D2AFE4F55EF5F7
:1014C00024F525F53D755E0812053B1205A430EDA7
:1014D000FDA8BDA9BEE97001F8885F1205A8755E78
:1014E00008C2AF755BFF12060F855D5B855D5CD240
:1014F000AF303A07C238303502D238D228753900B9
:10150000120A8D120AB812062712062E1206271288
:10151000062E1206271208A51209971209E11206D3
:101520002E120895202C0312055E302C0312058E16
:10153000120997120A0C12062E1208A51209971208
:101540000A3712062E120895120997120A6212061D
:101550002E1208A5120997120A8D12062E1205A442
:10156000120895120997120AB81205A812062E3011
:101570002827855D5B79187A0CC3E53999400EC23E
:1015800028D2298A3B855D5B855D5C800CC3E55470
:1015900094014003021515C11C30291F202B1CE5A6
:1015A0003B147006C229D22AA115F53BC3E5549419
:1015B000014003021515203A028061753C0078FA5B
:1015C00079A4E760027803C3E55598504FE523609E
:1015D0004B303A17203805203507800F3035028010
:1015E0000A202B07D22B855D5BA14578F0302B05B7
:1015F000855D5B7820C3E548985003021515302BB4
:101600001BC22BC238303502D238D229753B128525
:101610005D5BA115053CE5546002C11F753C00C22D
:10162000AF120C1A752400752500D2AF12054B12AB
:101630000C1A78A4E6600CC290C291C292C293C206
:1016400094C295C3E53C9404400221A761D3901A4B
:101650000D7820D1CEE520B4550AA3D1CEE520B433
:10166000AA0280137567A57568F1120C2AD19575C9
:101670006700756800801D901A0378807B0AD1CEC0
:10168000A308DBFA901A0F788C7B1AD1CEA308DB63
:10169000FA901A2922C2AFF111D1EE901A007410FB
:1016A000D1D3A37442D1D3A37421D1D3901A037898
:1016B000807B0AD1D2A308DBFA901A0F788C7B1AB0
:1016C000D1D2A308DBFAF124F102901A2922E49383
:1016D000F622E6438F01538FFDFFC3E583941C4040
:1016E0000122EF8567B78568B7F0538FFE22438FDD
:1016F00002438F018567B78568B7901A0DF0538F45
:10170000FC22901A0D7455D1D3901A0E74AAD1D31D
:10171000227A3079D07820901A40D1CEE520F7098E
:10172000A3DAF7227A3079D0901A40E7D1D309A30F
:10173000DAF9227C0512054FDCFB22C2AF120AE463
:10174000120AED120AF6120AFF120543120AE412F7
:101750000AED120AF6120AFF120543120AE4120AEF
:10176000ED120AF6120AFFD2AF22C2AF120AFF121E
:101770000AF6120AED120AE4120543120AFF120ACF
:10178000F6120AED120AE4120543120AFF120AF6D3
:09179000120AED120AE4D2AF22A4
:1019FD00020F23104221FFFFFFFFFFFF09FF01FF31
:101A0D0055AA01FFFFFFFFFF03FFFFFF0AF0505034
:0D1A1D0003FF02FF7DFF0601FFFF0000FF39
:101A4000234F5F4C5F303023202020202020202097
:101A500023424C48454C492445464D3842313023B9
:101A600031362E36365F6473686F74746573742014
:101C0000C2AFC2D37597DE7597AD7581C075A90057
:101C100043FF80752438752503B1DB7529A5752A26
:101C2000F143F12053A4DFD28575D4FF75E3407DE5
:101C3000FA780379E67C10752200752300901DE880
:101C40007B0675249875250130850281482085081A
:101C5000D8FBD9F9DCF781BA308508D8FBD9F9DC93
:101C6000F781BAB19BE493A3C39A6004DDC381BA40
:101C7000DBDBB18D600281317B08E493FAA3B16EA6
:101C8000DBF87A30B16E752200752300B18DEAFC65
:101C9000EBFDC3ED94FE400EB18D8A278B28ED300D
:101CA000E0048A828B83B18D7AC270D8C3ED94FE32
:101CB000601950CEBD0029EC600F7520007521FF22
:101CC000752900752A000200008100A827A92808AC
:101CD00009D804D90281DDB191EAF281D10D81A642
:101CE000C3ED94035051EDA2E092007AC5C3E582A2
:101CF0009400E583941C508C200010438F02438F86
:101D0000018529B7852AB7F0300027A827A9280818
:101D100009438F01538FFDD804D902A132C3E58353
:101D2000941C4003A3A117E28529B7852AB7F0A325
:101D3000A117538FFC81827AC1BD030CE493A3FAEF
:101D4000B152DCF8B14A81828184AA22AB23B16E00
:101D5000EBFAEA6222752608C3E52313F523E52290
:101D600013F52250066323A0632201D526EAB1DBD6
:101D7000B1DB75260AEAF4200102D285300102C2E5
:101D800085B1DBC3134002C201D526EB22B191EA33
:101D9000FB208502A191308502A196752608AE240C
:101DA000AF25C3EF13FFEE13FEB1DFB1DBC3EA13C0
:101DB0003085024480FA30E703632201C3E5231330
:101DC000F523E52213F52250066323A0632201D5F3
:101DD00026D9E52265236523F52222AE24AF250E00
:101DE0000FDEFEDFFCD20122424C48656C693437BD
:061DF0003164E8B10601B8
:00000001FF
