:020000040000FA
:060000000219FD020319C4
:03000B0002008D63
:03001300020532B1
:03001B0002009050
:03002B000202CE00
:03005B000205415A
:030073000203067F
:100080000406080C10182030406080A0C0054032E3
:10009000C2AFC2A853E6EFC28E856C8BC0D0D2D35C
:1000A000C0E0C0F0C2CAA8CCA9CDD2CAD2AF758A6E
:1000B00000C3E8956DF8E9956EF9C3E913F9E81303
:1000C000F8E5676007C3E913F9E813F8E97025E874
:1000D000956F4020956F501CE582B410177C007B13
:1000E000007A007908900000A86BE5677004C3E807
:1000F00013F801FD900000D2A8D2AA61E4E0FDC38C
:100100009CC39840EF98EB33FB0582E0FCC39DC392
:100110009840E198EB33FB0582E0FDC39CC3984017
:10012000D398EB33FB0582E0FCC39DC39840C59890
:10013000EB33FB0582E0FDC39CC39840B798EB33DB
:10014000FB0582E0FCC39DC39840A998EB33FB05F7
:1001500082E0FDC39CC398409B98EB33FB0582E093
:10016000FCC39DC398408D98EB33FB0582217890AA
:100170000000D2A8D2AA61E4E0FDC39CC39840EF7E
:1001800098EA33FA0582E0FCC39DC39840E198EAFF
:1001900033FA0582E0FDC39CC39840D398EA33FA52
:1001A0000582E0FCC39DC39840C598EA33FA0582F6
:1001B000E0FDC39CC39840B798EA33FA0582E0FC9F
:1001C000C39DC39840A998EA33FA0582E0FDC39C19
:1001D000C398409B98EA33FA0582E0FCC39DC3981C
:1001E000408D98EA33FA0582EBC46B6A54F0F9EA61
:1001F000C454F0C3996009900000D2A8D2AA61E467
:10020000EBF4C454F0F9EAF4C4540E49FAEBF4C424
:10021000540FFBC3EAF99460FAEB9400FB501DC342
:10022000E97B007A007900601303F9C39552600AF4
:10023000E9F552755300790080020553303A27C31F
:10024000EA94D0F8EB9407F9400BE8FAE9FB203583
:1002500009D235415A303502C235203902B235C390
:10026000EA33FAEB33FBEB2B3B3BF9C3EB13FBEA33
:1002700013FAEA29FAEB3400FB30E3047AFF7BFF40
:10028000E5255403601B202A18E55E33F9EB70075F
:10029000C3E99A4002E9FAE53CC4332AFAEB340098
:1002A000FBC3EA33C4540FF8EB33C454F048F8707E
:1002B00005EA60027801900000D2A8D2AAE5226087
:1002C00002152281D1900000D2A8D2AA61E4C0D048
:1002D000C0E0C2CF0541E5676009E5666005756667
:1002E000006101756601E52360021523C3E55560D1
:1002F000057556006101E5562401F5565003755603
:10030000FFD0E0D0D032C2AF53E67F7592FA75933A
:10031000FFC22053917FD2AF32C0E0E58A3034086B
:10032000856C8BF0A3D0E032D0E0C2AF53E6EFC0D3
:10033000D0C0E0C0F0D2D3D2AF5388EFA88AA98C46
:10034000AA40308D010A758A00758C007540004303
:100350008810E567700AC3E833F8E933F9EA33FA3D
:1003600030331FE8C4540FFAE9C454F04AFAC313F7
:100370002AFAC3E833F8E933F9E82AFAE93406FB44
:1003800061D530320FC3E833E933FAE82AFAE934A9
:1003900000FB61D5303115E875F056A4AAF0E97577
:1003A000F056A42AFAC5F03400FB61D5C3EA13FA6B
:1003B000E913F9E813F8E875F056A4AAF0E975F026
:1003C00056A42AFAC5F03400C313FBEA13FAC3EBB0
:1003D00013FBEA13FAC3EB94125009C3EA9434EB0B
:1003E000940750160522E52270021522C3E52294D7
:1003F000325002A125755500A128E5226002152280
:100400003036067C007D088114AC31AD32303A04C0
:10041000AC33AD34C3EA9CFAEB9DFB9208AE61AFFE
:1004200062303A425007203509D2358132303502E8
:10043000C235303504AE63AF64203902B235C3EA49
:1004400033FAEB33FBA208500AEAF42401FAEBF486
:100450003400FBC3EA9450FAEB9400FB501478008C
:100460007A007B008172A208500878007A007B0035
:1004700081D1E5255403601B202A18E55E33F9EB92
:100480007007C3E99A4002E9FAE53CC4332AFAEB63
:100490003400FBEA8EF0A4F9AAF0EB8EF0A42AFA5D
:1004A000C5F03400FBC3EB13FDEA13F8C3ED13FDF5
:1004B000E813F80FEF146004C3E833F8C3E933EA34
:1004C00033FAEB33FBDFEDEB30E30678FF7AFF7BAB
:1004D000078855D230E86003755600C3E55CFC958B
:1004E0005D4002AC5DC3EC95555008EC75F008A476
:1004F000FAABF0EAF4F8EBF45407F9C3E8943CFAE9
:10050000E99400FB50047A007B00885789588A5987
:100510008B5A75230AD0F0D0E0D0D053F7DF43F7E1
:100520004043E6103275230AD0F0D0E0D0D043E645
:100530001032C2AAD28EC2CA85CC6D85CD6ED2CA07
:1005400032C2AFC0D0C0E0D2D3A8F9E55B30E20A36
:10055000E5FA20E23520E132A162E5FA30E22B2013
:10056000E128C3E55813F8E55713F5FB88FCC3E50C
:100570005A13F8E55913F5E988EA85585B53F7BF34
:10058000D2A8303402D2AA53E6EF53F7DFD0E0D03E
:10059000D0D2AF327901801479038010790A800CAF
:1005A000791E80087964800479C880007817E4D5C2
:1005B000E0FDD8FAD9F62278FF20282879A1E76053
:1005C00023E548601F74FF8548F084853FF030299B
:1005D0000375F005A4F8C5F0600278FFC3E8955EE6
:1005E0005002A85E885D22C3E54794A0E5489400C8
:1005F000E55D500314A1F8046002F55D2275E890F2
:1006000022055FC3E55F9408405330EDF4A8BDA90F
:10061000BE755F00E9FA79A0E76041EA7006E5601F
:100620006018800CC3E89560600EE5605005600AB4
:100630001480070460FA8002E560F560C3956A40A3
:100640001B755CC0C394044013755C80C394044064
:100650000B755C40C394044003755C0022E55C2488
:1006600010500274FFF55C22743279A687F0A4C59D
:10067000F0A2F733F8C3E8955C4002A85C885E22DC
:100680007547007548F022C2AFC2CAA8CCA9CDAA4E
:100690004130CF010AD2CAD2AFC3EA13FAE913F943
:1006A000E813F8AB42AC4388428943C3E89BF8E9BE
:1006B0009C20280A547FF9302C02E1A5C1FEAD44EC
:1006C0008A44F9EA9D547FFA600678FF79FFC1E316
:1006D000AE45AF468B458C46A842A943C3E89EF879
:1006E000E99FF9C3E54813FBE54713FAE82AF54704
:1006F000E93BF54850067547FF7548FFE14BAA47AF
:10070000AB48AC47AD487E047F02C3EB9404400D78
:100710001E1FC3EB940840052029021E1FC3ED13C2
:10072000FDEC13FCDEF7C3EA9CFAEB9DFBEF6009DE
:10073000C3E913F9E813F8DFF7EA28FAEB39FB8A83
:10074000478B4850067BFF8B478B48C3EB94025086
:1007500002D22C3028047F03E1767892E6FFC3E5CD
:100760003D948240110FC3E53D94A040010FC3EFBB
:10077000940640027F057E02E548C4540FF9E5481F
:10078000C454F0F8E547C4540F28F8C3E89EFAE9CA
:100790009400FB4009C3EA9401EB940050047A01F1
:1007A000E4FB0207F1AA47AB48EBC4FEEAC4540FCE
:1007B0004EFCC3EA9CFAEB9400FBC3E813C313F8A6
:1007C000EA28FAEB3400FB8A478B48C3EB940240DB
:1007D00002C22C7802EBC4FE7B00EAC4540F4EFA2E
:1007E000C3EA98FA4005C3940150027A017892E670
:1007F000FF302002E1F1854E92854F93D22043E6EF
:1008000080C3E49AF8E49BF9C3E833F8E933F9309C
:100810002C03020886E8FAE9FBD3E913FDE813FC90
:10082000884E894FC3EF94036038EF20E00CE82C2A
:10083000F8E93DF9ECFAEDFB8013E828F8E939F91D
:10084000C3E82401F8E93400F97AFF7BFFC3EF9491
:1008500003400F8A508B51884A894B8C4C8D4D0236
:1008600008BB885089518A4A8B4B8C4C8D4D30285F
:10087000127550F07551FF754CF0754DFF754EF0C7
:10088000754FFF0208BBE8FAD3E813FC884EC3EFAC
:1008900094036021EF20E007E82CF8ECFA01A6E8C9
:1008A000282401F87AFFC3EF940340098A50884A4C
:1008B0008C4C0208BB88508A4A8C4C30200201BB09
:1008C000753A02D22043E680E5255403602DA847FF
:1008D000A948C3E913F9E813F8302804E92440F9DA
:1008E000C2AF53E67F759100C3E498F594E499F59F
:1008F00095759104D22043E680D2AF22D22175496A
:1009000000752000302B03752040211AD221754933
:1009100000752040302B0375200078017901202CD0
:1009200020E52554036002C2217914E548C3137001
:100930000104F8C3941440027814302804781B7919
:100940001BC3E833F8C3E933F9202010E549600CF4
:10095000302803D53A04D22321CD11C30549E59BA4
:100960005440B5200221B730280908C3E899400156
:1009700018214920210A08C3E8994002211A214977
:10098000C22153E67F759100302C11759400759546
:10099000F0759104D22043E68002091AE5487EFFF3
:1009A000C3334009C3334005C3334001FEC3E49E53
:1009B000759400F5952191C3E53994015002211AEF
:1009C000302102211AD80221CB2149C223C2AF53C0
:1009D000E67F759100855094855195759104854AFF
:1009E00092854B93D22043E680D2AFE52554036035
:1009F000072029020539801030230D202B0A2021E1
:100A000007158115810216B822780030210278017D
:100A1000E53D75F007A4F9E5F028F5F0E9A2F0133B
:100A2000A2F113A2F213F53DC394785003753D78FB
:100A3000C3E53D953E400ED222C286C290C2927559
:100A4000D4FF75D50F3020024145854C92854D93DA
:100A5000D22043E68022203813C2AFC291D28775DC
:100A6000D4FF75D503D2AF759F42614AC2AFC29120
:100A7000D29375D43F75D50FD2AF759F42614A208E
:100A80003813C2AFC29275D4FF75D50CD287D2AFDE
:100A9000759F52614AC2AFC28675D4FF75D50CD21C
:100AA00093D2AF759F32614A203813C2AFC287D24A
:100AB0009375D4FF75D50CD2AF759F32614AC2AF22
:100AC000C293D28775D4FF75D50CD2AF759F528073
:100AD00079203813C2AFC29075D43F75D50FD29329
:100AE000D2AF759F428063C2AFC29075D4FF75D5F7
:100AF00003D287D2AF759F428050203813C2AFC255
:100B000093D29175D43F75D50FD2AF759F52803A6D
:100B1000C2AFC287D29175D4FF75D503D2AF759F8E
:100B2000328027203813C2AFC28675D4FF75D50333
:100B3000D291D2AF759F328011C2AFC29275D43FAD
:100B400075D50FD291D2AF759F52C22222203E6836
:100B50007A147BC88019203E697A107B8C80102023
:100B60003E6A7A0D7BB48007203E6B7A0B7BC830DF
:100B70003F01227902E4C291D5E0FDD290D5E0FD9B
:100B8000C290D5E0FDD291D5E0FDE920E002D28609
:100B900030E002D292E565D5E0FDE920E002C286B0
:100BA00030E002C2927496D5E0FDD9C9EAF8D5E0EA
:100BB000FDD8FBDBBEC291227A507C507B057D14B0
:100BC00080407A327C287B147D2880367A3C7CB445
:100BD0007B047D0A802C7A967C327B027D1E8022EB
:100BE0007A647C287B057D0F80187888E614D23CD7
:100BF0007AC87C327B037D3C80087AC87C507B05B8
:100C00007D46303F0122EBF8303C15203D091CECBD
:100C1000B40112B23D800E0CECB43209B23D800535
:100C20001CEC70010CECC0E0E8C0E0EDC0E0303B33
:100C30000FD291D286E565D5E0FDC286C291800DC6
:100C4000D291D292E565D5E0FDC292C291B23BD07D
:100C5000E0FDFED0E0F8D0E0FCF97464D5E0FDDE04
:100C6000F9744BD5E0FDD9F9203BBAD8B8DA0122A6
:100C7000DA9422C286C290C292C287C291C2937590
:100C8000D4FF75D50F22788076FF0876FF0876FFAF
:100C90000876FF0876FF0876FF0876090876FF08D1
:100CA0007601788C76010876FF0876FF0876FF08D3
:100CB00076FF0876FF0876030876FF0876FF087649
:100CC000FF08760A0876F008765008765008760312
:100CD0000876FF0876020876FF08767D0876FF081A
:100CE00076060876010876FF0876FF087600087613
:100CF0000022FA75F00CA4ABF0EAC333F8740133A8
:100D0000F9E8C333F8E933F9E8C32BF8E93400F91B
:100D1000E8C333F8E933F9227888E6F554C394033D
:100D2000D23A5002C23AC238E630E102D238A23892
:100D300092397886E6149000809378A6F67886E655
:100D4000F53FC394025003753F02789CE6753EFF61
:100D5000B40203753EA0B40303753E8278A0E6F8A2
:100D6000600674282409D8FCF56A7896E691F28822
:100D7000318932789EE691F2883389347897E6910A
:100D8000F2883589369173223036117A007B007CE7
:100D9000FF7D007E00B1EE8B628A6122303A2278BC
:100DA00096E6FA7B00789EE6FC7D00C3EA33FAEB18
:100DB00033FBC3EC33FCED33FD7E0AB1EE8B648A6A
:100DC000637896303A02789EE6FA7B007897E6FCE4
:100DD0007D007E00303A10C3EA33FAEB33FBC3ECFC
:100DE00033FCED33FD7E0AB1EE8B628A6122C3ECE7
:100DF0009EFCED9400FDC3EC9AFCED9BFDC3EC94CE
:100E000023ED940050047C237D00C3EC94FFED940B
:100E10000140047CFF7D017BFF0B7A000AEA700928
:100E2000C3EC33FCED33FDC119EC8AF0A4AEF0ED58
:100E30008AF0A42E947C40E4EAF460DD22D236B13C
:100E4000881205A01205A07A007B007C101205987C
:100E5000E5552AFA74003BFBDCF37C04C3EB13FB7F
:100E6000EA13FADCF7FFEB60027FFFC236B188229B
:100E700078A5E6F954037000E9540C7000E9543089
:100E80007000E954C07000227ADC7B367C02E10EEF
:100E90007A3A7B1D7C02E10E7A3E7B047C02806EF6
:100EA0007AA47B067C0380667ADE7B6E7C02805EA1
:100EB0007A847B2B7C0380567A847B1D7C02804E57
:100EC0007A587BAC7C0280467A627B6E7C02803EE4
:100ED0007A417BB67C0180367A497B8C7C01802EFE
:100EE0007A927B8C7C0180267A4E7B797C01801EF5
:100EF0007A527B677C0180167AA47B677C01800E26
:100F00007A577B567C0180067AC47B377C01ECC023
:100F1000E0D291D286E565D5E0FDC286C291D0E0EF
:100F2000FCF9EBFD7817E4D5E0FDD8FAD9F6741E8C
:100F3000D5E0FDDDF9DAD7221205A0740220310ECA
:100F40000420320A04203306042034027401C0E075
:100F5000714D1205A4D0E0D5E0F42230341EE56FC7
:100F6000C3941E400C941E40028011715F715F801B
:100F70000B715671561205A4715F715F1205A47151
:100F8000687168227568007569007597DE7597ADA0
:100F90007581C043FF8075EF0675A9009173758058
:100FA0003F75F1C375A4C075803F75D4FF7590007F
:100FB00075F20F75A50F75900075D50F75A60175A3
:100FC000E34075E2029173E4F8F6D8FD91861216BB
:100FD000FB78988665753001C2AF1205A8D17012F2
:100FE00005A81205A8E565147005D23F021219C2C2
:100FF0003F945914601C14600C1460451460030283
:10100000120A02111ED23E120BEA120BEA120BEA6E
:1010100041191205A8120EA81205A4120EA8120555
:10102000A4120EA81205A4120EB0120EB8120EA829
:101030001205A4120EB0120EB8120EA8120EA8417C
:10104000191205A8120F0812059C120ED0120ED00C
:1010500012059C120EE812059C120F0012059C123C
:101060000F0812059C120ED0120ED012059C120E03
:10107000E812059C120F0012059C120F0812059C25
:10108000120ED0120ED012059C120EE812059C1200
:101090000F0012059C120F0812059C120ED0120EA2
:1010A000D012059C120EE812059C120F0012059C2E
:1010B000120EE012059C120EC812059C120E901220
:1010C000059C120ED012059C120EE012059C120E09
:1010D000C812059C120E9012059C120ED012059C8F
:1010E000120EE012059C120EC812059C120E9012F0
:1010F000059C120ED012059C120EE012059C120ED9
:10110000C812059C120E9012059C120ED012059C5E
:10111000120F00120F0012059C120EC04119120E80
:101120008812059C120E8812059C12059C120EF066
:10113000120598120EF0120598120EF01205981270
:101140000EF012059C12059C120EC8120EC8120554
:101150009C120EC8120EC812059C12059C120ED8C5
:10116000120598120ED8120598120ED81205981270
:101170000ED812059C12059C120EC0120EC012054C
:101180009C120EC0120EC012059C12059C120ED0AD
:10119000120598120ED0120598120ED01205981250
:1011A0000ED012059C12059C120EA012059C120E68
:1011B000A012059C12059C120E98120598120E980A
:1011C000120598120E98120598120E9812059C128C
:1011D000059C120E88120E8812059C12059C120E98
:1011E000C8120EC8120EC8120EC812059C12059C19
:1011F000120EC0120EC0120EC0120EC012059C12AA
:10120000059C120EA0120EA0800F120B4D1205A00D
:10121000120B561205A0120B5F1205A0C2AF756823
:101220000075690078FA79FA308007D9FBD8F7029F
:101230001C00120D18120D8878988665120C7375B3
:10124000A91375A71075C10075A70075670075E42F
:1012500000758811758E0475890975C80475910427
:1012600075D84075D90875F782759E037596027515
:10127000DA4275DB4275A82375E69075B801759B57
:1012800080759D0075D10C75BCB975BB1075E88073
:1012900075B201120594D2AF753C00C2301205A898
:1012A000C231C232C233C2347522001205A4C3E572
:1012B00022940A50026173D2317522001205A4C330
:1012C000E522940A50026173C231D23275220012B3
:1012D00005A4C3E522940A5002617375E480758801
:1012E00051758E017589AA758C00758D00C2A9D2C1
:1012F000ABD2AA756C80756B14756F50C232D23444
:1013000075220A1205A4756B10C3E522940A406386
:10131000758E0C756C00756B28756F2875220A1216
:1013200005A4756B20C3E522940A4047758E0C75A1
:101330006C80756B14756F1475220A1205A4756B99
:1013400010C3E522940A755300755200402575E4D8
:1013500000758811758E04758909D2A9C2ABC2AA1D
:10136000C234D2337522001205A4C3E5229403408F
:1013700002411C12059820300302121CC2AF120F4A
:1013800038D2AF1205A8203403303A0302143712C2
:101390000598788CE6C3940150028137E530C394F8
:1013A00001500281377568A57569F17F02D2361246
:1013B0000D881205A4C2AFC236120D88C3E555943C
:1013C0007FD2AF4072120594C2AF120B68D2AFDF6A
:1013D000DC120E3DC3EF7897F61205A81217E87FCE
:1013E0000AD236120D881205A4C2AFC236120D8879
:1013F000C3E555947FD2AF50E6120594C2AF120BED
:101400004D12059C120B4DD2AFDFD6120E3DEF24CC
:10141000037896F6F87997E7C3942340039850062B
:10142000E824237897F61205A8F14212181712053E
:10143000A4120D8802121C7568007569001205A4BB
:10144000C3E555940140026186C2AF1205A4120F94
:101450005BD2AF1205A8753000E4F537F5380537D3
:10146000E537F4703F0538789AE6781914601278F9
:101470003214600D787D14600878FA1460037538B2
:1014800000C3E53898401D120C7312059415387589
:10149000370078998665C2AF120BE0D2AF78988694
:1014A000651205A412059CE5237002411CC3E55298
:1014B00094015014C3E555940140A31205A4E523FB
:1014C000700302121C021549E55294017005120BBB
:1014D0004D806EE55294027005120B568063E55202
:1014E00094037005120B5F8058E552940470051246
:1014F0000B68804DE55294057005120BE08042E5C3
:101500005294147015E553C3940A503BE554B4014A
:1015100002C238B4022BD2388027E55294157015D8
:10152000E553C3940A5020E554B40102D238B40202
:1015300010C238800CE552940C7006120B68120B26
:101540006875520075530081ADC2AF120C73E4D2BE
:10155000AFE4F55FF524F525F53D755F08120594B8
:101560001205FD30EDFDA8BDA9BEE97001F8886047
:10157000120601755F08C2AF755CFF120668855ED2
:101580005C855E5DD2AF75A71075C13075A700751B
:10159000A903756701303A07C238303502D238D214
:1015A00028753900120AFA120B23120680120687D8
:1015B00012068012068712068012090C120A0912FE
:1015C0000A561206871208FC202C031205B7302C8D
:1015D000031205E7120A09120A7F12068712090C84
:1015E000120A09120AA81206871208FC120A091226
:1015F0000AD112068712090C120A09120AFA1206F7
:10160000871205FD1208FC120A09120B23120601AB
:10161000120687302827855E5C79187A0CC3E53975
:1016200099400EC228D2298A3B855E5C855E5D802A
:101630000CC3E555940140030215B9C1C030291F00
:10164000202B1CE53B147006C229D22AA1B9F53B18
:10165000C3E555940140030215B9203A0280617533
:101660003C0078FA79A4E760027803C3E556985005
:101670004FE523604B303A17203805203507800F9F
:10168000303502800A202B07D22B855E5CA1E978D9
:10169000F0302B05855E5C7820C3E5489850030246
:1016A00015B9302B1BC22BC238303502D238D229A3
:1016B000753B12855E5CA1B9053CE5556002C1C36E
:1016C000753C00C2AF120C7375240075250075A916
:1016D0001375A71075C10075A700756700D2AF120A
:1016E00005A4120C7378A4E66006D287D291D29337
:1016F000C3E53C94044002411C8159901A0D7820A6
:10170000F17BE520B4550AA3F17BE520B4AA028061
:10171000137568A57569F1120C86F142756800753C
:101720006900801D901A0378807B0AF17BA308DB97
:10173000FA901A0F788C7B1AF17BA308DBFA901AC7
:101740002922C2AFF1BEF19B901A007410F180A360
:101750007442F180A37421F180901A0378807B0A8F
:10176000F17FA308DBFA901A0F788C7B1AF17FA324
:1017700008DBFAF1D1F1AF901A2922E493F622E6C0
:10178000438F01538FFDFFC3E583941C400122EF7B
:101790008568B78569B7F0538FFE22438F02438F68
:1017A000018568B78569B7901A0DF0538FFC2290B8
:1017B0001A0D7455F180901A0E74AAF180227A30B5
:1017C00079D07820901A40F17BE520F709A3DAF769
:1017D000227A3079D0901A40E7F18009A3DAF92211
:1017E0007C051205A8DCFB22C2AF120B4D120B5672
:1017F000120B5F120B6812059C120B4D120B561246
:101800000B5F120B6812059C120B4D120B56120B3C
:101810005F120B68D2AF22C2AF120B68120B5F12BD
:101820000B56120B4D12059C120B68120B5F120B1C
:1018300056120B4D12059C120B68120B5F120B56C1
:06184000120B4DD2AF2295
:1019FD00020F84104221FFFFFFFFFFFF09FF01FFD0
:101A0D0055AA01FFFFFFFFFF03FFFFFF0AF0505034
:0D1A1D0003FF02FF7DFF0601FFFF0000FF39
:101A400023435F485F3330232020202020202020A4
:101A500023424C48454C492445464D3842323123B7
:101A600031362E36365F6473686F74746573742014
:101C0000C2AFC2D37597DE7597AD7581C075A90057
:101C100043FF80752438752503B1DB7529A5752A26
:101C2000F143F10153A4FED28075D4FF75E3407DEA
:101C3000FA780379E67C10752200752300901DE880
:101C40007B06752498752501308002814820800824
:101C5000D8FBD9F9DCF781BA308008D8FBD9F9DC98
:101C6000F781BAB19BE493A3C39A6004DDC381BA40
:101C7000DBDBB18D600281317B08E493FAA3B16EA6
:101C8000DBF87A30B16E752200752300B18DEAFC65
:101C9000EBFDC3ED94FE400EB18D8A278B28ED300D
:101CA000E0048A828B83B18D7AC270D8C3ED94FE32
:101CB000601950CEBD0029EC600F7520007521FF22
:101CC000752900752A000200008100A827A92808AC
:101CD00009D804D90281DDB191EAF281D10D81A642
:101CE000C3ED94035051EDA2E092007AC5C3E582A2
:101CF0009400E583941C508C200010438F02438F86
:101D0000018529B7852AB7F0300027A827A9280818
:101D100009438F01538FFDD804D902A132C3E58353
:101D2000941C4003A3A117E28529B7852AB7F0A325
:101D3000A117538FFC81827AC1BD030CE493A3FAEF
:101D4000B152DCF8B14A81828184AA22AB23B16E00
:101D5000EBFAEA6222752608C3E52313F523E52290
:101D600013F52250066323A0632201D526EAB1DBD6
:101D7000B1DB75260AEAF4200102D280300102C2EA
:101D800080B1DBC3134002C201D526EB22B191EA38
:101D9000FB208002A191308002A196752608AE2416
:101DA000AF25C3EF13FFEE13FEB1DFB1DBC3EA13C0
:101DB0003080024480FA30E703632201C3E5231335
:101DC000F523E52213F52250066323A0632201D5F3
:101DD00026D9E52265236523F52222AE24AF250E00
:101DE0000FDEFEDFFCD20122424C48656C693437BD
:061DF0003164E8B20601B7
:00000001FF
