:020000040000FA
:060000000219FD020319C4
:03000B0002008D63
:03001300020534AF
:03001B0002009050
:03002B000202CE00
:03005B0002054358
:030073000203067F
:100080000406080C10182030406080A0C0054032E3
:10009000C2AFC2A853E6EFC28E856C8BC0D0D2D35C
:1000A000C0E0C0F0C2CAA8CCA9CDD2CAD2AF758A6E
:1000B00000C3E8956DF8E9956EF9C3E913F9E81303
:1000C000F8E5676007C3E913F9E813F8E97025E874
:1000D000956F4020956F501CE582B410177C007B13
:1000E000007A007908900000A86BE5677004C3E807
:1000F00013F801FD900000D2A8D2AA61E4E0FDC38C
:100100009CC39840EF98EB33FB0582E0FCC39DC392
:100110009840E198EB33FB0582E0FDC39CC3984017
:10012000D398EB33FB0582E0FCC39DC39840C59890
:10013000EB33FB0582E0FDC39CC39840B798EB33DB
:10014000FB0582E0FCC39DC39840A998EB33FB05F7
:1001500082E0FDC39CC398409B98EB33FB0582E093
:10016000FCC39DC398408D98EB33FB0582217890AA
:100170000000D2A8D2AA61E4E0FDC39CC39840EF7E
:1001800098EA33FA0582E0FCC39DC39840E198EAFF
:1001900033FA0582E0FDC39CC39840D398EA33FA52
:1001A0000582E0FCC39DC39840C598EA33FA0582F6
:1001B000E0FDC39CC39840B798EA33FA0582E0FC9F
:1001C000C39DC39840A998EA33FA0582E0FDC39C19
:1001D000C398409B98EA33FA0582E0FCC39DC3981C
:1001E000408D98EA33FA0582EBC46B6A54F0F9EA61
:1001F000C454F0C3996009900000D2A8D2AA61E467
:10020000EBF4C454F0F9EAF4C4540E49FAEBF4C424
:10021000540FFBC3EAF99460FAEB9400FB501DC342
:10022000E97B007A007900601303F9C39552600AF4
:10023000E9F552755300790080020553303A27C31F
:10024000EA94D0F8EB9407F9400BE8FAE9FB203583
:1002500009D235415A303502C235203902B235C390
:10026000EA33FAEB33FBEB2B3B3BF9C3EB13FBEA33
:1002700013FAEA29FAEB3400FB30E3047AFF7BFF40
:10028000E5255403601B202A18E55E33F9EB70075F
:10029000C3E99A4002E9FAE53CC4332AFAEB340098
:1002A000FBC3EA33C4540FF8EB33C454F048F8707E
:1002B00005EA60027801900000D2A8D2AAE5226087
:1002C00002152281D1900000D2A8D2AA61E4C0D048
:1002D000C0E0C2CF0541E5676009E5666005756667
:1002E000006101756601E52360021523C3E55560D1
:1002F000057556006101E5562401F5565003755603
:10030000FFD0E0D0D032C2AF53E67F7592FA75933A
:10031000FFC22053917FD2AF32C0E0E58A3034086B
:10032000856C8BF0A3D0E032D0E0C2AF53E6EFC0D3
:10033000D0C0E0C0F0D2D3D2AF5388EFA88AA98C46
:10034000AA40308D010A758A00758C007540004303
:100350008810E567700AC3E833F8E933F9EA33FA3D
:1003600030331FE8C4540FFAE9C454F04AFAC313F7
:100370002AFAC3E833F8E933F9E82AFAE93406FB44
:1003800061D530320FC3E833E933FAE82AFAE934A9
:1003900000FB61D5303115E875F056A4AAF0E97577
:1003A000F056A42AFAC5F03400FB61D5C3EA13FA6B
:1003B000E913F9E813F8E875F056A4AAF0E975F026
:1003C00056A42AFAC5F03400C313FBEA13FAC3EBB0
:1003D00013FBEA13FAC3EB94125009C3EA9434EB0B
:1003E000940750160522E52270021522C3E52294D7
:1003F000325002A127755500A12AE522600215227C
:100400003036067C007D088114AC31AD32303A04C0
:10041000AC33AD34C3EA9CFAEB9DFB9208AE61AFFE
:1004200062303A425007203509D2358132303502E8
:10043000C235303504AE63AF64203902B235C3EA49
:1004400033FAEB33FBA208500AEAF42401FAEBF486
:100450003400FBC3EA9450FAEB9400FB501478008C
:100460007A007B008172A208500878007A007B0035
:1004700081D1E5255403601B202A18E55E33F9EB92
:100480007007C3E99A4002E9FAE53CC4332AFAEB63
:100490003400FBEA8EF0A4F9AAF0EB8EF0A42AFA5D
:1004A000C5F03400FBC3EB13FDEA13F8C3ED13FDF5
:1004B000E813F80FEF146004C3E833F8C3E933EA34
:1004C00033FAEB33FBDFEDEB30E30678FF7AFF7BAB
:1004D000078855D230E86003755600C3E55CFC958B
:1004E0005D4002AC5DC3EC95555008EC75F008A476
:1004F000FAABF0EAF4F8EBF45407F9885789587529
:10050000230AE55B30E210D0F0D0E0D0D053F7DF23
:1005100043F74043E61032D0F0D0E0D0D053D8FEBD
:1005200043DA0143E6103275230AD0F0D0E0D0D090
:1005300043E61032C2AAD28EC2CA85CC6D85CD6E7A
:10054000D2CA32C2AFC0D0C0E0D2D38557FB8558E3
:10055000FC85585B53F7BF53DAFED2A8303402D281
:10056000AA53E6EF53F7DF53D8FED0E0D0D0D2AF96
:10057000327901801479038010790A800C791E8009
:10058000087964800479C880007817E4D5E0FDD844
:10059000FAD9F62278FF20282879A1E76023E548D8
:1005A000601F74FF8548F084853FF030290375F0A3
:1005B00005A4F8C5F0600278FFC3E8955E5002A874
:1005C0005E885D22C3E54794A0E5489400E55D5050
:1005D0000314A1D5046002F55D2275E89022055F41
:1005E000C3E55F9408405330EDF4A8BDA9BE755F24
:1005F00000E9FA79A0E76041EA7006E560601880DA
:100600000CC3E89560600EE5605005600A14800731
:100610000460FA8002E560F560C3956A401B755C72
:10062000C0C394044013755C80C39404400B755C94
:1006300040C394044003755C0022E55C2410500222
:1006400074FFF55C22743279A687F0A4C5F0A2F796
:1006500033F8C3E8955C4002A85C885E22754700C9
:100660007548F022C2AFC2CAA8CCA9CDAA4130CFEA
:10067000010AD2CAD2AFC3EA13FAE913F9E813F8B0
:10068000AB42AC4388428943C3E89BF8E99C2028ED
:100690000A547FF9302C02E182C1DBAD448A44F96F
:1006A000EA9D547FFA600678FF79FFC1C0AE45AF7E
:1006B000468B458C46A842A943C3E89EF8E99FF9BA
:1006C000C3E54813FBE54713FAE82AF547E93BF58C
:1006D0004850067547FF7548FFE128AA47AB48AC6C
:1006E00047AD487E047F02C3EB9404400D1E1FC338
:1006F000EB940840052029021E1FC3ED13FDEC13E7
:10070000FCDEF7C3EA9CFAEB9DFBEF6009C3E9133B
:10071000F9E813F8DFF7EA28FAEB39FB8A478B4848
:1007200050067BFF8B478B48C3EB94025002D22CC0
:100730003028047F03E1537892E6FFC3E53D9482BD
:1007400040110FC3E53D94A040010FC3EF94064054
:10075000027F057E02E548C4540FF9E548C454F011
:10076000F8E547C4540F28F8C3E89EFAE99400FB63
:100770004009C3EA9401EB940050047A01E4FB02BF
:1007800007CEAA47AB48EBC4FEEAC4540F4EFCC3E5
:10079000EA9CFAEB9400FBC3E813C313F8EA28FAC7
:1007A000EB3400FB8A478B48C3EB94024002C22C17
:1007B0007802EBC4FE7B00EAC4540F4EFAC3EA98F9
:1007C000FA4005C3940150027A017892E6FF302086
:1007D00002E1CE854E92854F93D22043E680C3E45A
:1007E0009AF8E49BF9C3E833F8E933F9302C0302B3
:1007F0000863E8FAE9FBD3E913FDE813FC884E89A6
:100800004FC3EF94036038EF20E00CE82CF8E93D8B
:10081000F9ECFAEDFB8013E828F8E939F9C3E8248C
:1008200001F8E93400F97AFF7BFFC3EF9403400F2E
:100830008A508B51884A894B8C4C8D4D0208988880
:100840005089518A4A8B4B8C4C8D4D3028127550F3
:10085000F07551FF754CF0754DFF754EF0754FFFFB
:10086000020898E8FAD3E813FC884EC3EF940360BB
:1008700021EF20E007E82CF8ECFA0183E8282401B6
:10088000F87AFFC3EF940340098A50884A8C4C02DF
:10089000089888508A4A8C4C3020020198753A0298
:1008A000D22043E680E5255403602DA847A948C31C
:1008B000E913F9E813F8302804E92440F9C2AF53EA
:1008C000E67F759100C3E498F594E499F5957591E8
:1008D00004D22043E680D2AF22D221754900752090
:1008E00000302B0375204001F7D221754900752097
:1008F00040302B0375200078017901202C20E5255C
:1009000054036002C2217914E548C313700104F84E
:10091000C3941440027814302804781B791BC3E870
:1009200033F8C3E933F9202010E549600C3028037F
:10093000D53A04D22321AA11A00549E59B5440B51C
:100940002002219430280908C3E899400118212683
:1009500020210A08C3E899400201F72126C2215349
:10096000E67F759100302C117594007595F07591A6
:1009700004D22043E6800208F7E5487EFFC33340F7
:1009800009C3334005C3334001FEC3E49E759400A0
:10099000F595216EC3E5399401500201F73021022B
:1009A00001F7D80221A82126C223C2AF53E67F75E2
:1009B0009100855094855195759104854A92854B97
:1009C00093D22043E680D2AFE52554036007202967
:1009D000020539801030230D202B0A2021071581B4
:1009E00015810216DA2278003021027801E53D7582
:1009F000F007A4F9E5F028F5F0E9A2F013A2F1134D
:100A0000A2F213F53DC394785003753D78C3E53DDC
:100A1000953E400ED222C287C291C29375D4FF7513
:100A2000D50F3020024122854C92854D93D2204330
:100A3000E68022203817C2AFC291C286D287D293F5
:100A400075D4FF75D50BD2AF759F426157C2AFC247
:100A500091C292D293D28775D4BF75D50FD2AF759C
:100A60009F426157203817C2AFC293D29175D4FF0D
:100A700075D50EC286D287D2AF759F526157C2AF6D
:100A8000C287D29175D4FF75D50EC292D293D2AFE0
:100A9000759F326157203817C2AFC287C292D29376
:100AA000D29175D4FF75D50ED2AF759F326157C202
:100AB000AFC293C286D287D29175D4FF75D50ED2BC
:100AC000AF759F526157203817C2AFC291D2877558
:100AD000D4BF75D50FC292D293D2AF759F428077A3
:100AE000C2AFC291D29375D4FF75D50BC286D2879F
:100AF000D2AF759F428060203817C2AFC293C290B8
:100B0000D291D28775D4BF75D50FD2AF759F528061
:100B100046C2AFC287C290D291D29375D4FF75D529
:100B20000BD2AF759F32802F203817C2AFC287D249
:100B30009375D4FF75D50BC290D291D2AF759F3209
:100B40008015C2AFC293D28775D4BF75D50FC2903E
:100B5000D291D2AF759F52C22222203E707A147B6E
:100B6000C88019203E717A107B8C8010203E727AEA
:100B70000D7BB48007203E737A0B7BC8303F012287
:100B80007902E4C291D5E0FDD290D291D5E0FDC2C8
:100B900091D5E0FDC290D291D5E0FDE920E004D2EC
:100BA00086D28730E004D292D293E565D5E0FDE9A4
:100BB00020E002C28730E002C2937496D5E0FDD9EE
:100BC000C1EAF8D5E0FDD8FBDBB6C291227A507CB1
:100BD000507B057D1480407A327C287B147D2880F0
:100BE000367A3C7CB47B047D0A802C7A967C327BFE
:100BF000027D1E80227A647C287B057D0F80187818
:100C000088E614D23C7AC87C327B037D3C80087A2B
:100C1000C87C507B057D46303F0122EBF8303C1507
:100C2000203D091CECB40112B23D800E0CECB43234
:100C300009B23D80051CEC70010CECC0E0E8C0E09E
:100C4000EDC0E0303B13C290D291D286D287E565E9
:100C5000D5E0FDC287C2918011C290D291D292D2CA
:100C600093E565D5E0FDC293C291B23BD0E0FDFEB5
:100C7000D0E0F8D0E0FCF97464D5E0FDDEF9744B07
:100C8000D5E0FDD9F9203BB2D8B0DA0122DA8C22C6
:100C9000C287C291C293C287C291C29375D4FF75B5
:100CA000D50F22788076FF0876FF0876FF0876FF5A
:100CB0000876FF0876FF0876090876FF087601783F
:100CC0008C76010876FF0876FF0876FF0876FF0825
:100CD00076FF0876030876FF0876FF0876FF087629
:100CE0000A0876F00876500876500876030876FFF2
:100CF0000876020876FF08767D0876FF08760608F3
:100D000076010876FF0876FF08760008760022FA5A
:100D100075F00CA4ABF0EAC333F8740133F9E8C3FF
:100D200033F8E933F9E8C32BF8E93400F9E8C333C1
:100D3000F8E933F9227888E6F554C39403D23A509F
:100D400002C23AC238E630E102D238A2389239788B
:100D500086E6149000809378A6F67886E6F53FC381
:100D600094025003753F02789CE6753EFFB402037F
:100D7000753EA0B40303753E8278A0E6F860067461
:100D8000282409D8FCF56A7896E6B10F88318932B3
:100D9000789EE6B10F883389347897E6B10F8835AD
:100DA00089369190223036117A007B007CFF7D00DD
:100DB0007E00D10B8B628A6122303A227896E6FA65
:100DC0007B00789EE6FC7D00C3EA33FAEB33FBC37D
:100DD000EC33FCED33FD7E0AD10B8B648A6378968D
:100DE000303A02789EE6FA7B007897E6FC7D007E3A
:100DF00000303A10C3EA33FAEB33FBC3EC33FCEDBB
:100E000033FD7E0AD10B8B628A6122C3EC9EFCED1E
:100E10009400FDC3EC9AFCED9BFDC3EC9423ED9490
:100E20000050047C237D00C3EC94FFED940140044A
:100E30007CFF7D017BFF0B7A000AEA7009C3EC336B
:100E4000FCED33FDC136EC8AF0A4AEF0ED8AF0A4DF
:100E50002E947C40E4EAF460DD22D236B1A512057E
:100E60007D12057D7A007B007C10120575E5552A00
:100E7000FA74003BFBDCF37C04C3EB13FBEA13FACC
:100E8000DCF7FFEB60027FFFC236B1A52278A5E652
:100E9000F954037000E9540C7000E954307000E913
:100EA00054C07000227ADC7B367C02E12B7A3A7BDC
:100EB0001D7C02E12B7A3E7B047C02806E7AA47B4F
:100EC000067C0380667ADE7B6E7C02805E7A847BA1
:100ED0002B7C0380567A847B1D7C02804E7A587B63
:100EE000AC7C0280467A627B6E7C02803E7A417BDB
:100EF000B67C0180367A497B8C7C01802E7A927B8D
:100F00008C7C0180267A4E7B797C01801E7A527B14
:100F1000677C0180167AA47B677C01800E7A577B00
:100F2000567C0180067AC47B377C01ECC0E0C2901D
:100F3000D291D286D287E565D5E0FDC287C291D035
:100F4000E0FCF9EBFD7817E4D5E0FDD8FAD9F674AA
:100F50001ED5E0FDDDF9DAD32212057D74022031C1
:100F60000E0420320A04203306042034027401C027
:100F7000E0715A120581D0E0D5E0F42230341EE54C
:100F80006FC3941E400C941E40028011716C716CF2
:100F9000800B71637163120581716C716C12058134
:100FA00071757175227568007569007597DE7597A2
:100FB000AD7581C043FF8075EF0675A900919075EE
:100FC000803F75F1C375A4C075803F75D4FF7590DF
:100FD0000075F20F75A50F75900075D50F75A601F8
:100FE00075E34075E2029190E4F8F6D8FD91A31202
:100FF000172378988665753001C2AF120585120EE9
:101000008D120585120585E565147005D23F021223
:101010003BC23F945914601C14600C14604514606A
:101020000302122C021140D23E120BFF120BFF12D0
:101030000BFF413B120585120EC5120581120EC52C
:10104000120581120EC5120581120ECD120ED51297
:101050000EC5120581120ECD120ED5120EC5120E3E
:10106000C5413B120585120F25120579120EED12AE
:101070000EED120579120F05120579120F1D1205DA
:1010800079120F25120579120EED120EED12057967
:10109000120F05120579120F1D120579120F251274
:1010A0000579120EED120EED120579120F051205DB
:1010B00079120F1D120579120F25120579120EED06
:1010C000120EED120579120F05120579120F1D127D
:1010D0000579120EFD120579120EE5120579120E30
:1010E000AD120579120EED120579120EFD12057979
:1010F000120EE5120579120EAD120579120EED12DF
:101100000579120EFD120579120EE5120579120EFF
:10111000AD120579120EED120579120EFD12057948
:10112000120EE5120579120EAD120579120EED12AE
:101130000579120F1D120F1D120579120EDD413BAC
:10114000120EA5120579120EA51205791205791253
:101150000F0D120575120F0D120575120F0D1205E8
:1011600075120F0D120579120579120EE5120EE5B2
:10117000120579120EE5120EE512057912057912A3
:101180000EF5120575120EF5120575120EF5120503
:1011900075120EF5120579120579120EDD120EDDAB
:1011A000120579120EDD120EDD1205791205791283
:1011B0000EED120575120EED120575120EED1205EB
:1011C00075120EED120579120579120EBD12057910
:1011D000120EBD120579120579120EB5120575129F
:1011E0000EB5120575120EB5120575120EB5120563
:1011F00079120579120EA5120EA51205791205793C
:10120000120EE5120EE5120EE5120EE51205791228
:101210000579120EDD120EDD120EDD120EDD120545
:1012200079120579120EBD120EBD800F120B5A12E3
:10123000057D120B6312057D120B6C12057DC2AF8A
:1012400075680075690078FA79FA308007D9FBD89B
:10125000F7021C00120D35120DA578988665120C48
:101260009075A91375A71075C10075A70075670063
:1012700075E400758811758E0475890975C8047543
:10128000910475D84075D90875F783759E007596D9
:101290000275DA4A75DB0075A82375E69075B8010A
:1012A000759B80759D0075D10C75BCB975BB1075AB
:1012B000E88075B201120571D2AF753C00C23012E0
:1012C0000585C231C232C233C23475220012058193
:1012D000C3E522940A50026195D2317522001205AD
:1012E00081C3E522940A50026195C231D23275223F
:1012F00000120581C3E522940A5002619575E480CD
:10130000758851758E017589AA758C00758D00C21E
:10131000A9D2ABD2AA756C80756B14756F50C232AE
:10132000D23475220A120581756B10C3E522940A26
:101330004063758E0C756C00756B28756F2875226F
:101340000A120581756B20C3E522940A4047758E09
:101350000C756C80756B14756F1475220A120581FB
:10136000756B10C3E522940A755300755200402531
:1013700075E400758811758E04758909D2A9C2AB10
:10138000C2AAC234D233752200120581C3E5229469
:10139000034002413E12057520300302123EC2AFE7
:1013A000120F59D2AF120585203403303A030214CC
:1013B00059120575788CE6C3940150028159E530C5
:1013C000C39401500281597568A57569F17F02D2F5
:1013D00036120DA5120581C2AFC236120DA5C3E5A6
:1013E00055947FD2AF4072120571C2AF120B75D205
:1013F000AFDFDC120E5AC3EF7897F612058512188C
:10140000117F0AD236120DA5120581C2AFC2361263
:101410000DA5C3E555947FD2AF50E6120571C2AF5A
:10142000120B5A120579120B5AD2AFDFD6120E5A8E
:10143000EF24037896F6F87997E7C394234003984E
:101440005006E824237897F6120585F16A121840B1
:10145000120581120DA502123E7568007569001211
:101460000581C3E5559401400261A8C2AF12058110
:10147000120F7CD2AF120585753000E4F537F538D0
:101480000537E537F4703F0538789AE67819146027
:1014900012783214600D787D14600878FA146003B5
:1014A000753800C3E53898401D120C90120571156F
:1014B0003875370078998665C2AF120BF5D2AF78D0
:1014C000988665120581120579E5237002413EC3B5
:1014D000E55294015014C3E555940140A3120581CF
:1014E000E523700302123E02156BE552940170056C
:1014F000120B5A806EE55294027005120B638063E2
:10150000E55294037005120B6C8058E552940470F8
:1015100005120B75804DE55294057005120BF58090
:1015200042E55294147015E553C3940A503BE554B8
:10153000B40102C238B4022BD2388027E552941588
:101540007015E553C3940A5020E554B40102D23813
:10155000B40210C238800CE552940C7006120B7560
:10156000120B7575520075530081CFC2AF120C90EB
:10157000E4D2AFE4F55FF524F525F53D755F08127B
:1015800005711205DA30EDFDA8BDA9BEE97001F8BC
:1015900088601205DE755F08C2AF755CFF120645F4
:1015A000855E5C855E5DD2AF75A71075C13075A78D
:1015B0000075A903756701303A07C238303502D289
:1015C00038D228753900120AF7120B2812065D125C
:1015D000066412065D12066412065D1208E912091D
:1015E000E6120A331206641208D9202C031205945D
:1015F000302C031205C41209E6120A6412066412A2
:1016000008E91209E6120A951206641208D91209AD
:10161000E6120AC61206641208E91209E6120AF76F
:101620001206641205DA1208D91209E6120B281202
:1016300005DE120664302827855E5C79187A0CC3B3
:10164000E53999400EC228D2298A3B855E5C855EC9
:101650005D800CC3E555940140030215DBC1E23007
:10166000291F202B1CE53B147006C229D22AA1DBBE
:10167000F53BC3E555940140030215DB203A028097
:1016800061753C0078FA79A4E760027803C3E556F7
:1016900098504FE523604B303A1720380520350726
:1016A000800F303502800A202B07D22B855E5CC16B
:1016B0000B78F0302B05855E5C7820C3E5489850A8
:1016C000030215DB302B1BC22BC238303502D23857
:1016D000D229753B12855E5CA1DB053CE5556002B5
:1016E000C1E5753C00C2AF120C9075240075250051
:1016F00075A91375A71075C10075A700756700D28D
:10170000AF120581120C9078A4E6600CC286D287D5
:10171000C290D291C292D293C3E53C94044002415C
:101720003E817B901A0D7820F1A3E520B4550AA3E1
:10173000F1A3E520B4AA0280137568A57569F112BA
:101740000CA3F16A756800756900801D901A037812
:10175000807B0AF1A3A308DBFA901A0F788C7B1A1E
:10176000F1A3A308DBFA901A2922C2AFF1E6F1C374
:10177000901A007410F1A8A37442F1A8A37421F187
:10178000A8901A0378807B0AF1A7A308DBFA901AC5
:101790000F788C7B1AF1A7A308DBFAF1F9F1D79047
:1017A0001A2922E493F622E6438F01538FFDFFC3EB
:1017B000E583941C400122EF8568B78569B7F05333
:1017C0008FFE22438F02438F018568B78569B790EA
:1017D0001A0DF0538FFC22901A0D7455F1A8901A2F
:1017E0000E74AAF1A8227A3079D07820901A40F1AC
:1017F000A3E520F709A3DAF7227A3079D0901A40CE
:10180000E71217A809A3DAF8227C05120585DCFB8C
:1018100022C2AF120B5A120B63120B6C120B751211
:101820000579120B5A120B63120B6C120B75120511
:1018300079120B5A120B63120B6C120B75D2AF227A
:10184000C2AF120B75120B6C120B63120B5A1205FE
:1018500079120B75120B6C120B63120B5A1205796D
:0F186000120B75120B6C120B63120B5AD2AF22C4
:1019FD00020FA5104221FFFFFFFFFFFF09FF01FFAF
:101A0D0055AA01FFFFFFFFFF03FFFFFF0AF0505034
:0D1A1D0003FF02FF7DFF0601FFFF0000FF39
:101A400023435F485F3030232020202020202020A7
:101A500023424C48454C492445464D3842323123B7
:101A600031362E36365F6473686F74746573742014
:101C0000C2AFC2D37597DE7597AD7581C075A90057
:101C100043FF80752438752503B1DB7529A5752A26
:101C2000F143F10153A4FED28075D4FF75E3407DEA
:101C3000FA780379E67C10752200752300901DE880
:101C40007B06752498752501308002814820800824
:101C5000D8FBD9F9DCF781BA308008D8FBD9F9DC98
:101C6000F781BAB19BE493A3C39A6004DDC381BA40
:101C7000DBDBB18D600281317B08E493FAA3B16EA6
:101C8000DBF87A30B16E752200752300B18DEAFC65
:101C9000EBFDC3ED94FE400EB18D8A278B28ED300D
:101CA000E0048A828B83B18D7AC270D8C3ED94FE32
:101CB000601950CEBD0029EC600F7520007521FF22
:101CC000752900752A000200008100A827A92808AC
:101CD00009D804D90281DDB191EAF281D10D81A642
:101CE000C3ED94035051EDA2E092007AC5C3E582A2
:101CF0009400E583941C508C200010438F02438F86
:101D0000018529B7852AB7F0300027A827A9280818
:101D100009438F01538FFDD804D902A132C3E58353
:101D2000941C4003A3A117E28529B7852AB7F0A325
:101D3000A117538FFC81827AC1BD030CE493A3FAEF
:101D4000B152DCF8B14A81828184AA22AB23B16E00
:101D5000EBFAEA6222752608C3E52313F523E52290
:101D600013F52250066323A0632201D526EAB1DBD6
:101D7000B1DB75260AEAF4200102D280300102C2EA
:101D800080B1DBC3134002C201D526EB22B191EA38
:101D9000FB208002A191308002A196752608AE2416
:101DA000AF25C3EF13FFEE13FEB1DFB1DBC3EA13C0
:101DB0003080024480FA30E703632201C3E5231335
:101DC000F523E52213F52250066323A0632201D5F3
:101DD00026D9E52265236523F52222AE24AF250E00
:101DE0000FDEFEDFFCD20122424C48656C693437BD
:061DF0003164E8B20601B7
:00000001FF
