:020000040000FA
:060000000219FD02030DD0
:030013000204FEE6
:03001B0002008D53
:03002B000202D2FC
:03005B0002050D8E
:030073000202FA8C
:100080000406080C10182030406080A0C0C2AFC227
:10009000A853E6EFC28E856C8BC0D0D2D3C0E0C02F
:1000A000F0C2CAA8CCA9CDD2CAD2AF758A00C3E823
:1000B000956DF8E9956EF9C3E913F9E813F8E5676A
:1000C0006007C3E913F9E813F8E97025E8956F4074
:1000D00020956F501CE582B410177C007B007A00DD
:1000E0007908900000A86BE5677004C3E813F80175
:1000F000FA900000D2A8D2AA61B7E0FDC39CC398D1
:1001000040EF98EB33FB0582E0FCC39DC39840E1D0
:1001100098EB33FB0582E0FDC39CC39840D398EB7A
:1001200033FB0582E0FCC39DC39840C598EB33FBCD
:100130000582E0FDC39CC39840B798EB33FB058272
:10014000E0FCC39DC39840A998EB33FB0582E0FD1A
:10015000C39CC398409B98EB33FB0582E0FCC39D96
:10016000C398408D98EB33FB05822175900000D237
:10017000A8D2AA61B7E0FDC39CC39840EF98EA33C8
:10018000FA0582E0FCC39DC39840E198EA33FA0582
:1001900082E0FDC39CC39840D398EA33FA0582E01D
:1001A000FCC39DC39840C598EA33FA0582E0FDC3BD
:1001B0009CC39840B798EA33FA0582E0FCC39DC31C
:1001C0009840A998EA33FA0582E0FDC39CC39840A1
:1001D0009B98EA33FA0582E0FCC39DC398408D9852
:1001E000EA33FA0582EBC46B6A54F0F9EAC454F0BE
:1001F000C3996009900000D2A8D2AA61B7EBF4C4F9
:1002000054F0F9EAF4C4540E49FAEBF4C4540FFB69
:10021000C3EAF99460FAEB9400FB501DC3E97B003C
:100220007A007900601303F9C39552600AE9F55228
:10023000755300790080020553303A27C3EA94D001
:10024000F8EB9407F9400BE8FAE9FB203509D235C1
:100250004157303502C235203902B235C3EA33FA8C
:10026000EB33FBEB2B3B3BF9C3EB13FBEA13FAEA53
:1002700029FAEB3400FB30E3047AFF7BFFE52554D9
:1002800003601B202A18E55E33F9EB7007C3E99A77
:100290004002E9FAE53CC4332AFAEB3400FBC3EA36
:1002A00033C4540FF8EB33C454F048F87005EA60D7
:1002B000027801C3EB13FBEA13FA900000D2A8D234
:1002C000AAE52260021522819B900000D2A8D2AA42
:1002D00061B7C0D0C0E0C2CF0541E523600215235D
:1002E000C3E555600575560041F5E5562401F55600
:1002F00050037556FFD0E0D0D032C2AF53E67F75C1
:1003000092FA7593FFC22053917FD2AF32C0E0E5DD
:100310008A303408856C8BF0A3D0E032D0E0C2AFD5
:1003200053E6EFC0D0C0E0C0F0D2D3D2AF5388EFD5
:10033000A88AA98C758A00758C0043881030331FF9
:10034000E8C4540FFAE9C454F04AFAC3132AFAC3B2
:10035000E833F8E933F9E82AFAE93403FB61A83015
:10036000320FC3E833E933FAE82AFAE93400FB61D3
:10037000A8303115E875F056A4AAF0E975F056A436
:100380002AFAC5F03400FB61A8E875F02BA4AAF0A6
:10039000E975F02BA42AFAC5F03400C313FBEA1365
:1003A000FAC3EB13FBEA13FAC3EB94095009C3EA4F
:1003B000949AEB940350160522E52270021522C38D
:1003C000E5229432500281F175550081F4E52260F6
:1003D0000215223036067C007D0461E7AC31AD3277
:1003E000303A04AC33AD34C3EA9CFAEB9DFB92087F
:1003F000AE61AF62303A425007203509D2358105EF
:10040000303502C235303504AE63AF64203902B2F4
:1004100035C3EA33FAEB33FBA208500AEAF42401AD
:10042000FAEBF43400FBC3EA9428FAEB9400FB5097
:100430001478007A007B008145A208500878007A81
:10044000007B00819BE52554036019202A16E55E98
:10045000F9EB7007C3E99A4002E9FAE53CC42AFACD
:10046000EB3400FBEA8EF0A4F9AAF0EB8EF0A42A9C
:10047000FAC5F03400FBC3EB13FDEA13F80FEF14D9
:100480006004C3E833F8C3E933EA33FAEB33FBDF44
:10049000EDEB30E20678FF7AFF7B038855D230E837
:1004A0006003755600C3E55CFC955D4002AC5DC31E
:1004B000EC95555008EC75F004A4FAABF0EAF4F8AA
:1004C000EBF45403F98857895875230AE55B30E14A
:1004D00010D0F0D0E0D0D053F7DF43F74043E61020
:1004E00032D0F0D0E0D0D053D8FE43DA0143E6104A
:1004F0003275230AD0F0D0E0D0D043E61032C2AA41
:10050000D28EC2CA85CC6D85CD6ED2CA32C2AFC082
:10051000D0C0E0D2D38557FB8558FC85585B53F794
:10052000BF53DAFED2A8303402D2AA53E6EF53F713
:10053000DF53D8FED0E0D0D0D2AF32790180147929
:10054000038010790A800C791E8008796480047910
:10055000C880007817E4D5E0FDD8FAD9F62278FFF4
:1005600020282879A1E76023E548601F74FF8548AB
:10057000F084853FF030290375F005A4F8C5F060DC
:100580000278FFC3E8955E5002A85E885D22C3E54D
:100590004794E4E5489400E55D500314A19F04608E
:1005A00002F55D2275E89022055FC3E55F9408407F
:1005B0005330EDF4A8BDA9BE755F00E9FA79A0E754
:1005C0006041EA7006E5606018800CC3E8956060E1
:1005D0000EE5605005600A1480070460FA8002E5A9
:1005E00060F560C3956A401B755CC0C394044013FA
:1005F000755C80C39404400B755C40C39404400355
:10060000755C0022E55C2410500274FFF55C2274D6
:100610003279A687F0A4C5F0A2F733F8C3E8955C59
:100620004002A85C885E227547007548F022C2AF80
:10063000C2CAA8CCA9CDAA4130CF010AD2CAD2AF32
:10064000AB42AC4388428943C3E89BF8E99C20282D
:1006500008F9302C02E13EC197AD448A44F9EA9D85
:10066000FA600678FF79FFC17CAE45AF468B458CBA
:1006700046A842A943C3E89EF8E99FF9C3E5481399
:10068000FBE54713FAE82AF547E93BF548500675BC
:1006900047FF7548FFC1E4AA47AB48AC47AD487E69
:1006A000047F02C3EB9404400D1E1FC3EB9408406B
:1006B000052029021E1FC3ED13FDEC13FCDEF7C35A
:1006C000EA9CFAEB9DFBEF6009C3E913F9E813F824
:1006D000DFF7EA28FAEB39FB8A478B4850067BFFA5
:1006E0008B478B48C3EB94025002D22C3028047FF6
:1006F00003E10F7892E6FFC3E53D948240110FC3FA
:10070000E53D94A040010FC3EF940640027F057EB3
:1007100002E548C4540FF9E548C454F0F8E547C46D
:10072000540F28F8C3E89EFAE99400FB4009C3EA95
:100730009401EB940050047A01E4FB02078AAA4773
:10074000AB48EBC4FEEAC4540F4EFCC3EA9CFAEB80
:100750009400FBC3E813C313F8EA28FAEB3400FB58
:100760008A478B48C3EB94024002C22C7802EBC448
:10077000FE7B00EAC4540F4EFAC3EA98FA4005C360
:10078000940150027A017892E6FF302002E18A85D6
:100790004E92854F93D22043E680C3E49AF8E49BBF
:1007A000F9302C03020818E8FAE9FBD3E913FDE855
:1007B00013FC884E894FC3EF94036038EF20E00CA0
:1007C000E82CF8E93DF9ECFAEDFB8013E828F8E9AC
:1007D00039F9C3E82401F8E93400F97AFF7BFFC353
:1007E000EF9403400F8A508B51884A894B8C4C8D73
:1007F0004D02084D885089518A4A8B4B8C4C8D4D47
:100800003028127550F07551FF754CF0754DFF751D
:100810004EF0754FFF02084DE8FAD3E813FC884EFE
:10082000C3EF94036021EF20E007E82CF8ECFA0115
:1008300038E8282401F87AFFC3EF940340098A506E
:10084000884A8C4C02084D88508A4A8C4C302002D1
:10085000014D753A02D22043E680E5255403603409
:10086000A847A948C3E913F9E813F8C3E913F9E85D
:1008700013F8302804E92440F9C2AF53E67F75919C
:1008800000C3E498F594E499F595759104D220435A
:10089000E680D2AF22D221754900752000302B03AB
:1008A00075204001B3D221754900752040302B03DB
:1008B00075200078017901202C20E5255403600281
:1008C000C2217914E548C313700104F8C39414409D
:1008D000027814302804781B791B202010E5496029
:1008E0000C302803D53A04D223215A11550549E585
:1008F0009B5440B52002214430280908C3E89940A0
:10090000011801DA20210A08C3E899400201B30165
:10091000DAC22153E67F759100302C117594007571
:1009200095F8759104D22043E6800208B3E5487E2D
:10093000FFC3334005C3334001FEC3E49E759400FA
:10094000F5952122C3E5399401500201B33021020B
:1009500001B3D802215801DAC223C2AF53E67F7532
:100960009100855094855195759104854A92854BE7
:1009700093D22043E680D2AFE525540360072029B7
:10098000020539801030230D202B0A202107158104
:1009900015810216572278003021027801E53D7555
:1009A000F007A4F9E5F028F5F0E9A2F013A2F1139D
:1009B000A2F213F53DC394785003753D78C3E53D2D
:1009C000953E400ED222C287C291C29375D4FF7564
:1009D000D50F30200221D2854C92854D93D22043F1
:1009E000E68022203817C2AFC291C286D287D29346
:1009F00075D4FF75D50BD2AF759F426107C2AFC2E8
:100A000091C292D293D28775D4BF75D50FD2AF75EC
:100A10009F426107203817C2AFC293D29175D4FFAD
:100A200075D50EC286D287D2AF759F526107C2AF0D
:100A3000C287D29175D4FF75D50EC292D293D2AF30
:100A4000759F326107203817C2AFC287C292D29316
:100A5000D29175D4FF75D50ED2AF759F326107C2A2
:100A6000AFC293C286D287D29175D4FF75D50ED20C
:100A7000AF759F526107203817C2AFC291D28775F8
:100A8000D4BF75D50FC292D293D2AF759F428077F3
:100A9000C2AFC291D29375D4FF75D50BC286D287EF
:100AA000D2AF759F428060203817C2AFC293C29008
:100AB000D291D28775D4BF75D50FD2AF759F5280B2
:100AC00046C2AFC287C290D291D29375D4FF75D57A
:100AD0000BD2AF759F32802F203817C2AFC287D29A
:100AE0009375D4FF75D50BC290D291D2AF759F325A
:100AF0008015C2AFC293D28775D4BF75D50FC2908F
:100B0000D291D2AF759F52C22222203E707A147BBE
:100B1000C88019203E717A107B8C8010203E727A3A
:100B20000D7BB48007203E737A0B7BC8303F0122D7
:100B30007902E4C291D5E0FDD290D291D5E0FDC218
:100B400091D5E0FDC290D291D5E0FDE920E004D23C
:100B500086D28730E004D292D293E565D5E0FDE9F4
:100B600020E002C28730E002C2937496D5E0FDD93E
:100B7000C1EAF8D5E0FDD8FBDBB6C291227A507C01
:100B8000507B057D1480407A327C287B147D288040
:100B9000367A3C7CB47B047D0A802C7A967C327B4E
:100BA000027D1E80227A647C287B057D0F80187868
:100BB00088E614D23C7AC87C327B037D3C80087A7C
:100BC000C87C507B057D46303F0122EBF8303C1558
:100BD000203D091CECB40112B23D800E0CECB43285
:100BE00009B23D80051CEC70010CECC0E0E8C0E0EF
:100BF000EDC0E0303B13C290D291D286D287E5653A
:100C0000D5E0FDC287C2918011C290D291D292D21A
:100C100093E565D5E0FDC293C291B23BD0E0FDFE05
:100C2000D0E0F8D0E0FCF97464D5E0FDDEF9744B57
:100C3000D5E0FDD9F9203BB2D8B0DA0122DA8C2216
:100C4000C287C291C293C287C291C29375D4FF7505
:100C5000D50F22788076FF0876FF0876FF0876FFAA
:100C60000876FF0876FF0876090876FF087601788F
:100C70008C76010876FF0876FF0876FF0876FF0875
:100C800076FF0876030876FF0876FF0876FF087679
:100C90000A0876F00876500876500876030876FF42
:100CA0000876020876FF08767D0876FF0876060843
:100CB00076010876FF0876FF08760008760022FAAB
:100CC00075F00CA4ABF0EAC333F8740133F9E8C350
:100CD00033F8E933F9E8C32BF8E93400F9227888CE
:100CE000E6F554C39403D23A5002C23AC238E63011
:100CF000E102D238A23892397886E61490008093C7
:100D000078A6F67886E6F53FC394025003753F0255
:100D1000789CE6753EFFB40203753EA0B4030375EC
:100D20003E8278A0E6F8600674282409D8FCF56AAB
:100D30007896E691BF88318932789EE691BF8833F4
:100D400089347897E691BF883589369140223036CC
:100D5000117A007B007CFF7D007E00B1B48B628A3B
:100D60006122303A227896E6FA7B00789EE6FC7D96
:100D700000C3EA33FAEB33FBC3EC33FCED33FD7E07
:100D80000AB1B48B648A637896303A02789EE6FAA8
:100D90007B007897E6FC7D007E00303A10C3EA3392
:100DA000FAEB33FBC3EC33FCED33FD7E0AB1B48BBD
:100DB000628A6122C3EC9EFCED9400FDC3EC9AFCB8
:100DC000ED9BFDC3EC9423ED940050047C237D0047
:100DD000C3EC94FFED940140047CFF7D017BFF0B8D
:100DE0007A000AEA7009C3EC33FCED33FDA1DFECB5
:100DF0008AF0A4AEF0ED8AF0A42E947C40E4EAF4EC
:100E000060DD22D236B14E1205471205477A007BCB
:100E1000007C1012053FE5552AFA74003BFBDCF319
:100E20007C04C3EB13FBEA13FADCF7FFEB60027FF1
:100E3000FFC236B14E2278A5E6F954037000E9549A
:100E40000C7000E954307000E954C07000227ADC64
:100E50007B367C02C1D47A3A7B1D7C02C1D47A3EB7
:100E60007B047C02806E7AA47B067C0380667ADE3B
:100E70007B6E7C02805E7A847B2B7C0380567A8436
:100E80007B1D7C02804E7A587BAC7C0280467A6265
:100E90007B6E7C02803E7A417BB67C0180367A494B
:100EA0007B8C7C01802E7A927B8C7C0180267A4E12
:100EB0007B797C01801E7A527B677C0180167AA444
:100EC0007B677C01800E7A577B567C0180067AC452
:100ED0007B377C01ECC0E0C290D291D286D287E50C
:100EE00065D5E0FDC287C291D0E0FCF9EBFD781733
:100EF000E4D5E0FDD8FAD9F6741ED5E0FDDDF9DAC7
:100F0000D322120547740220310E0420320A042035
:100F10003306042034027401C0E0710A12054BD07C
:100F2000E0D5E0F42230341EE56FC3941E400C94EB
:100F30001E40028011711C711C800B711371131201
:100F4000054B711C711C12054B71257125227568AA
:100F5000007569007597DE7597AD7581C043FF8098
:100F600075EF0675A900914075803F75F1C375A4B2
:100F7000C075803F75D4FF75900075F20F75A50F91
:100F800075900075D50F75A60175E34075E2029165
:100F900040E4F8F6D8FD915312169178988665755D
:100FA0003001C2AF12054FD13612054F12054FE581
:100FB00065147005D23F0211D8C23F945914601ACB
:100FC00014600C14603A1460030211C90210DDD2DF
:100FD0003E71AF71AF71AF0211D812054FD16E12D1
:100FE000054BD16E12054BD16E12054BD176D17ED9
:100FF000D16E12054BD176D17ED16ED16E0211D851
:1010000012054F120ECE120543120E96120E9612B4
:101010000543120EAE120543120EC6120543120E00
:10102000CE120543120E96120E96120543120EAE04
:10103000120543120EC6120543120ECE12054312BC
:101040000E96120E96120543120EAE120543120EA4
:10105000C6120543120ECE120543120E96120E96BC
:10106000120543120EAE120543120EC612054312AC
:101070000EA6120543120E8E120543120E561205CD
:1010800043120E96120543120EA6120543120E8E3F
:10109000120543120E56120543120E961205431204
:1010A0000EA6120543120E8E120543120E5612059D
:1010B00043120E96120543120EA6120543120E8E0F
:1010C000120543120E56120543120E9612054312D4
:1010D0000EC6120EC6120543120E8621D8120E4EEF
:1010E000120543120E4E120543120543120EB6129C
:1010F000053F120EB612053F120EB612053F120E34
:10110000B6120543120543120E8E120E8E120543BF
:10111000120E8E120E8E120543120543120E9E12EF
:10112000053F120E9E12053F120E9E12053F120E33
:101130009E120543120543120E86120E86120543B7
:10114000120E86120E86120543120543120E9612D7
:10115000053F120E9612053F120E9612053F120E13
:1011600096120543120543120E66120543120E66CF
:10117000120543120543120E5E12053F120E5E1257
:10118000053F120E5E12053F120E5E120543120558
:1011900043120E4E120E4E120543120543120E8ECE
:1011A000120E8E120E8E120E8E120543120543126F
:1011B0000E86120E86120E86120E86120543120538
:1011C00043120E66120E66800F120B0A12054712AA
:1011D0000B13120547120B1C120547C2AF756800AE
:1011E00075690078FA79FA308007D9FBD8F7021CC4
:1011F00000120CDE120D4E78988665120C4075E4D4
:1012000000758811758E0475890975C80475910477
:1012100075D84075D90875F782759E007596027568
:10122000DA4A75DB0075A82175E69075B801759BE3
:1012300080759D0075D10C75BC5975BB1075E88023
:1012400075B20112053BD2AF753C00C23012054F9A
:10125000C231C232C233C23475220012054BC3E51B
:1012600022940A50026123D23175220012054BC329
:10127000E522940A50026123C231D2327522001253
:10128000054BC3E522940A5002612375E4807588FA
:1012900051758E017589AA758C00758D00C2A9D211
:1012A000ABD2AA756CC0756B14756F50C232D23454
:1012B00075220A12054B756B10C3E522940A406330
:1012C000758E0C756C80756B28756F2875220A12E7
:1012D000054B756B20C3E522940A4047758E0C754B
:1012E0006CC0756B14756F1475220A12054B756B03
:1012F00010C3E522940A755300755200402575E429
:1013000000758811758E04758909D2A9C2ABC2AA6D
:10131000C234D23375220012054BC3E52294034038
:101320000221DB12053F2030030211DBC2AF120F96
:1013300002D2AF12054F203403303A030213E512F4
:10134000053F788CE6C39401500261E5E530C39413
:1013500001500261E57568A57569F17F02D2361208
:101360000D4E12054BC2AFC236120D4EC3E5559459
:101370007FD2AF407012053BC2AF120B25D2AFDF58
:10138000DC120E03C3EF7897F612054FF17E7F0A49
:10139000D236120D4E12054BC2AFC236120D4EC3DD
:1013A000E555947FD2AF50E612053BC2AF120B0A4F
:1013B000120543120B0AD2AFDFD6120E03EF24033D
:1013C0007896F6F87997E7C394234003985006E897
:1013D00024237897F612054FD1D8F1AD12054B12A0
:1013E0000D4E0211DB75680075690012054BC3E5EF
:1013F00055940140026136C2AF12054B120F25D23F
:10140000AF12054F753000E4F537F5380537E5378D
:10141000F4703F0538789AE678191460127832141F
:10142000600D787D14600878FA146003753800C385
:10143000E53898401D120C4012053B1538753700F1
:1014400078998665C2AF120BA5D2AF7898866512DF
:10145000054B120543E523700221DBC3E5529401DD
:101460005014C3E555940140A312054BE5237003C6
:101470000211DB0214F7E55294017005120B0A8089
:101480006EE55294027005120B138063E5529403CB
:101490007005120B1C8058E55294047005120B2540
:1014A000804DE55294057005120BA58042E55294DB
:1014B000147015E553C3940A503BE554B40102C2BD
:1014C00038B4022BD2388027E55294157015E553B5
:1014D000C3940A5020E554B40102D238B40210C2B9
:1014E00038800CE552940C7006120B25120B2575F2
:1014F0005200755300815BC2AF120C40E4D2AFE4DE
:10150000F55FF524F525F53D755F0812053B1205DD
:10151000A430EDFDA8BDA9BEE97001F888601205F0
:10152000A8755F08C2AF755CFF12060F855E5C850B
:101530005E5DD2AF303A07C238303502D238D22899
:10154000753900120AA7120AD812062712062E129F
:10155000062712062E1206271208A512099612094E
:10156000E312062E120895202C0312055E302C0380
:1015700012058E120996120A1412062E1208A512CE
:101580000996120A4512062E120895120996120A99
:101590007612062E1208A5120996120AA712062E16
:1015A0001205A4120895120996120AD81205A8125B
:1015B000062E302827855E5C79187A0CC3E53999A8
:1015C000400EC228D2298A3B855E5C855E5D800C18
:1015D000C3E55594014003021558C15F30291F200F
:1015E0002B1CE53B147006C229D22AA158F53BC337
:1015F000E55594014003021558203A028061753C7C
:101600000078FA79A4E760027803C3E55698504F52
:10161000E523604B303A17203805203507800F301E
:101620003502800A202B07D22B855E5CA18878F0DA
:10163000302B05855E5C7820C3E548985003021581
:1016400058302B1BC22BC238303502D238D2297504
:101650003B12855E5CA158053CE5556002C1627590
:101660003C00C2AF120C40752400752500D2AF12A9
:10167000054B120C4078A4E6600CC286D287C2905B
:10168000D291C292D293C3E53C9404400221DB8103
:1016900007901A0D7820F111E520B4550AA3F11135
:1016A000E520B4AA0280137568A57569F1120C5380
:1016B000D1D8756800756900801D901A0378807B09
:1016C0000AF111A308DBFA901A0F788C7B1AF1113A
:1016D000A308DBFA901A2922C2AFF154F131901A13
:1016E000007410F116A37442F116A37421F1169040
:1016F0001A0378807B0AF115A308DBFA901A0F7899
:101700008C7B1AF115A308DBFAF167F145901A29D1
:1017100022E493F622E6438F01538FFDFFC3E58356
:10172000941C400122EF8568B78569B7F0538FFE9E
:1017300022438F02438F018568B78569B7901A0DE0
:10174000F0538FFC22901A0D7455F116901A0E74F6
:10175000AAF116227A3079D07820901A40F111E55A
:1017600020F709A3DAF7227A3079D0901A40E7F10E
:101770001609A3DAF9227C0512054FDCFB22C2AF61
:10178000120B0A120B13120B1C120B25120543121B
:101790000B0A120B13120B1C120B25120543120B12
:1017A0000A120B13120B1C120B25D2AF22C2AF125E
:1017B0000B25120B1C120B13120B0A120543120BF2
:1017C00025120B1C120B13120B0A120543120B25C8
:0C17D000120B1C120B13120B0AD2AF22DA
:1019FD00020F4E104221FFFFFFFFFFFF09FF01FF06
:101A0D0055AA01FFFFFFFFFF03FFFFFF0AF0505034
:0D1A1D0003FF02FF7DFF0601FFFF0000FF39
:101A400023435F4C5F3030232020202020202020A3
:101A500023424C48454C492445464D3842313023B9
:101A600031362E36365F6473686F74746573742014
:101C0000C2AFC2D37597DE7597AD7581C075A90057
:101C100043FF80752438752503B1DB7529A5752A26
:101C2000F143F10153A4FED28075D4FF75E3407DEA
:101C3000FA780379E67C10752200752300901DE880
:101C40007B06752498752501308002814820800824
:101C5000D8FBD9F9DCF781BA308008D8FBD9F9DC98
:101C6000F781BAB19BE493A3C39A6004DDC381BA40
:101C7000DBDBB18D600281317B08E493FAA3B16EA6
:101C8000DBF87A30B16E752200752300B18DEAFC65
:101C9000EBFDC3ED94FE400EB18D8A278B28ED300D
:101CA000E0048A828B83B18D7AC270D8C3ED94FE32
:101CB000601950CEBD0029EC600F7520007521FF22
:101CC000752900752A000200008100A827A92808AC
:101CD00009D804D90281DDB191EAF281D10D81A642
:101CE000C3ED94035051EDA2E092007AC5C3E582A2
:101CF0009400E583941C508C200010438F02438F86
:101D0000018529B7852AB7F0300027A827A9280818
:101D100009438F01538FFDD804D902A132C3E58353
:101D2000941C4003A3A117E28529B7852AB7F0A325
:101D3000A117538FFC81827AC1BD030CE493A3FAEF
:101D4000B152DCF8B14A81828184AA22AB23B16E00
:101D5000EBFAEA6222752608C3E52313F523E52290
:101D600013F52250066323A0632201D526EAB1DBD6
:101D7000B1DB75260AEAF4200102D280300102C2EA
:101D800080B1DBC3134002C201D526EB22B191EA38
:101D9000FB208002A191308002A196752608AE2416
:101DA000AF25C3EF13FFEE13FEB1DFB1DBC3EA13C0
:101DB0003080024480FA30E703632201C3E5231335
:101DC000F523E52213F52250066323A0632201D5F3
:101DD00026D9E52265236523F52222AE24AF250E00
:101DE0000FDEFEDFFCD20122424C48656C693437BD
:061DF0003164E8B10601B8
:00000001FF
