:020000040000FA
:060000000219FD02030DD0
:030013000204FCE8
:03001B0002008D53
:03002B000202D2FC
:03005B0002050B90
:030073000202FA8C
:100080000406080C10182030406080A0C0C2AFC227
:10009000A853E6EFC28E856B8BC0D0D2D3C0E0C030
:1000A000F0C2CAA8CCA9CDD2CAD2AF758A00C3E823
:1000B000956CF8E9956DF9C3E913F9E813F8E5666D
:1000C0006007C3E913F9E813F8E97025E8956E4075
:1000D00020956E501CE582B410177C007B007A00DE
:1000E0007908900000A86AE5667004C3E813F80177
:1000F000FA900000D2A8D2AA61B7E0FDC39CC398D1
:1001000040EF98EB33FB0582E0FCC39DC39840E1D0
:1001100098EB33FB0582E0FDC39CC39840D398EB7A
:1001200033FB0582E0FCC39DC39840C598EB33FBCD
:100130000582E0FDC39CC39840B798EB33FB058272
:10014000E0FCC39DC39840A998EB33FB0582E0FD1A
:10015000C39CC398409B98EB33FB0582E0FCC39D96
:10016000C398408D98EB33FB05822175900000D237
:10017000A8D2AA61B7E0FDC39CC39840EF98EA33C8
:10018000FA0582E0FCC39DC39840E198EA33FA0582
:1001900082E0FDC39CC39840D398EA33FA0582E01D
:1001A000FCC39DC39840C598EA33FA0582E0FDC3BD
:1001B0009CC39840B798EA33FA0582E0FCC39DC31C
:1001C0009840A998EA33FA0582E0FDC39CC39840A1
:1001D0009B98EA33FA0582E0FCC39DC398408D9852
:1001E000EA33FA0582EBC46B6A54F0F9EAC454F0BE
:1001F000C3996009900000D2A8D2AA61B7EBF4C4F9
:1002000054F0F9EAF4C4540E49FAEBF4C4540FFB69
:10021000C3EAF99460FAEB9400FB501DC3E97B003C
:100220007A007900601303F9C39552600AE9F55228
:10023000755300790080020553303A27C3EA94D001
:10024000F8EB9407F9400BE8FAE9FB203509D235C1
:100250004157303502C235203902B235C3EA33FA8C
:10026000EB33FBEB2B3B3BF9C3EB13FBEA13FAEA53
:1002700029FAEB3400FB30E3047AFF7BFFE52554D9
:1002800003601B202A18E55D33F9EB7007C3E99A78
:100290004002E9FAE53CC4332AFAEB3400FBC3EA36
:1002A00033C4540FF8EB33C454F048F87005EA60D7
:1002B000027801C3EB13FBEA13FA900000D2A8D234
:1002C000AAE52260021522819B900000D2A8D2AA42
:1002D00061B7C0D0C0E0C2CF0541E523600215235D
:1002E000C3E554600575550041F5E5552401F55504
:1002F00050037555FFD0E0D0D032C2AF53E67F75C2
:1003000092FA7593FFC22053917FD2AF32C0E0E5DD
:100310008A303408856B8BF0A3D0E032D0E0C2AFD6
:1003200053E6EFC0D0C0E0C0F0D2D3D2AF5388EFD5
:10033000A88AA98C758A00758C0043881030331FF9
:10034000E8C4540FFAE9C454F04AFAC3132AFAC3B2
:10035000E833F8E933F9E82AFAE93403FB61A83015
:10036000320FC3E833E933FAE82AFAE93400FB61D3
:10037000A8303115E875F056A4AAF0E975F056A436
:100380002AFAC5F03400FB61A8E875F02BA4AAF0A6
:10039000E975F02BA42AFAC5F03400C313FBEA1365
:1003A000FAC3EB13FBEA13FAC3EB94095009C3EA4F
:1003B000949AEB940350160522E52270021522C38D
:1003C000E5229432500281EF75540081F2E52260FB
:1003D0000215223036067C007D0461E7AC31AD3277
:1003E000303A04AC33AD34C3EA9CFAEB9DFB92087F
:1003F000AE60AF61303A425007203509D2358105F1
:10040000303502C235303504AE62AF63203902B2F6
:1004100035C3EA33FAEB33FBA208500AEAF42401AD
:10042000FAEBF43400FBC3EA9428FAEB9400FB5097
:100430001478007A007B008145A208500878007A81
:10044000007B00819BE52554036019202A16E55D99
:10045000F9EB7007C3E99A4002E9FAE53CC42AFACD
:10046000EB3400FBEA8EF0A4F9AAF0EB8EF0A42A9C
:10047000FAC5F03400FBC3EB13FDEA13F80FEF14D9
:100480006004C3E833F8C3E933EA33FAEB33FBDF44
:10049000EDEB30E20678FF7AFF7B038854D230E838
:1004A0006003755500C3E55BFC955C4002AC5CC322
:1004B000EC95545008EC75F004A4FAABF0EAF4F8AB
:1004C000EBF45403F9C3E8940AFAE99400FB5004EE
:1004D0007A007B00885689578A588B5975230AD031
:1004E000F0D0E0D0D053F7DF43F74043E610327549
:1004F000230AD0F0D0E0D0D043E61032C2AAD28E88
:10050000C2CA85CC6C85CD6DD2CA32C2AFC0D0C054
:10051000E0D2D3A8F9E55A30E10AE5FA20E1352026
:10052000E032A12CE5FA30E12B20E028C3E5571397
:10053000F8E55613F5FB88FCC3E55913F8E55813A5
:10054000F5E988EA85575A53F7BFD2A8303402D26A
:10055000AA53E6EF53F7DFD0E0D0D0D2AF32790123
:10056000801479038010790A800C791E80087964E0
:10057000800479C880007817E4D5E0FDD8FAD9F670
:100580002278FF20282879A1E76023E548601F74BE
:10059000FF8548F084853FF030290375F005A4F805
:1005A000C5F0600278FFC3E8955D5002A85D885CE5
:1005B00022C3E54794E4E5489400E55C500314A1A8
:1005C000C2046002F55C2275E89022055EC3E55E18
:1005D0009408405330EDF4A8BDA9BE755E00E9FA59
:1005E00079A0E76041EA7006E55F6018800CC3E817
:1005F000955F600EE55F5005600A1480070460FA9D
:100600008002E55FF55FC39569401B755BC0C394CD
:10061000044013755B80C39404400B755B40C39426
:10062000044003755B0022E55B2410500274FFF563
:100630005B22743279A687F0A4C5F0A2F733F8C321
:10064000E8955B4002A85B885D227547007548F01D
:1006500022C2AFC2CAA8CCA9CDAA4130CF010AD2CA
:10066000CAD2AFAB42AC4388428943C3E89BF8E9A6
:100670009C202808F9302C02E161C1BAAD448A44BB
:10068000F9EA9DFA600678FF79FFC19FAE45AF4653
:100690008B458C46A842A943C3E89EF8E99FF9C35D
:1006A000E54813FBE54713FAE82AF547E93BF54827
:1006B00050067547FF7548FFE107AA47AB48AC47AE
:1006C000AD487E047F02C3EB9404400D1E1FC3EBB4
:1006D000940840052029021E1FC3ED13FDEC13FCF6
:1006E000DEF7C3EA9CFAEB9DFBEF6009C3E913F95F
:1006F000E813F8DFF7EA28FAEB39FB8A478B485012
:10070000067BFF8B478B48C3EB94025002D22C3000
:1007100028047F03E1327892E6FFC3E53D948240EE
:10072000110FC3E53D94A040010FC3EF94064002B2
:100730007F057E02E548C4540FF9E548C454F0F83B
:10074000E547C4540F28F8C3E89EFAE99400FB403B
:1007500009C3EA9401EB940050047A01E4FB020718
:10076000ADAA47AB48EBC4FEEAC4540F4EFCC3EA43
:100770009CFAEB9400FBC3E813C313F8EA28FAEBE6
:100780003400FB8A478B48C3EB94024002C22C78AA
:1007900002EBC4FE7B00EAC4540F4EFAC3EA98FA97
:1007A0004005C3940150027A017892E6FF3020029E
:1007B000E1AD854E92854F93D22043E680C3E49A03
:1007C000F8E49BF9302C0302083BE8FAE9FBD3E993
:1007D00013FDE813FC884E894FC3EF94036038EF94
:1007E00020E00CE82CF8E93DF9ECFAEDFB8013E889
:1007F00028F8E939F9C3E82401F8E93400F97AFF67
:100800007BFFC3EF9403400F8A508B51884A894B7A
:100810008C4C8D4D020870885089518A4A8B4B8CC4
:100820004C8D4D3028127550F07551FF754CF07598
:100830004DFF754EF0754FFF020870E8FAD3E813CC
:10084000FC884EC3EF94036021EF20E007E82CF80A
:10085000ECFA015BE8282401F87AFFC3EF94034027
:10086000098A50884A8C4C02087088508A4A8C4CFD
:100870003020020170753A02D22043E680E525540B
:10088000036034A847A948C3E913F9E813F8C3E99A
:1008900013F9E813F8302804E92440F9C2AF53E60D
:1008A0007F759100C3E498F594E499F595759104EA
:1008B000D22043E680D2AF22D221754900752000B4
:1008C000302B0375204001D6D22175490075204098
:1008D000302B0375200078017901202C20E5255468
:1008E000036002C2217914E548C313700104F8C300
:1008F000941440027814302804781B791B202010AF
:10090000E549600C302803D53A04D223217D1178C3
:100910000549E59B5440B52002216730280908C3EA
:10092000E89940011801FD20210A08C3E899400216
:1009300001D601FDC22153E67F759100302C11755F
:1009400094007595F8759104D22043E6800208D68C
:10095000E5487EFFC3334005C3334001FEC3E49E38
:10096000759400F5952145C3E5399401500201D6EF
:1009700030210201D6D802217B01FDC223C2AF5330
:10098000E67F759100855094855195759104854A4F
:1009900092854B93D22043E680D2AFE52554036085
:1009A000072029020539801030230D202B0A202131
:1009B00007158115810215EA22780030210278019D
:1009C000E53D75F007A4F9E5F028F5F0E9A2F0138C
:1009D000A2F113A2F213F53DC394785003753D784C
:1009E000C3E53D953E400BD222C290C292C294759F
:1009F000D53F30200221F2854C92854D93D2204381
:100A0000E68022203810C2AFD293C29175D50FD2A2
:100A1000AF759F0341D3C2AFD293C29575D53CD277
:100A2000AF759F0341D3203810C2AFC29475D53340
:100A3000C291D2AF759F1341D3C2AFC29075D53367
:100A4000C295D2AF759F2341D3203810C2AFD29147
:100A5000C29575D533D2AF759F238077C2AFD2953B
:100A6000C29175D533D2AF759F138067203810C2FD
:100A7000AFC29275D53CC295D2AF759F038054C268
:100A8000AFC29275D50FC291D2AF759F038044203B
:100A90003810C2AFD295C29375D53CD2AF759F13B3
:100AA0008031C2AFD291C29375D50FD2AF759F235B
:100AB0008021203810C2AFC29075D50FC293D2AF3B
:100AC000759F23800EC2AFC29475D53CC293D2AF3E
:100AD000759F13C22222203E687A147BC880192099
:100AE0003E697A107B8C8010203E6A7A0D7BB48040
:100AF00007203E6B7A0B7BC8303F01227902E4D29B
:100B000093D5E0FDD292D5E0FDC292D5E0FDC2932F
:100B1000D5E0FDE920E002D29030E002D294E56415
:100B2000D5E0FDE920E002C29030E002C294749664
:100B3000D5E0FDD9C9EAF8D5E0FDD8FBDBBED293FC
:100B4000227A507C507B057D1480407A327C287B51
:100B5000147D2880367A3C7CB47B047D0A802C7A14
:100B6000967C327B027D1E80227A647C287B057D08
:100B70000F80187888E614D23C7AC87C327B037DDB
:100B80003C80087AC87C507B057D46303F0122EBD3
:100B9000F8303C15203D091CECB40112B23D800E2A
:100BA0000CECB43209B23D80051CEC70010CECC0B9
:100BB000E0E8C0E0EDC0E0303B0FC293D290E564C6
:100BC000D5E0FDC290D293800DC293D294E564D556
:100BD000E0FDC294D293B23BD0E0FDFED0E0F8D06D
:100BE000E0FCF97464D5E0FDDEF9744BD5E0FDD985
:100BF000F9203BBAD8B8DA0122DA9422C290C29224
:100C0000C294D291D293D29575D53F22788076FF47
:100C10000876FF0876FF0876FF0876FF0876FF085B
:100C200076090876FF087601788C76010876FF0849
:100C300076FF0876FF0876FF0876FF0876030876C9
:100C4000FF0876FF0876FF08760A0876F0087650E7
:100C50000876500876030876FF0876020876FF08C3
:100C6000767D0876FF0876060876010876FF087616
:100C7000FF08760008760022FA75F00CA4ABF0EAC3
:100C8000C333F8740133F9E8C333F8E933F9E8C33F
:100C90002BF8E93400F9227888E6C39403D23A505D
:100CA00002C23AC238E630E102D238A2389239782C
:100CB00086E6149000809378A6F67886E6F53FC322
:100CC00094025003753F02789CE6753EFFB4020320
:100CD000753EA0B40303753E8278A0E6F860067402
:100CE000282409D8FCF5697896E69178883189320C
:100CF000789EE69178883389347897E691788835BC
:100D0000893671FC223036117A007B007CFF7D0031
:100D10007E00B16B8B618A6022303A227896E6FAC7
:100D20007B00789EE6FC7D00C3EA33FAEB33FBC31D
:100D3000EC33FCED33FD7E0AB16B8B638A627896EF
:100D4000303A02789EE6FA7B007897E6FC7D007EDA
:100D500000303A10C3EA33FAEB33FBC3EC33FCED5B
:100D600033FD7E0AB16B8B618A6022C3EC9EFCED81
:100D70009400FDC3EC9AFCED9BFDC3EC9423ED9431
:100D80000050047C237D00C3EC94FFED94014004EB
:100D90007CFF7D017BFF0B7A000AEA7009C3EC330C
:100DA000FCED33FDA196EC8AF0A4AEF0ED8AF0A440
:100DB0002E947C40E4EAF460DD22D236B1051205BF
:100DC0006A12056A7A007B007C10120562E5542ADB
:100DD000FA74003BFBDCF37C04C3EB13FBEA13FA6D
:100DE000DCF7FFEB60027FFFC236B1052278A5E693
:100DF000F954037000E9540C7000E954307000E9B4
:100E000054C07000227ADC7B367C02C18B7A3A7B3C
:100E10001D7C02C18B7A3E7B047C02806E7AA47BAF
:100E2000067C0380667ADE7B6E7C02805E7A847B41
:100E30002B7C0380567A847B1D7C02804E7A587B03
:100E4000AC7C0280467A627B6E7C02803E7A417B7B
:100E5000B67C0180367A497B8C7C01802E7A927B2D
:100E60008C7C0180267A4E7B797C01801E7A527BB5
:100E7000677C0180167AA47B677C01800E7A577BA1
:100E8000567C0180067AC47B377C01ECC0E0C293BB
:100E9000D290E564D5E0FDC290D293D0E0FCF9EBAE
:100EA000FD7817E4D5E0FDD8FAD9F6741ED5E0FD3B
:100EB000DDF9DAD72212056A740220310E042032DD
:100EC0000A04203306042034027401C0E051D61213
:100ED000056ED0E0D5E0F42230341EE56EC3941EDA
:100EE000400C941E4002801151E851E8800B51DF04
:100EF00051DF12056E51E851E812056E51F151F1C2
:100F0000227567007568007597DE7597AD7581C0AD
:100F100043FF8075EF0675A90071FC7580FF75F1C0
:100F2000F075A4007580FF75D4FF75902A75F23FA7
:100F300075A53F75902A75D53F75A60175E3407577
:100F4000E20271FCE4F8F6D8FD910C12161E7898B6
:100F50008664753001C2AF120572B1ED12057212CE
:100F60000572E564147005D23F02117AC23F9459AC
:100F700014601A14600C14603A14600302116B02BE
:100F8000107FD23E71737173717302117A12057200
:100F9000D12512056ED12512056ED12512056ED10F
:100FA0002DD135D12512056ED12DD135D125D125A3
:100FB00002117A120572D185120566D14DD14D12FA
:100FC0000566D165120566D17D120566D1851205CB
:100FD00066D14DD14D120566D165120566D17D12DF
:100FE0000566D185120566D14DD14D120566D165D4
:100FF000120566D17D120566D185120566D14D12A6
:101000000E4D120566120E65120566120E7D120552
:1010100066120E5D120566120E45120566120E0D61
:10102000120566120E4D120566120E5D120566124D
:101030000E45120566120E0D120566120E4D1205B2
:1010400066120E5D120566120E45120566120E0D31
:10105000120566120E4D120566120E5D120566121D
:101060000E45120566120E0D120566120E4D120582
:1010700066120E7D120E7D120566120E3D217A1249
:101080000E05120566120E05120566120566120E91
:101090006D120562120E6D120562120E6D1205625E
:1010A000120E6D120566120566120E45120E4512DD
:1010B0000566120E45120E45120566120566120EE1
:1010C00055120562120E55120562120E5512056276
:1010D000120E55120566120566120E3D120E3D12D5
:1010E0000566120E3D120E3D120566120566120EC1
:1010F0004D120562120E4D120562120E4D1205625E
:10110000120E4D120566120566120E1D12056612AC
:101110000E1D120566120566120E15120562120EDC
:1011200015120562120E15120562120E15120566D1
:10113000120566120E05120E0512056612056612DC
:101140000E45120E45120E45120E45120566120589
:1011500066120E3D120E3D120E3D120E3D12056638
:10116000120566120E1D120E1D800F120AD61205F0
:101170006A120ADF12056A120AE812056AC2AF751E
:10118000670075680078FA79FA308507D9FBD8F7D7
:10119000021C00120C97120D0578988664120BFC45
:1011A00075E405758811758E0475890975C804750F
:1011B000910475D84075D90875F781759E037596A9
:1011C0000075DA4275DB4275A82175E69075B801A5
:1011D000759B80759D0075D10C75BC5975BB1075DC
:1011E000E88075B20112055ED2AF753C00C23012C4
:1011F0000572C231C232C233C23475220012056E8A
:10120000C3E522940A500241C5D23175220012056D
:101210006EC3E522940A500241C5C231D232752212
:101220000012056EC3E522940A500241C575E4D54B
:10123000758851758E017589AA758C00758D00C2EF
:10124000A9D2ABD2AA756BC0756A14756E50C23242
:10125000D23475220A12056E756A10C3E522940A0B
:101260004063758E0C756B80756A28756E287522C3
:101270000A12056E756A20C3E522940A4047758EEE
:101280000C756BC0756A14756E1475220A12056EA2
:10129000756A10C3E522940A755300755200402503
:1012A00075E405758811758E04758909D2A9C2ABDC
:1012B000C2AAC234D23375220012056EC3E522944D
:1012C000034002217D12056220300302117DC2AF6E
:1012D000120EB5D2AF120572203403303A03021356
:1012E00087120562788CE6C3940150026187E5306D
:1012F000C39401500261877567A57568F17F02D2BA
:1013000036120D0512056EC2AFC236120D05C3E5C9
:1013100054947FD2AF407012055EC2AF120AF1D270
:10132000AFDFDC120DBAC3EF7897F6120572F10B3E
:101330007F0AD236120D0512056EC2AFC236120DEB
:1013400005C3E554947FD2AF50E612055EC2AF12DA
:101350000AD6120566120AD6D2AFDFD6120DBAEF40
:1013600024037896F6F87997E7C3942340039850BE
:1013700006E824237897F6120572D165F13A120532
:101380006E120D0502117D75670075680012056EFD
:10139000C3E5549401400241D8C2AF12056E120E4B
:1013A000D8D2AF120572753000E4F537F53805373D
:1013B000E537F4703F0538789AE6781914601278AA
:1013C0003214600D787D14600878FA146003753863
:1013D00000C3E53898401D120BFC12055E153875E8
:1013E000370078998664C2AF120B69D2AF789886BD
:1013F0006412056E120566E5237002217DC3E55275
:1014000094015011C3E554940140A312056EE523E5
:10141000707802117DE55294017005120AD680623F
:10142000E55294027005120ADF8057E5529403706A
:1014300005120AE8804CE55294047005120AF18006
:1014400041E55294057005120B698036E552940609
:10145000700BE553C3940A502FC2388025E552948F
:10146000077009E553C3940A501ED238E552940C14
:10147000701020380A7888E6F4F6F8D165F13A124F
:101480000AF175520075530061FDC2AF120BFCE406
:10149000D2AFE4F55EF524F525F53D755E0812053D
:1014A0005E1205C730EDFDA8BDA9BEE97001F88840
:1014B0005F1205CB755E08C2AF755BFF1206328501
:1014C0005D5B855D5CD2AF303A07C238303502D201
:1014D00038D228753900120A8F120AB212064A123F
:1014E000065112064A12065112064A1208C812097B
:1014F000B9120A031206511208B8202C03120581F2
:10150000302C031205B11209B9120A261206511223
:1015100008C81209B9120A491206511208B812096C
:10152000B9120A6C1206511208C81209B9120A8FB0
:101530001206511205C71208B81209B9120AB212DE
:1015400005CB120651302827855D5B79187A0CC3CC
:10155000E53999400EC228D2298A3B855D5B855DBD
:101560005C800CC3E554940140030214EBA1F230FB
:10157000291F202B1CE53B147006C229D22A81EBBF
:10158000F53BC3E554940140030214EB203A02807A
:1015900061753C0078FA79A4E760027803C3E555E9
:1015A00098504FE523604B303A1720380520350717
:1015B000800F303502800A202B07D22B855D5BA17E
:1015C0001B78F0302B05855D5B7820C3E54898508B
:1015D000030214EB302B1BC22BC238303502D23839
:1015E000D229753B12855D5B81EB053CE5546002B9
:1015F000A1F5753C00C2AF120BFC752400752500E7
:10160000D2AF12056E120BFC78A4E66006C291C23E
:1016100093C295C3E53C94044002217D61A9901AD0
:101620000D7820D19EE520B4550AA3D19EE520B4C3
:10163000AA0280137567A57568F1120C0CD1657547
:101640006700756800801D901A0378807B0AD19E20
:10165000A308DBFA901A0F788C7B1AD19EA308DBC3
:10166000FA901A2922C2AFD1E1D1BE901A007410AB
:10167000D1A3A37442D1A3A37421D1A3901A037858
:10168000807B0AD1A2A308DBFA901A0F788C7B1A10
:10169000D1A2A308DBFAD1F4D1D2901A2922E49383
:1016A000F622E6438F01538FFDFFC3E583941C4070
:1016B0000122EF8567B78568B7F0538FFE22438F0D
:1016C00002438F018567B78568B7901A0DF0538F75
:1016D000FC22901A0D7455D1A3901A0E74AAD1A3AE
:1016E000227A3079D07820901A40D19EE520F709EF
:1016F000A3DAF7227A3079D0901A40E7D1A309A370
:10170000DAF9227C05120572DCFB22C2AF120AD67E
:10171000120ADF120AE8120AF1120566120AD6123C
:101720000ADF120AE8120AF1120566120AD6120A34
:10173000DF120AE8120AF1D2AF22C2AF120AF11286
:101740000AE8120ADF120AD6120566120AF1120A14
:10175000E8120ADF120AD6120566120AF1120AE826
:09176000120ADF120AD6D2AF22F0
:1019FD00020F01104221FFFFFFFFFFFF09FF01FF53
:101A0D0055AA01FFFFFFFFFF03FFFFFF0AF0505034
:0D1A1D0003FF02FF7DFF0601FFFF0000FF39
:101A400023445F4C5F3130232020202020202020A1
:101A500023424C48454C492445464D3842313023B9
:101A600031362E36365F6473686F74746573742014
:101C0000C2AFC2D37597DE7597AD7581C075A90057
:101C100043FF80752438752503B1DB7529A5752A26
:101C2000F143F12053A4DFD28575D4FF75E3407DE5
:101C3000FA780379E67C10752200752300901DE880
:101C40007B0675249875250130850281482085081A
:101C5000D8FBD9F9DCF781BA308508D8FBD9F9DC93
:101C6000F781BAB19BE493A3C39A6004DDC381BA40
:101C7000DBDBB18D600281317B08E493FAA3B16EA6
:101C8000DBF87A30B16E752200752300B18DEAFC65
:101C9000EBFDC3ED94FE400EB18D8A278B28ED300D
:101CA000E0048A828B83B18D7AC270D8C3ED94FE32
:101CB000601950CEBD0029EC600F7520007521FF22
:101CC000752900752A000200008100A827A92808AC
:101CD00009D804D90281DDB191EAF281D10D81A642
:101CE000C3ED94035051EDA2E092007AC5C3E582A2
:101CF0009400E583941C508C200010438F02438F86
:101D0000018529B7852AB7F0300027A827A9280818
:101D100009438F01538FFDD804D902A132C3E58353
:101D2000941C4003A3A117E28529B7852AB7F0A325
:101D3000A117538FFC81827AC1BD030CE493A3FAEF
:101D4000B152DCF8B14A81828184AA22AB23B16E00
:101D5000EBFAEA6222752608C3E52313F523E52290
:101D600013F52250066323A0632201D526EAB1DBD6
:101D7000B1DB75260AEAF4200102D285300102C2E5
:101D800085B1DBC3134002C201D526EB22B191EA33
:101D9000FB208502A191308502A196752608AE240C
:101DA000AF25C3EF13FFEE13FEB1DFB1DBC3EA13C0
:101DB0003085024480FA30E703632201C3E5231330
:101DC000F523E52213F52250066323A0632201D5F3
:101DD00026D9E52265236523F52222AE24AF250E00
:101DE0000FDEFEDFFCD20122424C48656C693437BD
:061DF0003164E8B10601B8
:00000001FF
