:020000040000FA
:060000000219FD02030DD0
:030013000204FCE8
:03001B0002008D53
:03002B000202D2FC
:03005B0002050B90
:030073000202FA8C
:100080000406080C10182030406080A0C0C2AFC227
:10009000A853E6EFC28E856C8BC0D0D2D3C0E0C02F
:1000A000F0C2CAA8CCA9CDD2CAD2AF758A00C3E823
:1000B000956DF8E9956EF9C3E913F9E813F8E5676A
:1000C0006007C3E913F9E813F8E97025E8956F4074
:1000D00020956F501CE582B410177C007B007A00DD
:1000E0007908900000A86BE5677004C3E813F80175
:1000F000FA900000D2A8D2AA61B7E0FDC39CC398D1
:1001000040EF98EB33FB0582E0FCC39DC39840E1D0
:1001100098EB33FB0582E0FDC39CC39840D398EB7A
:1001200033FB0582E0FCC39DC39840C598EB33FBCD
:100130000582E0FDC39CC39840B798EB33FB058272
:10014000E0FCC39DC39840A998EB33FB0582E0FD1A
:10015000C39CC398409B98EB33FB0582E0FCC39D96
:10016000C398408D98EB33FB05822175900000D237
:10017000A8D2AA61B7E0FDC39CC39840EF98EA33C8
:10018000FA0582E0FCC39DC39840E198EA33FA0582
:1001900082E0FDC39CC39840D398EA33FA0582E01D
:1001A000FCC39DC39840C598EA33FA0582E0FDC3BD
:1001B0009CC39840B798EA33FA0582E0FCC39DC31C
:1001C0009840A998EA33FA0582E0FDC39CC39840A1
:1001D0009B98EA33FA0582E0FCC39DC398408D9852
:1001E000EA33FA0582EBC46B6A54F0F9EAC454F0BE
:1001F000C3996009900000D2A8D2AA61B7EBF4C4F9
:1002000054F0F9EAF4C4540E49FAEBF4C4540FFB69
:10021000C3EAF99460FAEB9400FB501DC3E97B003C
:100220007A007900601303F9C39552600AE9F55228
:10023000755300790080020553303A27C3EA94D001
:10024000F8EB9407F9400BE8FAE9FB203509D235C1
:100250004157303502C235203902B235C3EA33FA8C
:10026000EB33FBEB2B3B3BF9C3EB13FBEA13FAEA53
:1002700029FAEB3400FB30E3047AFF7BFFE52554D9
:1002800003601B202A18E55E33F9EB7007C3E99A77
:100290004002E9FAE53CC4332AFAEB3400FBC3EA36
:1002A00033C4540FF8EB33C454F048F87005EA60D7
:1002B000027801C3EB13FBEA13FA900000D2A8D234
:1002C000AAE52260021522819B900000D2A8D2AA42
:1002D00061B7C0D0C0E0C2CF0541E523600215235D
:1002E000C3E555600575560041F5E5562401F55600
:1002F00050037556FFD0E0D0D032C2AF53E67F75C1
:1003000092FA7593FFC22053917FD2AF32C0E0E5DD
:100310008A303408856C8BF0A3D0E032D0E0C2AFD5
:1003200053E6EFC0D0C0E0C0F0D2D3D2AF5388EFD5
:10033000A88AA98C758A00758C0043881030331FF9
:10034000E8C4540FFAE9C454F04AFAC3132AFAC3B2
:10035000E833F8E933F9E82AFAE93403FB61A83015
:10036000320FC3E833E933FAE82AFAE93400FB61D3
:10037000A8303115E875F056A4AAF0E975F056A436
:100380002AFAC5F03400FB61A8E875F02BA4AAF0A6
:10039000E975F02BA42AFAC5F03400C313FBEA1365
:1003A000FAC3EB13FBEA13FAC3EB94095009C3EA4F
:1003B000949AEB940350160522E52270021522C38D
:1003C000E5229432500281EF75550081F2E52260FA
:1003D0000215223036067C007D0461E7AC31AD3277
:1003E000303A04AC33AD34C3EA9CFAEB9DFB92087F
:1003F000AE61AF62303A425007203509D2358105EF
:10040000303502C235303504AE63AF64203902B2F4
:1004100035C3EA33FAEB33FBA208500AEAF42401AD
:10042000FAEBF43400FBC3EA9428FAEB9400FB5097
:100430001478007A007B008145A208500878007A81
:10044000007B00819BE52554036019202A16E55E98
:10045000F9EB7007C3E99A4002E9FAE53CC42AFACD
:10046000EB3400FBEA8EF0A4F9AAF0EB8EF0A42A9C
:10047000FAC5F03400FBC3EB13FDEA13F80FEF14D9
:100480006004C3E833F8C3E933EA33FAEB33FBDF44
:10049000EDEB30E20678FF7AFF7B038855D230E837
:1004A0006003755600C3E55CFC955D4002AC5DC31E
:1004B000EC95555008EC75F004A4FAABF0EAF4F8AA
:1004C000EBF45403F9C3E89446FAE99400FB5004B2
:1004D0007A007B00885789588A598B5A75230AD02D
:1004E000F0D0E0D0D053F7DF43F74043E610327549
:1004F000230AD0F0D0E0D0D043E61032C2AAD28E88
:10050000C2CA85CC6D85CD6ED2CA32C2AFC0D0C052
:10051000E0D2D3A8F9E55B30E10AE5FA20E1352025
:10052000E032A12CE5FA30E12B20E028C3E5581396
:10053000F8E55713F5FB88FCC3E55A13F8E55913A2
:10054000F5E988EA85585B53F7BFD2A8303402D268
:10055000AA53E6EF53F7DFD0E0D0D0D2AF32790123
:10056000801479038010790A800C791E80087964E0
:10057000800479C880007817E4D5E0FDD8FAD9F670
:100580002278FF20282879A1E76023E548601F74BE
:10059000FF8548F084853FF030290375F005A4F805
:1005A000C5F0600278FFC3E8955E5002A85E885DE2
:1005B00022C3E54794E4E5489400E55D500314A1A7
:1005C000C2046002F55D2275E89022055FC3E55F15
:1005D0009408405330EDF4A8BDA9BE755F00E9FA58
:1005E00079A0E76041EA7006E5606018800CC3E816
:1005F0009560600EE5605005600A1480070460FA9B
:100600008002E560F560C3956A401B755CC0C394C9
:10061000044013755C80C39404400B755C40C39424
:10062000044003755C0022E55C2410500274FFF561
:100630005C22743279A687F0A4C5F0A2F733F8C320
:10064000E8955C4002A85C885E227547007548F01A
:1006500022C2AFC2CAA8CCA9CDAA4130CF010AD2CA
:10066000CAD2AFAB42AC4388428943C3E89BF8E9A6
:100670009C202808F9302C02E161C1BAAD448A44BB
:10068000F9EA9DFA600678FF79FFC19FAE45AF4653
:100690008B458C46A842A943C3E89EF8E99FF9C35D
:1006A000E54813FBE54713FAE82AF547E93BF54827
:1006B00050067547FF7548FFE107AA47AB48AC47AE
:1006C000AD487E047F02C3EB9404400D1E1FC3EBB4
:1006D000940840052029021E1FC3ED13FDEC13FCF6
:1006E000DEF7C3EA9CFAEB9DFBEF6009C3E913F95F
:1006F000E813F8DFF7EA28FAEB39FB8A478B485012
:10070000067BFF8B478B48C3EB94025002D22C3000
:1007100028047F03E1327892E6FFC3E53D948240EE
:10072000110FC3E53D94A040010FC3EF94064002B2
:100730007F057E02E548C4540FF9E548C454F0F83B
:10074000E547C4540F28F8C3E89EFAE99400FB403B
:1007500009C3EA9401EB940050047A01E4FB020718
:10076000ADAA47AB48EBC4FEEAC4540F4EFCC3EA43
:100770009CFAEB9400FBC3E813C313F8EA28FAEBE6
:100780003400FB8A478B48C3EB94024002C22C78AA
:1007900002EBC4FE7B00EAC4540F4EFAC3EA98FA97
:1007A0004005C3940150027A017892E6FF3020029E
:1007B000E1AD854E92854F93D22043E680C3E49A03
:1007C000F8E49BF9302C0302083BE8FAE9FBD3E993
:1007D00013FDE813FC884E894FC3EF94036038EF94
:1007E00020E00CE82CF8E93DF9ECFAEDFB8013E889
:1007F00028F8E939F9C3E82401F8E93400F97AFF67
:100800007BFFC3EF9403400F8A508B51884A894B7A
:100810008C4C8D4D020870885089518A4A8B4B8CC4
:100820004C8D4D3028127550F07551FF754CF07598
:100830004DFF754EF0754FFF020870E8FAD3E813CC
:10084000FC884EC3EF94036021EF20E007E82CF80A
:10085000ECFA015BE8282401F87AFFC3EF94034027
:10086000098A50884A8C4C02087088508A4A8C4CFD
:100870003020020170753A02D22043E680E525540B
:10088000036034A847A948C3E913F9E813F8C3E99A
:1008900013F9E813F8302804E92440F9C2AF53E60D
:1008A0007F759100C3E498F594E499F595759104EA
:1008B000D22043E680D2AF22D221754900752000B4
:1008C000302B0375204001D6D22175490075204098
:1008D000302B0375200078017901202C20E5255468
:1008E000036002C2217914E548C313700104F8C300
:1008F000941440027814302804781B791B202010AF
:10090000E549600C302803D53A04D223217D1178C3
:100910000549E59B5440B52002216730280908C3EA
:10092000E89940011801FD20210A08C3E899400216
:1009300001D601FDC22153E67F759100302C11755F
:1009400094007595F8759104D22043E6800208D68C
:10095000E5487EFFC3334005C3334001FEC3E49E38
:10096000759400F5952145C3E5399401500201D6EF
:1009700030210201D6D802217B01FDC223C2AF5330
:10098000E67F759100855094855195759104854A4F
:1009900092854B93D22043E680D2AFE52554036085
:1009A000072029020539801030230D202B0A202131
:1009B0000715811581021633227800302102780153
:1009C000E53D75F007A4F9E5F028F5F0E9A2F0138C
:1009D000A2F113A2F213F53DC394785003753D784C
:1009E000C3E53D953E400BD222C290C292C294759F
:1009F000D57F30200221F2854C92854D93D2204341
:100A0000E68022203810C2AFC293D29175D54FD262
:100A1000AF759F2041D3C2AFC293D29575D57CD21A
:100A2000AF759F2041D3203810C2AFC29475D573E3
:100A3000D291D2AF759F3041D3C2AFC29075D573FA
:100A4000D295D2AF759F1041D3203810C2AFC2915A
:100A5000D29575D573D2AF759F108077C2AFC2950E
:100A6000D29175D573D2AF759F308067203810C290
:100A7000AFC29275D57CD295D2AF759F208054C2FB
:100A8000AFC29275D54FD291D2AF759F20804420CE
:100A90003810C2AFC295D29375D57CD2AF759F3056
:100AA0008031C2AFC291D29375D54FD2AF759F102E
:100AB0008021203810C2AFC29075D54FD293D2AFEB
:100AC000759F10800EC2AFC29475D57CD293D2AF01
:100AD000759F30C22222203E687A147BC88019207C
:100AE0003E697A107B8C8010203E6A7A0D7BB48040
:100AF00007203E6B7A0B7BC8303F01227902E4C2AB
:100B000093D5E0FDD292D5E0FDC292D5E0FDD2931F
:100B1000D5E0FDE920E002D29030E002D294E56514
:100B2000D5E0FDE920E002C29030E002C294749664
:100B3000D5E0FDD9C9EAF8D5E0FDD8FBDBBEC2930C
:100B4000227A507C507B057D1480407A327C287B51
:100B5000147D2880367A3C7CB47B047D0A802C7A14
:100B6000967C327B027D1E80227A647C287B057D08
:100B70000F80187888E614D23C7AC87C327B037DDB
:100B80003C80087AC87C507B057D46303F0122EBD3
:100B9000F8303C15203D091CECB40112B23D800E2A
:100BA0000CECB43209B23D80051CEC70010CECC0B9
:100BB000E0E8C0E0EDC0E0303B0FD293D290E565B5
:100BC000D5E0FDC290C293800DD293D294E565D555
:100BD000E0FDC294C293B23BD0E0FDFED0E0F8D07D
:100BE000E0FCF97464D5E0FDDEF9744BD5E0FDD985
:100BF000F9203BBAD8B8DA0122DA9422C290C29224
:100C0000C294C291C293C29575D57F22788076FF37
:100C10000876FF0876FF0876FF0876FF0876FF085B
:100C200076090876FF087601788C76010876FF0849
:100C300076FF0876FF0876FF0876FF0876030876C9
:100C4000FF0876FF0876FF08760A0876F0087650E7
:100C50000876500876030876FF0876020876FF08C3
:100C6000767D0876FF0876060876010876FF087616
:100C7000FF08760008760022FA75F00CA4ABF0EAC3
:100C8000C333F8740133F9E8C333F8E933F9E8C33F
:100C90002BF8E93400F9227888E6F554C39403D29E
:100CA0003A5002C23AC238E630E102D238A2389253
:100CB000397886E6149000809378A6F67886E6F573
:100CC0003FC394025003753F02789CE6753EFFB423
:100CD0000203753EA0B40303753E8278A0E6F86077
:100CE0000674282409D8FCF56A7896E6917888314C
:100CF0008932789EE69178883389347897E69178BE
:100D00008835893671FC223036117A007B007CFFF1
:100D10007D007E00B16D8B628A6122303A22789626
:100D2000E6FA7B00789EE6FC7D00C3EA33FAEB33FB
:100D3000FBC3EC33FCED33FD7E0AB16D8B648A633B
:100D40007896303A02789EE6FA7B007897E6FC7D4A
:100D5000007E00303A10C3EA33FAEB33FBC3EC33C6
:100D6000FCED33FD7E0AB16D8B628A6122C3EC9E7D
:100D7000FCED9400FDC3EC9AFCED9BFDC3EC9423C9
:100D8000ED940050047C237D00C3EC94FFED9401AE
:100D900040047CFF7D017BFF0B7A000AEA7009C3E7
:100DA000EC33FCED33FDA198EC8AF0A4AEF0ED8AB3
:100DB000F0A42E947C40E4EAF460DD22D236B10740
:100DC00012056A12056A7A007B007C10120562E542
:100DD000552AFA74003BFBDCF37C04C3EB13FBEAFB
:100DE00013FADCF7FFEB60027FFFC236B10722780F
:100DF000A5E6F95403D2867002C286E9540CD28764
:100E00007002C287E95430D2967002C296E954C08B
:100E10007000227ADC7B367C02C1997A3A7B1D7C99
:100E200002C1997A3E7B047C02806E7AA47B067CA8
:100E30000380667ADE7B6E7C02805E7A847B2B7C0C
:100E40000380567A847B1D7C02804E7A587BAC7C72
:100E50000280467A627B6E7C02803E7A417BB67C61
:100E60000180367A497B8C7C01802E7A927B8C7C47
:100E70000180267A4E7B797C01801E7A527B677CCA
:100E80000180167AA47B677C01800E7A577B567CA2
:100E90000180067AC47B377C01ECC0E0D293D2900B
:100EA000E565D5E0FDC290C293D0E0FCF9EBFD789A
:100EB00017E4D5E0FDD8FAD9F6741ED5E0FDDDF9CA
:100EC000DAD722C28612056AD287740220310E0454
:100ED00020320A04203306042034027401C0E05199
:100EE000D612056ED0E0D5E0F42230341EE56FC393
:100EF000941E400C941E4002801151E851E8800B72
:100F000051DF51DF12056E51E851E812056E51F1C3
:100F100051F1227568007569007597DE7597AD759A
:100F200081C043FF8075EF0675A90071FC75803F95
:100F300075F1F075A4C075803F75D4FF759000758C
:100F4000F27F75A57F75900075D57F75A60175E355
:100F50004075E202C290C292C29412056ED291D242
:100F600093D29512055EC291C293C29571FCE4F8CA
:100F7000F6D8FD910C12166778988665753001C217
:100F8000AF120572B1EF120572120572E5651470A9
:100F900005D23F0211B0D286C23F945914601A1490
:100FA000600C14603A1460030211A10210B5D23E25
:100FB0007173717371730211B0120572D13312051E
:100FC0006ED13312056ED13312056ED13BD143D1B0
:100FD0003312056ED13BD143D133D1330211B0125C
:100FE0000572D193120566D15BD15B120566D17390
:100FF000120566D18B120566D193120566D15B127C
:101000000E5B120566120E73120566120E8B120528
:1010100066120E93120566120E5B120E5B120566C7
:10102000120E73120566120E8B120566120E9312C3
:101030000566120E5B120E5B120566120E73120528
:1010400066120E8B120566120E6B120566120E5397
:10105000120566120E1B120566120E5B1205661251
:101060000E6B120566120E53120566120E1B120548
:1010700066120E5B120566120E6B120566120E5397
:10108000120566120E1B120566120E5B1205661221
:101090000E6B120566120E53120566120E1B120518
:1010A00066120E5B120566120E8B120E8B1205660F
:1010B000120E4B21B0120E13120566120E131205FA
:1010C00066120566120E7B120562120E7B12056215
:1010D000120E7B120562120E7B1205661205661255
:1010E0000E53120E53120566120E53120E531205B2
:1010F00066120566120E63120562120E6312056215
:10110000120E63120562120E631205661205661254
:101110000E4B120E4B120566120E4B120E4B1205A1
:1011200066120566120E5B120562120E5B120562F4
:10113000120E5B120562120E5B1205661205661234
:101140000E2B120566120E2B120566120566120E84
:1011500023120562120E23120562120E231205627B
:10116000120E23120566120566120E13120E1312CA
:101170000566120566120E53120E53120E53120E0E
:1011800053120566120566120E4B120E4B120E4BD1
:10119000120E4B120566120566120E2B120E2B80D4
:1011A0000F120AD612056A120ADF12056A120AE83D
:1011B00012056AC2AF75680075690078FA79FA306D
:1011C0008507D9FBD8F7021C00120C97120D07787F
:1011D000988665120BFC75E405758811758E04758B
:1011E000890975C80475910475D84075D90875F7D3
:1011F00081759E0375960275DA4275DB4275A821EA
:1012000075E69075B801759B80759D0075D10C755C
:10121000BC5975BB1075E88075B20112055ED2AF7E
:10122000753C00C230120572C231C232C233C234C0
:1012300075220012056EC3E522940A500241FBD2CA
:101240003175220012056EC3E522940A500241FB5B
:10125000C231D23275220012056EC3E522940A50C3
:101260000241FB75E4D5758851758E017589AA75A3
:101270008C00758D00C2A9D2ABD2AA756CC0756BFB
:1012800014756F50C232D23475220A12056E756B16
:1012900010C3E522940A4063758E0C756C80756BE3
:1012A00028756F2875220A12056E756B20C3E5221A
:1012B000940A4047758E0C756CC0756B14756F146D
:1012C00075220A12056E756B10C3E522940A7553D8
:1012D00000755200402575E405758811758E0475FA
:1012E0008909D2A9C2ABC2AAC234D2337522001274
:1012F000056EC3E5229403400221B312056220303B
:10130000030211B3C2AF120EC3D2AF120572203462
:1013100003303A030213BD120562788CE6C39401D0
:10132000500261BDE530C39401500261BD7568A5EE
:101330007569F17F02D236120D0712056EC2AFC277
:1013400036120D07C3E555947FD2AF407012055E8B
:10135000C2AF120AF1D2AFDFDC120DBCC3EF789737
:10136000F6120572F1547F0AD236120D0712056E7D
:10137000C2AFC236120D07C3E555947FD2AF50E617
:1013800012055EC2AF120AD6120566120AD6D2AF95
:10139000DFD6120DBCEF24037896F6F87997E7C3F1
:1013A00094234003985006E824237897F612057298
:1013B000D1AEF18312056E120D070211B3756800EC
:1013C00075690012056EC3E55594014002610EC2B5
:1013D000AFC28712056E120EEAD296D2AF12057214
:1013E000753000E4F537F5380537E537F4703F051B
:1013F00038789AE67819146012783214600D787D86
:1014000014600878FA146003753800C3E538984012
:101410001D120BFC12055E1538753700789986652C
:10142000C2AF120B69D2AF7898866512056E1205AD
:1014300066E523700221B3C3E55294015014C3E55D
:1014400055940140A312056EE52370030211B30207
:1014500014D3E55294017005120AD6806EE55294B9
:10146000027005120ADF8063E55294037005120AC8
:10147000E88058E55294047005120AF1804DE55257
:1014800094057005120B698042E55294147015E5BD
:1014900053C3940A503BE554B40102C238B4022B42
:1014A000D2388027E55294157015E553C3940A503D
:1014B00020E554B40102D238B40210C238800CE5E1
:1014C00052940C7006120AF1120AF175520075530B
:1014D000008137C2AF120BFCE4D2AFE4F55FF52414
:1014E000F525F53D755F0812055E1205C730EDFD67
:1014F000A8BDA9BEE97001F888601205CB755F0828
:10150000C2AF755CFF120632855E5C855E5DD2AF50
:10151000303A07C238303502D238D2287539001235
:101520000A8F120AB212064A12065112064A12060F
:101530005112064A1208C81209B9120A03120651BA
:101540001208B8202C03120581302C031205B112A9
:1015500009B9120A261206511208C81209B9120A4C
:10156000491206511208B81209B9120A6C12065132
:101570001208C81209B9120A8F1206511205C712B1
:1015800008B81209B9120AB21205CB120651302856
:1015900027855E5C79187A0CC3E53999400EC2281C
:1015A000D2298A3B855E5C855E5D800CC3E55594DF
:1015B000014003021534C13B30291F202B1CE53BA1
:1015C000147006C229D22AA134F53BC3E555940113
:1015D0004003021534203A028061753C0078FA79A4
:1015E000A4E760027803C3E55698504FE523604BAB
:1015F000303A17203805203507800F303502800A31
:10160000202B07D22B855E5CA16478F0302B0585FA
:101610005E5C7820C3E548985003021534302B1BDC
:10162000C22BC238303502D238D229753B12855EC2
:101630005CA134053CE5556002C13E753C00C2AF7B
:10164000120BFC752400752500D2AF12056E120B2B
:10165000FC78A4E66006D291D293D295C3E53C947F
:1016600004400221B361E3901A0D7820D1E7E52010
:10167000B4550AA3D1E7E520B4AA0280137568A582
:101680007569F1120C0CD1AE756800756900801D8A
:10169000901A0378807B0AD1E7A308DBFA901A0F2F
:1016A000788C7B1AD1E7A308DBFA901A2922C2AF03
:1016B000F12AF107901A007410D1ECA37442D1EC16
:1016C000A37421D1EC901A0378807B0AD1EBA30894
:1016D000DBFA901A0F788C7B1AD1EBA308DBFAF1B6
:1016E0003DF11B901A2922E493F622E6438F015321
:1016F0008FFDFFC3E583941C400122EF8568B78509
:1017000069B7F0538FFE22438F02438F018568B77C
:101710008569B7901A0DF0538FFC22901A0D7455FD
:10172000D1EC901A0E74AAD1EC227A3079D07820BC
:10173000901A40D1E7E520F709A3DAF7227A307949
:10174000D0901A40E7D1EC09A3DAF9227C05120502
:1017500072DCFB22C2AF120AD6120ADF120AE812AA
:101760000AF1120566120AD6120ADF120AE8120AF4
:10177000F1120566120AD6120ADF120AE8120AF1FD
:10178000D2AF22C2AF120AF1120AE8120ADF120A1D
:10179000D6120566120AF1120AE8120ADF120AD6F8
:1017A000120566120AF1120AE8120ADF120AD6D2EC
:0217B000AF2266
:1019FD00020F13104221FFFFFFFFFFFF09FF01FF41
:101A0D0055AA01FFFFFFFFFF03FFFFFF0AF0505034
:0D1A1D0003FF02FF7DFF0601FFFF0000FF39
:101A400023455F4C5F37302320202020202020209A
:101A500023424C48454C492445464D3842313023B9
:101A600031362E36365F6473686F74746573742014
:101C0000C2AFC2D37597DE7597AD7581C075A90057
:101C100043FF80752438752503B1DB7529A5752A26
:101C2000F143F12053A4DFD28575D4FF75E3407DE5
:101C3000FA780379E67C10752200752300901DE880
:101C40007B0675249875250130850281482085081A
:101C5000D8FBD9F9DCF781BA308508D8FBD9F9DC93
:101C6000F781BAB19BE493A3C39A6004DDC381BA40
:101C7000DBDBB18D600281317B08E493FAA3B16EA6
:101C8000DBF87A30B16E752200752300B18DEAFC65
:101C9000EBFDC3ED94FE400EB18D8A278B28ED300D
:101CA000E0048A828B83B18D7AC270D8C3ED94FE32
:101CB000601950CEBD0029EC600F7520007521FF22
:101CC000752900752A000200008100A827A92808AC
:101CD00009D804D90281DDB191EAF281D10D81A642
:101CE000C3ED94035051EDA2E092007AC5C3E582A2
:101CF0009400E583941C508C200010438F02438F86
:101D0000018529B7852AB7F0300027A827A9280818
:101D100009438F01538FFDD804D902A132C3E58353
:101D2000941C4003A3A117E28529B7852AB7F0A325
:101D3000A117538FFC81827AC1BD030CE493A3FAEF
:101D4000B152DCF8B14A81828184AA22AB23B16E00
:101D5000EBFAEA6222752608C3E52313F523E52290
:101D600013F52250066323A0632201D526EAB1DBD6
:101D7000B1DB75260AEAF4200102D285300102C2E5
:101D800085B1DBC3134002C201D526EB22B191EA33
:101D9000FB208502A191308502A196752608AE240C
:101DA000AF25C3EF13FFEE13FEB1DFB1DBC3EA13C0
:101DB0003085024480FA30E703632201C3E5231330
:101DC000F523E52213F52250066323A0632201D5F3
:101DD00026D9E52265236523F52222AE24AF250E00
:101DE0000FDEFEDFFCD20122424C48656C693437BD
:061DF0003164E8B10601B8
:00000001FF
