:020000040000FA
:060000000219FD020319C4
:03000B0002008D63
:03001300020534AF
:03001B0002009050
:03002B000202CE00
:03005B0002054358
:030073000203067F
:100080000406080C10182030406080A0C0054032E3
:10009000C2AFC2A853E6EFC28E856C8BC0D0D2D35C
:1000A000C0E0C0F0C2CAA8CCA9CDD2CAD2AF758A6E
:1000B00000C3E8956DF8E9956EF9C3E913F9E81303
:1000C000F8E5676007C3E913F9E813F8E97025E874
:1000D000956F4020956F501CE582B410177C007B13
:1000E000007A007908900000A86BE5677004C3E807
:1000F00013F801FD900000D2A8D2AA61E4E0FDC38C
:100100009CC39840EF98EB33FB0582E0FCC39DC392
:100110009840E198EB33FB0582E0FDC39CC3984017
:10012000D398EB33FB0582E0FCC39DC39840C59890
:10013000EB33FB0582E0FDC39CC39840B798EB33DB
:10014000FB0582E0FCC39DC39840A998EB33FB05F7
:1001500082E0FDC39CC398409B98EB33FB0582E093
:10016000FCC39DC398408D98EB33FB0582217890AA
:100170000000D2A8D2AA61E4E0FDC39CC39840EF7E
:1001800098EA33FA0582E0FCC39DC39840E198EAFF
:1001900033FA0582E0FDC39CC39840D398EA33FA52
:1001A0000582E0FCC39DC39840C598EA33FA0582F6
:1001B000E0FDC39CC39840B798EA33FA0582E0FC9F
:1001C000C39DC39840A998EA33FA0582E0FDC39C19
:1001D000C398409B98EA33FA0582E0FCC39DC3981C
:1001E000408D98EA33FA0582EBC46B6A54F0F9EA61
:1001F000C454F0C3996009900000D2A8D2AA61E467
:10020000EBF4C454F0F9EAF4C4540E49FAEBF4C424
:10021000540FFBC3EAF99460FAEB9400FB501DC342
:10022000E97B007A007900601303F9C39552600AF4
:10023000E9F552755300790080020553303A27C31F
:10024000EA94D0F8EB9407F9400BE8FAE9FB203583
:1002500009D235415A303502C235203902B235C390
:10026000EA33FAEB33FBEB2B3B3BF9C3EB13FBEA33
:1002700013FAEA29FAEB3400FB30E3047AFF7BFF40
:10028000E5255403601B202A18E55E33F9EB70075F
:10029000C3E99A4002E9FAE53CC4332AFAEB340098
:1002A000FBC3EA33C4540FF8EB33C454F048F8707E
:1002B00005EA60027801900000D2A8D2AAE5226087
:1002C00002152281D1900000D2A8D2AA61E4C0D048
:1002D000C0E0C2CF0541E5676009E5666005756667
:1002E000006101756601E52360021523C3E55560D1
:1002F000057556006101E5562401F5565003755603
:10030000FFD0E0D0D032C2AF53E67F7592FA75933A
:10031000FFC22053917FD2AF32C0E0E58A3034086B
:10032000856C8BF0A3D0E032D0E0C2AF53E6EFC0D3
:10033000D0C0E0C0F0D2D3D2AF5388EFA88AA98C46
:10034000AA40308D010A758A00758C007540004303
:100350008810E567700AC3E833F8E933F9EA33FA3D
:1003600030331FE8C4540FFAE9C454F04AFAC313F7
:100370002AFAC3E833F8E933F9E82AFAE93406FB44
:1003800061D530320FC3E833E933FAE82AFAE934A9
:1003900000FB61D5303115E875F056A4AAF0E97577
:1003A000F056A42AFAC5F03400FB61D5C3EA13FA6B
:1003B000E913F9E813F8E875F056A4AAF0E975F026
:1003C00056A42AFAC5F03400C313FBEA13FAC3EBB0
:1003D00013FBEA13FAC3EB94125009C3EA9434EB0B
:1003E000940750160522E52270021522C3E52294D7
:1003F000325002A127755500A12AE522600215227C
:100400003036067C007D088114AC31AD32303A04C0
:10041000AC33AD34C3EA9CFAEB9DFB9208AE61AFFE
:1004200062303A425007203509D2358132303502E8
:10043000C235303504AE63AF64203902B235C3EA49
:1004400033FAEB33FBA208500AEAF42401FAEBF486
:100450003400FBC3EA9450FAEB9400FB501478008C
:100460007A007B008172A208500878007A007B0035
:1004700081D1E5255403601B202A18E55E33F9EB92
:100480007007C3E99A4002E9FAE53CC4332AFAEB63
:100490003400FBEA8EF0A4F9AAF0EB8EF0A42AFA5D
:1004A000C5F03400FBC3EB13FDEA13F8C3ED13FDF5
:1004B000E813F80FEF146004C3E833F8C3E933EA34
:1004C00033FAEB33FBDFEDEB30E30678FF7AFF7BAB
:1004D000078855D230E86003755600C3E55CFC958B
:1004E0005D4002AC5DC3EC95555008EC75F008A476
:1004F000FAABF0EAF4F8EBF45407F9885789587529
:10050000230AE55B30E210D0F0D0E0D0D053F7DF23
:1005100043F74043E61032D0F0D0E0D0D053D8FEBD
:1005200043DA0143E6103275230AD0F0D0E0D0D090
:1005300043E61032C2AAD28EC2CA85CC6D85CD6E7A
:10054000D2CA32C2AFC0D0C0E0D2D38557FB8558E3
:10055000FC85585B53F7BF53DAFED2A8303402D281
:10056000AA53E6EF53F7DF53D8FED0E0D0D0D2AF96
:10057000327901801479038010790A800C791E8009
:10058000087964800479C880007817E4D5E0FDD844
:10059000FAD9F62278FF20282879A1E76023E548D8
:1005A000601F74FF8548F084853FF030290375F0A3
:1005B00005A4F8C5F0600278FFC3E8955E5002A874
:1005C0005E885D22C3E54794A0E5489400E55D5050
:1005D0000314A1D5046002F55D2275E89022055F41
:1005E000C3E55F9408405330EDF4A8BDA9BE755F24
:1005F00000E9FA79A0E76041EA7006E560601880DA
:100600000CC3E89560600EE5605005600A14800731
:100610000460FA8002E560F560C3956A401B755C72
:10062000C0C394044013755C80C39404400B755C94
:1006300040C394044003755C0022E55C2410500222
:1006400074FFF55C22743279A687F0A4C5F0A2F796
:1006500033F8C3E8955C4002A85C885E22754700C9
:100660007548F022C2AFC2CAA8CCA9CDAA4130CFEA
:10067000010AD2CAD2AFC3EA13FAE913F9E813F8B0
:10068000AB42AC4388428943C3E89BF8E99C2028ED
:100690000A547FF9302C02E182C1DBAD448A44F96F
:1006A000EA9D547FFA600678FF79FFC1C0AE45AF7E
:1006B000468B458C46A842A943C3E89EF8E99FF9BA
:1006C000C3E54813FBE54713FAE82AF547E93BF58C
:1006D0004850067547FF7548FFE128AA47AB48AC6C
:1006E00047AD487E047F02C3EB9404400D1E1FC338
:1006F000EB940840052029021E1FC3ED13FDEC13E7
:10070000FCDEF7C3EA9CFAEB9DFBEF6009C3E9133B
:10071000F9E813F8DFF7EA28FAEB39FB8A478B4848
:1007200050067BFF8B478B48C3EB94025002D22CC0
:100730003028047F03E1537892E6FFC3E53D9482BD
:1007400040110FC3E53D94A040010FC3EF94064054
:10075000027F057E02E548C4540FF9E548C454F011
:10076000F8E547C4540F28F8C3E89EFAE99400FB63
:100770004009C3EA9401EB940050047A01E4FB02BF
:1007800007CEAA47AB48EBC4FEEAC4540F4EFCC3E5
:10079000EA9CFAEB9400FBC3E813C313F8EA28FAC7
:1007A000EB3400FB8A478B48C3EB94024002C22C17
:1007B0007802EBC4FE7B00EAC4540F4EFAC3EA98F9
:1007C000FA4005C3940150027A017892E6FF302086
:1007D00002E1CE854E92854F93D22043E680C3E45A
:1007E0009AF8E49BF9C3E833F8E933F9302C0302B3
:1007F0000863E8FAE9FBD3E913FDE813FC884E89A6
:100800004FC3EF94036038EF20E00CE82CF8E93D8B
:10081000F9ECFAEDFB8013E828F8E939F9C3E8248C
:1008200001F8E93400F97AFF7BFFC3EF9403400F2E
:100830008A508B51884A894B8C4C8D4D0208988880
:100840005089518A4A8B4B8C4C8D4D3028127550F3
:10085000F07551FF754CF0754DFF754EF0754FFFFB
:10086000020898E8FAD3E813FC884EC3EF940360BB
:1008700021EF20E007E82CF8ECFA0183E8282401B6
:10088000F87AFFC3EF940340098A50884A8C4C02DF
:10089000089888508A4A8C4C3020020198753A0298
:1008A000D22043E680E5255403602DA847A948C31C
:1008B000E913F9E813F8302804E92440F9C2AF53EA
:1008C000E67F759100C3E498F594E499F5957591E8
:1008D00004D22043E680D2AF22D221754900752090
:1008E00000302B0375204001F7D221754900752097
:1008F00040302B0375200078017901202C20E5255C
:1009000054036002C2217914E548C313700104F84E
:10091000C3941440027814302804781B791BC3E870
:1009200033F8C3E933F9202010E549600C3028037F
:10093000D53A04D22321AA11A00549E59B5440B51C
:100940002002219430280908C3E899400118212683
:1009500020210A08C3E899400201F72126C2215349
:10096000E67F759100302C117594007595F07591A6
:1009700004D22043E6800208F7E5487EFFC33340F7
:1009800009C3334005C3334001FEC3E49E759400A0
:10099000F595216EC3E5399401500201F73021022B
:1009A00001F7D80221A82126C223C2AF53E67F75E2
:1009B0009100855094855195759104854A92854B97
:1009C00093D22043E680D2AFE52554036007202967
:1009D000020539801030230D202B0A2021071581B4
:1009E00015810216E82278003021027801E53D7574
:1009F000F007A4F9E5F028F5F0E9A2F013A2F1134D
:100A0000A2F213F53DC394785003753D78C3E53DDC
:100A1000953E400BD222C293C294C29575D57F30C9
:100A20002002411F854C92854D93D22043E68022BF
:100A3000203814C2AFC294C290D293D29575D53BE0
:100A4000D2AF759F236130C2AFC294C292D295D209
:100A50009375D53ED2AF759F236130203814C2AF55
:100A6000C295D29475D53DC290D293D2AF759F13E3
:100A70006130C2AFC293D29475D53DC292D295D2A5
:100A8000AF759F036130203814C2AFC293C292D2B7
:100A900095D29475D53DD2AF759F036130C2AFC278
:100AA00095C290D293D29475D53DD2AF759F136104
:100AB00030203814C2AFC294D29375D53EC292D2C0
:100AC00095D2AF759F238068C2AFC294D29575D579
:100AD0003BC290D293D2AF759F238054203814C26A
:100AE000AFC295C291D294D29375D53ED2AF759FC5
:100AF00013803DC2AFC293C291D294D29575D53BBB
:100B0000D2AF759F038029203814C2AFC293D2950B
:100B100075D53BC291D294D2AF759F038012C2AFFC
:100B2000C295D29375D53EC291D294D2AF759F1320
:100B3000C22222203E707A147BC88019203E717A2E
:100B4000107B8C8010203E727A0D7BB48007203E93
:100B5000737A0B7BC8303F01227902E4C294D5E05E
:100B6000FDD291D294D5E0FDC294D5E0FDC291D2E0
:100B700094D5E0FDE920E004D290D29330E004D295
:100B800092D295E565D5E0FDE920E002C29330E020
:100B900002C2957496D5E0FDD9C1EAF8D5E0FDD83A
:100BA000FBDBB6C294227A507C507B057D148040DA
:100BB0007A327C287B147D2880367A3C7CB47B0496
:100BC0007D0A802C7A967C327B027D1E80227A649C
:100BD0007C287B057D0F80187888E614D23C7AC883
:100BE0007C327B037D3C80087AC87C507B057D4647
:100BF000303F0122EBF8303C15203D091CECB401DC
:100C000012B23D800E0CECB43209B23D80051CECF2
:100C100070010CECC0E0E8C0E0EDC0E0303B13C276
:100C200091D294D290D293E565D5E0FDC293C2945F
:100C30008011C291D294D292D295E565D5E0FDC2E1
:100C400095C294B23BD0E0FDFED0E0F8D0E0FCF9D4
:100C50007464D5E0FDDEF9744BD5E0FDD9F9203B95
:100C6000B2D8B0DA0122DA8C22C293C294C295C201
:100C700093C294C29575D57F22788076FF0876FF5F
:100C80000876FF0876FF0876FF0876FF08760908E1
:100C900076FF087601788C76010876FF0876FF08E3
:100CA00076FF0876FF0876FF0876030876FF087659
:100CB000FF0876FF08760A0876F008765008765026
:100CC0000876030876FF0876020876FF08767D0826
:100CD00076FF0876060876010876FF0876FF087624
:100CE0000008760022FA75F00CA4ABF0EAC333F8E2
:100CF000740133F9E8C333F8E933F9E8C32BF8E9B1
:100D00003400F9E8C333F8E933F9227888E6F5547A
:100D1000C39403D23A5002C23AC238E630E102D25A
:100D200038A23892397886E6149000809378A6F637
:100D30007886E6F53FC394025003753F02789CE63F
:100D4000753EFFB40203753EA0B40303753E82787E
:100D5000A0E6F8600674282409D8FCF56A7896E6BF
:100D600091E588318932789EE691E5883389347837
:100D700097E691E5883589369169223036117A00F7
:100D80007B007CFF7D007E00B1E18B628A612230B6
:100D90003A227896E6FA7B00789EE6FC7D00C3EA6C
:100DA00033FAEB33FBC3EC33FCED33FD7E0AB1E1E8
:100DB0008B648A637896303A02789EE6FA7B0078F4
:100DC00097E6FC7D007E00303A10C3EA33FAEB333D
:100DD000FBC3EC33FCED33FD7E0AB1E18B628A612B
:100DE00022C3EC9EFCED9400FDC3EC9AFCED9BFD50
:100DF000C3EC9423ED940050047C237D00C3EC9459
:100E0000FFED940140047CFF7D017BFF0B7A000A1B
:100E1000EA7009C3EC33FCED33FDC10CEC8AF0A49D
:100E2000AEF0ED8AF0A42E947C40E4EAF460DD227A
:100E3000D236B17B12057D12057D7A007B007C10D5
:100E4000120575E5552AFA74003BFBDCF37C04C3FC
:100E5000EB13FBEA13FADCF7FFEB60027FFFC2360D
:100E6000B17B2278A5E6F95403C2857002D285E9E8
:100E7000540CC2867002D286E95430C2877002D206
:100E800087E954C07000227ADC7B367C02E10D7A5F
:100E90003A7B1D7C02E10D7A3E7B047C02806E7AF7
:100EA000A47B067C0380667ADE7B6E7C02805E7AA1
:100EB000847B2B7C0380567A847B1D7C02804E7A57
:100EC000587BAC7C0280467A627B6E7C02803E7AE4
:100ED000417BB67C0180367A497B8C7C01802E7AFE
:100EE000927B8C7C0180267A4E7B797C01801E7AF5
:100EF000527B677C0180167AA47B677C01800E7A26
:100F0000577B567C0180067AC47B377C01ECC0E0BD
:100F1000C291D294D290D293E565D5E0FDC293C23E
:100F200094D0E0FCF9EBFD7817E4D5E0FDD8FAD9D0
:100F3000F6741ED5E0FDDDF9DAD322D28512057DE7
:100F4000C286740220310E0420320A0420330604C3
:100F50002034027401C0E07133120581D0E0D5E085
:100F6000F42230341EE56FC3941E400C941E4002E0
:100F7000801171457145800B713C713C1205817186
:100F8000457145120581714E714E22756800756973
:100F9000007597DE7597AD7581C043FF8075EF06CC
:100FA00075A90091697580FF75F1F075A4E07580F1
:100FB000FF75D4FF75900075F23F75A53F759000E1
:100FC00075D53F75A60175E34075E2029169E4F8B5
:100FD000F6D8FD917912173178988665753001C27F
:100FE000AF120585D163120585120585E56514707C
:100FF00005D23F021222C285C23F945914601C14CC
:10100000600C146045146003021213021127D23ED3
:10101000120BD8120BD8120BD84122120585120ED2
:10102000A7120581120EA7120581120EA7120581C3
:10103000120EAF120EB7120EA7120581120EAF12CA
:101040000EB7120EA7120EA74122120585120F0726
:10105000120579120ECF120ECF120579120EE71279
:101060000579120EFF120579120F07120579120E7B
:10107000CF120ECF120579120EE7120579120EFF6C
:10108000120579120F07120579120ECF120ECF1228
:101090000579120EE7120579120EFF120579120F6B
:1010A00007120579120ECF120ECF120579120EE734
:1010B000120579120EFF120579120EDF1205791250
:1010C0000EC7120579120E8F120579120ECF120576
:1010D00079120EDF120579120EC7120579120E8FE2
:1010E000120579120ECF120579120EDF1205791250
:1010F0000EC7120579120E8F120579120ECF120546
:1011000079120EDF120579120EC7120579120E8FB1
:10111000120579120ECF120579120EFF120EFF1270
:101120000579120EBF4122120E87120579120E8721
:10113000120579120579120EEF120575120EEF12D3
:101140000575120EEF120575120EEF1205791205D4
:1011500079120EC7120EC7120579120EC7120EC7EA
:10116000120579120579120ED7120575120ED712D3
:101170000575120ED7120575120ED71205791205D4
:1011800079120EBF120EBF120579120EBF120EBFDA
:10119000120579120579120ECF120575120ECF12B3
:1011A0000575120ECF120575120ECF1205791205B4
:1011B00079120E9F120579120E9F12057912057988
:1011C000120E97120575120E97120575120E9712D0
:1011D0000575120E97120579120579120E87120EF7
:1011E00087120579120579120EC7120EC7120EC7A3
:1011F000120EC7120579120579120EBF120EBF1218
:101200000EBF120EBF120579120579120E9F120E33
:101210009F800F120B3312057D120B3C12057D12BD
:101220000B4512057DC2AF75680075690078FA79C3
:10123000FA308407D9FBD8F7021C00120D0B120DEF
:101240007B78988665120C6975A91375A71075C10E
:101250000075A70075670075E404758811758E0424
:1012600075890975C80475910475D84075D90875D4
:10127000F783759E0075960275DA4A75DB0075A8CE
:101280002375E69075B801759B80759D0075D10C2E
:1012900075BCB975BB1075E88075B201120571D2C5
:1012A000AF753C00C230120585C231C232C233C2B2
:1012B00034752200120581C3E522940A5002617C34
:1012C000D231752200120581C3E522940A500261D1
:1012D0007CC231D232752200120581C3E522940A04
:1012E0005002617C75E4C4758851758E017589AAB8
:1012F000758C00758D00C2A9D2ABD2AA756C8075B1
:101300006B14756F50C232D23475220A1205817582
:101310006B10C3E522940A4063758E0C756C0075E2
:101320006B28756F2875220A120581756B20C3E53D
:1013300022940A4047758E0C756C80756B14756F1E
:101340001475220A120581756B10C3E522940A7583
:101350005300755200402575E404758811758E049C
:10136000758909D2A9C2ABC2AAC234D23375220090
:10137000120581C3E5229403400241251205752020
:101380003003021225C2AF120F3BD2AF12058520E7
:101390003403303A03021440120575788CE6C39486
:1013A0000150028140E530C39401500281407568CC
:1013B000A57569F17F02D236120D7B120581C2AF8D
:1013C000C236120D7BC3E555947FD2AF4072120531
:1013D00071C2AF120B4ED2AFDFDC120E30C3EF780A
:1013E00097F61205851218217F0AD236120D7B124C
:1013F0000581C2AFC236120D7BC3E555947FD2AFD3
:1014000050E6120571C2AF120B33120579120B337D
:10141000D2AFDFD6120E30EF24037896F6F8799724
:10142000E7C394234003985006E824237897F612E4
:101430000585F178121850120581120D7B021225D4
:10144000756800756900120581C3E5559401400275
:10145000618FC2AFD286120581120F62C287D2AFEE
:10146000120585753000E4F537F5380537E537F4B2
:10147000703F0538789AE678191460127832146053
:101480000D787D14600878FA146003753800C3E5A0
:101490003898401D120C691205711538753700789F
:1014A000998665C2AF120BCED2AF789886651205C9
:1014B00081120579E52370024125C3E5529401505C
:1014C00014C3E555940140A3120581E5237003027E
:1014D0001225021579E5529401700CC2AF120B333C
:1014E000D2AF120581A171E5529402700CC2AF1205
:1014F0000B3CD2AF1205818078E5529403700CC288
:10150000AF120B45D2AF1205818066E5529404708C
:101510000CC2AF120B4ED2AF1205818054E552942B
:1015200005700CC2AF120BCED2AF1205818042E51E
:101530005294147015E553C3940A503BE554B4011A
:1015400002C238B4022BD2388027E55294157015A8
:10155000E553C3940A5020E554B40102D238B402D2
:1015600010C238800CE552940C7006120B4E120B10
:101570004E75520075530081BAC2AF120C69E4D2A5
:10158000AFE4F55FF524F525F53D755F08120571AB
:101590001205DA30EDFDA8BDA9BEE97001F888603A
:1015A0001205DE755F08C2AF755CFF120645855EE9
:1015B0005C855E5DD2AF75A71075C13075A70075EB
:1015C000A903756701303A07C238303502D238D2E4
:1015D00028753900120ADC120B0712065D12066428
:1015E00012065D12066412065D1208E91209E6127F
:1015F0000A301206641208D9202C03120594302CEC
:10160000031205C41209E6120A5B1206641208E905
:101610001209E6120A861206641208D91209E612A5
:101620000AB11206641208E91209E6120ADC12066F
:10163000641205DA1208D91209E6120B071205DE48
:10164000120664302827855E5C79187A0CC3E53968
:1016500099400EC228D2298A3B855E5C855E5D80FA
:101660000CC3E555940140030215E9C1F030291F70
:10167000202B1CE53B147006C229D22AA1E9F53BB8
:10168000C3E555940140030215E9203A02806175D3
:101690003C0078FA79A4E760027803C3E5569850D5
:1016A0004FE523604B303A17203805203507800F6F
:1016B000303502800A202B07D22B855E5CC1197859
:1016C000F0302B05855E5C7820C3E5489850030216
:1016D00015E9302B1BC22BC238303502D238D22943
:1016E000753B12855E5CA1E9053CE5556002C1F3DE
:1016F000753C00C2AF120C6975240075250075A9F0
:101700001375A71075C10075A700756700D2AF12D9
:101710000581120C6978A4E6600CC290D293C29144
:10172000D294C292D295C3E53C94044002412581F3
:1017300066901A0D7820F1B2E520B4550AA3F1B2F3
:10174000E520B4AA0280137568A57569F1120C79B9
:10175000F178756800756900801D901A0378807BA8
:101760000AF1B2A308DBFA901A0F788C7B1AF1B257
:10177000A308DBFA901A2922C2AFF1F5F1D2901A30
:10178000007410F1B7A37442F1B7A37421F1B790BC
:101790001A0378807B0AF1B6A308DBFA901A0F7857
:1017A0008C7B1AF1B6A308DBFA121809F1E6901A3D
:1017B0002922E493F622E6438F01538FFDFFC3E510
:1017C00083941C400122EF8568B78569B7F0538F79
:1017D000FE22438F02438F018568B78569B7901A4F
:1017E0000DF0538FFC22901A0D7455F1B7901A0E1C
:1017F00074AAF1B7227A3079D07820901A40121763
:10180000B2E520F709A3DAF6227A3079D0901A40AF
:10181000E71217B709A3DAF8227C05120585DCFB6D
:1018200022C2AF120B33120B3C120B45120B4E129D
:101830000579120B33120B3C120B45120B4E12059D
:1018400079120B33120B3C120B45120B4ED2AF2206
:10185000C2AF120B4E120B45120B3C120B3312058A
:1018600079120B4E120B45120B3C120B33120579F9
:0F187000120B4E120B45120B3C120B33D2AF2250
:1019FD00020F8B104221FFFFFFFFFFFF09FF01FFC9
:101A0D0055AA01FFFFFFFFFF03FFFFFF0AF0505034
:0D1A1D0003FF02FF7DFF0601FFFF0000FF39
:101A4000234A5F485F3030232020202020202020A0
:101A500023424C48454C492445464D3842323123B7
:101A600031362E36365F6473686F74746573742014
:101C0000C2AFC2D37597DE7597AD7581C075A90057
:101C100043FF80752438752503B1DB7529A5752A26
:101C2000F143F11053A4EFD28475D4FF75E3407DE6
:101C3000FA780379E67C10752200752300901DE880
:101C40007B0675249875250130840281482084081C
:101C5000D8FBD9F9DCF781BA308408D8FBD9F9DC94
:101C6000F781BAB19BE493A3C39A6004DDC381BA40
:101C7000DBDBB18D600281317B08E493FAA3B16EA6
:101C8000DBF87A30B16E752200752300B18DEAFC65
:101C9000EBFDC3ED94FE400EB18D8A278B28ED300D
:101CA000E0048A828B83B18D7AC270D8C3ED94FE32
:101CB000601950CEBD0029EC600F7520007521FF22
:101CC000752900752A000200008100A827A92808AC
:101CD00009D804D90281DDB191EAF281D10D81A642
:101CE000C3ED94035051EDA2E092007AC5C3E582A2
:101CF0009400E583941C508C200010438F02438F86
:101D0000018529B7852AB7F0300027A827A9280818
:101D100009438F01538FFDD804D902A132C3E58353
:101D2000941C4003A3A117E28529B7852AB7F0A325
:101D3000A117538FFC81827AC1BD030CE493A3FAEF
:101D4000B152DCF8B14A81828184AA22AB23B16E00
:101D5000EBFAEA6222752608C3E52313F523E52290
:101D600013F52250066323A0632201D526EAB1DBD6
:101D7000B1DB75260AEAF4200102D284300102C2E6
:101D800084B1DBC3134002C201D526EB22B191EA34
:101D9000FB208402A191308402A196752608AE240E
:101DA000AF25C3EF13FFEE13FEB1DFB1DBC3EA13C0
:101DB0003084024480FA30E703632201C3E5231331
:101DC000F523E52213F52250066323A0632201D5F3
:101DD00026D9E52265236523F52222AE24AF250E00
:101DE0000FDEFEDFFCD20122424C48656C693437BD
:061DF0003164E8B20601B7
:00000001FF
