:020000040000FA
:060000000219FD020319C4
:03000B0002008D63
:03001300020532B1
:03001B0002009050
:03002B000202CE00
:03005B000205415A
:030073000203067F
:100080000406080C10182030406080A0C0054032E3
:10009000C2AFC2A853E6EFC28E856C8BC0D0D2D35C
:1000A000C0E0C0F0C2CAA8CCA9CDD2CAD2AF758A6E
:1000B00000C3E8956DF8E9956EF9C3E913F9E81303
:1000C000F8E5676007C3E913F9E813F8E97025E874
:1000D000956F4020956F501CE582B410177C007B13
:1000E000007A007908900000A86BE5677004C3E807
:1000F00013F801FD900000D2A8D2AA61E4E0FDC38C
:100100009CC39840EF98EB33FB0582E0FCC39DC392
:100110009840E198EB33FB0582E0FDC39CC3984017
:10012000D398EB33FB0582E0FCC39DC39840C59890
:10013000EB33FB0582E0FDC39CC39840B798EB33DB
:10014000FB0582E0FCC39DC39840A998EB33FB05F7
:1001500082E0FDC39CC398409B98EB33FB0582E093
:10016000FCC39DC398408D98EB33FB0582217890AA
:100170000000D2A8D2AA61E4E0FDC39CC39840EF7E
:1001800098EA33FA0582E0FCC39DC39840E198EAFF
:1001900033FA0582E0FDC39CC39840D398EA33FA52
:1001A0000582E0FCC39DC39840C598EA33FA0582F6
:1001B000E0FDC39CC39840B798EA33FA0582E0FC9F
:1001C000C39DC39840A998EA33FA0582E0FDC39C19
:1001D000C398409B98EA33FA0582E0FCC39DC3981C
:1001E000408D98EA33FA0582EBC46B6A54F0F9EA61
:1001F000C454F0C3996009900000D2A8D2AA61E467
:10020000EBF4C454F0F9EAF4C4540E49FAEBF4C424
:10021000540FFBC3EAF99460FAEB9400FB501DC342
:10022000E97B007A007900601303F9C39552600AF4
:10023000E9F552755300790080020553303A27C31F
:10024000EA94D0F8EB9407F9400BE8FAE9FB203583
:1002500009D235415A303502C235203902B235C390
:10026000EA33FAEB33FBEB2B3B3BF9C3EB13FBEA33
:1002700013FAEA29FAEB3400FB30E3047AFF7BFF40
:10028000E5255403601B202A18E55E33F9EB70075F
:10029000C3E99A4002E9FAE53CC4332AFAEB340098
:1002A000FBC3EA33C4540FF8EB33C454F048F8707E
:1002B00005EA60027801900000D2A8D2AAE5226087
:1002C00002152281D1900000D2A8D2AA61E4C0D048
:1002D000C0E0C2CF0541E5676009E5666005756667
:1002E000006101756601E52360021523C3E55560D1
:1002F000057556006101E5562401F5565003755603
:10030000FFD0E0D0D032C2AF53E67F7592FA75933A
:10031000FFC22053917FD2AF32C0E0E58A3034086B
:10032000856C8BF0A3D0E032D0E0C2AF53E6EFC0D3
:10033000D0C0E0C0F0D2D3D2AF5388EFA88AA98C46
:10034000AA40308D010A758A00758C007540004303
:100350008810E567700AC3E833F8E933F9EA33FA3D
:1003600030331FE8C4540FFAE9C454F04AFAC313F7
:100370002AFAC3E833F8E933F9E82AFAE93406FB44
:1003800061D530320FC3E833E933FAE82AFAE934A9
:1003900000FB61D5303115E875F056A4AAF0E97577
:1003A000F056A42AFAC5F03400FB61D5C3EA13FA6B
:1003B000E913F9E813F8E875F056A4AAF0E975F026
:1003C00056A42AFAC5F03400C313FBEA13FAC3EBB0
:1003D00013FBEA13FAC3EB94125009C3EA9434EB0B
:1003E000940750160522E52270021522C3E52294D7
:1003F000325002A125755500A128E5226002152280
:100400003036067C007D088114AC31AD32303A04C0
:10041000AC33AD34C3EA9CFAEB9DFB9208AE61AFFE
:1004200062303A425007203509D2358132303502E8
:10043000C235303504AE63AF64203902B235C3EA49
:1004400033FAEB33FBA208500AEAF42401FAEBF486
:100450003400FBC3EA9450FAEB9400FB501478008C
:100460007A007B008172A208500878007A007B0035
:1004700081D1E5255403601B202A18E55E33F9EB92
:100480007007C3E99A4002E9FAE53CC4332AFAEB63
:100490003400FBEA8EF0A4F9AAF0EB8EF0A42AFA5D
:1004A000C5F03400FBC3EB13FDEA13F8C3ED13FDF5
:1004B000E813F80FEF146004C3E833F8C3E933EA34
:1004C00033FAEB33FBDFEDEB30E30678FF7AFF7BAB
:1004D000078855D230E86003755600C3E55CFC958B
:1004E0005D4002AC5DC3EC95555008EC75F008A476
:1004F000FAABF0EAF4F8EBF45407F9C3E8941EFA07
:10050000E99400FB50047A007B00885789588A5987
:100510008B5A75230AD0F0D0E0D0D053F7DF43F7E1
:100520004043E6103275230AD0F0D0E0D0D043E645
:100530001032C2AAD28EC2CA85CC6D85CD6ED2CA07
:1005400032C2AFC0D0C0E0D2D3A8F9E55B30E20A36
:10055000E5FA20E23520E132A162E5FA30E22B2013
:10056000E128C3E55813F8E55713F5FB88FCC3E50C
:100570005A13F8E55913F5E988EA85585B53F7BF34
:10058000D2A8303402D2AA53E6EF53F7DFD0E0D03E
:10059000D0D2AF327901801479038010790A800CAF
:1005A000791E80087964800479C880007817E4D5C2
:1005B000E0FDD8FAD9F62278FF20282879A1E76053
:1005C00023E548601F74FF8548F084853FF030299B
:1005D0000375F005A4F8C5F0600278FFC3E8955EE6
:1005E0005002A85E885D22C3E54794A0E5489400C8
:1005F000E55D500314A1F8046002F55D2275E890F2
:1006000022055FC3E55F9408405330EDF4A8BDA90F
:10061000BE755F00E9FA79A0E76041EA7006E5601F
:100620006018800CC3E89560600EE5605005600AB4
:100630001480070460FA8002E560F560C3956A40A3
:100640001B755CC0C394044013755C80C394044064
:100650000B755C40C394044003755C0022E55C2488
:1006600010500274FFF55C22743279A687F0A4C59D
:10067000F0A2F733F8C3E8955C4002A85C885E22DC
:100680007547007548F022C2AFC2CAA8CCA9CDAA4E
:100690004130CF010AD2CAD2AFC3EA13FAE913F943
:1006A000E813F8AB42AC4388428943C3E89BF8E9BE
:1006B0009C20280A547FF9302C02E1A5C1FEAD44EC
:1006C0008A44F9EA9D547FFA600678FF79FFC1E316
:1006D000AE45AF468B458C46A842A943C3E89EF879
:1006E000E99FF9C3E54813FBE54713FAE82AF54704
:1006F000E93BF54850067547FF7548FFE14BAA47AF
:10070000AB48AC47AD487E047F02C3EB9404400D78
:100710001E1FC3EB940840052029021E1FC3ED13C2
:10072000FDEC13FCDEF7C3EA9CFAEB9DFBEF6009DE
:10073000C3E913F9E813F8DFF7EA28FAEB39FB8A83
:10074000478B4850067BFF8B478B48C3EB94025086
:1007500002D22C3028047F03E1767892E6FFC3E5CD
:100760003D948240110FC3E53D94A040010FC3EFBB
:10077000940640027F057E02E548C4540FF9E5481F
:10078000C454F0F8E547C4540F28F8C3E89EFAE9CA
:100790009400FB4009C3EA9401EB940050047A01F1
:1007A000E4FB0207F1AA47AB48EBC4FEEAC4540FCE
:1007B0004EFCC3EA9CFAEB9400FBC3E813C313F8A6
:1007C000EA28FAEB3400FB8A478B48C3EB940240DB
:1007D00002C22C7802EBC4FE7B00EAC4540F4EFA2E
:1007E000C3EA98FA4005C3940150027A017892E670
:1007F000FF302002E1F1854E92854F93D22043E6EF
:1008000080C3E49AF8E49BF9C3E833F8E933F9309C
:100810002C03020886E8FAE9FBD3E913FDE813FC90
:10082000884E894FC3EF94036038EF20E00CE82C2A
:10083000F8E93DF9ECFAEDFB8013E828F8E939F91D
:10084000C3E82401F8E93400F97AFF7BFFC3EF9491
:1008500003400F8A508B51884A894B8C4C8D4D0236
:1008600008BB885089518A4A8B4B8C4C8D4D30285F
:10087000127550F07551FF754CF0754DFF754EF0C7
:10088000754FFF0208BBE8FAD3E813FC884EC3EFAC
:1008900094036021EF20E007E82CF8ECFA01A6E8C9
:1008A000282401F87AFFC3EF940340098A50884A4C
:1008B0008C4C0208BB88508A4A8C4C30200201BB09
:1008C000753A02D22043E680E5255403602DA847FF
:1008D000A948C3E913F9E813F8302804E92440F9DA
:1008E000C2AF53E67F759100C3E498F594E499F59F
:1008F00095759104D22043E680D2AF22D22175496A
:1009000000752000302B03752040211AD221754933
:1009100000752040302B0375200078017901202CD0
:1009200020E52554036002C2217914E548C3137001
:100930000104F8C3941440027814302804781B7919
:100940001BC3E833F8C3E933F9202010E549600CF4
:10095000302803D53A04D22321CD11C30549E59BA4
:100960005440B5200221B730280908C3E899400156
:1009700018214920210A08C3E8994002211A214977
:10098000C22153E67F759100302C11759400759546
:10099000F0759104D22043E68002091AE5487EFFF3
:1009A000C3334009C3334005C3334001FEC3E49E53
:1009B000759400F5952191C3E53994015002211AEF
:1009C000302102211AD80221CB2149C223C2AF53C0
:1009D000E67F759100855094855195759104854AFF
:1009E00092854B93D22043E680D2AFE52554036035
:1009F000072029020539801030230D202B0A2021E1
:100A000007158115810216C4227800302102780171
:100A1000E53D75F007A4F9E5F028F5F0E9A2F0133B
:100A2000A2F113A2F213F53DC394785003753D78FB
:100A3000C3E53D953E400BD222C290C291C2927551
:100A4000D57F3020024142854C92854D93D2204380
:100A5000E68022203810C2AFC294D29375D51BD243
:100A6000AF759F236123C2AFC294D29575D536D29C
:100A7000AF759F236123203810C2AFC29275D52D68
:100A8000D293D2AF759F136123C2AFC29075D52D9B
:100A9000D295D2AF759F036123203810C2AFC293A5
:100AA000D29575D52DD2AF759F038077C2AFC29511
:100AB000D29375D52DD2AF759F138067203810C2A1
:100AC000AFC29175D536D295D2AF759F238054C2EF
:100AD000AFC29175D51BD293D2AF759F23804420AE
:100AE0003810C2AFC295D29475D536D2AF759F1368
:100AF0008031C2AFC293D29475D51BD2AF759F031C
:100B00008021203810C2AFC29075D51BD294D2AFCD
:100B1000759F03800EC2AFC29275D536D294D2AF04
:100B2000759F13C22222203E687A147BC880192048
:100B30003E697A107B8C8010203E6A7A0D7BB480EF
:100B400007203E6B7A0B7BC8303F01227902E4C25A
:100B500094D5E0FDD291D5E0FDC291D5E0FDD294CF
:100B6000D5E0FDE920E002D29030E002D292E565C6
:100B7000D5E0FDE920E002C29030E002C292749616
:100B8000D5E0FDD9C9EAF8D5E0FDD8FBDBBEC294BB
:100B9000227A507C507B057D1480407A327C287B01
:100BA000147D2880367A3C7CB47B047D0A802C7AC4
:100BB000967C327B027D1E80227A647C287B057DB8
:100BC0000F80187888E614D23C7AC87C327B037D8B
:100BD0003C80087AC87C507B057D46303F0122EB83
:100BE000F8303C15203D091CECB40112B23D800EDA
:100BF0000CECB43209B23D80051CEC70010CECC069
:100C0000E0E8C0E0EDC0E0303B0FD294D290E56563
:100C1000D5E0FDC290C294800DD294D292E565D504
:100C2000E0FDC292C294B23BD0E0FDFED0E0F8D02D
:100C3000E0FCF97464D5E0FDDEF9744BD5E0FDD934
:100C4000F9203BBAD8B8DA0122DA9422C290C291D4
:100C5000C292C293C294C29575D57F22788076FFE6
:100C60000876FF0876FF0876FF0876FF0876FF080B
:100C700076090876FF087601788C76010876FF08F9
:100C800076FF0876FF0876FF0876FF087603087679
:100C9000FF0876FF0876FF08760A0876F008765097
:100CA0000876500876030876FF0876020876FF0873
:100CB000767D0876FF0876060876010876FF0876C6
:100CC000FF08760008760022FA75F00CA4ABF0EA73
:100CD000C333F8740133F9E8C333F8E933F9E8C3EF
:100CE0002BF8E93400F9E8C333F8E933F9227888BE
:100CF000E6F554C39403D23A5002C23AC238E63001
:100D0000E102D238A23892397886E61490008093B6
:100D100078A6F67886E6F53FC394025003753F0245
:100D2000789CE6753EFFB40203753EA0B4030375DC
:100D30003E8278A0E6F8600674282409D8FCF56A9B
:100D40007896E691C888318932789EE691C88833D2
:100D500089347897E691C888358936914C223036A7
:100D6000117A007B007CFF7D007E00B1C48B628A1B
:100D70006122303A227896E6FA7B00789EE6FC7D86
:100D800000C3EA33FAEB33FBC3EC33FCED33FD7EF7
:100D90000AB1C48B648A637896303A02789EE6FA88
:100DA0007B007897E6FC7D007E00303A10C3EA3382
:100DB000FAEB33FBC3EC33FCED33FD7E0AB1C48B9D
:100DC000628A6122C3EC9EFCED9400FDC3EC9AFCA8
:100DD000ED9BFDC3EC9423ED940050047C237D0037
:100DE000C3EC94FFED940140047CFF7D017BFF0B7D
:100DF0007A000AEA7009C3EC33FCED33FDA1EFEC95
:100E00008AF0A4AEF0ED8AF0A42E947C40E4EAF4DB
:100E100060DD22D236B15E1205A01205A07A007BF9
:100E2000007C10120598E5552AFA74003BFBDCF3B0
:100E30007C04C3EB13FBEA13FADCF7FFEB60027FE1
:100E4000FFC236B15E2278A5E6F95403C28570026E
:100E5000D285E9540CC2867002D286E95430C2872A
:100E60007002D287E954C07000227ADC7B367C02A3
:100E7000C1F07A3A7B1D7C02C1F07A3E7B047C0291
:100E8000806E7AA47B067C0380667ADE7B6E7C02B1
:100E9000805E7A847B2B7C0380567A847B1D7C0267
:100EA000804E7A587BAC7C0280467A627B6E7C02F4
:100EB000803E7A417BB67C0180367A497B8C7C010E
:100EC000802E7A927B8C7C0180267A4E7B797C0105
:100ED000801E7A527B677C0180167AA47B677C0136
:100EE000800E7A577B567C0180067AC47B377C0162
:100EF000ECC0E0D294D290E565D5E0FDC290C294FA
:100F0000D0E0FCF9EBFD7817E4D5E0FDD8FAD9F68E
:100F1000741ED5E0FDDDF9DAD722D2851205A0C214
:100F200086740220310E0420320A04203306042085
:100F300034027401C0E071261205A4D0E0D5E0F4BB
:100F40002230341EE56FC3941E400C941E40028074
:100F50001171387138800B712F712F1205A47138FF
:100F600071381205A47141714122756800756900DC
:100F70007597DE7597AD7581C043FF8075EF067577
:100F8000A900914C7580FF75F1F075A4E07580FFA4
:100F900075D4FF75900075F23F75A53F759000758B
:100FA000D53F75A60175E34075E202914CE4F8F671
:100FB000D8FD915C12170778988665753001C2AF2D
:100FC0001205A8D1461205A81205A8E565147005FA
:100FD000D23F0211FEC285C23F945914601A1460B8
:100FE0000C1460421460030211EF021103D23E712F
:100FF000C371C371C30211FE1205A8D18A1205A4E0
:10100000120E8A1205A4120E8A1205A4120E921252
:101010000E9A120E8A1205A4120E92120E9A120E37
:101020008A120E8A21FE1205A8120EEA12059C12DF
:101030000EB2120EB212059C120ECA12059C120EAE
:10104000E212059C120EEA12059C120EB2120EB2AA
:1010500012059C120ECA12059C120EE212059C1279
:101060000EEA12059C120EB2120EB212059C120E5E
:10107000CA12059C120EE212059C120EEA12059C81
:10108000120EB2120EB212059C120ECA12059C125A
:101090000EE212059C120EC212059C120EAA120537
:1010A0009C120E7212059C120EB212059C120EC2F8
:1010B00012059C120EAA12059C120E7212059C12A9
:1010C0000EB212059C120EC212059C120EAA120537
:1010D0009C120E7212059C120EB212059C120EC2C8
:1010E00012059C120EAA12059C120E7212059C1279
:1010F0000EB212059C120EE2120EE212059C120EA6
:10110000A221FE120E6A12059C120E6A12059C1292
:10111000059C120ED2120598120ED2120598120ECC
:10112000D2120598120ED212059C12059C120EAA1C
:10113000120EAA12059C120EAA120EAA12059C12D9
:10114000059C120EBA120598120EBA120598120ECC
:10115000BA120598120EBA12059C12059C120EA224
:10116000120EA212059C120EA2120EA212059C12C1
:10117000059C120EB2120598120EB2120598120EAC
:10118000B2120598120EB212059C12059C120E8224
:1011900012059C120E8212059C12059C120E7A12E8
:1011A0000598120E7A120598120E7A120598120EF0
:1011B0007A12059C12059C120E6A120E6A12059C88
:1011C00012059C120EAA120EAA120EAA120EAA1232
:1011D000059C12059C120EA2120EA2120EA2120E55
:1011E000A212059C12059C120E82120E82800F1212
:1011F0000B261205A0120B2F1205A0120B38120598
:10120000A0C2AF75680075690078FA79FA30840772
:10121000D9FBD8F7021C00120CEE120D5E789886EE
:1012200065120C4C75A91375A71075C10075A70040
:1012300075670075E404758811758E0475890975E4
:10124000C80475910475D84075D90875F782759EE4
:101250000375960275DA4275DB4275A82375E69030
:1012600075B801759B80759D0075D10C75BCB975FD
:10127000BB1075E88075B201120594D2AF753C00C1
:10128000C2301205A8C231C232C233C23475220044
:101290001205A4C3E522940A50026158D231752286
:1012A000001205A4C3E522940A50026158C231D24B
:1012B000327522001205A4C3E522940A5002615837
:1012C00075E4C4758851758E017589AA758C007591
:1012D0008D00C2A9D2ABD2AA756C80756B14756FE4
:1012E00050C232D23475220A1205A4756B10C3E5C0
:1012F00022940A4063758E0C756C00756B28756FAF
:101300002875220A1205A4756B20C3E522940A40B1
:1013100047758E0C756C80756B14756F1475220A89
:101320001205A4756B10C3E522940A75530075521B
:1013300000402575E404758811758E04758909D2FD
:10134000A9C2ABC2AAC234D2337522001205A4C30B
:10135000E522940340024101120598203003021255
:1013600001C2AF120F1AD2AF1205A8203403303ACF
:101370000302141C120598788CE6C3940150028174
:101380001CE530C394015002811C7568A57569F194
:101390007F02D236120D5E1205A4C2AFC236120D04
:1013A0005EC3E555947FD2AF4072120594C2AF126E
:1013B0000B41D2AFDFDC120E13C3EF7897F61205A4
:1013C000A81217F47F0AD236120D5E1205A4C2AF1E
:1013D000C236120D5EC3E555947FD2AF50E61205BA
:1013E00094C2AF120B2612059C120B26D2AFDFD689
:1013F000120E13EF24037896F6F87997E7C3942337
:101400004003985006E824237897F61205A8F14E79
:101410001218231205A4120D5E02120175680075E0
:1014200069001205A4C3E55594014002616BC2AF87
:10143000D2861205A4120F41C287D2AF1205A87539
:101440003000E4F537F5380537E537F4703F0538F7
:10145000789AE67819146012783214600D787D1449
:10146000600878FA146003753800C3E53898401DA9
:10147000120C4C120594153875370078998665C2A0
:10148000AF120BB9D2AF789886651205A412059CED
:10149000E52370024101C3E55294015014C3E555A0
:1014A000940140A31205A4E5237003021201021562
:1014B00055E5529401700CC2AF120B26D2AF120543
:1014C000A4A14DE5529402700CC2AF120B2FD2AF03
:1014D0001205A48078E5529403700CC2AF120B3849
:1014E000D2AF1205A48066E5529404700CC2AF120C
:1014F0000B41D2AF1205A48054E5529405700CC282
:10150000AF120BB9D2AF1205A48042E55294147009
:1015100015E553C3940A503BE554B40102C238B4F4
:10152000022BD2388027E55294157015E553C394E9
:101530000A5020E554B40102D238B40210C23880F7
:101540000CE552940C7006120B41120B41755200BF
:101550007553008196C2AF120C4CE4D2AFE4F55F34
:10156000F524F525F53D755F081205941205FD304B
:10157000EDFDA8BDA9BEE97001F8886012060175ED
:101580005F08C2AF755CFF120668855E5C855E5DB4
:10159000D2AF75A71075C13075A70075A90375671F
:1015A00001303A07C238303502D238D228753900B6
:1015B000120ADF120B021206801206871206801230
:1015C000068712068012090C120A09120A53120623
:1015D000871208FC202C031205B7302C031205E7F4
:1015E000120A09120A7612068712090C120A091247
:1015F0000A991206871208FC120A09120ABC12067E
:101600008712090C120A09120ADF1206871205FD59
:101610001208FC120A09120B021206011206873088
:101620002827855E5C79187A0CC3E53999400EC28B
:1016300028D2298A3B855E5C855E5D800CC3E555BA
:10164000940140030215C5C1CC30291F202B1CE595
:101650003B147006C229D22AA1C5F53BC3E55594B7
:101660000140030215C5203A028061753C0078FAFA
:1016700079A4E760027803C3E55698504FE52360EC
:101680004B303A17203805203507800F303502805F
:101690000A202B07D22B855E5CA1F578F0302B0554
:1016A000855E5C7820C3E5489850030215C5302B51
:1016B0001BC22BC238303502D238D229753B128575
:1016C0005E5CA1C5053CE5556002C1CF753C00C21A
:1016D000AF120C4C75240075250075A91375A71061
:1016E00075C10075A700756700D2AF1205A4120C72
:1016F0004C78A4E66006D293D294D295C3E53C948C
:1017000004400241018142901A0D7820F187E520C2
:10171000B4550AA3F187E520B4AA0280137568A521
:101720007569F1120C5CF14E756800756900801DD9
:10173000901A0378807B0AF187A308DBFA901A0FCE
:10174000788C7B1AF187A308DBFA901A2922C2AFA2
:10175000F1CAF1A7901A007410F18CA37442F18CB5
:10176000A37421F18C901A0378807B0AF18BA30873
:10177000DBFA901A0F788C7B1AF18BA308DBFAF155
:10178000DDF1BB901A2922E493F622E6438F015340
:101790008FFDFFC3E583941C400122EF8568B78568
:1017A00069B7F0538FFE22438F02438F018568B7DC
:1017B0008569B7901A0DF0538FFC22901A0D74555D
:1017C000F18C901A0E74AAF18C227A3079D078209C
:1017D000901A40F187E520F709A3DAF7227A3079E9
:1017E000D0901A40E7F18C09A3DAF9227C051205A2
:1017F000A8DCFB22C2AF120B26120B2F120B3812E1
:101800000B4112059C120B26120B2F120B38120BD8
:101810004112059C120B26120B2F120B38120B4192
:10182000D2AF22C2AF120B41120B38120B2F120B88
:101830002612059C120B41120B38120B2F120B268D
:1018400012059C120B41120B38120B2F120B26D2D1
:02185000AF22C5
:1019FD00020F6A104221FFFFFFFFFFFF09FF01FFEA
:101A0D0055AA01FFFFFFFFFF03FFFFFF0AF0505034
:0D1A1D0003FF02FF7DFF0601FFFF0000FF39
:101A4000234A5F485F31352320202020202020209A
:101A500023424C48454C492445464D3842323123B7
:101A600031362E36365F6473686F74746573742014
:101C0000C2AFC2D37597DE7597AD7581C075A90057
:101C100043FF80752438752503B1DB7529A5752A26
:101C2000F143F11053A4EFD28475D4FF75E3407DE6
:101C3000FA780379E67C10752200752300901DE880
:101C40007B0675249875250130840281482084081C
:101C5000D8FBD9F9DCF781BA308408D8FBD9F9DC94
:101C6000F781BAB19BE493A3C39A6004DDC381BA40
:101C7000DBDBB18D600281317B08E493FAA3B16EA6
:101C8000DBF87A30B16E752200752300B18DEAFC65
:101C9000EBFDC3ED94FE400EB18D8A278B28ED300D
:101CA000E0048A828B83B18D7AC270D8C3ED94FE32
:101CB000601950CEBD0029EC600F7520007521FF22
:101CC000752900752A000200008100A827A92808AC
:101CD00009D804D90281DDB191EAF281D10D81A642
:101CE000C3ED94035051EDA2E092007AC5C3E582A2
:101CF0009400E583941C508C200010438F02438F86
:101D0000018529B7852AB7F0300027A827A9280818
:101D100009438F01538FFDD804D902A132C3E58353
:101D2000941C4003A3A117E28529B7852AB7F0A325
:101D3000A117538FFC81827AC1BD030CE493A3FAEF
:101D4000B152DCF8B14A81828184AA22AB23B16E00
:101D5000EBFAEA6222752608C3E52313F523E52290
:101D600013F52250066323A0632201D526EAB1DBD6
:101D7000B1DB75260AEAF4200102D284300102C2E6
:101D800084B1DBC3134002C201D526EB22B191EA34
:101D9000FB208402A191308402A196752608AE240E
:101DA000AF25C3EF13FFEE13FEB1DFB1DBC3EA13C0
:101DB0003084024480FA30E703632201C3E5231331
:101DC000F523E52213F52250066323A0632201D5F3
:101DD00026D9E52265236523F52222AE24AF250E00
:101DE0000FDEFEDFFCD20122424C48656C693437BD
:061DF0003164E8B20601B7
:00000001FF
