:020000040000FA
:060000000219FD020319C4
:03000B0002008D63
:03001300020532B1
:03001B0002009050
:03002B000202CE00
:03005B000205415A
:030073000203067F
:100080000406080C10182030406080A0C0054032E3
:10009000C2AFC2A853E6EFC28E856C8BC0D0D2D35C
:1000A000C0E0C0F0C2CAA8CCA9CDD2CAD2AF758A6E
:1000B00000C3E8956DF8E9956EF9C3E913F9E81303
:1000C000F8E5676007C3E913F9E813F8E97025E874
:1000D000956F4020956F501CE582B410177C007B13
:1000E000007A007908900000A86BE5677004C3E807
:1000F00013F801FD900000D2A8D2AA61E4E0FDC38C
:100100009CC39840EF98EB33FB0582E0FCC39DC392
:100110009840E198EB33FB0582E0FDC39CC3984017
:10012000D398EB33FB0582E0FCC39DC39840C59890
:10013000EB33FB0582E0FDC39CC39840B798EB33DB
:10014000FB0582E0FCC39DC39840A998EB33FB05F7
:1001500082E0FDC39CC398409B98EB33FB0582E093
:10016000FCC39DC398408D98EB33FB0582217890AA
:100170000000D2A8D2AA61E4E0FDC39CC39840EF7E
:1001800098EA33FA0582E0FCC39DC39840E198EAFF
:1001900033FA0582E0FDC39CC39840D398EA33FA52
:1001A0000582E0FCC39DC39840C598EA33FA0582F6
:1001B000E0FDC39CC39840B798EA33FA0582E0FC9F
:1001C000C39DC39840A998EA33FA0582E0FDC39C19
:1001D000C398409B98EA33FA0582E0FCC39DC3981C
:1001E000408D98EA33FA0582EBC46B6A54F0F9EA61
:1001F000C454F0C3996009900000D2A8D2AA61E467
:10020000EBF4C454F0F9EAF4C4540E49FAEBF4C424
:10021000540FFBC3EAF99460FAEB9400FB501DC342
:10022000E97B007A007900601303F9C39552600AF4
:10023000E9F552755300790080020553303A27C31F
:10024000EA94D0F8EB9407F9400BE8FAE9FB203583
:1002500009D235415A303502C235203902B235C390
:10026000EA33FAEB33FBEB2B3B3BF9C3EB13FBEA33
:1002700013FAEA29FAEB3400FB30E3047AFF7BFF40
:10028000E5255403601B202A18E55E33F9EB70075F
:10029000C3E99A4002E9FAE53CC4332AFAEB340098
:1002A000FBC3EA33C4540FF8EB33C454F048F8707E
:1002B00005EA60027801900000D2A8D2AAE5226087
:1002C00002152281D1900000D2A8D2AA61E4C0D048
:1002D000C0E0C2CF0541E5676009E5666005756667
:1002E000006101756601E52360021523C3E55560D1
:1002F000057556006101E5562401F5565003755603
:10030000FFD0E0D0D032C2AF53E67F7592FA75933A
:10031000FFC22053917FD2AF32C0E0E58A3034086B
:10032000856C8BF0A3D0E032D0E0C2AF53E6EFC0D3
:10033000D0C0E0C0F0D2D3D2AF5388EFA88AA98C46
:10034000AA40308D010A758A00758C007540004303
:100350008810E567700AC3E833F8E933F9EA33FA3D
:1003600030331FE8C4540FFAE9C454F04AFAC313F7
:100370002AFAC3E833F8E933F9E82AFAE93406FB44
:1003800061D530320FC3E833E933FAE82AFAE934A9
:1003900000FB61D5303115E875F056A4AAF0E97577
:1003A000F056A42AFAC5F03400FB61D5C3EA13FA6B
:1003B000E913F9E813F8E875F056A4AAF0E975F026
:1003C00056A42AFAC5F03400C313FBEA13FAC3EBB0
:1003D00013FBEA13FAC3EB94125009C3EA9434EB0B
:1003E000940750160522E52270021522C3E52294D7
:1003F000325002A125755500A128E5226002152280
:100400003036067C007D088114AC31AD32303A04C0
:10041000AC33AD34C3EA9CFAEB9DFB9208AE61AFFE
:1004200062303A425007203509D2358132303502E8
:10043000C235303504AE63AF64203902B235C3EA49
:1004400033FAEB33FBA208500AEAF42401FAEBF486
:100450003400FBC3EA9450FAEB9400FB501478008C
:100460007A007B008172A208500878007A007B0035
:1004700081D1E5255403601B202A18E55E33F9EB92
:100480007007C3E99A4002E9FAE53CC4332AFAEB63
:100490003400FBEA8EF0A4F9AAF0EB8EF0A42AFA5D
:1004A000C5F03400FBC3EB13FDEA13F8C3ED13FDF5
:1004B000E813F80FEF146004C3E833F8C3E933EA34
:1004C00033FAEB33FBDFEDEB30E30678FF7AFF7BAB
:1004D000078855D230E86003755600C3E55CFC958B
:1004E0005D4002AC5DC3EC95555008EC75F008A476
:1004F000FAABF0EAF4F8EBF45407F9C3E894B4FA71
:10050000E99400FB50047A007B00885789588A5987
:100510008B5A75230AD0F0D0E0D0D053F7DF43F7E1
:100520004043E6103275230AD0F0D0E0D0D043E645
:100530001032C2AAD28EC2CA85CC6D85CD6ED2CA07
:1005400032C2AFC0D0C0E0D2D3A8F9E55B30E20A36
:10055000E5FA20E23520E132A162E5FA30E22B2013
:10056000E128C3E55813F8E55713F5E988EAC3E530
:100570005A13F8E55913F5FB88FC85585B53F7BF10
:10058000D2A8303402D2AA53E6EF53F7DFD0E0D03E
:10059000D0D2AF327901801479038010790A800CAF
:1005A000791E80087964800479C880007817E4D5C2
:1005B000E0FDD8FAD9F62278FF20282879A1E76053
:1005C00023E548601F74FF8548F084853FF030299B
:1005D0000375F005A4F8C5F0600278FFC3E8955EE6
:1005E0005002A85E885D22C3E54794A0E5489400C8
:1005F000E55D500314A1F8046002F55D2275E890F2
:1006000022055FC3E55F9408405330EDF4A8BDA90F
:10061000BE755F00E9FA79A0E76041EA7006E5601F
:100620006018800CC3E89560600EE5605005600AB4
:100630001480070460FA8002E560F560C3956A40A3
:100640001B755CC0C394044013755C80C394044064
:100650000B755C40C394044003755C0022E55C2488
:1006600010500274FFF55C22743279A687F0A4C59D
:10067000F0A2F733F8C3E8955C4002A85C885E22DC
:100680007547007548F022C2AFC2CAA8CCA9CDAA4E
:100690004130CF010AD2CAD2AFC3EA13FAE913F943
:1006A000E813F8AB42AC4388428943C3E89BF8E9BE
:1006B0009C20280A547FF9302C02E1A5C1FEAD44EC
:1006C0008A44F9EA9D547FFA600678FF79FFC1E316
:1006D000AE45AF468B458C46A842A943C3E89EF879
:1006E000E99FF9C3E54813FBE54713FAE82AF54704
:1006F000E93BF54850067547FF7548FFE14BAA47AF
:10070000AB48AC47AD487E047F02C3EB9404400D78
:100710001E1FC3EB940840052029021E1FC3ED13C2
:10072000FDEC13FCDEF7C3EA9CFAEB9DFBEF6009DE
:10073000C3E913F9E813F8DFF7EA28FAEB39FB8A83
:10074000478B4850067BFF8B478B48C3EB94025086
:1007500002D22C3028047F03E1767892E6FFC3E5CD
:100760003D948240110FC3E53D94A040010FC3EFBB
:10077000940640027F057E02E548C4540FF9E5481F
:10078000C454F0F8E547C4540F28F8C3E89EFAE9CA
:100790009400FB4009C3EA9401EB940050047A01F1
:1007A000E4FB0207F1AA47AB48EBC4FEEAC4540FCE
:1007B0004EFCC3EA9CFAEB9400FBC3E813C313F8A6
:1007C000EA28FAEB3400FB8A478B48C3EB940240DB
:1007D00002C22C7802EBC4FE7B00EAC4540F4EFA2E
:1007E000C3EA98FA4005C3940150027A017892E670
:1007F000FF302002E1F1854E92854F93D22043E6EF
:1008000080C3E49AF8E49BF9C3E833F8E933F9309C
:100810002C03020886E8FAE9FBD3E913FDE813FC90
:10082000884E894FC3EF94036038EF20E00CE82C2A
:10083000F8E93DF9ECFAEDFB8013E828F8E939F91D
:10084000C3E82401F8E93400F97AFF7BFFC3EF9491
:1008500003400F8A508B51884A894B8C4C8D4D0236
:1008600008BB885089518A4A8B4B8C4C8D4D30285F
:10087000127550F07551FF754CF0754DFF754EF0C7
:10088000754FFF0208BBE8FAD3E813FC884EC3EFAC
:1008900094036021EF20E007E82CF8ECFA01A6E8C9
:1008A000282401F87AFFC3EF940340098A50884A4C
:1008B0008C4C0208BB88508A4A8C4C30200201BB09
:1008C000753A02D22043E680E5255403602DA847FF
:1008D000A948C3E913F9E813F8302804E92440F9DA
:1008E000C2AF53E67F759100C3E498F594E499F59F
:1008F00095759104D22043E680D2AF22D22175496A
:1009000000752000302B03752040211AD221754933
:1009100000752040302B0375200078017901202CD0
:1009200020E52554036002C2217914E548C3137001
:100930000104F8C3941440027814302804781B7919
:100940001BC3E833F8C3E933F9202010E549600CF4
:10095000302803D53A04D22321CD11C30549E59BA4
:100960005440B5200221B730280908C3E899400156
:1009700018214920210A08C3E8994002211A214977
:10098000C22153E67F759100302C11759400759546
:10099000F0759104D22043E68002091AE5487EFFF3
:1009A000C3334009C3334005C3334001FEC3E49E53
:1009B000759400F5952191C3E53994015002211AEF
:1009C000302102211AD80221CB2149C223C2AF53C0
:1009D000E67F759100855094855195759104854AFF
:1009E00092854B93D22043E680D2AFE52554036035
:1009F000072029020539801030230D202B0A2021E1
:100A000007158115810216852278003021027801B0
:100A1000E53D75F007A4F9E5F028F5F0E9A2F0133B
:100A2000A2F113A2F213F53DC394785003753D78FB
:100A3000C3E53D953E400BD222C295C294C2937548
:100A4000D53F3020024142854C92854D93D22043C0
:100A5000E68022203810C2AFD291C29075D533D231
:100A6000AF759F326123C2AFD291C29275D51ED2AB
:100A7000AF759F326123203810C2AFC29375D52D58
:100A8000C290D2AF759F526123C2AFC29575D52D6A
:100A9000C292D2AF759F126123203810C2AFD2909C
:100AA000C29275D52DD2AF759F128077C2AFD29208
:100AB000C29075D52DD2AF759F528067203810C275
:100AC000AFC29475D51EC292D2AF759F328054C208
:100AD000AFC29475D533C290D2AF759F3280442097
:100AE0003810C2AFD292C29175D51ED2AF759F5247
:100AF0008031C2AFD290C29175D533D2AF759F12FB
:100B00008021203810C2AFC29575D533C291D2AFC3
:100B1000759F12800EC2AFC29375D51EC291D2AF1F
:100B2000759F52C22222203E687A147BC880192009
:100B30003E697A107B8C8010203E6A7A0D7BB480EF
:100B400007203E6B7A0B7BC8303F01227902E4D24A
:100B500091D5E0FDD294D5E0FDC294D5E0FDC291DF
:100B6000D5E0FDE920E002D29530E002D293E565C0
:100B7000D5E0FDE920E002C29530E002C293749610
:100B8000D5E0FDD9C9EAF8D5E0FDD8FBDBBED291AE
:100B9000227A507C507B057D1480407A327C287B01
:100BA000147D2880367A3C7CB47B047D0A802C7AC4
:100BB000967C327B027D1E80227A647C287B057DB8
:100BC0000F80187888E614D23C7AC87C327B037D8B
:100BD0003C80087AC87C507B057D46303F0122EB83
:100BE000F8303C15203D091CECB40112B23D800EDA
:100BF0000CECB43209B23D80051CEC70010CECC069
:100C0000E0E8C0E0EDC0E0303B0FC291D295E56571
:100C1000D5E0FDC295D291800DC291D293E565D504
:100C2000E0FDC293D291B23BD0E0FDFED0E0F8D01F
:100C3000E0FCF97464D5E0FDDEF9744BD5E0FDD934
:100C4000F9203BBAD8B8DA0122DA9422C295C294CC
:100C5000C293D290D291D29275D53F22788076FFFE
:100C60000876FF0876FF0876FF0876FF0876FF080B
:100C700076090876FF087601788C76010876FF08F9
:100C800076FF0876FF0876FF0876FF087603087679
:100C9000FF0876FF0876FF08760A0876F008765097
:100CA0000876500876030876FF0876020876FF0873
:100CB000767D0876FF0876060876010876FF0876C6
:100CC000FF08760008760022FA75F00CA4ABF0EA73
:100CD000C333F8740133F9E8C333F8E933F9E8C3EF
:100CE0002BF8E93400F9E8C333F8E933F9227888BE
:100CF000E6F554C39403D23A5002C23AC238E63001
:100D0000E102D238A23892397886E61490008093B6
:100D100078A6F67886E6F53FC394025003753F0245
:100D2000789CE6753EFFB40203753EA0B4030375DC
:100D30003E8278A0E6F8600674282409D8FCF56A9B
:100D40007896E691C888318932789EE691C88833D2
:100D500089347897E691C888358936914C223036A7
:100D6000117A007B007CFF7D007E00B1C48B628A1B
:100D70006122303A227896E6FA7B00789EE6FC7D86
:100D800000C3EA33FAEB33FBC3EC33FCED33FD7EF7
:100D90000AB1C48B648A637896303A02789EE6FA88
:100DA0007B007897E6FC7D007E00303A10C3EA3382
:100DB000FAEB33FBC3EC33FCED33FD7E0AB1C48B9D
:100DC000628A6122C3EC9EFCED9400FDC3EC9AFCA8
:100DD000ED9BFDC3EC9423ED940050047C237D0037
:100DE000C3EC94FFED940140047CFF7D017BFF0B7D
:100DF0007A000AEA7009C3EC33FCED33FDA1EFEC95
:100E00008AF0A4AEF0ED8AF0A42E947C40E4EAF4DB
:100E100060DD22D236B15E1205A01205A07A007BF9
:100E2000007C10120598E5552AFA74003BFBDCF3B0
:100E30007C04C3EB13FBEA13FADCF7FFEB60027FE1
:100E4000FFC236B15E2278A5E6F954037000E9547A
:100E50000C7000E954307000E954C07000227ADC54
:100E60007B367C02C1E47A3A7B1D7C02C1E47A3E87
:100E70007B047C02806E7AA47B067C0380667ADE2B
:100E80007B6E7C02805E7A847B2B7C0380567A8426
:100E90007B1D7C02804E7A587BAC7C0280467A6255
:100EA0007B6E7C02803E7A417BB67C0180367A493B
:100EB0007B8C7C01802E7A927B8C7C0180267A4E02
:100EC0007B797C01801E7A527B677C0180167AA434
:100ED0007B677C01800E7A577B567C0180067AC442
:100EE0007B377C01ECC0E0C291D295E565D5E0FD91
:100EF000C295D291D0E0FCF9EBFD7817E4D5E0FD86
:100F0000D8FAD9F6741ED5E0FDDDF9DAD72212053C
:100F1000A0740220310E0420320A0420330604207B
:100F200034027401C0E071261205A4D0E0D5E0F4CB
:100F30002230341EE56FC3941E400C941E40028084
:100F40001171387138800B712F712F1205A471380F
:100F500071381205A47141714122756800756900EC
:100F60007597DE7597AD7581C043FF8075EF067587
:100F7000A900914C7580FF75F1D175A4007580FFB3
:100F800075D4FF75900775F23F75A53F759007758D
:100F9000D53F75A60175E34075E202914CE4F8F681
:100FA000D8FD915C1216C878988665753001C2AF7D
:100FB0001205A8D1461205A81205A8E5651470050A
:100FC000D23F0211E7C23F945914601A14600C1406
:100FD000603D1460030211D80210ECD23E71C3715F
:100FE000C371C30211E71205A8D17E1205A4D17EF8
:100FF0001205A4D17E1205A4D186D18ED17E120510
:10100000A4120E86120E8E120E7E120E7E21E71292
:1010100005A8120EDE12059C120EA6120EA61205CF
:101020009C120EBE12059C120ED612059C120EDEEC
:1010300012059C120EA6120EA612059C120EBE12CE
:10104000059C120ED612059C120EDE12059C120E85
:10105000A6120EA612059C120EBE12059C120ED6EA
:1010600012059C120EDE12059C120EA6120EA6127E
:10107000059C120EBE12059C120ED612059C120E75
:10108000B612059C120E9E12059C120E6612059C4D
:10109000120EA612059C120EB612059C120E9E127E
:1010A000059C120E6612059C120EA612059C120ECD
:1010B000B612059C120E9E12059C120E6612059C1D
:1010C000120EA612059C120EB612059C120E9E124E
:1010D000059C120E6612059C120EA612059C120E9D
:1010E000D6120ED612059C120E9621E7120E5E1233
:1010F000059C120E5E12059C12059C120EC612056E
:1011000098120EC6120598120EC6120598120EC637
:1011100012059C12059C120E9E120E9E12059C1228
:101120000E9E120E9E12059C12059C120EAE12050A
:1011300098120EAE120598120EAE120598120EAE4F
:1011400012059C12059C120E96120E9612059C1208
:101150000E96120E9612059C12059C120EA61205F2
:1011600098120EA6120598120EA6120598120EA637
:1011700012059C12059C120E7612059C120E761218
:10118000059C12059C120E6E120598120E6E120529
:1011900098120E6E120598120E6E12059C12059C86
:1011A000120E5E120E5E12059C12059C120E9E120D
:1011B0000E9E120E9E120E9E12059C12059C120E81
:1011C00096120E96120E96120E9612059C12059C01
:1011D000120E76120E76800F120B261205A0120B3D
:1011E0002F1205A0120B381205A0C2AF756800754A
:1011F000690078FA79FA308007D9FBD8F7021C0029
:10120000120CEE120D5E78988665120C4C75A913BF
:1012100075A71075C10075A70075670075E40075A6
:101220008811758E0475890975C80475910475D87F
:101230004075D90875F782759E0375960075DB4277
:1012400075DA4275A82375E69075B801759B8075AF
:101250009D0075D10C75BCB975BB1075E88075B271
:1012600001120594D2AF753C00C2301205A8C231FC
:10127000C232C233C2347522001205A4C3E52294DF
:101280000A50026141D2317522001205A4C3E52241
:10129000940A50026141C231D2327522001205A473
:1012A000C3E522940A5002614175E4807588517546
:1012B0008E017589AA758C00758D00C2A9D2ABD23A
:1012C000AA756C80756B14756F50C232D23475225A
:1012D0000A1205A4756B10C3E522940A4063758E4B
:1012E0000C756C00756B28756F2875220A1205A4A1
:1012F000756B20C3E522940A4047758E0C756C808F
:10130000756B14756F1475220A1205A4756B10C3E2
:10131000E522940A755300755200402575E4007566
:101320008811758E04758909D2A9C2ABC2AAC234CC
:10133000D2337522001205A4C3E522940340022192
:10134000EA1205982030030211EAC2AF120F0ED242
:10135000AF1205A8203403303A0302140412059892
:10136000788CE6C3940150028104E530C3940150A7
:101370000281047568A57569F17F02D236120D5E8F
:101380001205A4C2AFC236120D5EC3E555947FD2DA
:10139000AF4071120594C2AF120B41D2AFDFDC1225
:1013A0000E13C3EF7897F61205A8F1B57F0AD2366F
:1013B000120D5E1205A4C2AFC236120D5EC3E55512
:1013C000947FD2AF50E6120594C2AF120B261205DD
:1013D0009C120B26D2AFDFD6120E13EF24037896A1
:1013E000F6F87997E7C394234003985006E824233E
:1013F0007897F61205A8F10F1217E41205A4120D42
:101400005E0211EA7568007569001205A4C3E5550E
:10141000940140026154C2AF1205A4120F31D2AF41
:101420001205A8753000E4F537F5380537E537F4CF
:10143000703F0538789AE678191460127832146093
:101440000D787D14600878FA146003753800C3E5E0
:101450003898401D120C4C120594153875370078D9
:10146000998665C2AF120BB9D2AF7898866512051E
:10147000A412059CE523700221EAC3E552940150B1
:1014800014C3E555940140A31205A4E5237003029B
:1014900011EA021516E55294017005120B26806EB2
:1014A000E55294027005120B2F8063E5529403708D
:1014B00005120B388058E55294047005120B4180D8
:1014C0004DE55294057005120BB98042E552941413
:1014D0007015E553C3940A503BE554B40102C23879
:1014E000B4022BD2388027E55294157015E553C30A
:1014F000940A5020E554B40102D238B40210C23824
:10150000800CE552940C7006120B41120B4175527F
:1015100000755300817AC2AF120C4CE4D2AFE4F5EF
:101520005FF524F525F53D755F081205941205FD5C
:1015300030EDFDA8BDA9BEE97001F8886012060172
:10154000755F08C2AF755CFF120668855E5C855EDC
:101550005DD2AF75A71075C13075A70075A9037569
:101560006701303A07C238303502D238D22875398F
:1015700000120ADF120B0212068012068712068082
:1015800012068712068012090C120A09120A531257
:1015900006871208FC202C031205B7302C03120515
:1015A000E7120A09120A7612068712090C120A09B2
:1015B000120A991206871208FC120A09120ABC12B2
:1015C000068712090C120A09120ADF120687120591
:1015D000FD1208FC120A09120B02120601120687FC
:1015E000302827855E5C79187A0CC3E53999400E5E
:1015F000C228D2298A3B855E5C855E5D800CC3E58E
:101600005594014003021586C18D30291F202B1CE3
:10161000E53B147006C229D22AA186F53BC3E555E5
:1016200094014003021586203A028061753C0078DF
:10163000FA79A4E760027803C3E55698504FE52392
:10164000604B303A17203805203507800F303502BF
:10165000800A202B07D22B855E5CA1B678F0302B58
:1016600005855E5C7820C3E54898500302158630F6
:101670002B1BC22BC238303502D238D229753B120F
:10168000855E5CA186053CE5556002C190753C0015
:10169000C2AF120C4C75240075250075A91375A7EF
:1016A0001075C10075A700756700D2AF1205A412AE
:1016B0000C4C78A4E66006C290C291C292C3E53C8D
:1016C0009404400221EA8126901A0D7820F148E521
:1016D00020B4550AA3F148E520B4AA028013756826
:1016E000A57569F1120C5CF10F75680075690080D1
:1016F0001D901A0378807B0AF148A308DBFA901A40
:101700000F788C7B1AF148A308DBFA901A2922C2C1
:10171000AFF18BF168901A007410F14DA37442F18F
:101720004DA37421F14D901A0378807B0AF14CA3EC
:1017300008DBFA901A0F788C7B1AF14CA308DBFABD
:10174000F19EF17C901A2922E493F622E6438F0160
:10175000538FFDFFC3E583941C400122EF8568B7DA
:101760008569B7F0538FFE22438F02438F0185684E
:10177000B78569B7901A0DF0538FFC22901A0D743B
:1017800055F14D901A0E74AAF14D227A3079D07825
:1017900020901A40F148E520F709A3DAF7227A30C1
:1017A00079D0901A40E7F14D09A3DAF9227C0512AD
:1017B00005A8DCFB22C2AF120B26120B2F120B382E
:1017C000120B4112059C120B26120B2F120B381212
:1017D0000B4112059C120B26120B2F120B38120B09
:1017E00041D2AF22C2AF120B41120B38120B2F1293
:1017F0000B2612059C120B41120B38120B2F120BE9
:101800002612059C120B41120B38120B2F120B26BD
:03181000D2AF2232
:1019FD00020F5A104221FFFFFFFFFFFF09FF01FFFA
:101A0D0055AA01FFFFFFFFFF03FFFFFF0AF0505034
:0D1A1D0003FF02FF7DFF0601FFFF0000FF39
:101A4000234B5F485F393023202020202020202096
:101A500023424C48454C492445464D3842323123B7
:101A600031362E36365F6473686F74746573742014
:101C0000C2AFC2D37597DE7597AD7581C075A90057
:101C100043FF80752438752503B1DB7529A5752A26
:101C2000F143F10153A4FED28075D4FF75E3407DEA
:101C3000FA780379E67C10752200752300901DE880
:101C40007B06752498752501308002814820800824
:101C5000D8FBD9F9DCF781BA308008D8FBD9F9DC98
:101C6000F781BAB19BE493A3C39A6004DDC381BA40
:101C7000DBDBB18D600281317B08E493FAA3B16EA6
:101C8000DBF87A30B16E752200752300B18DEAFC65
:101C9000EBFDC3ED94FE400EB18D8A278B28ED300D
:101CA000E0048A828B83B18D7AC270D8C3ED94FE32
:101CB000601950CEBD0029EC600F7520007521FF22
:101CC000752900752A000200008100A827A92808AC
:101CD00009D804D90281DDB191EAF281D10D81A642
:101CE000C3ED94035051EDA2E092007AC5C3E582A2
:101CF0009400E583941C508C200010438F02438F86
:101D0000018529B7852AB7F0300027A827A9280818
:101D100009438F01538FFDD804D902A132C3E58353
:101D2000941C4003A3A117E28529B7852AB7F0A325
:101D3000A117538FFC81827AC1BD030CE493A3FAEF
:101D4000B152DCF8B14A81828184AA22AB23B16E00
:101D5000EBFAEA6222752608C3E52313F523E52290
:101D600013F52250066323A0632201D526EAB1DBD6
:101D7000B1DB75260AEAF4200102D280300102C2EA
:101D800080B1DBC3134002C201D526EB22B191EA38
:101D9000FB208002A191308002A196752608AE2416
:101DA000AF25C3EF13FFEE13FEB1DFB1DBC3EA13C0
:101DB0003080024480FA30E703632201C3E5231335
:101DC000F523E52213F52250066323A0632201D5F3
:101DD00026D9E52265236523F52222AE24AF250E00
:101DE0000FDEFEDFFCD20122424C48656C693437BD
:061DF0003164E8B20601B7
:00000001FF
