:020000040000FA
:060000000219FD020319C4
:03000B0002008D63
:03001300020534AF
:03001B0002009050
:03002B000202CE00
:03005B0002054358
:030073000203067F
:100080000406080C10182030406080A0C0054032E3
:10009000C2AFC2A853E6EFC28E856B8BC0D0D2D35D
:1000A000C0E0C0F0C2CAA8CCA9CDD2CAD2AF758A6E
:1000B00000C3E8956CF8E9956DF9C3E913F9E81305
:1000C000F8E5666007C3E913F9E813F8E97025E875
:1000D000956E4020956E501CE582B410177C007B15
:1000E000007A007908900000A86AE5667004C3E809
:1000F00013F801FD900000D2A8D2AA61E4E0FDC38C
:100100009CC39840EF98EB33FB0582E0FCC39DC392
:100110009840E198EB33FB0582E0FDC39CC3984017
:10012000D398EB33FB0582E0FCC39DC39840C59890
:10013000EB33FB0582E0FDC39CC39840B798EB33DB
:10014000FB0582E0FCC39DC39840A998EB33FB05F7
:1001500082E0FDC39CC398409B98EB33FB0582E093
:10016000FCC39DC398408D98EB33FB0582217890AA
:100170000000D2A8D2AA61E4E0FDC39CC39840EF7E
:1001800098EA33FA0582E0FCC39DC39840E198EAFF
:1001900033FA0582E0FDC39CC39840D398EA33FA52
:1001A0000582E0FCC39DC39840C598EA33FA0582F6
:1001B000E0FDC39CC39840B798EA33FA0582E0FC9F
:1001C000C39DC39840A998EA33FA0582E0FDC39C19
:1001D000C398409B98EA33FA0582E0FCC39DC3981C
:1001E000408D98EA33FA0582EBC46B6A54F0F9EA61
:1001F000C454F0C3996009900000D2A8D2AA61E467
:10020000EBF4C454F0F9EAF4C4540E49FAEBF4C424
:10021000540FFBC3EAF99460FAEB9400FB501DC342
:10022000E97B007A007900601303F9C39552600AF4
:10023000E9F552755300790080020553303A27C31F
:10024000EA94D0F8EB9407F9400BE8FAE9FB203583
:1002500009D235415A303502C235203902B235C390
:10026000EA33FAEB33FBEB2B3B3BF9C3EB13FBEA33
:1002700013FAEA29FAEB3400FB30E3047AFF7BFF40
:10028000E5255403601B202A18E55D33F9EB700760
:10029000C3E99A4002E9FAE53CC4332AFAEB340098
:1002A000FBC3EA33C4540FF8EB33C454F048F8707E
:1002B00005EA60027801900000D2A8D2AAE5226087
:1002C00002152281D1900000D2A8D2AA61E4C0D048
:1002D000C0E0C2CF0541E5666009E565600575656A
:1002E000006101756501E52360021523C3E55460D3
:1002F000057555006101E5552401F5555003755507
:10030000FFD0E0D0D032C2AF53E67F7592FA75933A
:10031000FFC22053917FD2AF32C0E0E58A3034086B
:10032000856B8BF0A3D0E032D0E0C2AF53E6EFC0D4
:10033000D0C0E0C0F0D2D3D2AF5388EFA88AA98C46
:10034000AA40308D010A758A00758C007540004303
:100350008810E566700AC3E833F8E933F9EA33FA3E
:1003600030331FE8C4540FFAE9C454F04AFAC313F7
:100370002AFAC3E833F8E933F9E82AFAE93406FB44
:1003800061D530320FC3E833E933FAE82AFAE934A9
:1003900000FB61D5303115E875F056A4AAF0E97577
:1003A000F056A42AFAC5F03400FB61D5C3EA13FA6B
:1003B000E913F9E813F8E875F056A4AAF0E975F026
:1003C00056A42AFAC5F03400C313FBEA13FAC3EBB0
:1003D00013FBEA13FAC3EB94125009C3EA9434EB0B
:1003E000940750160522E52270021522C3E52294D7
:1003F000325002A127755400A12AE522600215227D
:100400003036067C007D088114AC31AD32303A04C0
:10041000AC33AD34C3EA9CFAEB9DFB9208AE60AFFF
:1004200061303A425007203509D2358132303502E9
:10043000C235303504AE62AF63203902B235C3EA4B
:1004400033FAEB33FBA208500AEAF42401FAEBF486
:100450003400FBC3EA9450FAEB9400FB501478008C
:100460007A007B008172A208500878007A007B0035
:1004700081D1E5255403601B202A18E55D33F9EB93
:100480007007C3E99A4002E9FAE53CC4332AFAEB63
:100490003400FBEA8EF0A4F9AAF0EB8EF0A42AFA5D
:1004A000C5F03400FBC3EB13FDEA13F8C3ED13FDF5
:1004B000E813F80FEF146004C3E833F8C3E933EA34
:1004C00033FAEB33FBDFEDEB30E30678FF7AFF7BAB
:1004D000078854D230E86003755500C3E55BFC958E
:1004E0005C4002AC5CC3EC95545008EC75F008A479
:1004F000FAABF0EAF4F8EBF45407F988568957752B
:10050000230AE55A30E210D0F0D0E0D0D053F7DF24
:1005100043F74043E61032D0F0D0E0D0D053D8FEBD
:1005200043DA0143E6103275230AD0F0D0E0D0D090
:1005300043E61032C2AAD28EC2CA85CC6C85CD6D7C
:10054000D2CA32C2AFC0D0C0E0D2D38556FB8557E5
:10055000FC85575A53F7BF53DAFED2A8303402D283
:10056000AA53E6EF53F7DF53D8FED0E0D0D0D2AF96
:10057000327901801479038010790A800C791E8009
:10058000087964800479C880007817E4D5E0FDD844
:10059000FAD9F62278FF20282879A1E76023E548D8
:1005A000601F74FF8548F084853FF030290375F0A3
:1005B00005A4F8C5F0600278FFC3E8955D5002A875
:1005C0005D885C22C3E54794A0E5489400E55C5053
:1005D0000314A1D5046002F55C2275E89022055E43
:1005E000C3E55E9408405330EDF4A8BDA9BE755E26
:1005F00000E9FA79A0E76041EA7006E55F601880DB
:100600000CC3E8955F600EE55F5005600A14800733
:100610000460FA8002E55FF55FC39569401B755B76
:10062000C0C394044013755B80C39404400B755B96
:1006300040C394044003755B0022E55B2410500224
:1006400074FFF55B22743279A687F0A4C5F0A2F797
:1006500033F8C3E8955B4002A85B885D22754700CC
:100660007548F022C2AFC2CAA8CCA9CDAA4130CFEA
:10067000010AD2CAD2AFC3EA13FAE913F9E813F8B0
:10068000AB42AC4388428943C3E89BF8E99C2028ED
:100690000A547FF9302C02E182C1DBAD448A44F96F
:1006A000EA9D547FFA600678FF79FFC1C0AE45AF7E
:1006B000468B458C46A842A943C3E89EF8E99FF9BA
:1006C000C3E54813FBE54713FAE82AF547E93BF58C
:1006D0004850067547FF7548FFE128AA47AB48AC6C
:1006E00047AD487E047F02C3EB9404400D1E1FC338
:1006F000EB940840052029021E1FC3ED13FDEC13E7
:10070000FCDEF7C3EA9CFAEB9DFBEF6009C3E9133B
:10071000F9E813F8DFF7EA28FAEB39FB8A478B4848
:1007200050067BFF8B478B48C3EB94025002D22CC0
:100730003028047F03E1537892E6FFC3E53D9482BD
:1007400040110FC3E53D94A040010FC3EF94064054
:10075000027F057E02E548C4540FF9E548C454F011
:10076000F8E547C4540F28F8C3E89EFAE99400FB63
:100770004009C3EA9401EB940050047A01E4FB02BF
:1007800007CEAA47AB48EBC4FEEAC4540F4EFCC3E5
:10079000EA9CFAEB9400FBC3E813C313F8EA28FAC7
:1007A000EB3400FB8A478B48C3EB94024002C22C17
:1007B0007802EBC4FE7B00EAC4540F4EFAC3EA98F9
:1007C000FA4005C3940150027A017892E6FF302086
:1007D00002E1CE854E92854F93D22043E680C3E45A
:1007E0009AF8E49BF9C3E833F8E933F9302C0302B3
:1007F0000863E8FAE9FBD3E913FDE813FC884E89A6
:100800004FC3EF94036038EF20E00CE82CF8E93D8B
:10081000F9ECFAEDFB8013E828F8E939F9C3E8248C
:1008200001F8E93400F97AFF7BFFC3EF9403400F2E
:100830008A508B51884A894B8C4C8D4D0208988880
:100840005089518A4A8B4B8C4C8D4D3028127550F3
:10085000F07551FF754CF0754DFF754EF0754FFFFB
:10086000020898E8FAD3E813FC884EC3EF940360BB
:1008700021EF20E007E82CF8ECFA0183E8282401B6
:10088000F87AFFC3EF940340098A50884A8C4C02DF
:10089000089888508A4A8C4C3020020198753A0298
:1008A000D22043E680E5255403602DA847A948C31C
:1008B000E913F9E813F8302804E92440F9C2AF53EA
:1008C000E67F759100C3E498F594E499F5957591E8
:1008D00004D22043E680D2AF22D221754900752090
:1008E00000302B0375204001F7D221754900752097
:1008F00040302B0375200078017901202C20E5255C
:1009000054036002C2217914E548C313700104F84E
:10091000C3941440027814302804781B791BC3E870
:1009200033F8C3E933F9202010E549600C3028037F
:10093000D53A04D22321AA11A00549E59B5440B51C
:100940002002219430280908C3E899400118212683
:1009500020210A08C3E899400201F72126C2215349
:10096000E67F759100302C117594007595F07591A6
:1009700004D22043E6800208F7E5487EFFC33340F7
:1009800009C3334005C3334001FEC3E49E759400A0
:10099000F595216EC3E5399401500201F73021022B
:1009A00001F7D80221A82126C223C2AF53E67F75E2
:1009B0009100855094855195759104854A92854B97
:1009C00093D22043E680D2AFE52554036007202967
:1009D000020539801030230D202B0A2021071581B4
:1009E00015810216B52278003021027801E53D75A7
:1009F000F007A4F9E5F028F5F0E9A2F013A2F1134D
:100A0000A2F213F53DC394785003753D78C3E53DDC
:100A1000953E400BD222C294C295C29675D57F30C6
:100A20002002411F854C92854D93D22043E68022BF
:100A3000203814C2AFC295C291D294D29675D577A0
:100A4000D2AF759F456130C2AFC295C293D296D2E4
:100A50009475D57DD2AF759F456130203814C2AFF3
:100A6000C296D29575D57BC291D294D2AF759F654F
:100A70006130C2AFC294D29575D57BC293D296D263
:100A8000AF759F756130203814C2AFC294C293D243
:100A900096D29575D57BD2AF759F756130C2AFC2C6
:100AA00096C291D294D29575D57BD2AF759F656170
:100AB00030203814C2AFC295D29475D57DC293D27E
:100AC00096D2AF759F458068C2AFC295D29675D554
:100AD00077C291D294D2AF759F458054203814C20A
:100AE000AFC296C292D295D29475D57DD2AF759F82
:100AF00065803DC2AFC294C292D295D29675D57729
:100B0000D2AF759F758029203814C2AFC294D29697
:100B100075D577C292D295D2AF759F758012C2AF4C
:100B2000C296D29475D57DC292D295D2AF759F658B
:100B3000C22222203E707A147BC88019203E717A2E
:100B4000107B8C8010203E727A0D7BB48007203E93
:100B5000737A0B7BC8303F01227902E4C295D5E05D
:100B6000FDD292D295D5E0FDC295D5E0FDC292D2DC
:100B700095D5E0FDE920E004D291D29430E004D292
:100B800093D296E564D5E0FDE920E002C29430E01E
:100B900002C2967496D5E0FDD9C1EAF8D5E0FDD839
:100BA000FBDBB6C295227A507C507B057D148040D9
:100BB0007A327C287B147D2880367A3C7CB47B0496
:100BC0007D0A802C7A967C327B027D1E80227A649C
:100BD0007C287B057D0F80187888E614D23C7AC883
:100BE0007C327B037D3C80087AC87C507B057D4647
:100BF000303F0122EBF8303C15203D091CECB401DC
:100C000012B23D800E0CECB43209B23D80051CECF2
:100C100070010CECC0E0E8C0E0EDC0E0303B13C276
:100C200092D295D291D294E564D5E0FDC294C2955A
:100C30008011C292D295D293D296E564D5E0FDC2DE
:100C400096C295B23BD0E0FDFED0E0F8D0E0FCF9D2
:100C50007464D5E0FDDEF9744BD5E0FDD9F9203B95
:100C6000B2D8B0DA0122DA8C22C294C295C296C2FE
:100C700094C295C29675D57F22788076FF0876FF5C
:100C80000876FF0876FF0876FF0876FF08760908E1
:100C900076FF087601788C76010876FF0876FF08E3
:100CA00076FF0876FF0876FF0876030876FF087659
:100CB000FF0876FF08760A0876F008765008765026
:100CC0000876030876FF0876020876FF08767D0826
:100CD00076FF0876060876010876FF0876FF087624
:100CE0000008760022FA75F00CA4ABF0EAC333F8E2
:100CF000740133F9E8C333F8E933F9E8C32BF8E9B1
:100D00003400F9E8C333F8E933F9227888E6C3946C
:100D100003D23A5002C23AC238E630E102D238A2D7
:100D20003892397886E6149000809378A6F6788613
:100D3000E6F53FC394025003753F02789CE6753E8A
:100D4000FFB40203753EA0B40303753E8278A0E6AB
:100D5000F8600674282409D8FCF5697896E691E5D0
:100D600088318932789EE691E5883389347897E630
:100D700091E5883589369169223036117A007B00F9
:100D80007CFF7D007E00B1DF8B618A6022303A22D9
:100D90007896E6FA7B00789EE6FC7D00C3EA33FA9B
:100DA000EB33FBC3EC33FCED33FD7E0AB1DF8B6329
:100DB0008A627896303A02789EE6FA7B007897E667
:100DC000FC7D007E00303A10C3EA33FAEB33FBC3FC
:100DD000EC33FCED33FD7E0AB1DF8B618A6022C308
:100DE000EC9EFCED9400FDC3EC9AFCED9BFDC3EC86
:100DF0009423ED940050047C237D00C3EC94FFED1C
:100E0000940140047CFF7D017BFF0B7A000AEA70AD
:100E100009C3EC33FCED33FDC10AEC8AF0A4AEF05B
:100E2000ED8AF0A42E947C40E4EAF460DD22D23610
:100E3000B17912057D12057D7A007B007C101205C8
:100E400075E5542AFA74003BFBDCF37C04C3EB1316
:100E5000FBEA13FADCF7FFEB60027FFFC236B179E1
:100E60002278A5E6F95403D2827002C282E9540CBA
:100E70007000E954307000E954C07000227ADC7BC5
:100E8000367C02E1037A3A7B1D7C02E1037A3E7BE9
:100E9000047C02806E7AA47B067C0380667ADE7B0B
:100EA0006E7C02805E7A847B2B7C0380567A847B06
:100EB0001D7C02804E7A587BAC7C0280467A627B35
:100EC0006E7C02803E7A417BB67C0180367A497B1B
:100ED0008C7C01802E7A927B8C7C0180267A4E7BE2
:100EE000797C01801E7A527B677C0180167AA47B14
:100EF000677C01800E7A577B567C0180067AC47B22
:100F0000377C01ECC0E0C292D295D291D294E564D4
:100F1000D5E0FDC294C295D0E0FCF9EBFD7817E472
:100F2000D5E0FDD8FAD9F6741ED5E0FDDDF9DAD3A7
:100F300022C28212057D740220310E0420320A047E
:100F4000203306042034027401C0E071331205819D
:100F5000D0E0D5E0F42230341EE56EC3941E400C80
:100F6000941E4002801171457145800B713C713CAB
:100F700012058171457145120581714E714E2275C0
:100F800067007568007597DE7597AD7581C043FF82
:100F90008075EF0675A90091697580FB75F10F7575
:100FA000A4047580FB75D4FF75900075F27E75A55D
:100FB0007E75900075D57F75A60175E34075E202D8
:100FC0009169E4F8F6D8FD91791216FE7898866456
:100FD000753001C2AF120585D161120585120585F4
:100FE000E564147005D23F021216D282C23F9459B2
:100FF00014601C14600C1460451460030212070294
:10100000111BD23E120BD8120BD8120BD84116125C
:101010000585120E9D120581120E9D120581120E7C
:101020009D120581120EA5120EAD120E9D120581A4
:10103000120EA5120EAD120E9D120E9D4116120536
:1010400085120EFD120579120EC5120EC512057914
:10105000120EDD120579120EF5120579120EFD122F
:101060000579120EC5120EC5120579120EDD120594
:1010700079120EF5120579120EFD120579120EC5C0
:10108000120EC5120579120EDD120579120EF51237
:101090000579120EFD120579120EC5120EC5120544
:1010A00079120EDD120579120EF5120579120ED5A0
:1010B000120579120EBD120579120E8512057912EC
:1010C0000EC5120579120ED5120579120EBD120544
:1010D00079120E85120579120EC5120579120ED5F8
:1010E000120579120EBD120579120E8512057912BC
:1010F0000EC5120579120ED5120579120EBD120514
:1011000079120E85120579120EC5120579120EF5A7
:10111000120EF5120579120EB54116120E7D12054A
:1011200079120E7D120579120579120EE5120575F8
:10113000120EE5120575120EE5120575120EE51276
:101140000579120579120EBD120EBD120579120E27
:10115000BD120EBD120579120579120ECD1205755C
:10116000120ECD120575120ECD120575120ECD128E
:101170000579120579120EB5120EB5120579120E07
:10118000B5120EB5120579120579120EC512057544
:10119000120EC5120575120EC5120575120EC51276
:1011A0000579120579120E95120579120E95120520
:1011B00079120579120E8D120575120E8D120575B4
:1011C000120E8D120575120E8D1205791205791207
:1011D0000E7D120E7D120579120579120EBD120ECA
:1011E000BD120EBD120EBD120579120579120EB593
:1011F000120EB5120EB5120EB5120579120579123E
:101200000E95120E95800F120B3312057D120B3CBA
:1012100012057D120B4512057DC2AF75670075681A
:101220000078FA79FA308307D9FBD8F7021C00124C
:101230000D0B120D7978988664120C6975A91375D7
:10124000A71075C10075A70075660075E403758861
:1012500011758E0475890975C80475910475D84097
:1012600075D90875F783759E0075960275DA4A750B
:10127000DB0075A82375E69075B801759B80759D98
:101280000075D10C75BCB975BB1075E88075B201DD
:10129000120571D2AF753C00C230120585C231C251
:1012A00032C233C234752200120581C3E522940A8A
:1012B00050026170D231752200120581C3E522947B
:1012C0000A50026170C231D232752200120581C308
:1012D000E522940A5002617075E4B3758851758EE9
:1012E000017589AA758C00758D00C2A9D2ABD2AAEE
:1012F000756B80756A14756E50C232D23475220ACD
:10130000120581756A10C3E522940A4063758E0C3C
:10131000756B00756A28756E2875220A120581752D
:101320006A20C3E522940A4047758E0C756B807560
:101330006A14756E1475220A120581756A10C3E568
:1013400022940A755300755200402575E403758890
:1013500011758E04758909D2A9C2ABC2AAC234D252
:1013600033752200120581C3E5229403400241191E
:10137000120575203003021219C2AF120F31D2AF1D
:10138000120585203403303A0302143412057578AF
:101390008CE6C3940150028134E530C394015002BD
:1013A00081347567A57568F17F02D236120D791206
:1013B0000581C2AFC236120D79C3E554947FD2AF16
:1013C0004072120571C2AF120B4ED2AFDFDC120EAB
:1013D0002EC3EF7897F61205851217EB7F0AD236E7
:1013E000120D79120581C2AFC236120D79C3E554D0
:1013F000947FD2AF50E6120571C2AF120B331205C3
:1014000079120B33D2AFDFD6120E2EEF240378966B
:10141000F6F87997E7C394234003985006E824230D
:101420007897F6120585F14512181A120581120DEA
:1014300079021219756700756800120581C3E554B9
:10144000940140026183C2AF120581120F56D2AFE0
:10145000120585753000E4F537F5380537E537F4C2
:10146000703F0538789AE678191460127832146063
:101470000D787D14600878FA146003753800C3E5B0
:101480003898401D120C69120571153875370078AF
:10149000998664C2AF120BCED2AF789886641205DB
:1014A00081120579E52370024119C3E55294015078
:1014B00014C3E554940140A3120581E5237003028F
:1014C0001219021546E55294017005120B33806E15
:1014D000E55294027005120B3C8063E55294037050
:1014E00005120B458058E55294047005120B4E808E
:1014F0004DE55294057005120BCE8042E5529407DB
:10150000700BE553C3940A503BC2388031E55294C6
:10151000087009E553C3940A502AD238E552940C56
:10152000701C7567A57568F13038107888E6F6F894
:10153000F14512181A756700756800120B4E755246
:101540000075530081AAC2AF120C69E4D2AFE4F572
:101550005EF524F525F53D755E081205711205DA74
:1015600030EDFDA8BDA9BEE97001F8885F1205DE67
:10157000755E08C2AF755BFF120645855D5B855DD4
:101580005CD2AF75A71075C13075A70075A903753A
:101590006601303A07C238303502D238D228753960
:1015A00000120ADC120B0712065D12066412065DB9
:1015B00012066412065D1208E91209E6120A3012D8
:1015C00006641208D9202C03120594302C0312054E
:1015D000C41209E6120A5B1206641208E91209E64F
:1015E000120A861206641208D91209E6120AB1120A
:1015F00006641208E91209E6120ADC1206641205F2
:10160000DA1208D91209E6120B071205DE12066477
:10161000302827855D5B79187A0CC3E53999400E2F
:10162000C228D2298A3B855D5B855D5C800CC3E561
:1016300054940140030215B6C1BD30291F202B1C54
:10164000E53B147006C229D22AA1B6F53BC3E55486
:10165000940140030215B6203A028061753C00787F
:10166000FA79A4E760027803C3E55598504FE52363
:10167000604B303A17203805203507800F3035028F
:10168000800A202B07D22B855D5BA1E678F0302BFA
:1016900005855D5B7820C3E5489850030215B63098
:1016A0002B1BC22BC238303502D238D229753B12DF
:1016B000855D5BA1B6053CE5546002C1C0753C0088
:1016C000C2AF120C6975240075250075A91375A7A2
:1016D0001075C10075A700756600D2AF12058112A2
:1016E0000C6978A4E6600CC291D294C292D295C2E1
:1016F00093D296C3E53C9404400241198156901A56
:101700000D7820F17EE520B4550AA3F17EE520B4E2
:10171000AA0280137567A57568F1120C79F14575F9
:101720006700756800801D901A0378807B0AF17E3F
:10173000A308DBFA901A0F788C7B1AF17EA308DBE2
:10174000FA901A2922C2AFF1C1F19E901A007410CA
:10175000F183A37442F183A37421F183901A037877
:10176000807B0AF182A308DBFA901A0F788C7B1A2F
:10177000F182A308DBFAF1D4F1B2901A2922E493A2
:10178000F622E6438F01538FFDFFC3E583941C408F
:101790000122EF8567B78568B7F0538FFE22438F2C
:1017A00002438F018567B78568B7901A0DF0538F94
:1017B000FC22901A0D7455F183901A0E74AAF183CD
:1017C000227A3079D07820901A40F17EE520F7090E
:1017D000A3DAF7227A3079D0901A40E7F18309A38F
:1017E000DAF9227C05120585DCFB22C2AF120B332D
:1017F000120B3C120B45120B4E120579120B3312D1
:101800000B3C120B45120B4E120579120B33120BC7
:101810003C120B45120B4ED2AF22C2AF120B4E122E
:101820000B45120B3C120B33120579120B4E120BA7
:1018300045120B3C120B33120579120B4E120B455D
:09184000120B3C120B33D2AF2253
:1019FD00020F7F104221FFFFFFFFFFFF09FF01FFD5
:101A0D0055AA01FFFFFFFFFF03FFFFFF0AF0505034
:0D1A1D0003FF02FF7DFF0601FFFF0000FF39
:101A4000234D5F485F30302320202020202020209D
:101A500023424C48454C492445464D3842323123B7
:101A600031362E36365F6473686F74746573742014
:101C0000C2AFC2D37597DE7597AD7581C075A90057
:101C100043FF80752438752503B1DB7529A5752A26
:101C2000F143F10853A4F7D28375D4FF75E3407DE7
:101C3000FA780379E67C10752200752300901DE880
:101C40007B0675249875250130830281482083081E
:101C5000D8FBD9F9DCF781BA308308D8FBD9F9DC95
:101C6000F781BAB19BE493A3C39A6004DDC381BA40
:101C7000DBDBB18D600281317B08E493FAA3B16EA6
:101C8000DBF87A30B16E752200752300B18DEAFC65
:101C9000EBFDC3ED94FE400EB18D8A278B28ED300D
:101CA000E0048A828B83B18D7AC270D8C3ED94FE32
:101CB000601950CEBD0029EC600F7520007521FF22
:101CC000752900752A000200008100A827A92808AC
:101CD00009D804D90281DDB191EAF281D10D81A642
:101CE000C3ED94035051EDA2E092007AC5C3E582A2
:101CF0009400E583941C508C200010438F02438F86
:101D0000018529B7852AB7F0300027A827A9280818
:101D100009438F01538FFDD804D902A132C3E58353
:101D2000941C4003A3A117E28529B7852AB7F0A325
:101D3000A117538FFC81827AC1BD030CE493A3FAEF
:101D4000B152DCF8B14A81828184AA22AB23B16E00
:101D5000EBFAEA6222752608C3E52313F523E52290
:101D600013F52250066323A0632201D526EAB1DBD6
:101D7000B1DB75260AEAF4200102D283300102C2E7
:101D800083B1DBC3134002C201D526EB22B191EA35
:101D9000FB208302A191308302A196752608AE2410
:101DA000AF25C3EF13FFEE13FEB1DFB1DBC3EA13C0
:101DB0003083024480FA30E703632201C3E5231332
:101DC000F523E52213F52250066323A0632201D5F3
:101DD00026D9E52265236523F52222AE24AF250E00
:101DE0000FDEFEDFFCD20122424C48656C693437BD
:061DF0003164E8B20601B7
:00000001FF
