:020000040000FA
:060000000219FD020319C4
:03000B0002008D63
:03001300020532B1
:03001B0002009050
:03002B000202CE00
:03005B000205415A
:030073000203067F
:100080000406080C10182030406080A0C0054032E3
:10009000C2AFC2A853E6EFC28E856B8BC0D0D2D35D
:1000A000C0E0C0F0C2CAA8CCA9CDD2CAD2AF758A6E
:1000B00000C3E8956CF8E9956DF9C3E913F9E81305
:1000C000F8E5666007C3E913F9E813F8E97025E875
:1000D000956E4020956E501CE582B410177C007B15
:1000E000007A007908900000A86AE5667004C3E809
:1000F00013F801FD900000D2A8D2AA61E4E0FDC38C
:100100009CC39840EF98EB33FB0582E0FCC39DC392
:100110009840E198EB33FB0582E0FDC39CC3984017
:10012000D398EB33FB0582E0FCC39DC39840C59890
:10013000EB33FB0582E0FDC39CC39840B798EB33DB
:10014000FB0582E0FCC39DC39840A998EB33FB05F7
:1001500082E0FDC39CC398409B98EB33FB0582E093
:10016000FCC39DC398408D98EB33FB0582217890AA
:100170000000D2A8D2AA61E4E0FDC39CC39840EF7E
:1001800098EA33FA0582E0FCC39DC39840E198EAFF
:1001900033FA0582E0FDC39CC39840D398EA33FA52
:1001A0000582E0FCC39DC39840C598EA33FA0582F6
:1001B000E0FDC39CC39840B798EA33FA0582E0FC9F
:1001C000C39DC39840A998EA33FA0582E0FDC39C19
:1001D000C398409B98EA33FA0582E0FCC39DC3981C
:1001E000408D98EA33FA0582EBC46B6A54F0F9EA61
:1001F000C454F0C3996009900000D2A8D2AA61E467
:10020000EBF4C454F0F9EAF4C4540E49FAEBF4C424
:10021000540FFBC3EAF99460FAEB9400FB501DC342
:10022000E97B007A007900601303F9C39552600AF4
:10023000E9F552755300790080020553303A27C31F
:10024000EA94D0F8EB9407F9400BE8FAE9FB203583
:1002500009D235415A303502C235203902B235C390
:10026000EA33FAEB33FBEB2B3B3BF9C3EB13FBEA33
:1002700013FAEA29FAEB3400FB30E3047AFF7BFF40
:10028000E5255403601B202A18E55D33F9EB700760
:10029000C3E99A4002E9FAE53CC4332AFAEB340098
:1002A000FBC3EA33C4540FF8EB33C454F048F8707E
:1002B00005EA60027801900000D2A8D2AAE5226087
:1002C00002152281D1900000D2A8D2AA61E4C0D048
:1002D000C0E0C2CF0541E5666009E565600575656A
:1002E000006101756501E52360021523C3E55460D3
:1002F000057555006101E5552401F5555003755507
:10030000FFD0E0D0D032C2AF53E67F7592FA75933A
:10031000FFC22053917FD2AF32C0E0E58A3034086B
:10032000856B8BF0A3D0E032D0E0C2AF53E6EFC0D4
:10033000D0C0E0C0F0D2D3D2AF5388EFA88AA98C46
:10034000AA40308D010A758A00758C007540004303
:100350008810E566700AC3E833F8E933F9EA33FA3E
:1003600030331FE8C4540FFAE9C454F04AFAC313F7
:100370002AFAC3E833F8E933F9E82AFAE93406FB44
:1003800061D530320FC3E833E933FAE82AFAE934A9
:1003900000FB61D5303115E875F056A4AAF0E97577
:1003A000F056A42AFAC5F03400FB61D5C3EA13FA6B
:1003B000E913F9E813F8E875F056A4AAF0E975F026
:1003C00056A42AFAC5F03400C313FBEA13FAC3EBB0
:1003D00013FBEA13FAC3EB94125009C3EA9434EB0B
:1003E000940750160522E52270021522C3E52294D7
:1003F000325002A125755400A128E5226002152281
:100400003036067C007D088114AC31AD32303A04C0
:10041000AC33AD34C3EA9CFAEB9DFB9208AE60AFFF
:1004200061303A425007203509D2358132303502E9
:10043000C235303504AE62AF63203902B235C3EA4B
:1004400033FAEB33FBA208500AEAF42401FAEBF486
:100450003400FBC3EA9450FAEB9400FB501478008C
:100460007A007B008172A208500878007A007B0035
:1004700081D1E5255403601B202A18E55D33F9EB93
:100480007007C3E99A4002E9FAE53CC4332AFAEB63
:100490003400FBEA8EF0A4F9AAF0EB8EF0A42AFA5D
:1004A000C5F03400FBC3EB13FDEA13F8C3ED13FDF5
:1004B000E813F80FEF146004C3E833F8C3E933EA34
:1004C00033FAEB33FBDFEDEB30E30678FF7AFF7BAB
:1004D000078854D230E86003755500C3E55BFC958E
:1004E0005C4002AC5CC3EC95545008EC75F008A479
:1004F000FAABF0EAF4F8EBF45407F9C3E8940AFA1B
:10050000E99400FB50047A007B00885689578A588A
:100510008B5975230AD0F0D0E0D0D053F7DF43F7E2
:100520004043E6103275230AD0F0D0E0D0D043E645
:100530001032C2AAD28EC2CA85CC6C85CD6DD2CA09
:1005400032C2AFC0D0C0E0D2D3A8F9E55A30E20A37
:10055000E5FA20E23520E132A162E5FA30E22B2013
:10056000E128C3E55713F8E55613F5FB88FCC3E50E
:100570005913F8E55813F5E988EA85575A53F7BF38
:10058000D2A8303402D2AA53E6EF53F7DFD0E0D03E
:10059000D0D2AF327901801479038010790A800CAF
:1005A000791E80087964800479C880007817E4D5C2
:1005B000E0FDD8FAD9F62278FF20282879A1E76053
:1005C00023E548601F74FF8548F084853FF030299B
:1005D0000375F005A4F8C5F0600278FFC3E8955DE7
:1005E0005002A85D885C22C3E54794A0E5489400CA
:1005F000E55C500314A1F8046002F55C2275E890F4
:1006000022055EC3E55E9408405330EDF4A8BDA911
:10061000BE755E00E9FA79A0E76041EA7006E55F21
:100620006018800CC3E8955F600EE55F5005600AB6
:100630001480070460FA8002E55FF55FC3956940A6
:100640001B755BC0C394044013755B80C394044066
:100650000B755B40C394044003755B0022E55B248B
:1006600010500274FFF55B22743279A687F0A4C59E
:10067000F0A2F733F8C3E8955B4002A85B885D22DF
:100680007547007548F022C2AFC2CAA8CCA9CDAA4E
:100690004130CF010AD2CAD2AFC3EA13FAE913F943
:1006A000E813F8AB42AC4388428943C3E89BF8E9BE
:1006B0009C20280A547FF9302C02E1A5C1FEAD44EC
:1006C0008A44F9EA9D547FFA600678FF79FFC1E316
:1006D000AE45AF468B458C46A842A943C3E89EF879
:1006E000E99FF9C3E54813FBE54713FAE82AF54704
:1006F000E93BF54850067547FF7548FFE14BAA47AF
:10070000AB48AC47AD487E047F02C3EB9404400D78
:100710001E1FC3EB940840052029021E1FC3ED13C2
:10072000FDEC13FCDEF7C3EA9CFAEB9DFBEF6009DE
:10073000C3E913F9E813F8DFF7EA28FAEB39FB8A83
:10074000478B4850067BFF8B478B48C3EB94025086
:1007500002D22C3028047F03E1767892E6FFC3E5CD
:100760003D948240110FC3E53D94A040010FC3EFBB
:10077000940640027F057E02E548C4540FF9E5481F
:10078000C454F0F8E547C4540F28F8C3E89EFAE9CA
:100790009400FB4009C3EA9401EB940050047A01F1
:1007A000E4FB0207F1AA47AB48EBC4FEEAC4540FCE
:1007B0004EFCC3EA9CFAEB9400FBC3E813C313F8A6
:1007C000EA28FAEB3400FB8A478B48C3EB940240DB
:1007D00002C22C7802EBC4FE7B00EAC4540F4EFA2E
:1007E000C3EA98FA4005C3940150027A017892E670
:1007F000FF302002E1F1854E92854F93D22043E6EF
:1008000080C3E49AF8E49BF9C3E833F8E933F9309C
:100810002C03020886E8FAE9FBD3E913FDE813FC90
:10082000884E894FC3EF94036038EF20E00CE82C2A
:10083000F8E93DF9ECFAEDFB8013E828F8E939F91D
:10084000C3E82401F8E93400F97AFF7BFFC3EF9491
:1008500003400F8A508B51884A894B8C4C8D4D0236
:1008600008BB885089518A4A8B4B8C4C8D4D30285F
:10087000127550F07551FF754CF0754DFF754EF0C7
:10088000754FFF0208BBE8FAD3E813FC884EC3EFAC
:1008900094036021EF20E007E82CF8ECFA01A6E8C9
:1008A000282401F87AFFC3EF940340098A50884A4C
:1008B0008C4C0208BB88508A4A8C4C30200201BB09
:1008C000753A02D22043E680E5255403602DA847FF
:1008D000A948C3E913F9E813F8302804E92440F9DA
:1008E000C2AF53E67F759100C3E498F594E499F59F
:1008F00095759104D22043E680D2AF22D22175496A
:1009000000752000302B03752040211AD221754933
:1009100000752040302B0375200078017901202CD0
:1009200020E52554036002C2217914E548C3137001
:100930000104F8C3941440027814302804781B7919
:100940001BC3E833F8C3E933F9202010E549600CF4
:10095000302803D53A04D22321CD11C30549E59BA4
:100960005440B5200221B730280908C3E899400156
:1009700018214920210A08C3E8994002211A214977
:10098000C22153E67F759100302C11759400759546
:10099000F0759104D22043E68002091AE5487EFFF3
:1009A000C3334009C3334005C3334001FEC3E49E53
:1009B000759400F5952191C3E53994015002211AEF
:1009C000302102211AD80221CB2149C223C2AF53C0
:1009D000E67F759100855094855195759104854AFF
:1009E00092854B93D22043E680D2AFE52554036035
:1009F000072029020539801030230D202B0A2021E1
:100A0000071581158102168E2278003021027801A7
:100A1000E53D75F007A4F9E5F028F5F0E9A2F0133B
:100A2000A2F113A2F213F53DC394785003753D78FB
:100A3000C3E53D953E400BD222C291C292C293754E
:100A4000D57F3020024142854C92854D93D2204380
:100A5000E68022203810C2AFC295D29475D537D225
:100A6000AF759F456123C2AFC295D29675D56DD241
:100A7000AF759F456123203810C2AFC29375D55B17
:100A8000D294D2AF759F656123C2AFC29175D55B19
:100A9000D296D2AF759F756123203810C2AFC29431
:100AA000D29675D55BD2AF759F758077C2AFC2966F
:100AB000D29475D55BD2AF759F658067203810C220
:100AC000AFC29275D56DD296D2AF759F458054C294
:100AD000AFC29275D537D294D2AF759F458044206E
:100AE0003810C2AFC296D29575D56DD2AF759F65DD
:100AF0008031C2AFC294D29575D537D2AF759F758C
:100B00008021203810C2AFC29175D537D295D2AFAF
:100B1000759F75800EC2AFC29375D56DD295D2AF59
:100B2000759F65C22222203E687A147BC8801920F6
:100B30003E697A107B8C8010203E6A7A0D7BB480EF
:100B400007203E6B7A0B7BC8303F01227902E4C25A
:100B500095D5E0FDD292D5E0FDC292D5E0FDD295CB
:100B6000D5E0FDE920E002D29130E002D293E564C5
:100B7000D5E0FDE920E002C29130E002C293749614
:100B8000D5E0FDD9C9EAF8D5E0FDD8FBDBBEC295BA
:100B9000227A507C507B057D1480407A327C287B01
:100BA000147D2880367A3C7CB47B047D0A802C7AC4
:100BB000967C327B027D1E80227A647C287B057DB8
:100BC0000F80187888E614D23C7AC87C327B037D8B
:100BD0003C80087AC87C507B057D46303F0122EB83
:100BE000F8303C15203D091CECB40112B23D800EDA
:100BF0000CECB43209B23D80051CEC70010CECC069
:100C0000E0E8C0E0EDC0E0303B0FD295D291E56462
:100C1000D5E0FDC291C295800DD295D293E564D501
:100C2000E0FDC293C295B23BD0E0FDFED0E0F8D02B
:100C3000E0FCF97464D5E0FDDEF9744BD5E0FDD934
:100C4000F9203BBAD8B8DA0122DA9422C291C292D2
:100C5000C293C294C295C29675D57F22788076FFE2
:100C60000876FF0876FF0876FF0876FF0876FF080B
:100C700076090876FF087601788C76010876FF08F9
:100C800076FF0876FF0876FF0876FF087603087679
:100C9000FF0876FF0876FF08760A0876F008765097
:100CA0000876500876030876FF0876020876FF0873
:100CB000767D0876FF0876060876010876FF0876C6
:100CC000FF08760008760022FA75F00CA4ABF0EA73
:100CD000C333F8740133F9E8C333F8E933F9E8C3EF
:100CE0002BF8E93400F9E8C333F8E933F9227888BE
:100CF000E6C39403D23A5002C23AC238E630E10267
:100D0000D238A23892397886E6149000809378A67B
:100D1000F67886E6F53FC394025003753F02789C4F
:100D2000E6753EFFB40203753EA0B40303753E8230
:100D300078A0E6F8600674282409D8FCF56978964E
:100D4000E691C888318932789EE691C88833893423
:100D50007897E691C888358936914C223036117AD9
:100D6000007B007CFF7D007E00B1C28B618A602227
:100D7000303A227896E6FA7B00789EE6FC7D00C346
:100D8000EA33FAEB33FBC3EC33FCED33FD7E0AB1FF
:100D9000C28B638A627896303A02789EE6FA7B00CC
:100DA0007897E6FC7D007E00303A10C3EA33FAEB18
:100DB00033FBC3EC33FCED33FD7E0AB1C28B618A99
:100DC0006022C3EC9EFCED9400FDC3EC9AFCED9B0D
:100DD000FDC3EC9423ED940050047C237D00C3EC10
:100DE00094FFED940140047CFF7D017BFF0B7A00B2
:100DF0000AEA7009C3EC33FCED33FDA1EDEC8AF097
:100E0000A4AEF0ED8AF0A42E947C40E4EAF460DD18
:100E100022D236B15C1205A01205A07A007B007CBC
:100E200010120598E5542AFA74003BFBDCF37C04AD
:100E3000C3EB13FBEA13FADCF7FFEB60027FFFC2A0
:100E400036B15C2278A5E6F95403D2827002C282E0
:100E5000E9540C7000E954307000E954C07000226D
:100E60007ADC7B367C02C1E67A3A7B1D7C02C1E6E5
:100E70007A3E7B047C02806E7AA47B067C038066CB
:100E80007ADE7B6E7C02805E7A847B2B7C038056CC
:100E90007A847B1D7C02804E7A587BAC7C02804633
:100EA0007A627B6E7C02803E7A417BB67C01803622
:100EB0007A497B8C7C01802E7A927B8C7C01802607
:100EC0007A4E7B797C01801E7A527B677C0180168A
:100ED0007AA47B677C01800E7A577B567C01800662
:100EE0007AC47B377C01ECC0E0D295D291E564D521
:100EF000E0FDC291C295D0E0FCF9EBFD7817E4D596
:100F0000E0FDD8FAD9F6741ED5E0FDDDF9DAD72276
:100F1000C2821205A0740220310E0420320A04207D
:100F20003306042034027401C0E071261205A4D0F7
:100F3000E0D5E0F42230341EE56EC3941E400C94DC
:100F40001E4002801171387138800B712F712F1281
:100F500005A4713871381205A47141714122756779
:100F6000007568007597DE7597AD7581C043FF8089
:100F700075EF0675A900914C7580FB75F10F75A48E
:100F8000047580FB75D4FF75900075F27E75A57EA3
:100F900075900075D57F75A60175E34075E20291E5
:100FA0004CE4F8F6D8FD915C1216D17898866475F9
:100FB0003001C2AF1205A8D1441205A81205A8E558
:100FC00064147005D23F0211F0D282C23F945914CA
:100FD000601A14600C1460401460030211E10210E6
:100FE000F5D23E71C371C371C30211F01205A8D1CD
:100FF000801205A4D1801205A4D1801205A4120E7E
:1010000088120E90120E801205A4120E88120E90F5
:10101000120E80120E8021F01205A8120EE01205A9
:101020009C120EA8120EA812059C120EC012059C4E
:10103000120ED812059C120EE012059C120EA81278
:101040000EA812059C120EC012059C120ED8120595
:101050009C120EE012059C120EA8120EA812059CFE
:10106000120EC012059C120ED812059C120EE01230
:10107000059C120EA8120EA812059C120EC0120595
:101080009C120ED812059C120EB812059C120EA0CE
:1010900012059C120E6812059C120EA812059C12D5
:1010A0000EB812059C120EA012059C120E681205B5
:1010B0009C120EA812059C120EB812059C120EA0CE
:1010C00012059C120E6812059C120EA812059C12A5
:1010D0000EB812059C120EA012059C120E68120585
:1010E0009C120EA812059C120ED8120ED812059C46
:1010F000120E9821F0120E6012059C120E6012055D
:101100009C12059C120EC8120598120EC812059862
:10111000120EC8120598120EC812059C12059C12D8
:101120000EA0120EA012059C120EA0120EA0120507
:101130009C12059C120EB0120598120EB012059862
:10114000120EB0120598120EB012059C12059C12D8
:101150000E98120E9812059C120E98120E981205F7
:101160009C12059C120EA8120598120EA812059842
:10117000120EA8120598120EA812059C12059C12B8
:101180000E7812059C120E7812059C12059C120E08
:1011900070120598120E70120598120E70120598B2
:1011A000120E7012059C12059C120E60120E601237
:1011B000059C12059C120EA0120EA0120EA0120E7B
:1011C000A012059C12059C120E98120E98120E98F1
:1011D000120E9812059C12059C120E78120E788041
:1011E0000F120B261205A0120B2F1205A0120B389E
:1011F0001205A0C2AF75670075680078FA79FA30F9
:101200008307D9FBD8F7021C00120CEE120D5C7894
:10121000988664120C4C75A91375A71075C10075DA
:10122000A70075660075E403758811758E047589CD
:101230000975C80475910475D84075D90875F78289
:10124000759E0375960275DA4275DB4275A82375A3
:10125000E69075B801759B80759D0075D10C75BCC5
:10126000B975BB1075E88075B201120594D2AF75DF
:101270003C00C2301205A8C231C232C233C234753A
:1012800022001205A4C3E522940A5002614AD23119
:101290007522001205A4C3E522940A5002614AC2D5
:1012A00031D2327522001205A4C3E522940A5002FD
:1012B000614A75E4B3758851758E017589AA758C7C
:1012C00000758D00C2A9D2ABD2AA756B80756A1465
:1012D000756E50C232D23475220A1205A4756A1096
:1012E000C3E522940A4063758E0C756B00756A28FD
:1012F000756E2875220A1205A4756A20C3E522942A
:101300000A4047758E0C756B80756A14756E14757E
:10131000220A1205A4756A10C3E522940A755300C7
:10132000755200402575E403758811758E04758922
:1013300009D2A9C2ABC2AAC234D2337522001205A7
:10134000A4C3E5229403400221F312059820300340
:101350000211F3C2AF120F10D2AF1205A82034034E
:10136000303A0302140D120598788CE6C3940150AC
:1013700002810DE530C394015002810D7567A5759A
:1013800068F17F02D236120D5C1205A4C2AFC236DC
:10139000120D5CC3E554947FD2AF4071120594C224
:1013A000AF120B41D2AFDFDC120E11C3EF7897F60C
:1013B0001205A8F1BE7F0AD236120D5C1205A4C236
:1013C000AFC236120D5CC3E554947FD2AF50E61223
:1013D0000594C2AF120B2612059C120B26D2AFDF6A
:1013E000D6120E11EF24037896F6F87997E7C39496
:1013F000234003985006E824237897F61205A8F1B5
:10140000181217ED1205A4120D5C0211F375670096
:101410007568001205A4C3E55494014002615DC2E1
:10142000AF1205A4120F35D2AF1205A8753000E433
:10143000F537F5380537E537F4703F0538789AE623
:101440007819146012783214600D787D1460087871
:10145000FA146003753800C3E53898401D120C4C2F
:10146000120594153875370078998664C2AF120B4F
:10147000B9D2AF789886641205A412059CE5237052
:101480000221F3C3E55294015014C3E55494014082
:10149000A31205A4E52370030211F302151FE55200
:1014A00094017005120B26806EE5529402700512AD
:1014B0000B2F8063E55294037005120B388058E5BA
:1014C0005294047005120B41804DE552940570054D
:1014D000120BB98042E5529407700BE553C3940A8E
:1014E000503BC2388031E55294087009E553C394EB
:1014F0000A502AD238E552940C701C7567A575689D
:10150000F13038107888E6F6F8F1181217ED7567A3
:1015100000756800120B417552007553008183C23B
:10152000AF120C4CE4D2AFE4F55EF524F525F53DA1
:10153000755E081205941205FD30EDFDA8BDA9BE2B
:10154000E97001F8885F120601755E08C2AF755B2D
:10155000FF120668855D5B855D5CD2AF75A710756F
:10156000C13075A70075A903756601303A07C23806
:10157000303502D238D228753900120ADF120B0238
:101580001206801206871206801206871206801243
:10159000090C120A09120A531206871208FC202CA1
:1015A000031205B7302C031205E7120A09120A7656
:1015B00012068712090C120A09120A9912068712DA
:1015C00008FC120A09120ABC12068712090C120A38
:1015D00009120ADF1206871205FD1208FC120A0919
:1015E000120B02120601120687302827855D5B79EF
:1015F000187A0CC3E53999400EC228D2298A3B8556
:101600005D5B855D5C800CC3E5549401400302156D
:101610008FC19630291F202B1CE53B147006C22970
:10162000D22AA18FF53BC3E5549401400302158FE4
:10163000203A028061753C0078FA79A4E76002786C
:1016400003C3E55598504FE523604B303A172038D7
:1016500005203507800F303502800A202B07D22B5A
:10166000855D5BA1BF78F0302B05855D5B7820C37D
:10167000E54898500302158F302B1BC22BC238301F
:101680003502D238D229753B12855D5BA18F053CAE
:10169000E5546002C199753C00C2AF120C4C752430
:1016A0000075250075A91375A71075C10075A700F1
:1016B000756600D2AF1205A4120C4C78A4E6600641
:1016C000D294D295D296C3E53C9404400221F38192
:1016D0002F901A0D7820F151E520B4550AA3F1514D
:1016E000E520B4AA0280137567A57568F1120C5C39
:1016F000F118756700756800801D901A0378807B6B
:101700000AF151A308DBFA901A0F788C7B1AF15179
:10171000A308DBFA901A2922C2AFF194F171901A52
:10172000007410F156A37442F156A37421F156903F
:101730001A0378807B0AF155A308DBFA901A0F7818
:101740008C7B1AF155A308DBFAF1A7F185901A29D1
:1017500022E493F622E6438F01538FFDFFC3E58316
:10176000941C400122EF8567B78568B7F0538FFE60
:1017700022438F02438F018567B78568B7901A0DA2
:10178000F0538FFC22901A0D7455F156901A0E7476
:10179000AAF156227A3079D07820901A40F151E59A
:1017A00020F709A3DAF7227A3079D0901A40E7F1CE
:1017B0005609A3DAF9227C051205A8DCFB22C2AF88
:1017C000120B26120B2F120B38120B4112059C1212
:1017D0000B26120B2F120B38120B4112059C120B09
:1017E00026120B2F120B38120B41D2AF22C2AF12AE
:1017F0000B41120B38120B2F120B2612059C120BE9
:1018000041120B38120B2F120B2612059C120B41A2
:0C181000120B38120B2F120B26D2AF2245
:1019FD00020F5E104221FFFFFFFFFFFF09FF01FFF6
:101A0D0055AA01FFFFFFFFFF03FFFFFF0AF0505034
:0D1A1D0003FF02FF7DFF0601FFFF0000FF39
:101A4000234D5F485F303523202020202020202098
:101A500023424C48454C492445464D3842323123B7
:101A600031362E36365F6473686F74746573742014
:101C0000C2AFC2D37597DE7597AD7581C075A90057
:101C100043FF80752438752503B1DB7529A5752A26
:101C2000F143F10853A4F7D28375D4FF75E3407DE7
:101C3000FA780379E67C10752200752300901DE880
:101C40007B0675249875250130830281482083081E
:101C5000D8FBD9F9DCF781BA308308D8FBD9F9DC95
:101C6000F781BAB19BE493A3C39A6004DDC381BA40
:101C7000DBDBB18D600281317B08E493FAA3B16EA6
:101C8000DBF87A30B16E752200752300B18DEAFC65
:101C9000EBFDC3ED94FE400EB18D8A278B28ED300D
:101CA000E0048A828B83B18D7AC270D8C3ED94FE32
:101CB000601950CEBD0029EC600F7520007521FF22
:101CC000752900752A000200008100A827A92808AC
:101CD00009D804D90281DDB191EAF281D10D81A642
:101CE000C3ED94035051EDA2E092007AC5C3E582A2
:101CF0009400E583941C508C200010438F02438F86
:101D0000018529B7852AB7F0300027A827A9280818
:101D100009438F01538FFDD804D902A132C3E58353
:101D2000941C4003A3A117E28529B7852AB7F0A325
:101D3000A117538FFC81827AC1BD030CE493A3FAEF
:101D4000B152DCF8B14A81828184AA22AB23B16E00
:101D5000EBFAEA6222752608C3E52313F523E52290
:101D600013F52250066323A0632201D526EAB1DBD6
:101D7000B1DB75260AEAF4200102D283300102C2E7
:101D800083B1DBC3134002C201D526EB22B191EA35
:101D9000FB208302A191308302A196752608AE2410
:101DA000AF25C3EF13FFEE13FEB1DFB1DBC3EA13C0
:101DB0003083024480FA30E703632201C3E5231332
:101DC000F523E52213F52250066323A0632201D5F3
:101DD00026D9E52265236523F52222AE24AF250E00
:101DE0000FDEFEDFFCD20122424C48656C693437BD
:061DF0003164E8B20601B7
:00000001FF
