:020000040000FA
:060000000219FD020319C4
:03000B0002008D63
:03001300020532B1
:03001B0002009050
:03002B000202CE00
:03005B000205415A
:030073000203067F
:100080000406080C10182030406080A0C0054032E3
:10009000C2AFC2A853E6EFC28E856C8BC0D0D2D35C
:1000A000C0E0C0F0C2CAA8CCA9CDD2CAD2AF758A6E
:1000B00000C3E8956DF8E9956EF9C3E913F9E81303
:1000C000F8E5676007C3E913F9E813F8E97025E874
:1000D000956F4020956F501CE582B410177C007B13
:1000E000007A007908900000A86BE5677004C3E807
:1000F00013F801FD900000D2A8D2AA61E4E0FDC38C
:100100009CC39840EF98EB33FB0582E0FCC39DC392
:100110009840E198EB33FB0582E0FDC39CC3984017
:10012000D398EB33FB0582E0FCC39DC39840C59890
:10013000EB33FB0582E0FDC39CC39840B798EB33DB
:10014000FB0582E0FCC39DC39840A998EB33FB05F7
:1001500082E0FDC39CC398409B98EB33FB0582E093
:10016000FCC39DC398408D98EB33FB0582217890AA
:100170000000D2A8D2AA61E4E0FDC39CC39840EF7E
:1001800098EA33FA0582E0FCC39DC39840E198EAFF
:1001900033FA0582E0FDC39CC39840D398EA33FA52
:1001A0000582E0FCC39DC39840C598EA33FA0582F6
:1001B000E0FDC39CC39840B798EA33FA0582E0FC9F
:1001C000C39DC39840A998EA33FA0582E0FDC39C19
:1001D000C398409B98EA33FA0582E0FCC39DC3981C
:1001E000408D98EA33FA0582EBC46B6A54F0F9EA61
:1001F000C454F0C3996009900000D2A8D2AA61E467
:10020000EBF4C454F0F9EAF4C4540E49FAEBF4C424
:10021000540FFBC3EAF99460FAEB9400FB501DC342
:10022000E97B007A007900601303F9C39552600AF4
:10023000E9F552755300790080020553303A27C31F
:10024000EA94D0F8EB9407F9400BE8FAE9FB203583
:1002500009D235415A303502C235203902B235C390
:10026000EA33FAEB33FBEB2B3B3BF9C3EB13FBEA33
:1002700013FAEA29FAEB3400FB30E3047AFF7BFF40
:10028000E5255403601B202A18E55E33F9EB70075F
:10029000C3E99A4002E9FAE53CC4332AFAEB340098
:1002A000FBC3EA33C4540FF8EB33C454F048F8707E
:1002B00005EA60027801900000D2A8D2AAE5226087
:1002C00002152281D1900000D2A8D2AA61E4C0D048
:1002D000C0E0C2CF0541E5676009E5666005756667
:1002E000006101756601E52360021523C3E55560D1
:1002F000057556006101E5562401F5565003755603
:10030000FFD0E0D0D032C2AF53E67F7592FA75933A
:10031000FFC22053917FD2AF32C0E0E58A3034086B
:10032000856C8BF0A3D0E032D0E0C2AF53E6EFC0D3
:10033000D0C0E0C0F0D2D3D2AF5388EFA88AA98C46
:10034000AA40308D010A758A00758C007540004303
:100350008810E567700AC3E833F8E933F9EA33FA3D
:1003600030331FE8C4540FFAE9C454F04AFAC313F7
:100370002AFAC3E833F8E933F9E82AFAE93406FB44
:1003800061D530320FC3E833E933FAE82AFAE934A9
:1003900000FB61D5303115E875F056A4AAF0E97577
:1003A000F056A42AFAC5F03400FB61D5C3EA13FA6B
:1003B000E913F9E813F8E875F056A4AAF0E975F026
:1003C00056A42AFAC5F03400C313FBEA13FAC3EBB0
:1003D00013FBEA13FAC3EB94125009C3EA9434EB0B
:1003E000940750160522E52270021522C3E52294D7
:1003F000325002A125755500A128E5226002152280
:100400003036067C007D088114AC31AD32303A04C0
:10041000AC33AD34C3EA9CFAEB9DFB9208AE61AFFE
:1004200062303A425007203509D2358132303502E8
:10043000C235303504AE63AF64203902B235C3EA49
:1004400033FAEB33FBA208500AEAF42401FAEBF486
:100450003400FBC3EA9450FAEB9400FB501478008C
:100460007A007B008172A208500878007A007B0035
:1004700081D1E5255403601B202A18E55E33F9EB92
:100480007007C3E99A4002E9FAE53CC4332AFAEB63
:100490003400FBEA8EF0A4F9AAF0EB8EF0A42AFA5D
:1004A000C5F03400FBC3EB13FDEA13F8C3ED13FDF5
:1004B000E813F80FEF146004C3E833F8C3E933EA34
:1004C00033FAEB33FBDFEDEB30E30678FF7AFF7BAB
:1004D000078855D230E86003755600C3E55CFC958B
:1004E0005D4002AC5DC3EC95555008EC75F008A476
:1004F000FAABF0EAF4F8EBF45407F9C3E89450FAD5
:10050000E99400FB50047A007B00885789588A5987
:100510008B5A75230AD0F0D0E0D0D053F7DF43F7E1
:100520004043E6103275230AD0F0D0E0D0D043E645
:100530001032C2AAD28EC2CA85CC6D85CD6ED2CA07
:1005400032C2AFC0D0C0E0D2D3A8F9E55B30E20A36
:10055000E5FA20E23520E132A162E5FA30E22B2013
:10056000E128C3E55813F8E55713F5FB88FCC3E50C
:100570005A13F8E55913F5E988EA85585B53F7BF34
:10058000D2A8303402D2AA53E6EF53F7DFD0E0D03E
:10059000D0D2AF327901801479038010790A800CAF
:1005A000791E80087964800479C880007817E4D5C2
:1005B000E0FDD8FAD9F62278FF20282879A1E76053
:1005C00023E548601F74FF8548F084853FF030299B
:1005D0000375F005A4F8C5F0600278FFC3E8955EE6
:1005E0005002A85E885D22C3E54794A0E5489400C8
:1005F000E55D500314A1F8046002F55D2275E890F2
:1006000022055FC3E55F9408405330EDF4A8BDA90F
:10061000BE755F00E9FA79A0E76041EA7006E5601F
:100620006018800CC3E89560600EE5605005600AB4
:100630001480070460FA8002E560F560C3956A40A3
:100640001B755CC0C394044013755C80C394044064
:100650000B755C40C394044003755C0022E55C2488
:1006600010500274FFF55C22743279A687F0A4C59D
:10067000F0A2F733F8C3E8955C4002A85C885E22DC
:100680007547007548F022C2AFC2CAA8CCA9CDAA4E
:100690004130CF010AD2CAD2AFC3EA13FAE913F943
:1006A000E813F8AB42AC4388428943C3E89BF8E9BE
:1006B0009C20280A547FF9302C02E1A5C1FEAD44EC
:1006C0008A44F9EA9D547FFA600678FF79FFC1E316
:1006D000AE45AF468B458C46A842A943C3E89EF879
:1006E000E99FF9C3E54813FBE54713FAE82AF54704
:1006F000E93BF54850067547FF7548FFE14BAA47AF
:10070000AB48AC47AD487E047F02C3EB9404400D78
:100710001E1FC3EB940840052029021E1FC3ED13C2
:10072000FDEC13FCDEF7C3EA9CFAEB9DFBEF6009DE
:10073000C3E913F9E813F8DFF7EA28FAEB39FB8A83
:10074000478B4850067BFF8B478B48C3EB94025086
:1007500002D22C3028047F03E1767892E6FFC3E5CD
:100760003D948240110FC3E53D94A040010FC3EFBB
:10077000940640027F057E02E548C4540FF9E5481F
:10078000C454F0F8E547C4540F28F8C3E89EFAE9CA
:100790009400FB4009C3EA9401EB940050047A01F1
:1007A000E4FB0207F1AA47AB48EBC4FEEAC4540FCE
:1007B0004EFCC3EA9CFAEB9400FBC3E813C313F8A6
:1007C000EA28FAEB3400FB8A478B48C3EB940240DB
:1007D00002C22C7802EBC4FE7B00EAC4540F4EFA2E
:1007E000C3EA98FA4005C3940150027A017892E670
:1007F000FF302002E1F1854E92854F93D22043E6EF
:1008000080C3E49AF8E49BF9C3E833F8E933F9309C
:100810002C03020886E8FAE9FBD3E913FDE813FC90
:10082000884E894FC3EF94036038EF20E00CE82C2A
:10083000F8E93DF9ECFAEDFB8013E828F8E939F91D
:10084000C3E82401F8E93400F97AFF7BFFC3EF9491
:1008500003400F8A508B51884A894B8C4C8D4D0236
:1008600008BB885089518A4A8B4B8C4C8D4D30285F
:10087000127550F07551FF754CF0754DFF754EF0C7
:10088000754FFF0208BBE8FAD3E813FC884EC3EFAC
:1008900094036021EF20E007E82CF8ECFA01A6E8C9
:1008A000282401F87AFFC3EF940340098A50884A4C
:1008B0008C4C0208BB88508A4A8C4C30200201BB09
:1008C000753A02D22043E680E5255403602DA847FF
:1008D000A948C3E913F9E813F8302804E92440F9DA
:1008E000C2AF53E67F759100C3E498F594E499F59F
:1008F00095759104D22043E680D2AF22D22175496A
:1009000000752000302B03752040211AD221754933
:1009100000752040302B0375200078017901202CD0
:1009200020E52554036002C2217914E548C3137001
:100930000104F8C3941440027814302804781B7919
:100940001BC3E833F8C3E933F9202010E549600CF4
:10095000302803D53A04D22321CE11C30549E59BA3
:10096000F45440B5200221B830280908C3E8994062
:100970000118214920210A08C3E8994002211A21BF
:1009800049C22153E67F759100302C117594007592
:1009900095F0759104D22043E68002091AE5487E5D
:1009A000FFC3334009C3334005C3334001FEC3E4F2
:1009B0009E759400F5952192C3E53994015002216A
:1009C0001A302102211AD80221CC2149C223C2AFF8
:1009D00053E67F75910085509485519575910485F6
:1009E0004A92854B93D22043E680D2AFE52554034B
:1009F00060072029020539801030230D202B0A20A2
:100A00002107158115810216AA227800302102786B
:100A100001E53D75F007A4F9E5F028F5F0E9A2F04D
:100A200013A2F113A2F213F53DC394785003753D60
:100A300078C3E53D953E400BD222C290C292C2944B
:100A400075D53F3020024143854C92854D93D2208D
:100A500043E68022203810C2AFD293C29175D50FE1
:100A6000D2AF759F036124C2AFD293C29575D53CB6
:100A7000D2AF759F036124203810C2AFC29475D5E0
:100A800033C291D2AF759F136124C2AFC29075D5A6
:100A900033C295D2AF759F236124203810C2AFD2E4
:100AA00091C29575D533D2AF759F238077C2AFD2EF
:100AB00095C29175D533D2AF759F138067203810DA
:100AC000C2AFC29275D53CC295D2AF759F03805418
:100AD000C2AFC29275D50FC291D2AF759F03804449
:100AE000203810C2AFD295C29375D53CD2AF759F56
:100AF000138031C2AFD291C29375D50FD2AF759F1B
:100B0000238021203810C2AFC29075D50FC293D276
:100B1000AF759F23800EC2AFC29475D53CC293D2ED
:100B2000AF759F13C22222203E687A147BC88019B9
:100B3000203E697A107B8C8010203E6A7A0D7BB44F
:100B40008007203E6B7A0B7BC8303F01227902E49C
:100B5000D293D5E0FDD292D5E0FDC292D5E0FDC2A0
:100B600093D5E0FDE920E002D29030E002D294E596
:100B700065D5E0FDE920E002C29030E002C2947445
:100B800096D5E0FDD9C9EAF8D5E0FDD8FBDBBED2A9
:100B900093227A507C507B057D1480407A327C28E9
:100BA0007B147D2880367A3C7CB47B047D0A802CC3
:100BB0007A967C327B027D1E80227A647C287B05BB
:100BC0007D0F80187888E614D23C7AC87C327B038B
:100BD0007D3C80087AC87C507B057D46303F0122F1
:100BE000EBF8303C15203D091CECB40112B23D80FD
:100BF0000E0CECB43209B23D80051CEC70010CEC1B
:100C0000C0E0E8C0E0EDC0E0303B0FC293D290E519
:100C100065D5E0FDC290D293800DC293D294E56574
:100C2000D5E0FDC294D293B23BD0E0FDFED0E0F817
:100C3000D0E0FCF97464D5E0FDDEF9744BD5E0FD3D
:100C4000D9F9203BBAD8B8DA0122DA9422C290C28C
:100C500092C294D291D293D29575D53F2278807664
:100C6000FF0876FF0876FF0876FF0876FF0876FF14
:100C70000876090876FF087601788C76010876FFF9
:100C80000876FF0876FF0876FF0876FF08760308E7
:100C900076FF0876FF0876FF08760A0876F0087671
:100CA000500876500876030876FF0876020876FF2B
:100CB00008767D0876FF0876060876010876FF0834
:100CC00076FF08760008760022FA75F00CA4ABF0E7
:100CD000EAC333F8740133F9E8C333F8E933F9E8C8
:100CE000C32BF8E93400F9E8C333F8E933F9227883
:100CF00088E6F554C39403D23A5002C23AC238E6A9
:100D000030E102D238A23892397886E61490008019
:100D10009378A6F67886E6F53FC394025003753FB4
:100D200002789CE6753EFFB40203753EA0B403034F
:100D3000753E8278A0E6F8600674282409D8FCF590
:100D40006A7896E691C988318932789EE691C98899
:100D50003389347897E691C988358936914D2230A8
:100D600036117A007B007CFF7D007E00B1C58B626E
:100D70008A6122303A227896E6FA7B00789EE6FC79
:100D80007D00C3EA33FAEB33FBC3EC33FCED33FDF8
:100D90007E0AB1C58B648A637896303A02789EE603
:100DA000FA7B007897E6FC7D007E00303A10C3EABB
:100DB00033FAEB33FBC3EC33FCED33FD7E0AB1C5F4
:100DC0008B628A6122C3EC9EFCED9400FDC3EC9A19
:100DD000FCED9BFDC3EC9423ED940050047C237D3B
:100DE00000C3EC94FFED940140047CFF7D017BFF88
:100DF0000B7A000AEA7009C3EC33FCED33FDA1F075
:100E0000EC8AF0A4AEF0ED8AF0A42E947C40E4EAE3
:100E1000F460DD22D236B15F1205A01205A07A007F
:100E20007B007C10120598E5552AFA74003BFBDC28
:100E3000F37C04C3EB13FBEA13FADCF7FFEB60026D
:100E40007FFFC236B15F2278A5E6F954037000E94E
:100E5000540C7000E954307000E954C07000227ADC
:100E6000DC7B367C02C1E57A3A7B1D7C02C1E57AE7
:100E70003E7B047C02806E7AA47B067C0380667ACB
:100E8000DE7B6E7C02805E7A847B2B7C0380567ACC
:100E9000847B1D7C02804E7A587BAC7C0280467A33
:100EA000627B6E7C02803E7A417BB67C0180367A22
:100EB000497B8C7C01802E7A927B8C7C0180267A07
:100EC0004E7B797C01801E7A527B677C0180167A8A
:100ED000A47B677C01800E7A577B567C0180067A62
:100EE000C47B377C01ECC0E0C293D290E565D5E0CD
:100EF000FDC290D293D0E0FCF9EBFD7817E4D5E089
:100F0000FDD8FAD9F6741ED5E0FDDDF9DAD7221244
:100F100005A0740220310E0420320A042033060496
:100F20002034027401C0E071271205A4D0E0D5E09E
:100F3000F42230341EE56FC3941E400C941E400210
:100F4000801171397139800B713071301205A471C3
:100F50003971391205A471427142227568007569B0
:100F6000007597DE7597AD7581C043FF8075EF06FC
:100F700075A900914D7580FF75F1F075A40075801D
:100F8000FF75D4FF75902A75F23F75A53F75902ABD
:100F900075D53F75A60175E34075E202914DE4F801
:100FA000F6D8FD915D1216ED78988665753001C210
:100FB000AF1205A8D1471205A81205A8E56514705F
:100FC00005D23F0211E8C23F945914601A14600C14
:100FD00014603D1460030211D90210EDD23E71C4B9
:100FE00071C471C40211E81205A8D17F1205A4D101
:100FF0007F1205A4D17F1205A4D187D18FD17F1292
:1010000005A4120E87120E8F120E7F120E7F21E89A
:101010001205A8120EDF12059C120EA7120EA712BF
:10102000059C120EBF12059C120ED712059C120EC3
:10103000DF12059C120EA7120EA712059C120EBFFE
:1010400012059C120ED712059C120EDF12059C127F
:101050000EA7120EA712059C120EBF12059C120EAF
:10106000D712059C120EDF12059C120EA7120EA7B6
:1010700012059C120EBF12059C120ED712059C126F
:101080000EB712059C120E9F12059C120E671205D8
:101090009C120EA712059C120EB712059C120E9FF1
:1010A00012059C120E6712059C120EA712059C12C7
:1010B0000EB712059C120E9F12059C120E671205A8
:1010C0009C120EA712059C120EB712059C120E9FC1
:1010D00012059C120E6712059C120EA712059C1297
:1010E0000ED7120ED712059C120E9721E8120E5F32
:1010F00012059C120E5F12059C12059C120EC7125F
:101100000598120EC7120598120EC7120598120EF6
:10111000C712059C12059C120E9F120E9F12059C71
:10112000120E9F120E9F12059C12059C120EAF12FA
:101130000598120EAF120598120EAF120598120EF6
:10114000AF12059C12059C120E97120E9712059C69
:10115000120E97120E9712059C12059C120EA712E2
:101160000598120EA7120598120EA7120598120ED6
:10117000A712059C12059C120E7712059C120E7781
:1011800012059C12059C120E6F120598120E6F121A
:101190000598120E6F120598120E6F12059C12051B
:1011A0009C120E5F120E5F12059C12059C120E9F80
:1011B000120E9F120E9F120E9F12059C12059C127A
:1011C0000E97120E97120E97120E9712059C12058B
:1011D0009C120E77120E77800F120B271205A012A9
:1011E0000B301205A0120B391205A0C2AF756800B2
:1011F00075690078FA79FA308507D9FBD8F7021CAF
:1012000000120CEF120D5F78988665120C4D75A9CF
:101210001375A71075C10075A70075670075E40503
:10122000758811758E0475890975C80475910475E2
:10123000D84075D90875F782759E0375960075DAE2
:101240004275DB4275A82375E69075B801759B80E1
:10125000759D0075D10C75BCB975BB1075E88075AE
:10126000B201120594D2AF753C00C2301205A8C27B
:1012700031C232C233C2347522001205A4C3E52242
:10128000940A50026142D2317522001205A4C3E5CE
:1012900022940A50026142C231D2327522001205F4
:1012A000A4C3E522940A5002614275E4D5758851C1
:1012B000758E017589AA758C00758D00C2A9D2AB97
:1012C000D2AA756C80756B14756F50C232D23475AA
:1012D000220A1205A4756B10C3E522940A406375B7
:1012E0008E0C756C00756B28756F2875220A1205B7
:1012F000A4756B20C3E522940A4047758E0C756C6B
:1013000080756B14756F1475220A1205A4756B1025
:10131000C3E522940A755300755200402575E40513
:10132000758811758E04758909D2A9C2ABC2AAC28B
:1013300034D2337522001205A4C3E522940340027F
:1013400021EB1205982030030211EBC2AF120F0FF0
:10135000D2AF1205A8203403303A03021406120556
:1013600098788CE6C3940150028106E530C394015D
:10137000500281067568A57569F17F02D236120D9B
:101380005F1205A4C2AFC236120D5FC3E555947F4C
:10139000D2AF4072120594C2AF120B42D2AFDFDC63
:1013A000120E14C3EF7897F61205A81217DA7F0A07
:1013B000D236120D5F1205A4C2AFC236120D5FC342
:1013C000E555947FD2AF50E6120594C2AF120B27B9
:1013D00012059C120B27D2AFDFD6120E14EF240396
:1013E0007896F6F87997E7C394234003985006E877
:1013F00024237897F61205A8F1341218091205A4CF
:10140000120D5F0211EB7568007569001205A4C327
:10141000E555940140026155C2AF1205A4120F3286
:10142000D2AF1205A8753000E4F537F5380537E579
:1014300037F4703F0538789AE678191460127832DC
:1014400014600D787D14600878FA14600375380014
:10145000C3E53898401D120C4D12059415387537A8
:101460000078998665C2AF120BBAD2AF78988665BC
:101470001205A412059CE523700221EBC3E55294EA
:10148000015014C3E555940140A31205A4E523704F
:10149000030211EB02153BE5529401700CC2AF122E
:1014A0000B27D2AF1205A4A133E5529402700CC2EF
:1014B000AF120B30D2AF1205A48078E552940370BE
:1014C0000CC2AF120B39D2AF1205A48066E552945C
:1014D00004700CC2AF120B42D2AF1205A48054E5C7
:1014E000529405700CC2AF120BBAD2AF1205A48091
:1014F00042E55294147015E553C3940A503BE554E9
:10150000B40102C238B4022BD2388027E5529415B8
:101510007015E553C3940A5020E554B40102D23843
:10152000B40210C238800CE552940C7006120B42C3
:10153000120B42755200755300817CC2AF120C4DE4
:10154000E4D2AFE4F55FF524F525F53D755F0812AB
:1015500005941205FD30EDFDA8BDA9BEE97001F8A6
:101560008860120601755F08C2AF755CFF120668DD
:10157000855E5C855E5DD2AF75A71075C13075A7BD
:101580000075A903756701303A07C238303502D2B9
:1015900038D228753900120AE0120B0312068012A5
:1015A000068712068012068712068012090C120A9C
:1015B0000A120A541206871208FC202C031205B7DF
:1015C000302C031205E7120A0A120A771206871254
:1015D000090C120A0A120A9A1206871208FC120A49
:1015E0000A120ABD12068712090C120A0A120AE030
:1015F0001206871205FD1208FC120A0A120B0312CA
:101600000601120687302827855E5C79187A0CC39C
:10161000E53999400EC228D2298A3B855E5C855EF9
:101620005D800CC3E555940140030215ABC1B23097
:10163000291F202B1CE53B147006C229D22AA1AB1E
:10164000F53BC3E555940140030215AB203A0280F7
:1016500061753C0078FA79A4E760027803C3E55627
:1016600098504FE523604B303A1720380520350756
:10167000800F303502800A202B07D22B855E5CA1BB
:10168000DB78F0302B05855E5C7820C3E548985008
:10169000030215AB302B1BC22BC238303502D238B7
:1016A000D229753B12855E5CA1AB053CE555600215
:1016B000C1B5753C00C2AF120C4D752400752500F4
:1016C00075A91375A71075C10075A700756700D2BD
:1016D000AF1205A4120C4D78A4E66006C291C29325
:1016E000C295C3E53C9404400221EB8128901A0D79
:1016F0007820F16DE520B4550AA3F16DE520B4AA78
:101700000280137568A57569F1120C5DF134756876
:1017100000756900801D901A0378807B0AF16DA323
:1017200008DBFA901A0F788C7B1AF16DA308DBFAAC
:10173000901A2922C2AFF1B0F18D901A007410F105
:1017400072A37442F172A37421F172901A0378802B
:101750007B0AF171A308DBFA901A0F788C7B1AF1DF
:1017600071A308DBFAF1C3F1A1901A2922E493F6E0
:1017700022E6438F01538FFDFFC3E583941C400194
:1017800022EF8568B78569B7F0538FFE22438F0239
:10179000438F018568B78569B7901A0DF0538FFCA8
:1017A00022901A0D7455F172901A0E74AAF17222D9
:1017B0007A3079D07820901A40F16DE520F709A3AE
:1017C000DAF7227A3079D0901A40E7F17209A3DA79
:1017D000F9227C051205A8DCFB22C2AF120B2712EE
:1017E0000B30120B39120B4212059C120B27120BF5
:1017F00030120B39120B4212059C120B27120B30C0
:10180000120B39120B42D2AF22C2AF120B42120B93
:1018100039120B30120B2712059C120B42120B3996
:10182000120B30120B2712059C120B42120B3912AD
:081830000B30120B27D2AF228E
:1019FD00020F5B104221FFFFFFFFFFFF09FF01FFF9
:101A0D0055AA01FFFFFFFFFF03FFFFFF0AF0505034
:0D1A1D0003FF02FF7DFF0601FFFF0000FF39
:101A4000234F5F485F343023202020202020202097
:101A500023424C48454C492445464D3842323123B7
:101A600031362E36365F6473686F74746573742014
:101C0000C2AFC2D37597DE7597AD7581C075A90057
:101C100043FF80752438752503B1DB7529A5752A26
:101C2000F143F12053A4DFD28575D4FF75E3407DE5
:101C3000FA780379E67C10752200752300901DE880
:101C40007B0675249875250130850281482085081A
:101C5000D8FBD9F9DCF781BA308508D8FBD9F9DC93
:101C6000F781BAB19BE493A3C39A6004DDC381BA40
:101C7000DBDBB18D600281317B08E493FAA3B16EA6
:101C8000DBF87A30B16E752200752300B18DEAFC65
:101C9000EBFDC3ED94FE400EB18D8A278B28ED300D
:101CA000E0048A828B83B18D7AC270D8C3ED94FE32
:101CB000601950CEBD0029EC600F7520007521FF22
:101CC000752900752A000200008100A827A92808AC
:101CD00009D804D90281DDB191EAF281D10D81A642
:101CE000C3ED94035051EDA2E092007AC5C3E582A2
:101CF0009400E583941C508C200010438F02438F86
:101D0000018529B7852AB7F0300027A827A9280818
:101D100009438F01538FFDD804D902A132C3E58353
:101D2000941C4003A3A117E28529B7852AB7F0A325
:101D3000A117538FFC81827AC1BD030CE493A3FAEF
:101D4000B152DCF8B14A81828184AA22AB23B16E00
:101D5000EBFAEA6222752608C3E52313F523E52290
:101D600013F52250066323A0632201D526EAB1DBD6
:101D7000B1DB75260AEAF4200102D285300102C2E5
:101D800085B1DBC3134002C201D526EB22B191EA33
:101D9000FB208502A191308502A196752608AE240C
:101DA000AF25C3EF13FFEE13FEB1DFB1DBC3EA13C0
:101DB0003085024480FA30E703632201C3E5231330
:101DC000F523E52213F52250066323A0632201D5F3
:101DD00026D9E52265236523F52222AE24AF250E00
:101DE0000FDEFEDFFCD20122424C48656C693437BD
:061DF0003164E8B20601B7
:00000001FF
