:020000040000FA
:060000000219FD02030DD0
:030013000204FCE8
:03001B0002008D53
:03002B000202D2FC
:03005B0002050B90
:030073000202FA8C
:100080000406080C10182030406080A0C0C2AFC227
:10009000A853E6EFC28E856B8BC0D0D2D3C0E0C030
:1000A000F0C2CAA8CCA9CDD2CAD2AF758A00C3E823
:1000B000956CF8E9956DF9C3E913F9E813F8E5666D
:1000C0006007C3E913F9E813F8E97025E8956E4075
:1000D00020956E501CE582B410177C007B007A00DE
:1000E0007908900000A86AE5667004C3E813F80177
:1000F000FA900000D2A8D2AA61B7E0FDC39CC398D1
:1001000040EF98EB33FB0582E0FCC39DC39840E1D0
:1001100098EB33FB0582E0FDC39CC39840D398EB7A
:1001200033FB0582E0FCC39DC39840C598EB33FBCD
:100130000582E0FDC39CC39840B798EB33FB058272
:10014000E0FCC39DC39840A998EB33FB0582E0FD1A
:10015000C39CC398409B98EB33FB0582E0FCC39D96
:10016000C398408D98EB33FB05822175900000D237
:10017000A8D2AA61B7E0FDC39CC39840EF98EA33C8
:10018000FA0582E0FCC39DC39840E198EA33FA0582
:1001900082E0FDC39CC39840D398EA33FA0582E01D
:1001A000FCC39DC39840C598EA33FA0582E0FDC3BD
:1001B0009CC39840B798EA33FA0582E0FCC39DC31C
:1001C0009840A998EA33FA0582E0FDC39CC39840A1
:1001D0009B98EA33FA0582E0FCC39DC398408D9852
:1001E000EA33FA0582EBC46B6A54F0F9EAC454F0BE
:1001F000C3996009900000D2A8D2AA61B7EBF4C4F9
:1002000054F0F9EAF4C4540E49FAEBF4C4540FFB69
:10021000C3EAF99460FAEB9400FB501DC3E97B003C
:100220007A007900601303F9C39552600AE9F55228
:10023000755300790080020553303A27C3EA94D001
:10024000F8EB9407F9400BE8FAE9FB203509D235C1
:100250004157303502C235203902B235C3EA33FA8C
:10026000EB33FBEB2B3B3BF9C3EB13FBEA13FAEA53
:1002700029FAEB3400FB30E3047AFF7BFFE52554D9
:1002800003601B202A18E55D33F9EB7007C3E99A78
:100290004002E9FAE53CC4332AFAEB3400FBC3EA36
:1002A00033C4540FF8EB33C454F048F87005EA60D7
:1002B000027801C3EB13FBEA13FA900000D2A8D234
:1002C000AAE52260021522819B900000D2A8D2AA42
:1002D00061B7C0D0C0E0C2CF0541E523600215235D
:1002E000C3E554600575550041F5E5552401F55504
:1002F00050037555FFD0E0D0D032C2AF53E67F75C2
:1003000092FA7593FFC22053917FD2AF32C0E0E5DD
:100310008A303408856B8BF0A3D0E032D0E0C2AFD6
:1003200053E6EFC0D0C0E0C0F0D2D3D2AF5388EFD5
:10033000A88AA98C758A00758C0043881030331FF9
:10034000E8C4540FFAE9C454F04AFAC3132AFAC3B2
:10035000E833F8E933F9E82AFAE93403FB61A83015
:10036000320FC3E833E933FAE82AFAE93400FB61D3
:10037000A8303115E875F056A4AAF0E975F056A436
:100380002AFAC5F03400FB61A8E875F02BA4AAF0A6
:10039000E975F02BA42AFAC5F03400C313FBEA1365
:1003A000FAC3EB13FBEA13FAC3EB94095009C3EA4F
:1003B000949AEB940350160522E52270021522C38D
:1003C000E5229432500281EF75540081F2E52260FB
:1003D0000215223036067C007D0461E7AC31AD3277
:1003E000303A04AC33AD34C3EA9CFAEB9DFB92087F
:1003F000AE60AF61303A425007203509D2358105F1
:10040000303502C235303504AE62AF63203902B2F6
:1004100035C3EA33FAEB33FBA208500AEAF42401AD
:10042000FAEBF43400FBC3EA9428FAEB9400FB5097
:100430001478007A007B008145A208500878007A81
:10044000007B00819BE52554036019202A16E55D99
:10045000F9EB7007C3E99A4002E9FAE53CC42AFACD
:10046000EB3400FBEA8EF0A4F9AAF0EB8EF0A42A9C
:10047000FAC5F03400FBC3EB13FDEA13F80FEF14D9
:100480006004C3E833F8C3E933EA33FAEB33FBDF44
:10049000EDEB30E20678FF7AFF7B038854D230E838
:1004A0006003755500C3E55BFC955C4002AC5CC322
:1004B000EC95545008EC75F004A4FAABF0EAF4F8AB
:1004C000EBF45403F9C3E8940FFAE99400FB5004E9
:1004D0007A007B00885689578A588B5975230AD031
:1004E000F0D0E0D0D053F7DF43F74043E610327549
:1004F000230AD0F0D0E0D0D043E61032C2AAD28E88
:10050000C2CA85CC6C85CD6DD2CA32C2AFC0D0C054
:10051000E0D2D3A8F9E55A30E10AE5FA20E1352026
:10052000E032A12CE5FA30E12B20E028C3E5571397
:10053000F8E55613F5FB88FCC3E55913F8E55813A5
:10054000F5E988EA85575A53F7BFD2A8303402D26A
:10055000AA53E6EF53F7DFD0E0D0D0D2AF32790123
:10056000801479038010790A800C791E80087964E0
:10057000800479C880007817E4D5E0FDD8FAD9F670
:100580002278FF20282879A1E76023E548601F74BE
:10059000FF8548F084853FF030290375F005A4F805
:1005A000C5F0600278FFC3E8955D5002A85D885CE5
:1005B00022C3E54794E4E5489400E55C500314A1A8
:1005C000C2046002F55C2275E89022055EC3E55E18
:1005D0009408405330EDF4A8BDA9BE755E00E9FA59
:1005E00079A0E76041EA7006E55F6018800CC3E817
:1005F000955F600EE55F5005600A1480070460FA9D
:100600008002E55FF55FC39569401B755BC0C394CD
:10061000044013755B80C39404400B755B40C39426
:10062000044003755B0022E55B2410500274FFF563
:100630005B22743279A687F0A4C5F0A2F733F8C321
:10064000E8955B4002A85B885D227547007548F01D
:1006500022C2AFC2CAA8CCA9CDAA4130CF010AD2CA
:10066000CAD2AFAB42AC4388428943C3E89BF8E9A6
:100670009C202808F9302C02E161C1BAAD448A44BB
:10068000F9EA9DFA600678FF79FFC19FAE45AF4653
:100690008B458C46A842A943C3E89EF8E99FF9C35D
:1006A000E54813FBE54713FAE82AF547E93BF54827
:1006B00050067547FF7548FFE107AA47AB48AC47AE
:1006C000AD487E047F02C3EB9404400D1E1FC3EBB4
:1006D000940840052029021E1FC3ED13FDEC13FCF6
:1006E000DEF7C3EA9CFAEB9DFBEF6009C3E913F95F
:1006F000E813F8DFF7EA28FAEB39FB8A478B485012
:10070000067BFF8B478B48C3EB94025002D22C3000
:1007100028047F03E1327892E6FFC3E53D948240EE
:10072000110FC3E53D94A040010FC3EF94064002B2
:100730007F057E02E548C4540FF9E548C454F0F83B
:10074000E547C4540F28F8C3E89EFAE99400FB403B
:1007500009C3EA9401EB940050047A01E4FB020718
:10076000ADAA47AB48EBC4FEEAC4540F4EFCC3EA43
:100770009CFAEB9400FBC3E813C313F8EA28FAEBE6
:100780003400FB8A478B48C3EB94024002C22C78AA
:1007900002EBC4FE7B00EAC4540F4EFAC3EA98FA97
:1007A0004005C3940150027A017892E6FF3020029E
:1007B000E1AD854E92854F93D22043E680C3E49A03
:1007C000F8E49BF9302C0302083BE8FAE9FBD3E993
:1007D00013FDE813FC884E894FC3EF94036038EF94
:1007E00020E00CE82CF8E93DF9ECFAEDFB8013E889
:1007F00028F8E939F9C3E82401F8E93400F97AFF67
:100800007BFFC3EF9403400F8A508B51884A894B7A
:100810008C4C8D4D020870885089518A4A8B4B8CC4
:100820004C8D4D3028127550F07551FF754CF07598
:100830004DFF754EF0754FFF020870E8FAD3E813CC
:10084000FC884EC3EF94036021EF20E007E82CF80A
:10085000ECFA015BE8282401F87AFFC3EF94034027
:10086000098A50884A8C4C02087088508A4A8C4CFD
:100870003020020170753A02D22043E680E525540B
:10088000036034A847A948C3E913F9E813F8C3E99A
:1008900013F9E813F8302804E92440F9C2AF53E60D
:1008A0007F759100C3E498F594E499F595759104EA
:1008B000D22043E680D2AF22D221754900752000B4
:1008C000302B0375204001D6D22175490075204098
:1008D000302B0375200078017901202C20E5255468
:1008E000036002C2217914E548C313700104F8C300
:1008F000941440027814302804781B791B202010AF
:10090000E549600C302803D53A04D223217E1178C2
:100910000549E59BF45440B52002216830280908B8
:10092000C3E89940011801FD20210A08C3E8994055
:100930000201D601FDC22153E67F759100302C11D2
:100940007594007595F8759104D22043E6800208ED
:10095000D6E5487EFFC3334005C3334001FEC3E400
:100960009E759400F5952146C3E539940150020126
:10097000D630210201D6D802217C01FDC223C2AFAC
:1009800053E67F7591008550948551957591048546
:100990004A92854B93D22043E680D2AFE52554039B
:1009A00060072029020539801030230D202B0A20F2
:1009B0002107158115810215FA227800302102786D
:1009C00001E53D75F007A4F9E5F028F5F0E9A2F09E
:1009D00013A2F113A2F213F53DC394785003753DB1
:1009E00078C3E53D953E400BD222C290C292C2949C
:1009F00075D53F30200221F3854C92854D93D2204E
:100A000043E68022203810C2AFD293C29175D50F31
:100A1000D2AF759F0341D4C2AFD293C29575D53C76
:100A2000D2AF759F0341D4203810C2AFC29475D5A0
:100A300033C291D2AF759F1341D4C2AFC29075D566
:100A400033C295D2AF759F2341D4203810C2AFD2A4
:100A500091C29575D533D2AF759F238077C2AFD23F
:100A600095C29175D533D2AF759F1380672038102A
:100A7000C2AFC29275D53CC295D2AF759F03805468
:100A8000C2AFC29275D50FC291D2AF759F03804499
:100A9000203810C2AFD295C29375D53CD2AF759FA6
:100AA000138031C2AFD291C29375D50FD2AF759F6B
:100AB000238021203810C2AFC29075D50FC293D2C7
:100AC000AF759F23800EC2AFC29475D53CC293D23E
:100AD000AF759F13C22222203E687A147BC880190A
:100AE000203E697A107B8C8010203E6A7A0D7BB4A0
:100AF0008007203E6B7A0B7BC8303F01227902E4ED
:100B0000D293D5E0FDD292D5E0FDC292D5E0FDC2F0
:100B100093D5E0FDE920E002D29030E002D294E5E6
:100B200064D5E0FDE920E002C29030E002C2947496
:100B300096D5E0FDD9C9EAF8D5E0FDD8FBDBBED2F9
:100B400093227A507C507B057D1480407A327C2839
:100B50007B147D2880367A3C7CB47B047D0A802C13
:100B60007A967C327B027D1E80227A647C287B050B
:100B70007D0F80187888E614D23C7AC87C327B03DB
:100B80007D3C80087AC87C507B057D46303F012241
:100B9000EBF8303C15203D091CECB40112B23D804D
:100BA0000E0CECB43209B23D80051CEC70010CEC6B
:100BB000C0E0E8C0E0EDC0E0303B0FC293D290E56A
:100BC00064D5E0FDC290D293800DC293D294E564C7
:100BD000D5E0FDC294D293B23BD0E0FDFED0E0F868
:100BE000D0E0FCF97464D5E0FDDEF9744BD5E0FD8E
:100BF000D9F9203BBAD8B8DA0122DA9422C290C2DD
:100C000092C294D291D293D29575D53F22788076B4
:100C1000FF0876FF0876FF0876FF0876FF0876FF64
:100C20000876090876FF087601788C76010876FF49
:100C30000876FF0876FF0876FF0876FF0876030837
:100C400076FF0876FF0876FF08760A0876F00876C1
:100C5000500876500876030876FF0876020876FF7B
:100C600008767D0876FF0876060876010876FF0884
:100C700076FF08760008760022FA75F00CA4ABF037
:100C8000EAC333F8740133F9E8C333F8E933F9E818
:100C9000C32BF8E93400F9227888E6C39403D23AEA
:100CA0005002C23AC238E630E102D238A238923954
:100CB0007886E6149000809378A6F67886E6F53F6D
:100CC000C394025003753F02789CE6753EFFB40260
:100CD00003753EA0B40303753E8278A0E6F8600673
:100CE00074282409D8FCF5697896E69179883189C9
:100CF00032789EE69179883389347897E6917988BD
:100D000035893671FD223036117A007B007CFF7DFB
:100D1000007E00B16C8B618A6022303A227896E6C0
:100D2000FA7B00789EE6FC7D00C3EA33FAEB33FBE6
:100D3000C3EC33FCED33FD7E0AB16C8B638A6278C1
:100D400096303A02789EE6FA7B007897E6FC7D00C2
:100D50007E00303A10C3EA33FAEB33FBC3EC33FCCA
:100D6000ED33FD7E0AB16C8B618A6022C3EC9EFC80
:100D7000ED9400FDC3EC9AFCED9BFDC3EC9423EDD8
:100D8000940050047C237D00C3EC94FFED9401405B
:100D9000047CFF7D017BFF0B7A000AEA7009C3EC3B
:100DA00033FCED33FDA197EC8AF0A4AEF0ED8AF0B0
:100DB000A42E947C40E4EAF460DD22D236B106121F
:100DC000056A12056A7A007B007C10120562E55400
:100DD0002AFA74003BFBDCF37C04C3EB13FBEA133D
:100DE000FADCF7FFEB60027FFFC236B1062278A57E
:100DF000E6F954037000E9540C7000E954307000B7
:100E0000E954C07000227ADC7B367C02C18C7A3ACD
:100E10007B1D7C02C18C7A3E7B047C02806E7AA4AE
:100E20007B067C0380667ADE7B6E7C02805E7A8441
:100E30007B2B7C0380567A847B1D7C02804E7A5803
:100E40007BAC7C0280467A627B6E7C02803E7A417B
:100E50007BB67C0180367A497B8C7C01802E7A922D
:100E60007B8C7C0180267A4E7B797C01801E7A52B5
:100E70007B677C0180167AA47B677C01800E7A57A1
:100E80007B567C0180067AC47B377C01ECC0E0C2D3
:100E900093D290E564D5E0FDC290D293D0E0FCF906
:100EA000EBFD7817E4D5E0FDD8FAD9F6741ED5E04D
:100EB000FDDDF9DAD72212056A740220310E042012
:100EC000320A04203306042034027401C0E051D7F2
:100ED00012056ED0E0D5E0F42230341EE56EC394E6
:100EE0001E400C941E4002801151E951E9800B51C3
:100EF000E051E012056E51E951E912056E51F251CF
:100F0000F2227567007568007597DE7597AD75817B
:100F1000C043FF8075EF0675A90071FD7580FF75F0
:100F2000F1F075A4007580FF75D4FF75902A75F2F5
:100F30003F75A53F75902A75D53F75A60175E340AD
:100F400075E20271FDE4F8F6D8FD910D12162E78C7
:100F5000988664753001C2AF120572B1EE12057247
:100F6000120572E564147005D23F02117CC23F94F1
:100F70005914601A14600C14603A14600302116D65
:100F8000021081D23E71747174717402117C120569
:100F900072D12612056ED12612056ED12612056E6B
:100FA000D12ED136D12612056ED12ED136D126D1F1
:100FB0002602117C120572D186120566D14ED14EE1
:100FC000120566D166120566D17E120566D18612BB
:100FD0000566D14ED14E120566D166120566D17EE8
:100FE000120566D186120566D14ED14E120566D124
:100FF00066120566D17E120566D186120566120E4E
:101000004E120E4E120566120E66120566120E7E06
:10101000120566120E5E120566120E461205661263
:101020000E0E120566120E4E120566120E5E1205A7
:1010300066120E46120566120E0E120566120E4E4E
:10104000120566120E5E120566120E461205661233
:101050000E0E120566120E4E120566120E5E120577
:1010600066120E46120566120E0E120566120E4E1E
:10107000120566120E7E120E7E120566120E3E21BB
:101080007C120E06120566120E0612056612056621
:10109000120E6E120562120E6E120562120E6E12A2
:1010A0000562120E6E120566120566120E46120ECB
:1010B00046120566120E46120E46120566120566A7
:1010C000120E56120562120E56120562120E5612BA
:1010D0000562120E56120566120566120E3E120EBB
:1010E0003E120566120E3E120E3E1205661205668F
:1010F000120E4E120562120E4E120562120E4E12A2
:101100000562120E4E120566120566120E1E1205BB
:1011100066120E1E120566120566120E1612056282
:10112000120E16120562120E16120562120E161219
:101130000566120566120E06120E061205661205E7
:1011400066120E46120E46120E46120E4612056624
:10115000120566120E3E120E3E120E3E120E3E1288
:101160000566120566120E1E120E1E800F120AD799
:1011700012056A120AE012056A120AE912056AC229
:10118000AF75670075680078FA79FA308507D9FB82
:10119000D8F7021C00120C98120D0678988664127B
:1011A0000BFD75E405758811758E0475890975C880
:1011B0000475910475D84075D90875F781759E033B
:1011C00075960075DA4275DB4275A82175E6907553
:1011D000B801759B80759D0075D10C75BC5975BBA8
:1011E0001075E88075B20112055ED2AF753C00C281
:1011F00030120572C231C232C233C23475220012BB
:10120000056EC3E522940A500241C7D2317522000F
:1012100012056EC3E522940A500241C7C231D23290
:1012200075220012056EC3E522940A500241C7756B
:10123000E4D5758851758E017589AA758C00758DF8
:1012400000C2A9D2ABD2AA756BC0756A14756E5074
:10125000C232D23475220A12056E756A10C3E522B5
:10126000940A4063758E0C756B80756A28756E28BC
:1012700075220A12056E756A20C3E522940A40475A
:10128000758E0C756BC0756A14756E1475220A1212
:10129000056E756A10C3E522940A755300755200F5
:1012A000402575E405758811758E04758909D2A9E4
:1012B000C2ABC2AAC234D23375220012056EC3E596
:1012C0002294034002217F12056220300302117F25
:1012D000C2AF120EB6D2AF120572203403303A03F9
:1012E000021389120562788CE6C394015002618969
:1012F000E530C39401500261897567A57568F17F77
:1013000002D236120D0612056EC2AFC236120D069B
:10131000C3E554947FD2AF407012055EC2AF120A8B
:10132000F2D2AFDFDC120DBBC3EF7897F612057275
:10133000F11B7F0AD236120D0612056EC2AFC236FD
:10134000120D06C3E554947FD2AF50E612055EC27B
:10135000AF120AD7120566120AD7D2AFDFD6120D26
:10136000BBEF24037896F6F87997E7C394234003FC
:10137000985006E824237897F6120572D175F14A41
:1013800012056E120D0602117F7567007568001256
:10139000056EC3E5549401400241DAC2AF12056EF6
:1013A000120ED9D2AF120572753000E4F537F53858
:1013B0000537E537F4703F0538789AE678191460F8
:1013C00012783214600D787D14600878FA14600386
:1013D000753800C3E53898401D120BFD12055E15E7
:1013E0003875370078998664C2AF120B6AD2AF782D
:1013F00098866412056E120566E5237002217FC38C
:10140000E55294015014C3E554940140A312056EB3
:10141000E523700302117F02149AE55294017005CE
:10142000120AD7806DE55294027005120AE08062BC
:10143000E55294037005120AE98057E5529404704E
:1014400005120AF2804CE55294057005120B6A8071
:1014500041E5529407700BE553C3940A503AC238E1
:101460008030E55294087009E553C3940A5029D29C
:1014700038E552940C701B7567A57568F130380F0C
:101480007888E6F6F8D175F14A756700756800123C
:101490000AF275520075530061FFC2AF120BFDE4F2
:1014A000D2AFE4F55EF524F525F53D755E0812052D
:1014B0005E1205C730EDFDA8BDA9BEE97001F88830
:1014C0005F1205CB755E08C2AF755BFF12063285F1
:1014D0005D5B855D5CD2AF303A07C238303502D2F1
:1014E00038D228753900120A90120AB312064A122D
:1014F000065112064A12065112064A1208C812096B
:10150000BA120A041206511208B8202C03120581DF
:10151000302C031205B11209BA120A271206511211
:1015200008C81209BA120A4A1206511208B812095A
:10153000BA120A6D1206511208C81209BA120A909C
:101540001206511205C71208B81209BA120AB312CC
:1015500005CB120651302827855D5B79187A0CC3BC
:10156000E53999400EC228D2298A3B855D5B855DAD
:101570005C800CC3E554940140030214FBC10230AB
:10158000291F202B1CE53B147006C229D22A81FB9F
:10159000F53BC3E554940140030214FB203A02805A
:1015A00061753C0078FA79A4E760027803C3E555D9
:1015B00098504FE523604B303A1720380520350707
:1015C000800F303502800A202B07D22B855D5BA16E
:1015D0002B78F0302B05855D5B7820C3E54898506B
:1015E000030214FB302B1BC22BC238303502D23819
:1015F000D229753B12855D5B81FB053CE554600299
:10160000C105753C00C2AF120BFD752400752500A5
:10161000D2AF12056E120BFD78A4E66006C291C22D
:1016200093C295C3E53C94044002217F61AB901ABC
:101630000D7820D1AEE520B4550AA3D1AEE520B493
:10164000AA0280137567A57568F1120C0DD1757526
:101650006700756800801D901A0378807B0AD1AE00
:10166000A308DBFA901A0F788C7B1AD1AEA308DBA3
:10167000FA901A2922C2AFD1F1D1CE901A0074107B
:10168000D1B3A37442D1B3A37421D1B3901A037818
:10169000807B0AD1B2A308DBFA901A0F788C7B1AF0
:1016A000D1B2A308DBFAF104D1E2901A2922E49323
:1016B000F622E6438F01538FFDFFC3E583941C4060
:1016C0000122EF8567B78568B7F0538FFE22438FFD
:1016D00002438F018567B78568B7901A0DF0538F65
:1016E000FC22901A0D7455D1B3901A0E74AAD1B37E
:1016F000227A3079D07820901A40D1AEE520F709CF
:10170000A3DAF7227A3079D0901A40E7D1B309A34F
:10171000DAF9227C05120572DCFB22C2AF120AD76D
:10172000120AE0120AE9120AF2120566120AD71228
:101730000AE0120AE9120AF2120566120AD7120A20
:10174000E0120AE9120AF2D2AF22C2AF120AF21272
:101750000AE9120AE0120AD7120566120AF2120A00
:10176000E9120AE0120AD7120566120AF2120AE911
:09177000120AE0120AD7D2AF22DE
:1019FD00020F02104221FFFFFFFFFFFF09FF01FF52
:101A0D0055AA01FFFFFFFFFF03FFFFFF0AF0505034
:0D1A1D0003FF02FF7DFF0601FFFF0000FF39
:101A4000234F5F4C5F313523202020202020202091
:101A500023424C48454C492445464D3842313023B9
:101A600031362E36365F6473686F74746573742014
:101C0000C2AFC2D37597DE7597AD7581C075A90057
:101C100043FF80752438752503B1DB7529A5752A26
:101C2000F143F12053A4DFD28575D4FF75E3407DE5
:101C3000FA780379E67C10752200752300901DE880
:101C40007B0675249875250130850281482085081A
:101C5000D8FBD9F9DCF781BA308508D8FBD9F9DC93
:101C6000F781BAB19BE493A3C39A6004DDC381BA40
:101C7000DBDBB18D600281317B08E493FAA3B16EA6
:101C8000DBF87A30B16E752200752300B18DEAFC65
:101C9000EBFDC3ED94FE400EB18D8A278B28ED300D
:101CA000E0048A828B83B18D7AC270D8C3ED94FE32
:101CB000601950CEBD0029EC600F7520007521FF22
:101CC000752900752A000200008100A827A92808AC
:101CD00009D804D90281DDB191EAF281D10D81A642
:101CE000C3ED94035051EDA2E092007AC5C3E582A2
:101CF0009400E583941C508C200010438F02438F86
:101D0000018529B7852AB7F0300027A827A9280818
:101D100009438F01538FFDD804D902A132C3E58353
:101D2000941C4003A3A117E28529B7852AB7F0A325
:101D3000A117538FFC81827AC1BD030CE493A3FAEF
:101D4000B152DCF8B14A81828184AA22AB23B16E00
:101D5000EBFAEA6222752608C3E52313F523E52290
:101D600013F52250066323A0632201D526EAB1DBD6
:101D7000B1DB75260AEAF4200102D285300102C2E5
:101D800085B1DBC3134002C201D526EB22B191EA33
:101D9000FB208502A191308502A196752608AE240C
:101DA000AF25C3EF13FFEE13FEB1DFB1DBC3EA13C0
:101DB0003085024480FA30E703632201C3E5231330
:101DC000F523E52213F52250066323A0632201D5F3
:101DD00026D9E52265236523F52222AE24AF250E00
:101DE0000FDEFEDFFCD20122424C48656C693437BD
:061DF0003164E8B10601B8
:00000001FF
