:020000040000FA
:060000000219FD02030DD0
:030013000204FCE8
:03001B0002008D53
:03002B000202D2FC
:03005B0002050B90
:030073000202FA8C
:100080000406080C10182030406080A0C0C2AFC227
:10009000A853E6EFC28E856C8BC0D0D2D3C0E0C02F
:1000A000F0C2CAA8CCA9CDD2CAD2AF758A00C3E823
:1000B000956DF8E9956EF9C3E913F9E813F8E5676A
:1000C0006007C3E913F9E813F8E97025E8956F4074
:1000D00020956F501CE582B410177C007B007A00DD
:1000E0007908900000A86BE5677004C3E813F80175
:1000F000FA900000D2A8D2AA61B7E0FDC39CC398D1
:1001000040EF98EB33FB0582E0FCC39DC39840E1D0
:1001100098EB33FB0582E0FDC39CC39840D398EB7A
:1001200033FB0582E0FCC39DC39840C598EB33FBCD
:100130000582E0FDC39CC39840B798EB33FB058272
:10014000E0FCC39DC39840A998EB33FB0582E0FD1A
:10015000C39CC398409B98EB33FB0582E0FCC39D96
:10016000C398408D98EB33FB05822175900000D237
:10017000A8D2AA61B7E0FDC39CC39840EF98EA33C8
:10018000FA0582E0FCC39DC39840E198EA33FA0582
:1001900082E0FDC39CC39840D398EA33FA0582E01D
:1001A000FCC39DC39840C598EA33FA0582E0FDC3BD
:1001B0009CC39840B798EA33FA0582E0FCC39DC31C
:1001C0009840A998EA33FA0582E0FDC39CC39840A1
:1001D0009B98EA33FA0582E0FCC39DC398408D9852
:1001E000EA33FA0582EBC46B6A54F0F9EAC454F0BE
:1001F000C3996009900000D2A8D2AA61B7EBF4C4F9
:1002000054F0F9EAF4C4540E49FAEBF4C4540FFB69
:10021000C3EAF99460FAEB9400FB501DC3E97B003C
:100220007A007900601303F9C39552600AE9F55228
:10023000755300790080020553303A27C3EA94D001
:10024000F8EB9407F9400BE8FAE9FB203509D235C1
:100250004157303502C235203902B235C3EA33FA8C
:10026000EB33FBEB2B3B3BF9C3EB13FBEA13FAEA53
:1002700029FAEB3400FB30E3047AFF7BFFE52554D9
:1002800003601B202A18E55E33F9EB7007C3E99A77
:100290004002E9FAE53CC4332AFAEB3400FBC3EA36
:1002A00033C4540FF8EB33C454F048F87005EA60D7
:1002B000027801C3EB13FBEA13FA900000D2A8D234
:1002C000AAE52260021522819B900000D2A8D2AA42
:1002D00061B7C0D0C0E0C2CF0541E523600215235D
:1002E000C3E555600575560041F5E5562401F55600
:1002F00050037556FFD0E0D0D032C2AF53E67F75C1
:1003000092FA7593FFC22053917FD2AF32C0E0E5DD
:100310008A303408856C8BF0A3D0E032D0E0C2AFD5
:1003200053E6EFC0D0C0E0C0F0D2D3D2AF5388EFD5
:10033000A88AA98C758A00758C0043881030331FF9
:10034000E8C4540FFAE9C454F04AFAC3132AFAC3B2
:10035000E833F8E933F9E82AFAE93403FB61A83015
:10036000320FC3E833E933FAE82AFAE93400FB61D3
:10037000A8303115E875F056A4AAF0E975F056A436
:100380002AFAC5F03400FB61A8E875F02BA4AAF0A6
:10039000E975F02BA42AFAC5F03400C313FBEA1365
:1003A000FAC3EB13FBEA13FAC3EB94095009C3EA4F
:1003B000949AEB940350160522E52270021522C38D
:1003C000E5229432500281EF75550081F2E52260FA
:1003D0000215223036067C007D0461E7AC31AD3277
:1003E000303A04AC33AD34C3EA9CFAEB9DFB92087F
:1003F000AE61AF62303A425007203509D2358105EF
:10040000303502C235303504AE63AF64203902B2F4
:1004100035C3EA33FAEB33FBA208500AEAF42401AD
:10042000FAEBF43400FBC3EA9428FAEB9400FB5097
:100430001478007A007B008145A208500878007A81
:10044000007B00819BE52554036019202A16E55E98
:10045000F9EB7007C3E99A4002E9FAE53CC42AFACD
:10046000EB3400FBEA8EF0A4F9AAF0EB8EF0A42A9C
:10047000FAC5F03400FBC3EB13FDEA13F80FEF14D9
:100480006004C3E833F8C3E933EA33FAEB33FBDF44
:10049000EDEB30E20678FF7AFF7B038855D230E837
:1004A0006003755600C3E55CFC955D4002AC5DC31E
:1004B000EC95555008EC75F004A4FAABF0EAF4F8AA
:1004C000EBF45403F9C3E89432FAE99400FB5004C6
:1004D0007A007B00885789588A598B5A75230AD02D
:1004E000F0D0E0D0D053F7DF43F74043E610327549
:1004F000230AD0F0D0E0D0D043E61032C2AAD28E88
:10050000C2CA85CC6D85CD6ED2CA32C2AFC0D0C052
:10051000E0D2D3A8F9E55B30E10AE5FA20E1352025
:10052000E032A12CE5FA30E12B20E028C3E5581396
:10053000F8E55713F5FB88FCC3E55A13F8E55913A2
:10054000F5E988EA85585B53F7BFD2A8303402D268
:10055000AA53E6EF53F7DFD0E0D0D0D2AF32790123
:10056000801479038010790A800C791E80087964E0
:10057000800479C880007817E4D5E0FDD8FAD9F670
:100580002278FF20282879A1E76023E548601F74BE
:10059000FF8548F084853FF030290375F005A4F805
:1005A000C5F0600278FFC3E8955E5002A85E885DE2
:1005B00022C3E54794E4E5489400E55D500314A1A7
:1005C000C2046002F55D2275E89022055FC3E55F15
:1005D0009408405330EDF4A8BDA9BE755F00E9FA58
:1005E00079A0E76041EA7006E5606018800CC3E816
:1005F0009560600EE5605005600A1480070460FA9B
:100600008002E560F560C3956A401B755CC0C394C9
:10061000044013755C80C39404400B755C40C39424
:10062000044003755C0022E55C2410500274FFF561
:100630005C22743279A687F0A4C5F0A2F733F8C320
:10064000E8955C4002A85C885E227547007548F01A
:1006500022C2AFC2CAA8CCA9CDAA4130CF010AD2CA
:10066000CAD2AFAB42AC4388428943C3E89BF8E9A6
:100670009C202808F9302C02E161C1BAAD448A44BB
:10068000F9EA9DFA600678FF79FFC19FAE45AF4653
:100690008B458C46A842A943C3E89EF8E99FF9C35D
:1006A000E54813FBE54713FAE82AF547E93BF54827
:1006B00050067547FF7548FFE107AA47AB48AC47AE
:1006C000AD487E047F02C3EB9404400D1E1FC3EBB4
:1006D000940840052029021E1FC3ED13FDEC13FCF6
:1006E000DEF7C3EA9CFAEB9DFBEF6009C3E913F95F
:1006F000E813F8DFF7EA28FAEB39FB8A478B485012
:10070000067BFF8B478B48C3EB94025002D22C3000
:1007100028047F03E1327892E6FFC3E53D948240EE
:10072000110FC3E53D94A040010FC3EF94064002B2
:100730007F057E02E548C4540FF9E548C454F0F83B
:10074000E547C4540F28F8C3E89EFAE99400FB403B
:1007500009C3EA9401EB940050047A01E4FB020718
:10076000ADAA47AB48EBC4FEEAC4540F4EFCC3EA43
:100770009CFAEB9400FBC3E813C313F8EA28FAEBE6
:100780003400FB8A478B48C3EB94024002C22C78AA
:1007900002EBC4FE7B00EAC4540F4EFAC3EA98FA97
:1007A0004005C3940150027A017892E6FF3020029E
:1007B000E1AD854E92854F93D22043E680C3E49A03
:1007C000F8E49BF9302C0302083BE8FAE9FBD3E993
:1007D00013FDE813FC884E894FC3EF94036038EF94
:1007E00020E00CE82CF8E93DF9ECFAEDFB8013E889
:1007F00028F8E939F9C3E82401F8E93400F97AFF67
:100800007BFFC3EF9403400F8A508B51884A894B7A
:100810008C4C8D4D020870885089518A4A8B4B8CC4
:100820004C8D4D3028127550F07551FF754CF07598
:100830004DFF754EF0754FFF020870E8FAD3E813CC
:10084000FC884EC3EF94036021EF20E007E82CF80A
:10085000ECFA015BE8282401F87AFFC3EF94034027
:10086000098A50884A8C4C02087088508A4A8C4CFD
:100870003020020170753A02D22043E680E525540B
:10088000036034A847A948C3E913F9E813F8C3E99A
:1008900013F9E813F8302804E92440F9C2AF53E60D
:1008A0007F759100C3E498F594E499F595759104EA
:1008B000D22043E680D2AF22D221754900752000B4
:1008C000302B0375204001D6D22175490075204098
:1008D000302B0375200078017901202C20E5255468
:1008E000036002C2217914E548C313700104F8C300
:1008F000941440027814302804781B791B202010AF
:10090000E549600C302803D53A04D223217D1178C3
:100910000549E5BF5440B52002216730280908C3C6
:10092000E89940011801FD20210A08C3E899400216
:1009300001D601FDC22153E67F759100302C11755F
:1009400094007595F8759104D22043E6800208D68C
:10095000E5487EFFC3334005C3334001FEC3E49E38
:10096000759400F5952145C3E5399401500201D6EF
:1009700030210201D6D802217B01FDC223C2AF5330
:10098000E67F759100855094855195759104854A4F
:1009900092854B93D22043E680D2AFE52554036085
:1009A000072029020539801030230D202B0A202131
:1009B0000715811581021642227800302102780144
:1009C000E53D75F007A4F9E5F028F5F0E9A2F0138C
:1009D000A2F113A2F213F53DC394785003753D784C
:1009E000C3E53D953E400ED222C285C286C28775C0
:1009F000D4FF75D50730200221F5854C92854D93A3
:100A0000D22043E68022203813C2AFC291D2907523
:100A1000D47F75D503D2AF75AA5341FAC2AFC29144
:100A2000D29275D4DF75D506D2AF75AA5341FA209C
:100A30003813C2AFC28775D4BF75D505D290D2AF77
:100A400075AA4341FAC2AFC28575D4BF75D505D228
:100A500092D2AF75AA6341FA203813C2AFC290D2C6
:100A60009275D4BF75D505D2AF75AA6341FAC2AFEE
:100A7000C292D29075D4BF75D505D2AF75AA438006
:100A800079203813C2AFC28675D4DF75D506D292ED
:100A9000D2AF75AA538063C2AFC28675D47F75D5B5
:100AA00003D290D2AF75AA538050203813C2AFC280
:100AB00092D29175D4DF75D506D2AF75AA43803A2C
:100AC000C2AFC290D29175D47F75D503D2AF75AA4B
:100AD000638027203813C2AFC28575D47F75D503D4
:100AE000D291D2AF75AA638011C2AFC28775D4DF2D
:100AF00075D506D291D2AF75AA43C22222203E6894
:100B00007A147BC88019203E697A107B8C80102073
:100B10003E6A7A0D7BB48007203E6B7A0B7BC8302F
:100B20003F01227902E4C291D5E0FDD286D5E0FDF5
:100B3000C286D5E0FDD291D5E0FDE920E002D28564
:100B400030E002D287E565D5E0FDE920E002C2850C
:100B500030E002C2877496D5E0FDD9C9EAF8D5E045
:100B6000FDD8FBDBBEC291227A507C507B057D1400
:100B700080407A327C287B147D2880367A3C7CB495
:100B80007B047D0A802C7A967C327B027D1E80223B
:100B90007A647C287B057D0F80187888E614D23C27
:100BA0007AC87C327B037D3C80087AC87C507B0508
:100BB0007D46303F0122EBF8303C15203D091CEC0E
:100BC000B40112B23D800E0CECB43209B23D800586
:100BD0001CEC70010CECC0E0E8C0E0EDC0E0303B84
:100BE0000FD291D285E565D5E0FDC285C291800D19
:100BF000D291D287E565D5E0FDC287C291B23BD0E4
:100C0000E0FDFED0E0F8D0E0FCF97464D5E0FDDE54
:100C1000F9744BD5E0FDD9F9203BBAD8B8DA0122F6
:100C2000DA9422C285C286C287C290C291C29275EE
:100C3000D4FF75D50722788076FF0876FF0876FF07
:100C40000876FF0876FF0876FF0876090876FF0821
:100C50007601788C76010876FF0876FF0876FF0823
:100C600076FF0876FF0876030876FF0876FF087699
:100C7000FF08760A0876F008765008765008760362
:100C80000876FF0876020876FF08767D0876FF086A
:100C900076060876010876FF0876FF087600087663
:100CA0000022FA75F00CA4ABF0EAC333F8740133F8
:100CB000F9E8C333F8E933F9E8C32BF8E93400F96C
:100CC000227888E6F554C39403D23A5002C23AC25D
:100CD00038E630E102D238A23892397886E61490AC
:100CE00000809378A6F67886E6F53FC39402500319
:100CF000753F02789CE6753EFFB40203753EA0B4D2
:100D00000303753E8278A0E6F8600674282409D8AB
:100D1000FCF56A7896E691A288318932789EE69150
:100D2000A2883389347897E691A288358936912351
:100D3000223036117A007B007CFF7D007E00B19767
:100D40008B628A6122303A227896E6FA7B00789E9E
:100D5000E6FC7D00C3EA33FAEB33FBC3EC33FCED76
:100D600033FD7E0AB1978B648A637896303A0278B5
:100D70009EE6FA7B007897E6FC7D007E00303A1014
:100D8000C3EA33FAEB33FBC3EC33FCED33FD7E0AED
:100D9000B1978B628A6122C3EC9EFCED9400FDC387
:100DA000EC9AFCED9BFDC3EC9423ED940050047C85
:100DB000237D00C3EC94FFED940140047CFF7D0192
:100DC0007BFF0B7A000AEA7009C3EC33FCED33FDBC
:100DD000A1C2EC8AF0A4AEF0ED8AF0A42E947C407F
:100DE000E4EAF460DD22D236B13112056A12056AF6
:100DF0007A007B007C10120562E5552AFA74003BEC
:100E0000FBDCF37C04C3EB13FBEA13FADCF7FFEB28
:100E100060027FFFC236B1312278A5E6F95403D2D1
:100E2000837002C283E9540CD2847002C284E954F4
:100E3000307000E954C07000227ADC7B367C02C13D
:100E4000BF7A3A7B1D7C02C1BF7A3E7B047C028064
:100E50006E7AA47B067C0380667ADE7B6E7C0280E1
:100E60005E7A847B2B7C0380567A847B1D7C028097
:100E70004E7A587BAC7C0280467A627B6E7C028024
:100E80003E7A417BB67C0180367A497B8C7C01803E
:100E90002E7A927B8C7C0180267A4E7B797C018035
:100EA0001E7A527B677C0180167AA47B677C018066
:100EB0000E7A577B567C0180067AC47B377C01EC26
:100EC000C0E0D291D285E565D5E0FDC285C291D062
:100ED000E0FCF9EBFD7817E4D5E0FDD8FAD9F6741B
:100EE0001ED5E0FDDDF9DAD722C28312056AD2846D
:100EF000740220310E0420320A0420330604203408
:100F0000027401C0E051FD12056ED0E0D5E0F4227C
:100F100030341EE56FC3941E400C941E40028011B5
:100F2000710F710F800B7106710612056E710F71D2
:100F30000F12056E711871182275680075690075B9
:100F400097DE7597AD7581C043FF8075EF0675A973
:100F500000912375800275F1FF75A4F87580027504
:100F6000D4FF75900075F20775A50775900075D5CB
:100F70000775A60175E34075E2029123E4F8F6D8FF
:100F8000FD913612167678988665753001C2AF12DB
:100F90000572D119120572120572E565147005D239
:100FA0003F0211C1D283C23F945914601A14600CDD
:100FB00014603A1460030211B20210C6D23E719A54
:100FC000719A719A0211C1120572D15912056ED12E
:100FD0005912056ED15912056ED161D169D15912DC
:100FE000056ED161D169D159D1590211C112057271
:100FF000D1B9120566D181D181120566D199120548
:1010000066120EB1120566120EB9120566120E8135
:10101000120E81120566120E99120566120EB11299
:101020000566120EB9120566120E81120E811205A6
:1010300066120E99120566120EB1120566120EB9ED
:10104000120566120E81120E81120566120E991299
:101050000566120EB1120566120E91120566120E89
:1010600079120566120E41120566120E811205668E
:10107000120E91120566120E79120566120E4112B9
:101080000566120E81120566120E91120566120E89
:1010900079120566120E41120566120E811205665E
:1010A000120E91120566120E79120566120E411289
:1010B0000566120E81120566120EB1120EB11205EE
:1010C00066120E7121C1120E39120566120E391206
:1010D0000566120566120EA1120562120EA1120516
:1010E00062120EA1120562120EA1120566120566A9
:1010F000120E79120E79120566120E79120E7912FD
:101100000566120566120E89120562120E89120515
:1011100062120E89120562120E89120566120566A8
:10112000120E71120E71120566120E71120E7112EC
:101130000566120566120E81120562120E811205F5
:1011400062120E81120562120E8112056612056688
:10115000120E51120566120E511205661205661224
:101160000E49120562120E49120562120E4912054D
:1011700062120E49120566120566120E39120E39F8
:10118000120566120566120E79120E79120E791288
:101190000E79120566120566120E71120E71120E8C
:1011A00071120E71120566120566120E51120E5161
:1011B000800F120AFD12056A120B0612056A120B45
:1011C0000F12056AC2AF75680075690078FA79FA7E
:1011D000308107D9FBD8F7021C00120CC1120D3167
:1011E00078988665120C2375E401758811758E0454
:1011F00075890975C80475910475D84075D9087545
:10120000F781759E0375960275DA4275DB4275A803
:101210002175E69075B80175BF8075AB0075D10C6E
:1012200075BC5975BB1075E88075B20112055ED2A8
:10123000AF753C00C230120572C231C232C233C235
:101240003475220012056EC3E522940A5002610C27
:10125000D23175220012056EC3E522940A50026154
:101260000CC231D23275220012056EC3E522940AF7
:101270005002610C75E491758851758E017589AACB
:10128000758C00758D00C2A9D2ABD2AA756CC075E1
:101290006B14756F50C232D23475220A12056E7506
:1012A0006B10C3E522940A4063758E0C756C8075D3
:1012B0006B28756F2875220A12056E756B20C3E5C1
:1012C00022940A4047758E0C756CC0756B14756F4F
:1012D0001475220A12056E756B10C3E522940A7507
:1012E0005300755200402575E401758811758E0410
:1012F000758909D2A9C2ABC2AAC234D23375220001
:1013000012056EC3E5229403400221C41205622037
:1013100030030211C4C2AF120EE9D2AF120572201F
:101320003403303A030213CE120562788CE6C3947C
:1013300001500261CEE530C39401500261CE756860
:10134000A57569F17F02D236120D3112056EC2AF5A
:10135000C236120D31C3E555947FD2AF40701205ED
:101360005EC2AF120B18D2AFDFDC120DE6C3EF780E
:1013700097F6120572F1637F0AD236120D3112050B
:101380006EC2AFC236120D31C3E555947FD2AF5055
:10139000E612055EC2AF120AFD120566120AFDD200
:1013A000AFDFD6120DE6EF24037896F6F87997E7CB
:1013B000C394234003985006E824237897F6120537
:1013C00072D1BDF19212056E120D310211C4756811
:1013D0000075690012056EC3E55594014002611F56
:1013E000C2AFC28412056E120F10D2AF1205727511
:1013F0003000E4F537F5380537E537F4703F053848
:10140000789AE67819146012783214600D787D1499
:10141000600878FA146003753800C3E53898401DF9
:10142000120C2312055E153875370078998665C24F
:10143000AF120B90D2AF7898866512056E120566D2
:10144000E523700221C4C3E55294015014C3E5554D
:10145000940140A312056EE52370030211C4021427
:10146000E2E55294017005120AFD806EE552940285
:101470007005120B068063E55294037005120B0F82
:101480008058E55294047005120B18804DE5529473
:10149000057005120B908042E55294147015E553C7
:1014A000C3940A503BE554B40102C238B4022BD2B3
:1014B000388027E55294157015E553C3940A5020DF
:1014C000E554B40102D238B40210C238800CE5529F
:1014D000940C7006120B18120B18755200755300FD
:1014E0008146C2AF120C23E4D2AFE4F55FF524F5D8
:1014F00025F53D755F0812055E1205C730EDFDA8A4
:10150000BDA9BEE97001F888601205CB755F08C2FD
:10151000AF755CFF120632855E5C855E5DD2AF30D2
:101520003A07C238303502D238D228753900120A4B
:10153000AA120AD312064A12065112064A1206517C
:1015400012064A1208C81209B9120A0612065112E6
:1015500008B8202C03120581302C031205B11209A2
:10156000B9120A2F1206511208C81209B9120A58E4
:101570001206511208B81209B9120A811206511244
:1015800008C81209B9120AAA1206511205C7120890
:10159000B81209B9120AD31205CB12065130282706
:1015A000855E5C79187A0CC3E53999400EC228D261
:1015B000298A3B855E5C855E5D800CC3E5559401A0
:1015C0004003021543C14A30291F202B1CE53B1460
:1015D0007006C229D22AA143F53BC3E555940140C8
:1015E00003021543203A028061753C0078FA79A421
:1015F000E760027803C3E55698504FE523604B300F
:101600003A17203805203507800F303502800A2030
:101610002B07D22B855E5CA17378F0302B05855E9D
:101620005C7820C3E548985003021543302B1BC259
:101630002BC238303502D238D229753B12855E5C18
:10164000A143053CE5556002C14D753C00C2AF1297
:101650000C23752400752500D2AF12056E120C23E1
:1016600078A4E66006D290D291D292C3E53C94046D
:10167000400221C461F2901A0D7820D1F6E520B421
:10168000550AA3D1F6E520B4AA0280137568A575A2
:1016900069F1120C36D1BD756800756900801D9026
:1016A0001A0378807B0AD1F6A308DBFA901A0F7828
:1016B0008C7B1AD1F6A308DBFA901A2922C2AFF16B
:1016C00039F116901A007410D1FBA37442D1FBA318
:1016D0007421D1FB901A0378807B0AD1FAA308DB2E
:1016E000FA901A0F788C7B1AD1FAA308DBFAF14C26
:1016F000F12A901A2922E493F622E6438F01538FB0
:10170000FDFFC3E583941C400122EF8568B785691E
:10171000B7F0538FFE22438F02438F018568B78550
:1017200069B7901A0DF0538FFC22901A0D7455D1A1
:10173000FB901A0E74AAD1FB227A3079D0782090CF
:101740001A40D1F6E520F709A3DAF7227A3079D0EA
:10175000901A40E7D1FB09A3DAF9227C0512057241
:10176000DCFB22C2AF120AFD120B06120B0F120B8A
:1017700018120566120AFD120B06120B0F120B1837
:10178000120566120AFD120B06120B0F120B18D26D
:10179000AF22C2AF120B18120B0F120B06120AFD6A
:1017A000120566120B18120B0F120B06120AFD120D
:1017B0000566120B18120B0F120B06120AFDD2AFA0
:0117C0002206
:1019FD00020F39104221FFFFFFFFFFFF09FF01FF1B
:101A0D0055AA01FFFFFFFFFF03FFFFFF0AF0505034
:0D1A1D0003FF02FF7DFF0601FFFF0000FF39
:101A400023515F4C5F353023202020202020202090
:101A500023424C48454C492445464D3842313023B9
:101A600031362E36365F6473686F74746573742014
:101C0000C2AFC2D37597DE7597AD7581C075A90057
:101C100043FF80752438752503B1DB7529A5752A26
:101C2000F143F10253A4FDD28175D4FF75E3407DE9
:101C3000FA780379E67C10752200752300901DE880
:101C40007B06752498752501308102814820810822
:101C5000D8FBD9F9DCF781BA308108D8FBD9F9DC97
:101C6000F781BAB19BE493A3C39A6004DDC381BA40
:101C7000DBDBB18D600281317B08E493FAA3B16EA6
:101C8000DBF87A30B16E752200752300B18DEAFC65
:101C9000EBFDC3ED94FE400EB18D8A278B28ED300D
:101CA000E0048A828B83B18D7AC270D8C3ED94FE32
:101CB000601950CEBD0029EC600F7520007521FF22
:101CC000752900752A000200008100A827A92808AC
:101CD00009D804D90281DDB191EAF281D10D81A642
:101CE000C3ED94035051EDA2E092007AC5C3E582A2
:101CF0009400E583941C508C200010438F02438F86
:101D0000018529B7852AB7F0300027A827A9280818
:101D100009438F01538FFDD804D902A132C3E58353
:101D2000941C4003A3A117E28529B7852AB7F0A325
:101D3000A117538FFC81827AC1BD030CE493A3FAEF
:101D4000B152DCF8B14A81828184AA22AB23B16E00
:101D5000EBFAEA6222752608C3E52313F523E52290
:101D600013F52250066323A0632201D526EAB1DBD6
:101D7000B1DB75260AEAF4200102D281300102C2E9
:101D800081B1DBC3134002C201D526EB22B191EA37
:101D9000FB208102A191308102A196752608AE2414
:101DA000AF25C3EF13FFEE13FEB1DFB1DBC3EA13C0
:101DB0003081024480FA30E703632201C3E5231334
:101DC000F523E52213F52250066323A0632201D5F3
:101DD00026D9E52265236523F52222AE24AF250E00
:101DE0000FDEFEDFFCD20122424C48656C693437BD
:061DF0003164E8B10601B8
:00000001FF
